:100000000C946D010C9495010C9495010C94950140
:100010000C9495010C9495010C9495010C94950108
:100020000C9495010C9495010C9495010C94DF0CA3
:100030000C9495010C9495010C9495010C949501E8
:100040000C9439150C9495010C94F8130C94D2135C
:100050000C9495010C9495010C9495010C949501C8
:100060000C9495010C9495010C9495010C949501B8
:100070000C9495010C9495010C9495010C949501A8
:100080000C9495010C9495010C9495010C94950198
:100090000C9495010C9495010C9495010C94950188
:1000A0000C9495010C9495010C9495010C94950178
:1000B0000C949501A003A303A603A903AC03AF030B
:1000C000B203B5033E14411434143814621462149C
:1000D000451449144F145314621459145D144641C5
:1000E000494C454420746F2073656E642043414E33
:1000F00000536572766F2000536572766F2000534F
:10010000657474696E67737661726961626C65208B
:10011000005570646174655F7061726100496E734F
:1001200020454550524F4D2067657370656963687F
:100130006572740053686F72743A204576656E7408
:10014000002020204576656E7420004C6F6E673A63
:10015000204E6F64654E6F2000777269746520765B
:10016000617220746F20656570726F6D0000000011
:1001700000240027002A002D002000564152532061
:10018000002000200020000A4556454E54533A00F6
:1001900020000A444556494345204E554D4245529C
:1001A000533A0020000A494E5445524E414C2056C5
:1001B0004152533A0020000A4E4F444520564152C6
:1001C000533A0020000A4E4F444520564152533ABC
:1001D000000A4E554D20564152533A000A4E554D95
:1001E000204556454E545320564152533A000A4E2C
:1001F000554D204556454E54533A000A466C6167AA
:10020000733A000A4E4E3A000A43414E5F49443A5F
:10021000004944454E543A004D454D4F52592044F3
:10022000554D50005374617274706F736974696FC7
:100230006E20536572766F00537461727400507251
:100240006F7A6573736F726665686C6572200041C2
:1002500072647543414E2D536572766F20566572F8
:1002600073696F6E2000536572766F0000000000A6
:100270002300260029002C000404040404040404C0
:100280000202020202020303030303030202030544
:100290000505050102040810204080010204081031
:1002A00020010204081020408040010204080A0DC9
:1002B0000E09000302000004050800000000000011
:1002C00000000000000000000000000000250028E1
:1002D000002B002E000044215F1A11241FBECFEF17
:1002E000D8E0DEBFCDBF11E0A0E0B1E0E0E1FBE48B
:1002F00002C005900D92A43FB107D9F725E0A4EF05
:10030000B1E001C01D92A939B207E1F711E0CCE6D6
:10031000D1E004C02197FE010E943B24CB36D107D7
:10032000C9F70E94631A0C947B250C940000DF929D
:10033000EF92FF920F931F93CF93DF93C0917304BB
:1003400080E794E00E9450057C0100919704109191
:1003500098048017910789F08091F9049091FA042C
:100360000297039750F4CD3009F46FC0C03109F4FF
:1003700084C0C13109F085C39EC0CD3509F482C166
:1003800080F5C33509F4FEC078F4C03109F475C0B6
:1003900020F4CD3009F075C358C0C13109F48BC0C9
:1003A000C23409F4B0C06DC3C63509F406C138F4CF
:1003B000C43509F4ECC0C53509F4F0C062C3C735D3
:1003C00009F41AC1C83509F05CC380913C0494E774
:1003D000909368041093690400936A0480936B04FB
:1003E00030C3C53909F4D1C1F0F4C23709F460C192
:1003F00020F4C13709F44EC144C3C33709F486C1A0
:10040000C53709F03EC360918604609396046093FB
:10041000390482E190E00E94A705809197049091B1
:10042000980422E506C3C23B09F451C238F4C63928
:1004300009F4D5C1CC3909F421C223C3C23D09F462
:1004400079C2C53F09F46DC21CC30115110509F439
:1004500018C38091A3049091A2042091A10436EBCB
:10046000309368041093690400936A0420936B042A
:1004700090936C0480936D04B2C08091F9049091C4
:10048000FA04059709F0FDC2E8E6F4E0119284E071
:10049000E037F807D9F78091A5049091A80420913E
:1004A000A7043091A6044091A2045091A404609145
:1004B000A1047FEE15C08091F9049091FA0405978C
:1004C00001F580919F0490919E0420919D043091AC
:1004D0009C0440919B0450919A046091990472EE9F
:1004E000709368046093690450936A0440936B04AA
:1004F00030936C0420936D0490936E0480936F048A
:1005000072C083E0EAC08091F9049091FA040597E3
:10051000C1F7F0929804E0929704C7010E94B219C3
:10052000809197049091980422E520936804909319
:10053000690480936A0410926B0410926C04109208
:100540006D0410926E0410926F0483E090E090931B
:10055000FA048093F90481E0809367046091A30416
:1005600064606093A3046093490485E190E00E9475
:10057000A7056091A3046093490485E190E00E947F
:10058000A70531C01092FA041092F9047AC283E0F0
:1005900090E09093FA048093F9046CC18091F9047F
:1005A0009091FA04892B09F06CC260E087E190E039
:1005B0000E94A70510923C0464C28091A604909109
:1005C0003C04891B90E7909368041093690400939E
:1005D0006A0480936B0410926C0410926D04109264
:1005E0006E0410926F04DF91CF911F910F91FF90D5
:1005F000EF90DF900C948C18F0903C04FF2009F4ED
:1006000040C28BE20E94CB1880FF04C0C9E099E091
:10061000F92E01C0C0E0E12ED0E082EFD82E8BE2AF
:100620000E94CB1880FF03C0C13109F4C8E08C2FB1
:100630000E94D916FC0180914F04882311F08AE0B2
:100640004CC08381928121813081D0926804E092F4
:10065000690400936A0430936B0420936C049093B4
:100660006D0480936E04D0936F040E948C188823CD
:1006700021F08EED90E00E942716CF5FDF5FFD1224
:10068000CECFFFC1E016F10609F0FBC181E00E9468
:100690006E19F7C1C09186048BE20E94CB1880FFCF
:1006A000DBC18DEF8C0F843108F0D6C183E1D5C159
:1006B000E8E6F4E080E794E011928E179F07E1F7F7
:1006C0000E942B19C82F8FEF8C0F0E94D916FC01A6
:1006D00090914F04992321F086E00E94B918D1C16E
:1006E000838192812181308142EF4093680410938D
:1006F000690400936A0430936B0420936C04909314
:100700006D0480936E04C0936F04A3C1209186048E
:1007100021110BC08BE98093680410936904009346
:100720006A0410926B0488E02DC0822F90E0FC01D7
:100730003197E830F105E0F4E65AFF4F0C943B2482
:100740008091A10416C08091A40413C08091A204DA
:1007500010C08091A6040DC08091A7040AC08091AA
:10076000A80407C08091A50404C08091A30401C01F
:1007700080E09BE9909368041093690400936A04F5
:1007800020936B0480936C045EC180E794E00E9428
:10079000DF15AC01B70185E394E00E946306C82F22
:1007A0000E94C9161092FF041092000510920105D4
:1007B000109202054C2F6FEF74E085E394E00E94E5
:1007C0009708C81389CF6C2F70E020E040E085E3E4
:1007D00094E00E94AB05882309F453C130CFD09137
:1007E0008604CFEFCD0F10918704C13049F41093E8
:1007F000960410933904612F82E190E00E94A705CE
:100800008BE20E94CB1880FF05C08DEF8D0F8431E5
:1008100008F434C18091A8048C17F0F0412F6C2F9C
:1008200085E394E00E94D505809197049091980407
:1008300029E5209368049093690480936A041092D8
:100840006B0410926C0410926D0410926E0410925E
:100850006F040E948C1803C089E00E94B9188C2F85
:1008600065E00E941B249350923020F4C150C09345
:10087000AC0407C181E08093AC0403C10E942B1932
:10088000D82F0E945719C82F8091A7048C1708F4FD
:10089000D6CE4FEF4C0F6FEF6D0F85E394E00E94C3
:1008A000FD0590914F049111CACE9091970420912B
:1008B000980435EB309368042093690490936A049C
:1008C000D0936B04C0936C0480936D04BEC0809180
:1008D000F9049091FA04892B59F50E945719182FA1
:1008E0000E94D916EC0140E0612F85E394E00E945C
:1008F000FD0590914F049111EFCE9B812A813981A2
:10090000488153ED509368044093690430936A041E
:1009100020936B0490936C0410936D0480936E0489
:1009200096C08091F9049091FA04892B09F443C090
:1009300082E0D3CE80E794E00E94DF15182F092FC4
:100940000E945719C82F0E944219D82FF092FF0415
:10095000E092000500930105109302058BE20E94CE
:10096000CB1880FF03C0C83008F4C75F8CEF8C0F32
:10097000843020F093EF9C0F943048F40E94D916F5
:10098000FC0120812093FF048181809300054C2F7E
:100990006FEF74E085E394E00E949708C8139CCE43
:1009A0006C2F70E02D2F40E085E394E00E94AB05B2
:1009B000811145CE39C080E794E00E94DF15082FF1
:1009C000D92E0E945719C82F0E944219D82F0E9471
:1009D0002B19182FF092FF04E0920005D092010528
:1009E000009302054FEF480F6FEF74E085E394E04A
:1009F0000E949708682F70E0212F30E021503109C4
:100A00006217730709F068CE4FEF4C0F2D2F85E367
:100A100094E00E94AB0590E02C2F30E0215031098A
:100A20008217930709F00BCE809197049091980458
:100A300029E5209368049093690480936A041092D6
:100A40006B0410926C0410926D0410926E0410925C
:100A50006F040E948C1815C08FEF8C0F0E94CB186A
:100A600090914F049111EBCD97E990936804109306
:100A7000690400936A04C0936B0484CEC3E1CD0F74
:100A8000C9CE80E0DF91CF911F910F91FF90EF9041
:100A9000DF9008950C94ED240C94ED240C94ED2437
:100AA000FC0193899234A9F180EB890F8B3088F196
:100AB00084EA890F823068F181E9890F873048F133
:100AC00080E7890F8F3028F180E5890F873008F1A2
:100AD00088E4890F8230E8F0292F2F7B2D5B2230AC
:100AE000C0F080E3890F8630A0F088E2890F823061
:100AF00080F083E2890F823060F0933E51F080E114
:100B0000890F823030F0935F973018F080E090E0EA
:100B100008958489958998278927982708950895A5
:100B2000FC0182E591E091838083DF015396CF0140
:100B30004B961D92A817B907E1F7138E148E158EE8
:100B4000168E178E11A210A212A2089508950C9469
:100B5000EB230C94E323CF93FC01DB01878190E02E
:100B60006817790718F081E0840F1DC09385491735
:100B7000D0F7622FC42F492F50E04C5F5F4F4A9F40
:100B800090014B9F300D5A9F300D1124858596851D
:100B9000820F931F4C2F50E04C5F5F4F840F951FC7
:100BA0000E94A7058C2FCF9108951F93CF93DF93B9
:100BB000FC0181858617E8F0142FC62FD0E0FE01D6
:100BC000EE0FFF1FE552FC4F842F90E0918380834E
:100BD0006996CE010E94A905181759F089E591E0A0
:100BE0000E942716612FCE01DF91CF911F910C94A7
:100BF000A705DF91CF911F910895FC01128E878187
:100C00006817B0F42385421798F430E02C5F3F4F0B
:100C1000629FD001639FB00D1124858596858A0F50
:100C20009B1F50E04C5F5F4F840F951F0C94A905EC
:100C30008FEF828F0895AF92BF92CF92DF92EF92A3
:100C4000FF920F931F93CF93DF93EC018F81A3E566
:100C5000B3E0E7E9F3E090E0E62EF12CC42ED12CCE
:100C600030E010E09817F9F0611102C0442369F0F8
:100C7000AD90BC901197EA14FB0489F49296AD9064
:100C8000BC909397CA14DB0451F4A080B1802A155C
:100C90003B0529F4A2A0B3A00A151B0541F09F5FF4
:100CA00012963296DFCF9A8581E0890F01C0892F95
:100CB000DF91CF911F910F91FF90EF90DF90CF9038
:100CC000BF90AF9008950F93252F042F462F672FC5
:100CD0000E941B060F910895AF92BF92CF92DF92B0
:100CE000EF92FF920F931F93CF93DF93EC017B0161
:100CF000FB01E858FF4F108180912102882309F4FD
:100D000065C189E791E00E943516812F0E94C916BE
:100D1000112309F45DC1809121028823D1F189E872
:100D200091E00E943516812F0E94C91685E991E055
:100D30000E943516CE010E949F1597012E5F3F4FEE
:100D40006901882339F0CE010E94B415AC0160E03E
:100D500070E009C0CE010E94DF155C01CE010E9447
:100D60005005A501BC01C6010E946306F701ED58BC
:100D7000FF4F9081891730F440E0682FC6010E9430
:100D8000FD0501C080E00E94C9168CEA91E00E9436
:100D9000F3188FEF810F813108F0BEC1209121023D
:100DA000883009F069C0222321F080EA91E00E9496
:100DB000F31880911A02882309F4AEC1E3E9EE2EFC
:100DC000E2E0FE2E02E212E0C0E0D0E0F4E0AF2E5E
:100DD000B12CA8E1CA2EA5E1DA2EE0918102F091B2
:100DE00082020C2E02C0F595E7950A94E2F7E170B5
:100DF000FF27EA0DFB1DEE0FFF1FE55DFD4F808114
:100E0000918174E0880F991F7A95E1F7A601481B3C
:100E1000590BF70151834083F8011082219680918C
:100E200021028823E1F084EA91E00E9435166AE00D
:100E300070E0CE010E9478168DED91E00E9435168B
:100E40006AE070E0F701808191810E9478168DED53
:100E500091E00E943516F80180810E94C916F5E0E4
:100E6000AF0EB11C22E0E20EF11C0F5F1F4FC83025
:100E7000D10509F0B2CF50C1893010F08EEF810F4B
:100E8000E0918102F0918202982F9770943028F0BF
:100E90008450883040F091E003C08830C0F090E08A
:100EA00084509923A1F041E050E060E070E0082E0A
:100EB00004C0440F551F661F771F0A94D2F7E42B16
:100EC000F52BF0938202E0938102E1E015C041E04E
:100ED00050E060E070E0082E04C0440F551F661F0C
:100EE000771F0A94D2F7409550954E235F23509375
:100EF000820240938102E0E0082F10E0E801CC0F6D
:100F0000DD1FDE01AD56BD4FF0E035E0839FE00D03
:100F1000F11D1124EE0FFF1FED5CFD4F608171810B
:100F200054E0660F771F5A95E1F748E155E1461BFB
:100F3000570B4D935C9340912A0250E0BA0102C0D6
:100F4000759567958A95E2F7F801EE5DFD4F7F0193
:100F500060FF03C085E0808301C01082222309F472
:100F6000DBC084EA91E00E9435166AE070E0C801B7
:100F700001960E9478168DED91E00E943516FE01D3
:100F8000ED56FD4F6AE070E0808191810E947816F5
:100F90008DED91E00E943516CD57DD4F6AE070E08F
:100FA000888199810E9478168DED91E00E94351616
:100FB000F7018081DF91CF911F910F91FF90EF900A
:100FC000DF90CF90BF90AF900C94C9161111E1CE75
:100FD0008B81883009F580911A028823E9F08AE232
:100FE0000E94CB18409181025091820290E08417B8
:100FF000950749F08091A8048A3228F06AE285E3D7
:1010000094E00E94D50580912102882309F484C0D0
:101010008DE191E00E94271680912102882309F436
:101020007BC0CE010E948A15882389F08BE491E071
:101030000E940C16CE010E9450050E94ED1881E41A
:1010400091E00E940C16CE010E94DF150CC0CE016B
:101050000E949F158823B9F084E391E00E940C164A
:10106000CE010E94B4150E94ED188AEA91E0DF914A
:10107000CF911F910F91FF90EF90DF90CF90BF9095
:10108000AF900C94FA158DEA91E00E94351660E15C
:1010900070E08B810E94BB1683EB91E00E943516B5
:1010A000CE010E9450050E94ED188BEB91E00E944A
:1010B00035162B8DF0E12F9F900111248C8D829598
:1010C00086958770822B8A836AE070E00E94BB1647
:1010D00084EC91E00E9435168B8990E025E095958F
:1010E00087952A95E1F78C836AE070E00E94BB1631
:1010F00083ED91E00E9435168091F9049091FA04F5
:10110000DF91CF911F910F91FF90EF90DF90CF90E3
:10111000BF90AF900C94DD18DF91CF911F910F918C
:10112000FF90EF90DF90CF90BF90AF900895CF9257
:10113000DF92EF92FF921F93CF93DF93FC01128512
:10114000411718F081E0810F4DC0142FFB01DC0125
:10115000842F90E0EC01CC0FDD1FCD5ADC4F2081B5
:1011600030E039832883EC01CC0FDD1FCB58DC4FF6
:10117000218130E039832883EC01CC0FDD1FC95673
:10118000DC4F228130E039832883EC01CC0FDD1F56
:10119000C754DC4F238130E0398328831B962C9180
:1011A0001B9730E02C5F3F4F289F7001299FF00C68
:1011B000389FF00C11241D968D919C911E97E80E7E
:1011C000F91E6B0184E0C80ED11CEB01E61AF70A88
:1011D000C7018C0F9D1F69910E94A705CC15DD05E5
:1011E000B9F7812FDF91CF911F91FF90EF90DF90A2
:1011F000CF900895FC0180E090E0238530E08217D5
:1012000093073CF4A281B381A80FB91F1C920196E9
:10121000F4CF83E68483158287EC86831782148A51
:101220000895BF92CF92DF92EF92FF920F931F9398
:10123000CF93DF9300D000D0CDB7DEB78C010E94F2
:10124000FA08F8018285878319821A8282E48B83E7
:101250008CEC8C83C12CD12CE12CF12CBE2C4E2D8E
:10126000BE016F5F7F4FC8010E94970820E040E0F9
:10127000B701C8010E94AB058C818F5F8C838111FF
:1012800003C08B818F5F8B8344E04B0DBE016F5F8A
:101290007F4FC8010E94970820E040E0B7016C5FD3
:1012A0007F4FC8010E94AB058C818F5F8C838111B9
:1012B00003C08B818F5F8B838FEFE81AF80AEFEF03
:1012C000CE1ADE0AF8E0CF16D10441F0F4E0CF16D2
:1012D000D10421F699E0E92EF12CC0CF19821A82AF
:1012E00082E18B8387E68C8348E0BE016F5F7F4F8E
:1012F000C8010E94970820E040E068E070E0C80163
:101300000E94AB0542E060E0C8010E94D50543E6BB
:1013100061E0C8010E94D50582E0F82E40E06F2D03
:10132000C8010E94D50561E06F0D4BE4C8010E9421
:10133000D50562E06F0D41EEC8010E94D50563E05E
:101340006F0D4DE0C8010E94D50564E06F0D4DE0C2
:10135000C8010E94D50585E0F80EEAE2FE12DECF54
:1013600040E06BE2C8010E94D50540E06AE2C80196
:101370000E94D50569E580E090E00E94A705F8018C
:10138000648182E190E00E94A705F801658183E114
:1013900090E00E94A705F801668184E190E00E9438
:1013A000A705F801648985E190E00E94A705F8018E
:1013B000678187E190E00E94A705F801638588E1D5
:1013C00090E00E94A705C8010E94F4090F900F90B9
:1013D0000F900F90DF91CF911F910F91FF90EF90A1
:1013E000DF90CF90BF900895CF93DF93EC010E94E0
:1013F000FA0880E090E00E94A905893519F0CE0135
:101400000E94110982E190E00E94A9058C8383E18A
:1014100090E00E94A9058D8384E190E00E94A905D7
:101420008E8385E190E00E94A9058C8B87E190E096
:101430000E94A9058F83DF91CF9108952AE631E0BC
:10144000FC013183208382819381009711F00C94F9
:10145000ED240895CF93DF93EC010E941E0ACE0184
:10146000DF91CF910C94ED2422E731E0FC01219330
:101470003193CF010C941E0ACF93DF93EC010E94AD
:10148000340ACE01DF91CF910C94ED2408952F9270
:101490003F924F925F926F927F928F929F92AF9204
:1014A000BF92CF92DF92EF92FF920F931F93CF9351
:1014B000DF9300D000D01F92CDB7DEB780E00E944E
:1014C000CB188B83817080931A0278EFC72E71E05E
:1014D000D72E76011A82198200E010E0802F0E9438
:1014E000D916FC0182819381982789279827F701D3
:1014F000819391937F01C801019629813A812F5FE1
:101500003F4F3A8329832131310549F029813A81BE
:101510002830310511F4C80102968C01DFCF8BE22F
:101520000E94CB18881F8827881F809321020BE216
:1015300012E01D830C8366246394712C52E0552EB7
:10154000E12CF12C812C912C54018394852D0E9447
:10155000CB1890E0EC81FD819783868320843184D1
:1015600044244394450C842D0E94CB1890E0281607
:10157000390601F1842D0E94CB1890E0EC81FD81A9
:1015800091878087C701880F991FA501940104C026
:10159000220F331F441F551F8A95D2F7DA01C90164
:1015A00020911B0230911C02822B932B90931C02E2
:1015B00080931B0217013FEF231A330AEC81FD8150
:1015C0000284F385E02DFA83E98322E0422E450C64
:1015D000842D0E94CB1890E029813A812817390781
:1015E000E1F0842D0E94CB1890E0EC81FD8193877F
:1015F000828720911B0230911C02D501C401062C68
:1016000004C0880F991FAA1FBB1F0A94D2F7822B10
:10161000932B90931C0280931B0283E0850D0E9404
:10162000CB1890E0EC81FD819587848784E0850D5F
:101630000E94CB1890E0EC81FD8197878687852DED
:101640000E94CB1820912A0282FF0BC0D501C40151
:1016500004C0880F991FAA1FBB1FEA94D2F7822BE0
:101660000BC0D501C40104C0880F991FAA1FBB1F5E
:10167000EA94D2F78095822380932A0255E0550E92
:101680008C819D810A969D838C8392E0690E711CEA
:10169000EAE25E1611F0710159CF80911B02909120
:1016A0001C02892B09F057C02091AC04223008F4A9
:1016B00052C02231D1F040F4283099F0213199F014
:1016C0002730C1F428E016C02C3189F020F42B31EA
:1016D00089F42CE10FC0253261F0263259F425E25D
:1016E00009C027E007C022E105C021E103C02BE1CA
:1016F00001C026E230E022503109C90165E070E006
:101700000E942724660F771F21703327260F371F6B
:1017100081E090E0A0E0B0E004C0880F991FAA1F0C
:10172000BB1F2A95D2F790931C0280931B0281E184
:1017300091E00E940C166AE070E080911B0290918B
:101740001C020E9478168DED91E00E943516809162
:10175000AC040E94C91680911B0290911C02892B37
:1017600081F08091A4029091A502A091A602B0916F
:10177000A70280931D0290931E02A0931F02B093B4
:1017800020021092AC048FEF90E00E940C168B8127
:101790000E94C91680912102882309F4F8C02BE227
:1017A00032E03A832983A12CB12C88EF90E00E948B
:1017B0000C1675013FEFE31AF30A6AE070E0C70107
:1017C0000E9478168CED91E00E943516F601819109
:1017D00091916F010E94ED188DED91E00E943516F8
:1017E000F601868197810E94ED188DED91E00E94AF
:1017F00035166AE070E0E981FA81868197810E945E
:1018000078168DED91E00E9435166AE070E0E9816E
:10181000FA81808591850E9478168DED91E00E9475
:1018200035166AE070E0E981FA81828593850E942D
:1018300078168DED91E00E9435166AE070E0E9813E
:10184000FA81848595850E9478168DED91E00E943D
:1018500035166AE070E0E981FA81868597850E94F5
:1018600078168DED91E00E94351680912A0290E065
:1018700002C095958795AA94E2F7817099270E94F6
:10188000DD1829813A81265F3F4F3A83298357012A
:1018900034E0E316F10409F088CF88E0E82E82E016
:1018A000F82E44E050E05A83498381EF90E00E9493
:1018B0000C16C980DA805FEFC51AD50A6AE070E0BD
:1018C000C6010E9478168CED91E00E943516F70152
:1018D000819191917F010E94ED188DED91E00E9420
:1018E0003516F701868197810E94ED188DED91E004
:1018F0000E9435166AE070E0F80186A597A50E945F
:1019000078168DED91E00E9435166AE070E0F801DE
:1019100080A991A90E9478168DED91E00E9435165C
:101920006AE070E0F80182A993A90E9478168DED13
:1019300091E00E9435166AE070E0F80184A995A94B
:101940000E9478168DED91E00E9435166AE070E0F5
:10195000F80186A997A90E9478168DED91E00E9462
:10196000351680912A0290E0098002C095958795EE
:101970000A94E2F7817099270E94DD18065F1F4FD5
:10198000DA82C98296012830310509F08ECF0F9096
:101990000F900F900F900F90DF91CF911F910F91AB
:1019A000FF90EF90DF90CF90BF90AF909F908F907F
:1019B0007F906F905F904F903F902F9008951F926F
:1019C0000F920FB60F9211242F933F934F935F9373
:1019D0008F939F93AF93BF938091F6019091F701FE
:1019E0000097D9F420918302309184028091F40110
:1019F0009091F501820F931F9093F5018093F4016C
:101A0000283833410CF4739A209188003091890072
:101A10008091830290918402AEC081309105B1F42F
:101A2000739880918502909186022091F401309103
:101A3000F501280F391F3093F5012093F401883800
:101A400023E192070CF093C0729A91C08230910505
:101A5000B1F4729880918702909188022091F401EC
:101A60003091F501280F391F3093F5012093F401CF
:101A7000883823E192070CF07AC0459A78C0833009
:101A80009105B1F445988091890290918A02209144
:101A9000F4013091F501280F391F3093F50120939F
:101AA000F401883823E192070CF061C0449A5FC0CA
:101AB00084309105B1F4449880918B0290918C020E
:101AC0002091F4013091F501280F391F3093F50171
:101AD0002093F401883823E192070CF048C0439A20
:101AE00046C085309105A9F4439880918D0290916C
:101AF0008E022091F4013091F501280F391F3093A7
:101B0000F5012093F401883823E1920784F5429A85
:101B10002EC086309105A9F4429880918F02909151
:101B200090022091F4013091F501280F391F309374
:101B3000F5012093F401883823E19207C4F4419A17
:101B400016C0079741F541988091910290919202B9
:101B50002091F4013091F501280F391F3093F501E0
:101B60002093F401883823E192070CF4409A2091E5
:101B7000880030918900820F931F90938900809391
:101B800088008091F6019091F70101969093F701FA
:101B90008093F60131C040984091F4015091F501D5
:101BA000483588E9580788F42091880030918900E9
:101BB00088E598E9A0E0B0E0841B950BA109B10984
:101BC000880F991F820F931F06C080918800909103
:101BD00089008A569F4F90938900809388001092C5
:101BE000F5011092F4011092F7011092F601809124
:101BF000A3028F5F8093A302BF91AF919F918F91BA
:101C00005F914F913F912F910F900FBE0F901F90BA
:101C100018958F929F92AF92BF92CF92DF92EF92E0
:101C2000FF920F931F93CF93DF93809186058F3F91
:101C300029F4809185058F3F09F44FC00E942D152E
:101C40000091890510918A0520918B0530918C05B2
:101C5000DC01CB01801B910BA20BB30B84369105E9
:101C6000A105B105D0F18091F9049091FA0405978E
:101C7000A9F480918805813041F460E08091860567
:101C80000E946314109288051EC061E08091860551
:101C90000E94631481E08093880515C080916704D9
:101CA000813039F460E0809185050E94631461E021
:101CB00006C061E0809185050E94631460E0809118
:101CC00086050E9463140E942D1560938905709308
:101CD0008A0580938B0590938C0520918D052F3F6D
:101CE00071F130E0F901E255FD4F8491F901ED56B3
:101CF000FD4FD491F901E858FD4FC491CC2379F000
:101D000081110E942A14EC2FF0E0EE0FFF1FE4591E
:101D1000FD4FA591B491EC91ED2309F055C380914D
:101D20008E05813061F40E942D156093FB04709341
:101D3000FC048093FD049093FE0410928E05809124
:101D4000F9049091FA04049709F07CC00E942D15C3
:101D50000091FB041091FC042091FD043091FE04DD
:101D6000DC01CB01801B910BA20BB30B893E93408E
:101D7000A105B10508F466C083E090E09093FA04F1
:101D80008093F90440917F05A0E0B5E081E08417DD
:101D900040F020917F0530E0EFEFF4E080E090E04C
:101DA00017C02D919FEF980FE92FF0E0EF01C15080
:101DB000DB4F3881E050FB4F231718F430839150EC
:101DC000F3CF20838F5FE3CF4191C41730F00196AA
:101DD000C1E0C80F82179307BCF3C43640F080916E
:101DE000AA04882379F187E00E94B9182BC0C09318
:101DF00039046C2F82E190E00E94A705C0939604FD
:101E00008091AA048823F1F080919704909198041E
:101E100022E5209368049093690480936A041092E9
:101E20006B0410926C0410926D0410926E04109268
:101E30006F046C2F70E080E090E028E634E043E02F
:101E40000E949B17C1E0D0E08BE8E82E84E0F82EDA
:101E500097E6C92E95E0D92E11E029E5B22E109211
:101E6000AB048091F3049091F404892B09F056C3DC
:101E7000D093F404C093F3048091F7049091F80494
:101E8000181619062CF01092F4041092F30446C3AD
:101E90008091F5049091F604CC9724F01092F6040A
:101EA0001092F504E9E5F5E0A091F504B091F6048F
:101EB000AD54BB4F12968C9181938091F504909113
:101EC000F60401969093F6048093F5048091F7044C
:101ED0009091F80401979093F8048093F70445E0FB
:101EE000E836F40709F71092F4041092F304E3E8DB
:101EF000F4E01192EE16FF06E1F710928F041092B3
:101F0000910410929004109292048091590580934C
:101F1000750480915B0580938B0480915C058093B0
:101F20008C0480915D0580938D0480915E05809383
:101F30008E04EFE5F5E08191DF01AD5DB1098C9391
:101F4000CE16DF06C1F7809183048093730484303A
:101F500008F4B4C0873009F4B1C0282F2F7B2F3389
:101F600009F4ACC092EA980F923008F4A7C0982FF9
:101F70009F7D9F3909F4A2C0863B09F49FC08F3D25
:101F800009F49CC03CEF380F333008F49AC038EFA6
:101F9000380F333008F495C03FED380F333008F474
:101FA00090C0803409F48DC03CEB380F373008F412
:101FB00088C08C3409F485C0382F3F7740EA430F3E
:101FC000423008F47EC0333609F47BC0903809F4FF
:101FD00078C03EE7380F343008F473C0823A09F411
:101FE00070C030E4380F323008F46BC036EA380F76
:101FF000323008F469C030E7380F353008F464C077
:1020000038E6380F333008F45FC09D59923008F439
:102010005BC0982F977F905B923008F455C09DE489
:10202000920F923008F450C091E3980F933008F467
:102030004BC09CE2980F923008F446C098E2980F8B
:10204000923008F441C093E2980F9230E8F190E1A9
:10205000980F9230C8F19AE0980F9630A8F193E06B
:10206000980F933088F194EF980F923080F190EFB1
:10207000980F923060F1823451F190EB980F9A30C2
:1020800030F194EA980F923010F191E9980F97305F
:10209000F0F09BE6980F9330D0F095E6980F9230D1
:1020A000B0F0223BA1F0253B91F09EE2980F9230D8
:1020B00070F0823E61F08F3E69F409C084E090E0E8
:1020C0000BC081E090E008C083E090E005C082E0B2
:1020D00090E002C080E090E09093770480937604D3
:1020E00080915A0581111093920480E00E94CB18D0
:1020F00081FB002700F980E794E00E948A15A82E52
:10210000882319F0002309F4DDC180E794E00E94E0
:102110009F158823C1F080E794E00E94B4154C011C
:102120000097B1F0AC0160E070E085E394E00E94BC
:10213000630620913F0430E0482F50E02417350714
:102140000CF4E0C134C0AA20E1F00130D1F404C0A5
:10215000AA2079F1013069F580E794E00E94DF154B
:10216000009779F0AC0160E070E085E394E00E94B4
:10217000630620913F0430E0482F50E024173507D4
:10218000B4F480E794E00E94B4154C01892B89F0E7
:10219000A40160E070E085E394E00E946306209172
:1021A0003F0430E0482F50E02417350714F08F5FCC
:1021B00001C080E08093AB0480919204882389F071
:1021C0008091970490919804892B59F0609196041E
:1021D00070E080E090E028E634E040E00E949B1749
:1021E0003ECE209173042D3581F480E794E00E9467
:1021F000500520919704309198048217930709F0B5
:102200002ECE81E00E946E192ACE4091F9045091A1
:10221000FA044430510501F58091750481111FCEF7
:1022200020917F05233608F01ACE80918B0430E18F
:10223000839FC001112490918C049295969597707C
:10224000892B80937204E22FF0E0E150FB4F8083F2
:102250002F5F20937F0503CE8091760490917704C1
:10226000452B09F074C030916704311170C002979A
:1022700029F4223D19F0253F09F03DC180E794E0A3
:102280000E94DF15082F892E80E794E00E945005F8
:102290009093FF048093000580920105009302054E
:1022A00090903C04A0903F049A1418F001E00A0DAD
:1022B00011C0282D482F692F85E394E00E941B064A
:1022C000A81638F4492D6FEF74E085E394E00E947E
:1022D0009708082F8091A604801710F484E01DC091
:1022E00080917304823D11F0853FD1F40E9457190B
:1022F000982E0E9442194FEF490D602F70E0282F51
:1023000085E394E00E94AB0590E0292D30E0215058
:1023100031098217930721F086E00E94B9189FCDFA
:102320008091970490919804B09268049093690406
:1023300080936A0410926B0410926C0410926D04E6
:1023400010926E0410926F040E948C1888CD823017
:10235000910541F138F4019751F5E0918205F09132
:10236000830518C0E0918005F091810583309105C7
:1023700019F0049731F01BC08091A30480FD17C0B1
:1023800009C08091A30480FD12C0273009F0B6C0B7
:102390000C940000309759F063E374E080E794E018
:1023A000099505C00E949701882309F458CDE09152
:1023B0008005F0918105309709F451CD63E374E015
:1023C00080E794E009954BCD80918E058111B7CCC3
:1023D00081E080938E050E942D150091FB041091E1
:1023E000FC042091FD043091FE04DC01CB01801B34
:1023F000910BA20BB30B8C019D01095E13402109C7
:1024000031090738134121053105C0F420916704D3
:102410008091F9049091FA04213061F4059739F420
:1024200083E090E09093FA048093F90488CC0E94B2
:10243000131985CC059709F082CCF2CF81379741EB
:10244000A105B10508F47BCC80916704811117C008
:102450008091F9049091FA04059711F360E080915E
:1024600085050E94631480E00E946E198091F90432
:102470009091FA040497D9F60E94090EF7CF1092B2
:1024800067046091A3046B7F6093A3046093490485
:1024900085E190E00E94A7058091A30481FD07C01B
:1024A000109298041092970480E090E008C0809108
:1024B000AD049091AE0490939804809397040E9489
:1024C000B2193DCC80E794E00E94DF154C0180E713
:1024D00094E00E945005A401BC0185E394E00E94B1
:1024E000630620913F0430E0482F50E02417350761
:1024F0000CF40BCE5CCE0E949701B1CC2E3509F4C2
:1025000047CF48CFAA2009F443CE013009F424CEA6
:1025100080E794E00E94B4154C013ACE80E0DF9150
:10252000CF911F910F91FF90EF90DF90CF90BF90D0
:10253000AF909F908F900895FF920F931F93CF932A
:10254000DF93182FF62EC72FD42F60E08091600400
:102550000E94631483E00E948315812F0E948315DB
:102560000F2D1C2FC0E0CD1751F0C83041F080E096
:102570000E948315F80181938F01CF5FF4CF61E052
:1025800080916004DF91CF911F910F91FF900C9487
:102590006314CF92DF92EF92FF920F931F93CF932A
:1025A000DF936C017A018B01C0E0D0E0CE15DF052E
:1025B00081F0D8016D918D01D601ED91FC910190D2
:1025C000F081E02DC6010995892B11F02196EECFFF
:1025D0007E01C701DF91CF911F910F91FF90EF9086
:1025E000DF90CF900895FC01918D828D981761F056
:1025F000828DDF01A80FB11D5D968C91928D9F5F3A
:102600009F73928F90E008958FEF9FEF0895FC01E4
:10261000918D828D981731F0828DE80FF11D858D97
:1026200090E008958FEF9FEF0895FC01918D228D2A
:10263000892F90E0805C9F4F821B91098F739927AF
:10264000089586EB92E00E94151321E0892B09F48E
:1026500020E0822F0895FC01848DDF01A80FB11DB9
:10266000A35ABF4F2C91848D90E001968F739927C8
:10267000848FA689B7892C93A089B1898C918064B5
:102680008C93938D848D981306C00288F389E02D76
:1026900080818F7D80830895EF92FF920F931F9327
:1026A000CF93DF93EC0181E0888F9B8D8C8D981305
:1026B00005C0E889F989808185FD24C0F62E0B8D3F
:1026C00010E00F5F1F4F0F731127E02E8C8DE81263
:1026D0000CC00FB607FCFACFE889F989808185FF25
:1026E000F5CFCE010E942B13F1CF8B8DFE01E80FA9
:1026F000F11DE35AFF4FF0820B8FEA89FB8980813D
:10270000806207C0EE89FF896083E889F98980814A
:102710008064808381E090E0DF91CF911F910F91E1
:10272000FF90EF900895CF93DF93EC01888D88237D
:10273000C9F0EA89FB89808185FD05C0A889B9892E
:102740008C9186FD0FC00FB607FCF5CF808185FF09
:10275000F2CFA889B9898C9185FFEDCFCE010E9477
:102760002B13E7CFDF91CF91089580E090E0892B84
:1027700021F00E94211381110DC080E090E0892B8F
:1027800071F080E090E0892B51F00E9400008111EF
:1027900004C008950E940000F0CF0C94000008953A
:1027A0000E9476251F920F920FB60F9211242F933D
:1027B0003F934F935F936F937F938F939F93AF93C9
:1027C000BF93EF93FF9386EB92E00E942B13FF9150
:1027D000EF91BF91AF919F918F917F916F915F9199
:1027E0004F913F912F910F900FBE0F901F90189512
:1027F0001F920F920FB60F9211242F938F939F93D6
:10280000EF93FF93E091C602F091C7028081E091BF
:10281000CC02F091CD0282FD12C090818091CF0256
:102820008F5F8F732091D002821751F0E091CF0219
:10283000F0E0EA54FD4F958F8093CF0201C0808174
:10284000FF91EF919F918F912F910F900FBE0F905D
:102850001F90189590E0FC013297ED30F10590F54E
:10286000EE59FF4F0C943B24809180008F7703C07A
:10287000809180008F7D80938000089584B58F774C
:1028800002C084B58F7D84BD08958091B0008F779C
:1028900003C08091B0008F7D8093B0000895809137
:1028A00090008F7703C0809190008F7D809390007F
:1028B00008958091A0008F7703C08091A0008F7D44
:1028C0008093A00008951F93CF93DF93282F30E0CB
:1028D000F901E255FD4F8491F901ED56FD4FD49178
:1028E000F901E858FD4FC491CC23C1F0162F811196
:1028F0000E942A14EC2FF0E0EE0FFF1FE753FD4F6C
:10290000A591B4919FB7F894111104C08C91D09502
:10291000D82302C0EC91DE2BDC939FBFDF91CF91D7
:102920001F910895CF93DF9390E0FC01ED56FD4F8A
:102930002491FC01E858FD4F8491882361F190E0D7
:10294000880F991FFC01E359FE4FC591D491FC01FA
:10295000E753FD4FA591B491611109C09FB7F89459
:102960008881209582238883EC912E230BC06230CE
:1029700061F49FB7F8948881322F30958323888340
:10298000EC912E2B2C939FBF06C08FB7F894E88153
:102990002E2B28838FBFDF91CF9108953FB7F894F6
:1029A0008091B2029091B302A091B402B091B502AD
:1029B00026B5A89B05C02F3F19F00196A11DB11D9A
:1029C0003FBFBA2FA92F982F8827820F911DA11DD5
:1029D000B11DBC01CD0142E0660F771F881F991F12
:1029E0004A95D1F708958F929F92AF92BF92CF925E
:1029F000DF92EF92FF926B017C010E94CE144B019B
:102A00005C01C114D104E104F104F1F00E94CE1480
:102A1000DC01CB0188199909AA09BB09883E9340BA
:102A2000A105B10570F321E0C21AD108E108F1084F
:102A300088EE880E83E0981EA11CB11CC114D1043D
:102A4000E104F10419F7DDCFFF90EF90DF90CF9014
:102A5000BF90AF909F908F9008952FB7F89460919A
:102A6000AE027091AF028091B0029091B1022FBF7F
:102A700008951F920F920FB60F9211242F933F9338
:102A80008F939F93AF93BF938091AE029091AF02CB
:102A9000A091B002B091B1023091AD0223E0230FBA
:102AA0002D3720F40196A11DB11D05C026E8230F86
:102AB0000296A11DB11D2093AD028093AE029093AA
:102AC000AF02A093B002B093B1028091B202909194
:102AD000B302A091B402B091B5020196A11DB11D3F
:102AE0008093B2029093B302A093B402B093B50264
:102AF000BF91AF919F918F913F912F910F900FBEFA
:102B00000F901F9018958EBD00000DB407FEFDCFED
:102B10008EB50895FC019381892F8F7D8059823075
:102B200058F080E3890F823038F081E0903F31F037
:102B3000913F21F080E0089581E008950895FC011F
:102B40009381892F8F7D8859823058F088E2890FD0
:102B5000823038F081E0983F31F0993F21F080E0F9
:102B6000089581E008950895FC0193819B35C1F09B
:102B700088E6890F8330A0F0892F8F798D598230B4
:102B800078F088E4890F823058F088E2890F82302B
:102B900038F088E0890F843018F080E090E00895E4
:102BA00086E0890F823010F09B3519F4848995896D
:102BB00002C0868997899827892798270895FC015C
:102BC0009381292F2F7B2059263070F080E5890FC3
:102BD000853050F080E1890F823030F0935F933080
:102BE00018F080E090E008958689978998278927D2
:102BF00098270895009769F0FC0101900020E9F7FB
:102C00003197AF01481B590BBC0186EB92E00C9445
:102C1000C91280E090E008950F931F93CF93DF9344
:102C20008C01C0E0D0E0F801EC0FFD1F6491662339
:102C300041F086EB92E00E944C13892B11F0219613
:102C4000F2CFCE01DF91CF911F910F910895CF93D5
:102C5000DF930E940C16EC018AEA91E00E94FA15BB
:102C60008C0F9D1FDF91CF9108950C94FA158F92D0
:102C70009F92AF92BF920F931F93CF93DF93CDB7E5
:102C8000DEB7A1970FB6F894DEBF0FBECDBF19A275
:102C9000423008F44AE08E010F5D1F4F842E912CC4
:102CA000A12CB12CA50194010E94F923E62FB901B2
:102CB000CA0101501109EA3014F4E05D01C0E95C79
:102CC000D801EC93232B242B252B61F7C8010E94FC
:102CD000FA15A1960FB6F894DEBF0FBECDBFDF91F7
:102CE000CF911F910F91BF90AF909F908F900895BB
:102CF000CF92DF92EF92FF92CF93DF936115710530
:102D000059F4682F86EB92E0DF91CF91FF90EF901E
:102D1000DF90CF900C944C136C01990FEE08FF08D4
:102D20006A307105E9F4F7FE19C06DE286EB92E0B6
:102D30000E944C13EC0166277727CB016C197D09A3
:102D40008E099F094AE00E9437168C0F9D1FDF9164
:102D5000CF91FF90EF90DF90CF9008954AE001C0AF
:102D6000462FC701B601DF91CF91FF90EF90DF9022
:102D7000CF900C943716AB01682F4115510521F403
:102D800086EB92E00C944C1370E080E090E00C94A1
:102D90003716CF93DF936AE070E00E94BB16EC0118
:102DA0008AEA91E00E94FA158C0F9D1FDF91CF9166
:102DB0000895109245041092460410924704109210
:102DC000480410924F0490913F04981720F090917E
:102DD0003C04981720F481E080934F0421C090E0D8
:102DE000FC01EE0FFF1FED5AFC4F2081209345049C
:102DF000FC01EE0FFF1FEB58FC4F2081209346048F
:102E0000FC01EE0FFF1FE956FC4F20812093470481
:102E1000880F991FFC01E754FC4F80818093480480
:102E200085E494E008951F93CF93DF93182FC3E3B5
:102E3000D4E060E08DA50E94631483E00E948315B6
:102E4000812F0E94831580E00E948315182F61E076
:102E50008DA50E946314812FDF91CF911F9108955A
:102E6000FF920F931F93CF93DF93F82E062F142F0B
:102E7000C3E3D4E060E08DA50E94631485E00E9466
:102E800083158F2D0E948315802F0E948315812F1B
:102E90000E94831561E08DA5DF91CF911F910F9165
:102EA000FF900C946314FF920F931F93CF93DF93C3
:102EB000C82FF62E072F142F60E0809160040E9427
:102EC000631482E00E9483158C2F0E948315CF2DFE
:102ED000D02FCE01810F911D8C01C017D10721F099
:102EE00089910E948315F9CF61E080916004DF91A0
:102EF000CF911F910F91FF900C9463140F931F9328
:102F0000CF93DF93082F162FC3E3D4E060E08DA5A5
:102F10000E94631482E00E948315802F0E94831513
:102F2000812F0E94831561E08DA5DF91CF911F91C4
:102F30000F910C9463144F925F926F928F929F92B5
:102F4000AF92BF92CF92DF92FF920F931F93CF93D6
:102F5000DF9300D000D0CDB7DEB71092500460935D
:102F60005104709352048093530490935404493055
:102F700008F048E04093550410925E04A6E5B4E0E2
:102F8000F90150E0CF01821B930B841795071CF4C5
:102F900081918D93F7CFA12CB12C40907601509068
:102FA0007701609078014E0124E0820E911C4982E5
:102FB0005A826B82CE0101966C01F82E0D2DF6011E
:102FC00011916F01812F0E941317982F987083FD24
:102FD00002C01F5F05C08C149D0489F710E092E0C9
:102FE000FFEFAF1ABF0A923029F422E3A216B10410
:102FF000F1F67CC082E3A816B10409F477C04091D1
:10300000550466E574E085E0810F0E9453178091B6
:103010005E04813029F480915504806480935504C6
:103020006091550484E0810F0E947E174091510405
:103030005091520460915304709154048091500453
:103040008130B1F44C835B83AB0166277727942FE3
:103050009C71842F8370E8E09E9F800D112488600E
:103060008A8365E0569547956A95E1F749830DC0D7
:10307000CA0123E0969587952A95E1F789834295C1
:10308000440F407E4A831C821B8244E06F2D702FC8
:10309000812F0E945317115048E068E0812F0E9451
:1030A0003017C12CD12CFFEFCF1ADF0A812F0E94DD
:1030B000131783FF05C022E3C216D104A1F718C07D
:1030C00082E3C816D104A1F0109251041092520468
:1030D000109253041092540410925504109250040C
:1030E00010925E0410925F0480E003C086E001C08D
:1030F00087E00F900F900F900F90DF91CF911F916D
:103100000F91FF90DF90CF90BF90AF909F908F90E6
:103110006F905F904F900895CF93DF93C0916804B4
:10312000C295C695C770CF5F81E080936504809398
:1031300066046091960470E080E090E028E634E058
:103140004C2F0E949B17811102C080E00FC0D3E07A
:103150006091960470E080E090E028E634E04C2F27
:103160000E949B17882389F3D15091F7DF91CF916B
:103170000895E3E3F4E0A7E9B4E09C9111962C9163
:103180003FE635AB26AB97AB80AF11AE12AE13AEB8
:1031900014AE0C948C1810924F0490913E04891731
:1031A00020F08FEF80934F040895E82FF0E0EE0FAA
:1031B000FF1FE552FC4F80810895CF93DF936AE0B3
:1031C00070E00E947816EC018AEA91E00E94FA15FC
:1031D0008C0F9D1FDF91CF910895BC0180E090E09E
:1031E0004AE00C943716CF93DF930E94FA15EC0156
:1031F0008AEA91E00E94FA158C0F9D1FDF91CF9112
:103200000895CF93C82F482F60EE8FE00E943017AB
:103210008FE00E941317982F907E81E09C1301C0CD
:1032200080E0CF910895E3E3F4E085E090E09093AF
:10323000FA048093F904A7E9B4E08C9111969C916B
:1032400020E525AB96AB87AB10AE11AE12AE13AE38
:1032500014AE0C948C1880917304823721F08C3951
:1032600011F0853B19F4809186040895853F19F487
:10327000809188040895823F19F480918A0408950A
:1032800080E0089580917304853B19F4809188044F
:1032900008959EE2980F923018F480918904089561
:1032A000853F19F480918A04089580E00895809103
:1032B00073048C3911F0853B19F4809187040895CB
:1032C000823B11F0823D19F4809188040895853F76
:1032D00019F480918904089580E00895CF93DF93D5
:1032E000CDB7DEB728970FB6F894DEBF0FBECDBFBF
:1032F00010927F058093AA0484E090E09093FA04F2
:103300008093F90482E08093650483E080936604EF
:103310006091960470E080E090E0FE013196AE018D
:10332000475F5F4F9F011192E417F507E1F741E016
:1033300040935E0440E00E949B1710925E040E943E
:103340002D156093FB047093FC048093FD0490930F
:10335000FE0428960FB6F894DEBF0FBECDBFDF91F6
:10336000CF910895CF93DF93C3E3D4E09F83888701
:10337000692F83E190E00E94A705688584E190E0D1
:10338000DF91CF910C94A7050F931F93CF93DF93F9
:1033900000D000D0CDB7DEB7182F10925004109295
:1033A000510410925204109253041092540444E0B9
:1033B000BE016F5F7F4F0E949C122A813981822F4C
:1033C00090E065E0959587956A95E1F748E0349F30
:1033D000800D911D1124092E000CAA0BBB0B8093AC
:1033E000510490935204A0935304B093540423FFC8
:1033F00029C032E0880F991FAA1FBB1F3A95D1F749
:103400002370820F911DA11DB11DBA2FA92F982FD6
:1034100088272B81820F911DA11DB11DBA2FA92FC5
:10342000982F88272C81820F911DA11DB11D80939B
:10343000510490935204A0935304B093540481E038
:10344000809350048FEF810F0E941317082F84E0A0
:10345000810F0E94131703FF04C091E090935E0454
:1034600002C010925E04482F4F704093550466E5E9
:1034700074E085E0810F0E949C120F900F900F90D6
:103480000F90DF91CF911F910F9108951F93CF93CC
:10349000DF93C3E3D4E060E08DA50E94631480EA6B
:1034A0000E94831580E00E948315182F61E08DA58E
:1034B0000E946314812FDF91CF911F91089583E3C0
:1034C00094E00C94340A789484B5826084BD84B509
:1034D000816084BD85B5826085BD85B5816085BD0F
:1034E00080916E00816080936E00109281008091C7
:1034F000810082608093810080918100816080934F
:103500008100809180008160809380008091B10073
:1035100084608093B1008091B00081608093B0009E
:1035200080919100826080939100809191008160F0
:1035300080939100809190008160809390008091B1
:10354000A10082608093A1008091A100816080939E
:10355000A1008091A00081608093A00080917A00FA
:10356000846080937A0080917A00826080937A00F0
:1035700080917A00816080937A0080917A008068DF
:1035800080937A001092C100CEE0D1E026E1E22ED5
:1035900021E0F22E199160E0812F0E94921460E0E8
:1035A000812F0E946314EC16FD06A1F7C6E0D1E05E
:1035B0009EE0E92E91E0F92E199161E0812F0E94A1
:1035C000921461E0812F0E946314EC16FD06A1F7AE
:1035D0006B9A6A9A3E9A61E080E00E94921461E0E0
:1035E00081E00E9492140E942D1568387341810574
:1035F0009105E8F460E080E00E94631460E081E0FF
:103600000E94631464E670E080E090E00E94F3148E
:1036100061E080E00E94631461E081E00E94631435
:1036200064EF71E080E090E00E94F314DCCF61E091
:1036300080E00E94631461E081E00E9463143E9880
:10364000469AA9E9B4E0FD01119234E0E13AF307AA
:10365000D9F7EFEDF1E081918D9341E0E73EF4077A
:10366000D1F789E58093A2048DE08093A10481E0E5
:103670008093A4048093A5048091A3048360809325
:10368000A30484EC92E2A0E0B0E08093AD049093B8
:10369000AE04A093AF04B093B004D1E036991BC040
:1036A0000E942D154B015C01C1E00E942D15DC012B
:1036B000CB0188199909AA09BB09883E9340A10545
:1036C000B10508F042C5CC2349F3C6B1C6FBCC27EF
:1036D000C0F9CD27EACF61E080E00E94631461E089
:1036E00081E00E9463148CE696E0909381058093BC
:1036F00080058AE08093600461E00E94921461E09A
:10370000809160040E946314C4E1D0E002E8A02E1E
:1037100002E0B02E8DE9E82E82E0F82ECFB6F894C4
:103720008091A802811126C0F5018491F7012491AE
:10373000E82FF0E0EE0FFF1FE359FE4FA591B49183
:103740009C91822F892321F461E08AE00E94631416
:1037500061E08AE00E9492148CB580618CBD8CB5CA
:1037600080648CBD61E08DE00E94921461E08BE08A
:103770000E9492148091A8028F5F8093A802CFBE0E
:1037800060E0809160040E94631480EC0E948315C5
:1037900061E0809160040E9463146AE070E080E060
:1037A00090E00E94F31480E80E940119882381F0C0
:1037B0006AE070E080E090E00E94F3146EE170E057
:1037C00080E090E00E94F314219709F0A7CF4BC04E
:1037D0006AE070E080E090E00E94F31461E08AE229
:1037E0000E947E1761EB89E20E947E1765E088E205
:1037F0000E947E176AE070E080E090E00E94F3147F
:1038000010E360E0812F0E947E1760E080E1810F6D
:103810000E947E1760E080E2810F0E947E171F5F8A
:103820001E3379F760E080E60E947E1760E080E753
:103830000E947E1763E08BE20E947E1744E064E6FC
:1038400080E60E94301740E060E680E70E94301773
:1038500080E00E9401198111ABCF6AE070E080E046
:1038600090E00E94F3148BE20E94CB18881F8827F7
:10387000881F80932102882309F478C1E091C60251
:10388000F091C70282E08083E091C202F091C3020E
:103890001082E091C402F091C50280E18083109211
:1038A000CE02E091CA02F091CB0286E08083E091E3
:1038B000C802F091C902808180618083E091C802D2
:1038C000F091C902808188608083E091C802F09104
:1038D000C902808180688083E091C802F091C902AA
:1038E00080818F7D8083C5E0D0E068EE73E080E06A
:1038F00090E00E94F31488EE91E00E943516219723
:10390000A1F78CEA91E00E94F3188FE492E00E9404
:103910000C1681E090E00E94DD1885E394E00E949F
:10392000F40988E192E00E94271681E192E00E946A
:103930000C1680E090E00E94A90560E170E00E9412
:10394000BB1688E092E00E940C1660E170E0809166
:1039500039040E94BB1683E092E00E940C1680910D
:103960003A0490913B0498278927982790934B0419
:1039700080934A040E94ED188BEF91E00E940C1690
:1039800060E170E0809149040E94BB168EEE91E0E8
:103990000E940C1660E170E080913C040E94BB160E
:1039A0008CED91E00E940C1660E170E08091400483
:1039B0000E94BB1681ED91E00E940C1660E170E060
:1039C00080913E040E94BB1685EC91E00E940C168B
:1039D000C0E080913E04C81778F48C2F90E049969F
:1039E0000E94A90560E170E00E94BB1683EC91E0A3
:1039F0000E940C16CF5FEDCF87EB91E00E940C1672
:103A0000C0E080913E04C81790F4EC2FF0E0EE0F78
:103A1000FF1FE552FC4F60E170E0808191810E94C0
:103A2000781685EB91E00E940C16CF5FEACF85EA0D
:103A300091E00E940C16C2E0D0E0CE010E94A905E0
:103A400060E170E00E94BB1683EA91E00E940C16D0
:103A50002196C231D10589F782E991E00E940C16C6
:103A600010E080914104181718F5C12FD0E0CC0F59
:103A7000DD1F809144047E01E80EF11CC7010E9405
:103A8000A90560E170E00E94BB16809144049E018C
:103A9000280F311DC90101960E94A90560E170E05F
:103AA0000E94BB1680E991E00E940C161F5FD9CFDF
:103AB00087E891E00E942716C0914204D091430408
:103AC00010E080913F04181708F050C07E0134E0E8
:103AD000E30EF11CCE010E94A90560E170E00E9496
:103AE000BB16219685E891E00E940C16CE15DF05E5
:103AF00089F783E891E00E940C16A12EB12CAA0C44
:103B0000BB1CE12CF12CF501EE0DFF1DED5AFC4F15
:103B100060E170E0808191810E94781681E891E0F7
:103B20000E940C1642E2E40EF11C58E8E516F1047E
:103B300051F78BE791E00E940C1600E08091400461
:103B4000081770F4CE010E94A90560E170E00E94A0
:103B5000BB16219689E791E00E940C160F5FEECF0D
:103B60008AEA91E00E94FA151F5FABCF8091210293
:103B700081110EC01092850581E08093860561E079
:103B800080E00E94921461E0809186050E94921468
:103B9000F89489E0E0E0F0E0809357003491E3E0AE
:103BA000F0E0809357002491E2E0F0E0809357002A
:103BB0009491E1E0F0E08093570084917894C1E023
:103BC0003F3F09F4C0E02C3509F0CE5FE2E0E90F99
:103BD000E23020F0CC5F8F3F19F406C08F3F11F028
:103BE000C85F02C0CC2369F180912102811102C01B
:103BF000C1E014C08EE392E00E940C166AE070E00F
:103C00008C2F0E94BB168AEE91E00E94F31868EE9A
:103C100073E080E090E00E94F314ECCF8D2D8C27B0
:103C20008170D82E682F80E00E9463146D2D81E092
:103C30000E94631464EF71E080E090E00E94F3144E
:103C4000EDCF0E94470A10921D0210921E021092A0
:103C50001F021092200210921C0210921B028AE294
:103C60000E94CB1890E09093820280938102809111
:103C70002102882321F088E392E00E94271663E95D
:103C8000862E62E0962E03E812E074E0E72EF12C17
:103C9000C0E0D0E0E8E8CE2EE3E1DE2EF8E1AF2E82
:103CA000F5E1BF2E80911A02882301F1E091810293
:103CB000F09182020C2E02C0F595E7950A94E2F786
:103CC000E170FF27EE0DFF1DEE0FFF1FE55DFD4FBD
:103CD0008081918154E0880F991F5A95E1F7D501B1
:103CE000A81BB90BF801B183A08303C0D801CD9202
:103CF000DC92F80180819181D4018D939D934D01D7
:103D0000809121022196882391F084E292E00E9422
:103D10000C166AE070E0CE010E9478168DED91E0FD
:103D20000E943516F801808191810E94DD180E5F96
:103D30001F4FF5E0EF0EF11CC830D10509F0B2CFEE
:103D400084E690E09093890080938800F894109224
:103D500080001092810080918100826080938100B8
:103D600080916F00826080936F0078942224239466
:103D7000312C38E1432E35E1532E0E94CE1460934E
:103D8000A4027093A5028093A6029093A7020091CB
:103D9000A9021091AA022091AB023091AC026B01F2
:103DA0007C01C01AD10AE20AF30A49EEC41643E0C4
:103DB000D406E104F10448F40E94090E8091AC0499
:103DC0008823A1F10E94470A31C06093A902709331
:103DD000AA028093AB029093AC02C0E00E94461A04
:103DE000837001F1D8C18091610480936F05809147
:103DF00062048093700580916304809371058091C3
:103E000064048093720520936D0580915E04811196
:103E1000EDC110926E058091F3049091F404892B0A
:103E200009F4E8C1CF5FC230C9F6C6CF8091F9046A
:103E30009091FA04039759F4369909C00E942D1500
:103E4000613177428105910510F00E94131980912C
:103E5000A302882309F405C1B2E2AB2EB2E0BB2E67
:103E60000BE212E0C3E8D2E083E9E82E82E0F82E0C
:103E700094E0692E712CC12CD12CD7012D913C914D
:103E8000888199812817390709F458C088389341E7
:103E9000A9F4F8014085518582859385840F951F8B
:103EA00097FD019695958795A4E0880F991FAA958F
:103EB000E1F7A201481B590B598348834881598176
:103EC0004217530734F4D8011C968D919C911D978D
:103ED00003C0F80186859785019760912A0270E0FA
:103EE0000C2C02C0759567950A94E2F760FF0BC031
:103EF000D5016C91662339F0653029F0049797FF5E
:103F000002C080E090E0880F991FFC01EA5EFE4F3E
:103F1000808191814217530734F4480F591F2417A9
:103F200035074CF005C0481B590B421753071CF0CE
:103F30005983488380C0398328837DC0F50140813F
:103F4000442309F478C0E0918102F09182020C2CA4
:103F500002C0F595E7950A94E2F7E170FF27E60DB8
:103F6000F71DEE0FFF1FE55DFD4F8081918174E02D
:103F7000880F991F7A95E1F74201881A990AD701AB
:103F80008D929C9240FD34C0F80180859185028419
:103F9000F385E02D642F70E08E1B9F0B97FF03C00D
:103FA000919581959109869FF001879FF00D969FCD
:103FB000F00D1124E69FC001E79F900DF69F900D34
:103FC00011246AEF70E00E94272454E0660F771FE7
:103FD0005A95E1F7293B3B4034F0861A970AD701FE
:103FE0008D929C9205C0680D791DF70171836083E5
:103FF0004150D5014C93809121028823E1F084EA5D
:1040000091E00E9435166AE070E0C6010E947816C1
:104010008CEE91E00E9435166AE070E0F501808137
:104020000E94BB168DED91E00E943516D7018D914F
:104030009C910E94DD18BFEFCB1ADB0AE2E0EE0E86
:10404000F11C2296FFEFAF1ABF0A065F1F4F25E053
:10405000620E711C38E0C316D10409F00ECF109225
:10406000A30280911D0290911E02A0911F02B091A7
:1040700020020097A105B10509F464C04091A40293
:104080005091A5026091A6027091A702841B950B26
:10409000A60BB70B8139904DA340B10508F452C06F
:1040A000C0E0D0E080911B0290911C020C2E02C057
:1040B000959587950A94E2F780FF3BC07E01F594C1
:1040C000E7948701000F111F0D561D4F85E08E9D4F
:1040D000F0018F9DF00D1124CE0181709927E80F1A
:1040E000F91FEE0FFF1FED5CFD4F8081918134E0E1
:1040F000880F991F3A95E1F7D201A81BB90BF80177
:10410000B183A08380912102882399F086E692E012
:104110000E940C166AE070E0C70101960E947816B2
:104120008DED91E00E943516D8018D919C910E94F1
:10413000DD182196C031D10509F0B4CF10921C02D0
:1041400010921B020E94B51318CECC2309F4A6CA04
:1041500085E394E00E94110981E0809367046091F7
:10416000A30464606093A3046093490485E190E034
:104170000E94A7056091A3046093490485E190E043
:104180000E94A70560E081E00E94631460E080E087
:104190000E946314FFCF0E94461AC11108C080FF1D
:1041A00041CE81E60E94C41940E061E007C081FF72
:1041B00039CE81E70E94C41940E062E08CE20E949F
:1041C000301720915504E3E3F4E0AF01435354402A
:1041D00031968091550490E0481759070CF003CEB2
:1041E00082A1DF01A15CBE4F8C93EFCF51E05093D1
:1041F0006E0511CE3092F4042092F3048091F10404
:104200009091F204CC9724F01092F2041092F104F1
:10421000EDE6F5E08091F1049091F2042191DC014A
:10422000AD54BB4F12962C9301969093F204809359
:10423000F1048091F7049091F80401969093F804AA
:104240008093F704A5E0EC37FA0721F7CD97BCF08F
:104250008091F5049091F6040F968C3391052CF41F
:104260009093F6048093F50404C01092F604109223
:10427000F504ECE3F0E0F093F804E093F704109217
:10428000F4041092F304CECD6F927F928F929F929E
:10429000AF92BF92CF92DF92EF92FF920F931F9354
:1042A000CF93DF93CDB7DEB7C654D1090FB6F894DC
:1042B000DEBF0FBECDBF1092B9021092B80288EED9
:1042C00093E0A0E0B0E08093BA029093BB02A09389
:1042D000BC02B093BD0282E491E09093B702809358
:1042E000B60285EC90E09093C3028093C20284EC06
:1042F00090E09093C5028093C40280EC90E090938C
:10430000C7028093C60281EC90E09093C90280932B
:10431000C80282EC90E09093CB028093CA0286ECB4
:1043200090E09093CD028093CC021092CF02109235
:10433000D0021092D1021092D20282E791E09093C3
:104340003404809333048AE691E09093360480939A
:10435000350480E794E00E94900582E691E0909316
:10436000950480939404E9E9F4E080E3819344E0C8
:10437000E13AF407D9F78AE591E09093B404809389
:10438000B3041092A90410927F0527E1FE01319633
:10439000A0E5B4E001900D922A95E1F79A83898314
:1043A00021961FAE1EAE219723961FAE1EAE2397F9
:1043B00025961FAE1EAE259727961FAE1EAE2797D9
:1043C000DE011396E5EBF4E08D91819384E0E13F0B
:1043D000F807D1F71092F2041092F1041092F4044D
:1043E0001092F3041092F6041092F5041092F8045F
:1043F0001092F7048AE691E09A8389838CE28A8797
:1044000081E18B8781E08C878D8785E4888B87E4C9
:1044100090E09F878E8781E090E00E9455249C83E6
:104420008B83CE0101960E94FA08CE0101960E946C
:10443000F409DA842BEDE22E23E0F22E00E010E006
:10444000CC24CA941B8E0D1518F0CB8E8FEF04C0B0
:10445000C80149960E94A90590E0F70181939193C4
:104460007F010F5F1F4F0C32110561F7409131043E
:104470005091320440FF0AC04E7F50933204409363
:1044800031046BE2CE0101960E94D505EB8478845D
:10449000CC84D12CF4E0CF0ED11C83E5882E83E0B0
:1044A000982E97E9A92E93E0B92E0E851F85F12C41
:1044B00066246394198A1A8A1B8A1C8A1B8EEF143D
:1044C00010F07F1410F46B8E13C0C8010E94A90570
:1044D000898BC80101960E94A9058A8BC8010296A2
:1044E0000E94A9058B8BC80103960E94A9058C8B9D
:1044F0003989832F90E0F401819391934F012A89A8
:10450000822F90E091A380A39B89492F50E0F50171
:10451000419351935F018C89482F50E051A340A3F0
:10452000F3940C0D1D1DF1E1FF12C4CF4B815C8192
:1045300050933804409337044D81409339044E81A1
:1045400040933A044F8140933B04488540933C0498
:10455000498540933D044A8540933E04E0923F04E0
:104560004C85409340044D85409341044E855F85C2
:104570005093430440934204488940934404309349
:1045800045042093460490934704809348048D8902
:10459000809349048E899F8990934B0480934A04A9
:1045A000888D80934C04898D80934D048A8D8093EF
:1045B0004E048B8D80934F04CE0101960E941E0AFB
:1045C00082E691E09A838983DE011696CE010E96EB
:1045D000FD0120E32193E817F907E1F78B81809330
:1045E00096048C819D819093980480939704E9E9C7
:1045F000F4E08D91819344E0E13AF407D1F78E85A0
:104600008093A1048F858093A20488898093A3045A
:1046100089898093A4048A898093A50481E1809389
:10462000A6048CE28093A80481E08093A704CE01C5
:1046300001960E9490058B81809372048C818093F7
:1046400073048D81809374048E81809375048F81AF
:104650009885909377048093760489859A859093C2
:104660007904809378048B859C8590937B04809358
:104670007A048D859E8590937D0480937C048F853C
:10468000988990937F0480937E0489899A89909376
:104690008104809380048B8980938204DE01549688
:1046A000E3E8F4E08D91819384E0EB38F807D1F7EB
:1046B0008C8D80938B048D8D80938C048E8D809354
:1046C0008D048F8D80938E0488A180938F0489A19F
:1046D0009AA190939104809390048BA1809392046B
:1046E0008CA1809393048091A90481608093A90494
:1046F0001092AA040FEF009385050093860511E040
:1047000010938705109288050E942D1560938905E6
:1047100070938A0580938B0590938C051092810588
:10472000109280051092900510928F051092AB04A4
:104730001093AC0400938D0510938E058CE291E0EC
:10474000A0E0B0E08093AD049093AE04A093AF04DA
:10475000B093B00485E394E00E94F40980913A0498
:1047600090913B0498278927982790934B04809336
:104770004A0490939804809397048091390480931D
:104780009604809149048093A3041093670483E006
:1047900090E09093FA048093F904CA5BDF4F0FB660
:1047A000F894DEBF0FBECDBFDF91CF911F910F9167
:1047B000FF90EF90DF90CF90BF90AF909F908F9041
:1047C0007F906F900895F999FECF92BD81BDF89AC0
:1047D000992780B50895262FF999FECF1FBA92BD6B
:1047E00081BD20BD0FB6F894FA9AF99A0FBE0196D2
:1047F0000895A1E21A2EAA1BBB1BFD010DC0AA1F22
:10480000BB1FEE1FFF1FA217B307E407F50720F039
:10481000A21BB30BE40BF50B661F771F881F991FB4
:104820001A9469F760957095809590959B01AC01FD
:10483000BD01CF010895991B79E004C0991F961717
:1048400008F0961B881F7A95C9F78095089597FB05
:10485000072E16F4009407D077FD09D00E9441245A
:1048600007FC05D03EF4909581959F4F0895709573
:1048700061957F4F0895EE0FFF1F0590F491E02D95
:104880000994AA1BBB1B51E107C0AA1FBB1FA61797
:10489000B70710F0A61BB70B881F991F5A95A9F7E9
:1048A00080959095BC01CD0108950F931F93CF93F0
:1048B000DF938230910510F482E090E0E09197055B
:1048C000F091980520E030E0A0E0B0E0309719F1D9
:1048D000408151810281138148175907C8F084171C
:1048E000950769F4109731F012960C93129713966E
:1048F0001C9327C0009397051093980522C021159B
:10490000310519F04217530718F49A01BD01EF0160
:10491000DF01F801DBCF21153105F9F0281B390B38
:104920002430310580F48A819B816115710521F065
:10493000FB019383828304C090939805809397052D
:10494000FE01329644C0FE01E20FF31F8193919362
:1049500022503109398328833AC02091950530913E
:104960009605232B41F420910201309103013093ED
:1049700096052093950520910001309101012115A4
:10498000310541F42DB73EB7409104015091050126
:10499000241B350BE0919505F0919605E217F3077E
:1049A000A0F42E1B3F0B2817390778F0AC014E5F9F
:1049B0005F4F2417350748F04E0F5F1F5093960541
:1049C000409395058193919302C0E0E0F0E0CF0120
:1049D000DF91CF911F910F910895CF93DF930097AF
:1049E00009F481C0FC01329713821282A0919705CD
:1049F000B0919805109781F420813181820F931F27
:104A000020919505309196052817390751F5F093B7
:104A10009605E093950567C0ED0120E030E0CE17E4
:104A2000DF0740F44A815B819E0141155105F1F099
:104A3000EA01F5CFD383C28340815181840F951F52
:104A4000C817D90759F488819981840F951F029658
:104A5000918380838A819B81938382832115310591
:104A600029F4F0939805E09397053DC0E901FB8395
:104A7000EA8349915991C40FD51FEC17FD0761F4E2
:104A800080819181840F951F0296E9019983888323
:104A9000828193819B838A83E0E0F0E012968D917E
:104AA0009C911397009719F0FD01DC01F7CF8D91D0
:104AB0009C9111979D012E5F3F4F820F931F209174
:104AC0009505309196052817390769F4309729F430
:104AD000109298051092970502C013821282B0932B
:104AE0009605A0939505DF91CF91089581E090E020
:104AF000F8940C947B2511E0CCE6D1E004C0FE01D3
:104B00000E943B242196CD36D107C9F7F894FFCFF8
:104B10000000990580001A19131211100F0E0203DC
:104B200004050607080904000500070009000C0039
:104B3000100016001E00280037004A00640087009D
:104B4000B700F7004D01C2016002340353040000B6
:104B500000004C13C9121513F3120713931300002E
:104B600000008F054A0500000000460A4E050000BF
:104B70000000A6054C05000000001E0A2A0A0000DD
:104B80000000340A3C0A304050557365725F467528
:104B90006E6374696F6E3A20004576656E744D6180
:104BA00074636820004576656E745661723A200021
:104BB000536F4400536572766F000D0A004F5043E7
:104BC0003A2000204E6F64653A20002043616E4910
:104BD000443A2000204D65737361676553697A65B7
:104BE0003A20002053746174653A2000202000416F
:104BF0005244534552564F002A00210020626F75DF
:044C00006E6365007A
:00000001FF
