:100000000C9494020C94BC020C94BC020C94BC02A0
:100010000C94BC020C94BC020C94BC020C94BC0268
:100020000C94BC020C94BC020C94BC020C94DD1326
:100030000C94BC020C94BC020C94BC020C94BC0248
:100040000C94FE1C0C94BC020C9472160C944C166E
:100050000C94BC020C94BC020C94BC020C94BC0228
:100060000C94BC020C94BC02F008F308F608F908E2
:10007000FC08FF08020905094641494C4544207423
:100080006F2073656E642043414E0020005641523C
:100090005320002000200020000A4556454E5453AE
:1000A0003A0020000A4445562D4E554D42455253C4
:1000B0003A0020000A494E5445524E414C205641C8
:1000C000525320280020000A4E4F444520564152EA
:1000D000533A000A4E554D204556454E545320562E
:1000E0004152533A000A4E554D204556454E545301
:1000F0003A000A466C6167733A000A4E4E3A000AAB
:1001000043414E5F49443A004944454E543A004DFC
:10011000454D4F52592044554D500042656973700A
:1001200069656C3A203C313A523E206F646572201A
:100130003C363A313530303E0020202020202065EA
:10014000696E65205A61686C207A776973636865A7
:100150006E203020756E64203235362066756572EB
:100160002073747566656E6C6F7365205665727367
:1001700074656C6C756E6720756562657220726F50
:10018000637261696C20436F64696572756E672084
:10019000284D697474656C7374656C6C756E67203A
:1001A0006C696567742062656920313530290020EB
:1001B000202020202065696E65205A61686C207AB5
:1001C0007769736368656E2037353020756E6420FB
:1001D0003235303020667565722073747566656ED1
:1001E0006C6F7365205665727374656C6C756E67A1
:1001F00020284D697474656C7374656C6C756E67DA
:10020000206C696567742062656920313530306D16
:100210006373290020202020202027522720667584
:1002200065722072656368746520536572766F73BA
:1002300074656C6C756E6700202020202020274C90
:10024000272066756572206C696E6B652053657238
:10025000766F7374656C6C756E670020207820690A
:10026000737420656E7477656465720020206E205B
:100270006973742064696520536572766F6E756D5D
:100280006D65722028312D3829003C6E3A783E0089
:1002900053657269656C6C65205374656C6C6B6F2B
:1002A0006D6D616E646F73206D697420273C27202B
:1002B000626567696E6E656E20756E6420273E27E5
:1002C000206265656E64656E00416E6C656974756B
:1002D0006E67004C65747A746520536572766F7032
:1002E0006F736974696F6E207769656465722068E1
:1002F00065727374656C6C656E0053746172740022
:10030000536572766F7374617274706F7369746918
:100310006F6E206E696368742067656C6164656EDA
:1003200000536572766F0047657370656963686531
:1003300072746520506F736974696F6E20006D630D
:1003400073006D6373202D2000202D3E207468659E
:100350006F72657469736368206D6178696D616C33
:10036000206D6F65676C6963683A2000536572762B
:100370006F737072656974756E673A2000417264BC
:100380007543414E2D536572766F205665727369C1
:100390006F6E20004B65696E2041544D6567613377
:1003A000323850422120536572766F6175736761F0
:1003B000656E6765203120756E642032206E69633A
:1003C00068742076657277656E64626172006D6331
:1003D00073003A2000536572766F2000756E677562
:1003E000656C7469676520536572766F6E756D6DA7
:1003F00065720020496E7320454550524F4D20676D
:100400006573706569636865727400536176652011
:10041000506F736974696F6E20466C61673A005360
:100420006572766F002020534C20746F6F206269D4
:10043000673A00536572766F2000536572766F20BD
:100440000053657474696E67737661726961626C7A
:10045000652000454550524F4D2D446174656E3AFC
:10046000005570646174655F7061726100496E73FC
:1004700020454550524F4D2067657370656963682C
:1004800065727400536176652053746174757300EE
:1004900053686F72743A204576656E740020202090
:1004A0004576656E7420004C6F6E673A204E6F641F
:1004B000654E6F20007772697465207661722074D2
:1004C0006F20656570726F6D0000000000250028C8
:1004D000002B0000000000240027002A0004040470
:1004E00004040404040202020202020303030303DD
:1004F00003010204081020408001020408102001BA
:10050000020408102000000000230026002900003B
:1005100000000800020100000304070000000000C2
:100520000000000043273F2711241FBECFEFD8E073
:10053000DEBFCDBF12E0A0E0B1E0ECE0FDE502C01F
:1005400005900D92AC34B107D9F726E0ACE4B2E0E7
:1005500001C01D92A233B207E1F712E0C3E9D2E075
:1005600004C02197FE010E94482AC239D107C9F769
:100570000E94481D0C94792E0C9400002F923F92FB
:100580004F925F926F927F928F929F92AF92BF92A3
:10059000CF92DF92EF92FF920F931F93CF93DF934F
:1005A00000D000D01F92CDB7DEB7809115068F3FE7
:1005B00029F4809114068F3F09F44FC00E94F21C69
:1005C000009118061091190620911A0630911B0609
:1005D000DC01CB01801B910BA20BB30B8436910580
:1005E000A105B105D0F18091880590918905059705
:1005F000A9F480911706813041F460E080911506DE
:100600000E949C1B109217061EC061E08091150687
:100610000E949C1B81E08093170615C08091F60410
:10062000813039F460E0809114060E949C1B61E0E7
:1006300006C061E0809114060E949C1B60E08091DE
:1006400015060E949C1B0E94F21C60931806709372
:10065000190680931A0690931B0680911C068F3F03
:1006600009F4AEC00E94731B20911D06892B81F4F2
:10067000213009F0A5C00E94F21C60938A05709396
:100680008B0580938C0590938D0510921D0698C064
:10069000211196C081E080931D060E94F21C0091FA
:1006A0008A0510918B0520918C0530918D05DC0118
:1006B000CB01801B910BA20BB30B8C019D01095E3A
:1006C0001340210931090738134121053105A8F4E8
:1006D0002091F6048091880590918905213049F494
:1006E000059761F583E090E09093890580938805F4
:1006F00067C0059709F064C0F5CF81379741A10520
:10070000B10508F45DC08091F604811135C0809177
:10071000880590918905059729F360E0809114067A
:100720000E949C1B80E00E94061B8091880590918E
:100730008905049719F40E94BE02F7CF85E090E086
:1007400090938905809388058091260590912705CF
:1007500020E52093F7049093F8048093F904109215
:10076000FA041092FB041092FC041092FD04109203
:10077000FE040E94151A24C01092F604409132051E
:100780004B7F409332054093D80465E170E084ECE0
:1007900094E00E94400B8091320581FF09C0809156
:1007A0003C0590913D05909327058093260506C052
:1007B000109227051092260580E090E00E94F01A22
:1007C0008091880590918905049709F07AC00E946C
:1007D000F21C00918A0510918B0520918C053091B7
:1007E0008D05DC01CB01801B910BA20BB30B893E65
:1007F0009340A105B10508F464C083E090E09093B4
:1008000089058093880540910E06AFE8B5E081E048
:10081000841740F020910E0630E0EEE8F5E080E02D
:1008200090E019C02D919FEF980F092F10E0F8016B
:10083000E257FA4F3081F801E157FA4F231718F4C5
:1008400030839150F2CF20838F5FE2CF4191598165
:10085000541738F0019641E0480F498382179307F7
:10086000ACF389818093C804482F62E170E084EC86
:1008700094E00E94400B9981909325058091390561
:100880008823F9F0809126059091270522E5209391
:10089000F7049093F8048093F9041092FA041092EC
:1008A000FB041092FC041092FD041092FE04E981F6
:1008B0006E2F70E080E090E027EF34E043E00E948C
:1008C000241922242394312C47EF642E45E0742E02
:1008D0005AE1A52E55E0B52E63E0C62ED12C552445
:1008E000539473E6872E912C10923A0580918205DD
:1008F00090918305892B09F08BC630928305209255
:1009000082058091860590918705181619062CF0AE
:1009100010928305109282057BC680918405909188
:100920008505CC9724F01092850510928405E8EE99
:10093000F5E0A0918405B0918505AE5BBA4F1296A3
:100940008C91819380918405909185050196909377
:100950008505809384058091860590918705019790
:1009600090938705809386056E167F0611F7109287
:10097000830510928205E2E1F5E01192AE16BF0602
:10098000E1F710921E051092200510921F0510929B
:1009900021058091E805809304058091EA05809304
:1009A0001A058091EB0580931B058091EC058093DF
:1009B0001C058091ED0580931D05EEEEF5E081911B
:1009C000DF01AD5DB1098C9325E0E63FF207B9F791
:1009D0008091120580930205843008F4B4C08730FA
:1009E00009F4B1C0282F2F7B2F3309F4ACC092EA51
:1009F000980F923008F4A7C0982F9F7D9F3909F473
:100A0000A2C0863B09F49FC08F3D09F49CC03CEF17
:100A1000380F333008F49AC038EF380F333008F409
:100A200095C03FED380F333008F490C0803409F49E
:100A30008DC03CEB380F373008F488C08C3409F493
:100A400085C0382F3F7740EA430F423008F47EC01C
:100A5000333609F47BC0903809F478C03EE7380F8C
:100A6000343008F473C0823A09F470C030E4380FAF
:100A7000323008F46BC036EA380F323008F469C0FF
:100A800030E7380F353008F464C038E6380F3330BB
:100A900008F45FC09D59923008F45BC0982F977F8F
:100AA000905B923008F455C09DE4920F923008F4A8
:100AB00050C091E3980F933008F44BC09CE2980F1C
:100AC000923008F446C098E2980F923008F441C082
:100AD00093E2980F9230E8F190E1980F9230C8F1CC
:100AE0009AE0980F9630A8F193E0980F933088F130
:100AF00094EF980F923080F190EF980F923060F160
:100B0000823451F190EB980F9A3030F194EA980FBB
:100B1000923010F191E9980F9730F0F09BE6980F22
:100B20009330D0F095E6980F9230B0F0223BA1F0D0
:100B3000253B91F09EE2980F923070F0823E61F07A
:100B40008F3E69F409C084E090E00BC081E090E042
:100B500008C083E090E005C082E090E002C080E041
:100B600090E090930605809305058091E905811139
:100B70005092210580E00E94581A81FB112710F93C
:100B80008FEF94E00E94AB16082F882319F01123F1
:100B900009F4F9C48FEF94E00E94C0168823C9F0CD
:100BA0008FEF94E00E94D5169A8389830097B1F065
:100BB000AC0160E070E084EC94E00E94140C2091A1
:100BC000CE0430E0482F50E0241735070CF413C54D
:100BD00036C00023E1F01130D1F404C0002389F1C4
:100BE000113079F58FEF94E00E940017009779F0AB
:100BF000AC0160E070E084EC94E00E94140C209161
:100C0000CE0430E0482F50E024173507C4F48FEFAE
:100C100094E00E94D5169A838983892B91F04981AB
:100C20005A8160E070E084EC94E00E94140C209102
:100C3000CE0430E0482F50E02417350714F08F5FC2
:100C400001C080E080933A0580912105882389F0D6
:100C50008091260590912705892B59F060912505F3
:100C600070E080E090E027EF34E040E00E9424193B
:100C70003BCEE0908805F090890534E0E316F1045E
:100C800001F58091040581112FCE20910E062336A7
:100C900008F02ACE80911A0540E1849FC0011124FA
:100CA00090911B05929596959770892B80930105DD
:100CB000E22FF0E0E257FA4F80832F5F20930E0679
:100CC00013CE80910505909106058230910561F162
:100CD00040F4019709F04AC4E0911106F091120620
:100CE0001AC0E0910F06F09110068330910519F0BB
:100CF000049731F03BC48091320580FD37C40BC0AE
:100D00008091320580FD32C480910205873009F060
:100D100055C40C940000309709F428C462EC74E0C8
:100D20008FEF94E0099522C4109102058FEF94E0B3
:100D30000E941B179A83898360912605709127056D
:100D40007C836B838617970771F0C701029703971F
:100D500050F41D3009F477C0103109F4B3C01131DB
:100D600009F0C2CDDFC01D3509F4D2C1A0F513359D
:100D700009F43FC178F4103109F4A4C020F41D3007
:100D800009F0B2CD60C0113109F4CCC0123409F4BD
:100D900001C1AACD163509F455C138F4143509F44A
:100DA0002FC1153509F441C19FCD173509F465C12F
:100DB000183509F099CD10921E068091CB0494E766
:100DC0009093F7045C815093F8046B816093F9046D
:100DD0008093FA04C0C3153909F429C210F51237FB
:100DE00009F4B1C120F4113709F49EC17DCD133748
:100DF00009F4D8C1153709F077CD10921E0683E6A5
:100E0000809325058093C80443E662E170E084EC9A
:100E100094E00E94400B809126059091270522E5E1
:100E200092C3123B09F4D1C238F4163909F431C225
:100E30001C3909F49CC258CD123D09F4FAC2153F81
:100E400009F4EEC251CD8B819C81892B09F44CCDE4
:100E500010921E068091250590E0EB81FC81E81739
:100E6000F90731F090932705809326050E94F01A28
:100E70008091320590913105209130053091260501
:100E800040912705F6EBF093F7044093F804309374
:100E9000F9042093FA049093FB048093FC0450928D
:100EA000FD0428E02093FE046B817C81660F771F90
:100EB0004B815C81460F571FBA0180E090E00E9491
:100EC000B81C91C010921E068091250590E06B81A0
:100ED0007C816817790731F0909327058093260568
:100EE0000E94F01A8091880590918905059709F074
:100EF000FBCCE7EFF4E0119274E0EF3FF707D9F78E
:100F00008091340590913705209136053091350553
:100F1000409131055091330560913005EFEEE0933B
:100F2000F70427C010921E068091250590E02B81C2
:100F30003C812817390731F09093270580932605C7
:100F40000E94F01A8091880590918905059701F516
:100F500080912E0590912D0520912C0530912B0527
:100F600040912A05509129056091280572EE7093F1
:100F7000F7046093F8045093F9044093FA04309313
:100F8000FB042093FC049093FD048093FE042BC08B
:100F900083E099C010921E0685E0E816F104C1F7BF
:100FA0008FEF94E00E941B179093270580932605EE
:100FB0000E94F01A809126059091270522E5209342
:100FC000F7049093F8048093F9041092FA041092B5
:100FD000FB041092FC041092FD041092FE04D092C7
:100FE0008905C09288050E94151A882309F47CCCD3
:100FF000BDC210921E06109289051092880574CC0D
:1010000010921E068091250590E0EB81FC81E81787
:10101000F90731F090932705809326050E94F01A76
:10102000D0928905C09288059FC1EF2809F05CCC59
:1010300040E067E170E084EC94E00E94400B109285
:10104000CB0452CC10921E06809135059091CB04B2
:10105000891B90E79093F704FC81F093F8042B81AF
:101060002093F9048093FA041092FB041092FC047C
:101070001092FD041092FE04B6CF10921E06F0905E
:10108000CB04FF2009F430CC8BE20E94581A80FD7B
:1010900002C010E003C019E099E0F92E4C8000E096
:1010A00082EFE82E8BE20E94581A80FF03C01131B4
:1010B00009F418E0812F0E943918FC018091DE04A8
:1010C000882321F08AE00E94461A0ECC8381928107
:1010D00021813081E092F7044092F8044B814093E3
:1010E000F9043093FA042093FB049093FC0480935A
:1010F000FD040093FE040E94151A882321F088E75E
:1011000090E00E94B9181F5F0F5FF012CBCFECCBBD
:1011100089819A81EB81FC818E179F0709F0E4CBCE
:1011200081E00E94061BE0CB10921E06109115056F
:101130008BE20E94581A80FF45C28DEF810F8431E7
:1011400008F442C23FC210921E06E7EFF4E011928B
:1011500034E0EF3FF307D9F70E94C21A182F8FEF40
:10116000810F0E943918FC018091DE04882311F060
:1011700086E0A9CF838192812181308142EF409323
:10118000F7044C814093F8045B815093F904309349
:10119000FA042093FB049093FC048093FD041093C5
:1011A000FE04E1C110921E069091150591110DC02B
:1011B0008BE98093F7046C816093F8047B817093D2
:1011C000F9041092FA0488E02FC0492F50E0FA0188
:1011D0003197E830F105E0F4EC5CFF4F0C94482ABD
:1011E0008091300516C08091330513C08091310580
:1011F00010C0809135050DC0809136050AC08091E0
:10120000370507C08091340504C08091320501C0C4
:1012100080E02BE92093F704EC81E093F804FB8154
:10122000F093F9049093FA048093FB0496C1109212
:101230001E068FEF94E00E9400179A8389838FEF38
:1012400094E00E941B1749815A81BC0184EC94E010
:101250000E94140C898310928E0510928F051092B3
:10126000900510929105482F6EE875E084EC94E0AB
:101270000E94B10E298128137BCF622F70E020E0FD
:1012800040E084EC94E00E94980B882309F42CCB76
:1012900019CF80911E06811127CB109115053FEFC4
:1012A000310F3983409116054B833130F1F44E3FB5
:1012B00081F484EC94E00E94320F50921E069092CA
:1012C00027058092260583E690E00E94F01A53E6F7
:1012D0005B836B81609325056093C804462F62E1B0
:1012E00070E084EC94E00E94400B8BE20E94581A5C
:1012F00080FF05C08DEF810F843108F479C18091A2
:10130000370579818717F0F04B81672F84EC94E0E3
:101310000E94C60B809126059091270529E5209310
:10132000F7049093F8048093F9041092FA04109251
:10133000FB041092FC041092FD041092FE040E9423
:10134000151A06C089818F3F19F089E00E94461A5C
:10135000898165E00E94282A9350923028F499816F
:10136000915090933B05C0CA50923B05BDCA109264
:101370001E060E94C21A8B830E94D91A898380910B
:101380003605E9818E1708F49DCE4E2F41506B81B2
:10139000615084EC94E00E94F60B9091DE04911170
:1013A00091CE909126052091270535EB3093F704D7
:1013B0002093F8049093F904FB81F093FA042981B7
:1013C0002093FB048093FC04CAC010921E06EF28F1
:1013D00071F50E94D91A182F0E9439189A838983AF
:1013E00040E0612F84EC94E00E94F60B9091DE04C3
:1013F0009111BECEE981FA819381228131814081B0
:10140000F3EDF093F7044093F8043093F90420933C
:10141000FA049093FB041093FC048093FD04A1C094
:1014200080911E06811160CAEF2809F44CC082E049
:101430004ACE80911E06811157CA8FEF94E00E9418
:101440000017F82EE92E0E94D91A8B8320911805D7
:101450002D833A8130938E05498140938F05E09228
:101460009005F09291058BE20E94581A80FF05C00A
:101470005B81583010F4575F5B838B8184508430DC
:1014800020F09B819D50943048F40E943918FC0153
:10149000208120938E05818180938F054B816EE89A
:1014A00075E084EC94E00E94B10EFB81F81360CEED
:1014B0006F2F70E02D8140E084EC94E00E94980B47
:1014C000811100CE3BC08FEF94E00E940017F82EF0
:1014D000E92E0E94D91A8B83409019050E94C21AE6
:1014E0008D832A8120938E05398130938F05E09278
:1014F0009005F0929105482F41506EE875E084EC1C
:1015000094E00E94B10E682F70E04D81842F90E02E
:1015100001976817790709F02BCE4B814150242D94
:1015200084EC94E00E94980B90E07B81672F70E040
:10153000615071098617970709F0C4CD809126057F
:101540009091270529E52093F7049093F804809360
:10155000F9041092FA041092FB041092FC04109209
:10156000FD041092FE040E94151ABEC9E0910F06F8
:10157000F0911006309709F4B7C962EC74E08FEF70
:1015800094E00995B1C98FEF94E00E9400179A8307
:1015900089838FEF94E00E941B1749815A81BC0117
:1015A00084EC94E00E94140C2091CE0430E0482F8B
:1015B00050E0241735070CF4EDCA41CB8E3509F401
:1015C000A8CBA9CB8FEF01C083E1810F0E94581AED
:1015D0009091DE04911176CD97E99093F704FC8108
:1015E000F093F8042B812093F9041093FA041CCE95
:1015F0001D5E198384CE002309F411CB113009F448
:10160000F1CA8FEF94E00E94D5169A83898307CBA5
:1016100080E00F900F900F900F900F90DF91CF917F
:101620001F910F91FF90EF90DF90CF90BF90AF9000
:101630009F908F907F906F905F904F903F902F90F2
:1016400008950C94FA2A0C94FA2A0C94E929FC01C6
:1016500084E591E091838083DF015396CF014B961F
:101660001D92A817B907E1F7138E148E158E168EEA
:10167000178E11A210A212A2089508950C94E129C8
:10168000CF92DF92EF92FF921F93CF93DF937C0173
:101690006B01142FCB010E943E0B811721F0612FAB
:1016A000C6010E94250BF701838590E004962285F0
:1016B000289FE001299FD00D112485859685C80FAC
:1016C000D91FC535F1E0DF075CF5CC0DDD1DCE017E
:1016D0000E943E0B181721F0612FCE010E94250BAE
:1016E000F701838590E004964285489F9001499FC9
:1016F000300D112485859685820F931FC80FD91F41
:10170000CE010E943E0B181759F0612FCE01DF91D8
:10171000CF911F91FF90EF90DF90CF900C94250B0D
:10172000DF91CF911F91FF90EF90DF90CF900895C0
:10173000CF93DC01942F17964C91179750E06417C4
:10174000750718F081E0890F1FC01B96EC911B975D
:101750009E17C0F7422FC92FCD01F0E03496E69FC7
:10176000D001E79FB00DF69FB00D1124FC01258537
:101770003685BD01620F731FEC2FF0E034966E0FBB
:101780007F1F0E94400B8C2FCF910895EF92FF9204
:101790001F93CF93DF93FC012185261708F1142FA7
:1017A0007C01C62FD0E0FE01EE0FFF1FE659FB4F74
:1017B000842F90E0918380836996CE010E943E0B36
:1017C000181771F085EB94E00E94B918412FBE0103
:1017D000C701DF91CF911F91FF90EF900C94400BC8
:1017E000DF91CF911F91FF90EF900895FC01128E31
:1017F00087816817B0F42385421798F430E02C5F96
:101800003F4F629FD001639FB00D1124858596855F
:101810008A0F9B1F50E04C5F5F4F840F951F0C9405
:101820003E0B8FEF828F0895CF92DF92EF92FF925F
:101830000F931F93CF93DF93EC01252F3327862F30
:10184000072F1127F02EEF80A2EEB3E0E6E2F4E0DE
:1018500090E077275527E916F9F0F11002C08823A8
:1018600069F0CD90DC9011970C151D0589F49296C6
:10187000CD90DC9093976C157D0551F4C080D1809C
:101880002C153D0529F4C2A0D3A04C155D0541F0EF
:101890009F5F12963296DFCF9A8581E0890F01C053
:1018A000892FDF91CF911F910F91FF90EF90DF90E3
:1018B000CF900895AF92BF92CF92DF92EF92FF92B6
:1018C0000F931F93CF93DF93EC017B01FB01E8584B
:1018D000FF4F10818091BB02882309F48BC18EEEEB
:1018E00091E00E946D17812F0E940118112309F4C5
:1018F00083C18091BB02882309F443C08EEF91E03D
:101900000E946D17812F0E9401188AE092E00E94C8
:101910006D17CE010E94C01697012E5F3F4F6901DF
:10192000882339F0CE010E94D516AC0160E070E04A
:1019300009C0CE010E9400175C01CE010E941B1756
:10194000A501BC01C6010E94140CF701ED58FF4F20
:101950009081891730F440E0682FC6010E94F60B91
:1019600001C080E00E94011885E192E00E946D179D
:101970006AE070E08B810E94F3178CEB91E00E948B
:10198000831A8B81982F977F903919F091E08130DD
:1019900009F490E08FEF810F813108F0D7C14091B9
:1019A000E5025091E6026091E7027091E8024093EF
:1019B0004D0250934E0260934F027093500220915B
:1019C000BB02883009F069C0222321F08BE192E04C
:1019D0000E94831A80915202882309F4B7C1E4ED72
:1019E000EE2EE2E0FE2E0AE512E0C0E0D0E0F4E0E8
:1019F000AF2EB12CA8E1CA2EA5E1DA2EE091B902F2
:101A0000F091BA020C2E02C0F595E7950A94E2F720
:101A1000E170FF27EA0DFB1DEE0FFF1FED59FD4F93
:101A20008081918174E0880F991F7A95E1F7A60172
:101A3000481B590BF70151834083F801108221960E
:101A40008091BB028823E1F087EC91E00E946D1742
:101A50006AE070E0CE010E94B01789E492E00E9433
:101A60006D176AE070E0F701808191810E94B017E4
:101A700089E492E00E946D17F80180810E940118AC
:101A8000F5E0AF0EB11C22E0E20EF11C0F5F1F4F1C
:101A9000C830D10509F0B2CF59C1913011F483E0BB
:101AA000810F893008F08150E091B902F091BA02BB
:101AB000982F9770943028F08450883040F091E04F
:101AC00003C08830C0F090E084509923A1F041E039
:101AD00050E060E070E0082E04C0440F551F661F00
:101AE000771F0A94D2F7E42BF52BF093BA02E09318
:101AF000B902E1E015C041E050E060E070E0082E7E
:101B000004C0440F551F661F771F0A94D2F74095F3
:101B100050954E235F235093BA024093B902E0E000
:101B2000082F10E0E801CC0FDD1FDE01AC52BD4FE5
:101B3000F0E035E0839FE00DF11D1124EE0FFF1F53
:101B4000E559FD4F6081718154E0660F771F5A950A
:101B5000E1F748E155E1461B570B4D935C934091EB
:101B6000620250E0BA0102C0759567958A95E2F766
:101B7000F801E65AFD4F7F0160FF03C085E08083D6
:101B800001C01082222309F4E1C087EC91E00E9499
:101B90006D176AE070E0C80101960E94B01789E4F1
:101BA00092E00E946D17FE01EC52FD4F6AE070E07A
:101BB000808191810E94B01789E492E00E946D17A4
:101BC000CC53DD4F6AE070E0888199810E94B017A4
:101BD00089E492E00E946D17F7018081DF91CF9137
:101BE0001F910F91FF90EF90DF90CF90BF90AF903B
:101BF0000C9401181111C5CE8B818830C1F48091ED
:101C000052028823A1F08091BB02882321F084E84E
:101C100094E00E94B9188AE20E94581A4091B902D1
:101C20005091BA0290E08417950709F080C0809126
:101C3000BB02882309F48AC0CE010E94AB16882318
:101C400089F087EA94E00E947318CE010E941B1766
:101C50000E947D1A8DE994E00E947318CE010E94C3
:101C600000170CC0CE010E94C0168823B9F080E98D
:101C700094E00E947318CE010E94D5160E947D1A2E
:101C80008AEB91E0DF91CF911F910F91FF90EF9040
:101C9000DF90CF90BF90AF900C945B1785E192E0FE
:101CA0000E946D1760E170E08B810E94F3178FE155
:101CB00092E00E946D17CE010E941B170E947D1AB0
:101CC00087E292E00E946D172B8DF0E12F9F90012B
:101CD00011248C8D829586958770822B8A836AE089
:101CE00070E00E94F31780E392E00E946D178B89E9
:101CF00090E025E0959587952A95E1F78C836AE039
:101D000070E00E94F3178FE392E00E946D178091BC
:101D1000880590918905DF91CF911F910F91FF90D8
:101D2000EF90DF90CF90BF90AF900C946D1A406809
:101D300060E084EC94E00E94C60B8091BB02882393
:101D400029F08DE694E00E94B91871CFDF91CF9110
:101D50001F910F91FF90EF90DF90CF90BF90AF90C9
:101D60000895AF92BF92CF92DF92EF92FF921F93AE
:101D7000CF93DF93DC011A969C911A97491718F0BC
:101D800081E0890F4EC0142FFB017D01242F30E02C
:101D9000D901AA0FBB1FAE51BC4F808190E08D933B
:101DA0009C93D901AA0FBB1FAC5FBB4F818190E010
:101DB0008D939C93D901AA0FBB1FAA5DBB4F828153
:101DC00090E08D939C93D901AA0FBB1FA85BBB4FDA
:101DD000838190E08D939C93D7011B968C911B97E8
:101DE00090E00496829F6001839FD00C929FD00C5C
:101DF00011241D968D919C911E97C80ED91E5B01D2
:101E0000B4E0AB0EB11CEB01C61AD70AB6016C0FD9
:101E10007D1F4991C7010E94400BCA15DB05B1F730
:101E2000812FDF91CF911F91FF90EF90DF90CF90A6
:101E3000BF90AF900895FC0180E090E0238530E0F2
:101E4000821793073CF4A281B381A80FB91F1C929B
:101E50000196F4CF83E68483158287EC868317820C
:101E6000148A0895BF92CF92DF92EF92FF920F9360
:101E70001F93CF93DF9300D000D0CDB7DEB78C0196
:101E80000E941B0FF8018285878319821A8282E4DF
:101E90008B838CEC8C83C12CD12CE12CF12CBE2CAF
:101EA0004E2DBE016F5F7F4FC8010E94B10E20E032
:101EB00040E0B701C8010E94980B8C818F5F8C8332
:101EC000811103C08B818F5F8B8344E04B0DBE017A
:101ED0006F5F7F4FC8010E94B10E20E040E0B70164
:101EE0006C5F7F4FC8010E94980B8C818F5F8C8341
:101EF000811103C08B818F5F8B838FEFE81AF80A03
:101F0000EFEFCE1ADE0AF8E0CF16D10441F0F4E08C
:101F1000CF16D10421F699E0E92EF12CC0CF198219
:101F20001A8282E18B8387E68C8348E0BE016F5F73
:101F30007F4FC8010E94B10E20E040E068E070E0F1
:101F4000C8010E94980B42E060E0C8010E94C60BE5
:101F500042E860E0C8010E94C60B43E661E0C801A8
:101F60000E94C60B82E0F82E40E06F2DC8010E944F
:101F7000C60B61E06F0D4BE4C8010E94C60B62E026
:101F80006F0D41EEC8010E94C60B63E06F0D4DE07E
:101F9000C8010E94C60B64E06F0D4DE0C8010E94AD
:101FA000C60B85E0F80EEAE2FE12DECF40E06BE2FF
:101FB000C8010E94C60B40E06AE2C8010E94C60B3D
:101FC00049E560E070E0C8010E94400BF8014481DF
:101FD00062E170E0C8010E94400BF801458163E1B5
:101FE00070E0C8010E94400BF801468164E170E096
:101FF000C8010E94400BF801448965E170E0C80106
:102000000E94400BF801478167E170E0C8010E941F
:10201000400BF801438568E170E0C8010E94400B65
:1020200060E08DEF93E00E94250B60E08EEF93E07F
:102030000E94250B60E08FEF93E00E94250BC80102
:102040000E9430100F900F900F900F90DF91CF9162
:102050001F910F91FF90EF90DF90CF90BF90089568
:102060005F926F927F928F929F92AF92BF92CF9228
:10207000DF92EF92FF920F931F93CF93DF93EC01C8
:102080000E941B0F8B8590E004962A85289F700183
:10209000299FF00C11248D859E85E80EF91E85E59B
:1020A000E81681E0F8060CF06AC08FEF93E00E941A
:1020B0003E0B782E8EEF93E00E943E0B182F8DEF93
:1020C00093E00E943E0B711681F0781681F0181390
:1020D00006C0612F8EEF93E00E94250B712E5701F1
:1020E000AA0CBB1C00E010E024C07816C1F3672DD9
:1020F0008FEF93E00E94250BF2CFC8010E943E0BA8
:10210000682E48018E0C9F1CC4010E943E0B582E65
:102110006501C00ED11EC6010E943E0B651491F0F0
:1021200068120BC0662DC4010E94250B73940F5FCB
:102130001F4F0E151F050CF30DC05812F8CF652D5B
:10214000C801F2CF681699F37394662DC6010E94F8
:10215000250BEDCF8FEF93E00E943E0B781679F0C0
:10216000672D8DEF93E00E94250B672D8EEF93E096
:102170000E94250B672D8FEF93E00E94250B80E0D6
:1021800090E00E943E0B893519F0CE010E94320F7B
:1021900082E190E00E943E0B8C8383E190E00E94FC
:1021A0003E0B8D8384E190E00E943E0B8E8385E19F
:1021B00090E00E943E0B8C8B87E190E00E943E0BEA
:1021C0008F83DF91CF911F910F91FF90EF90DF9060
:1021D000CF90BF90AF909F908F907F906F905F90C7
:1021E00008952CE631E0FC013183208382819381C4
:1021F000009711F00C94FA2A0895CF93DF93EC0125
:102200000E94F110CE01DF91CF910C94FA2A24E7BD
:1022100031E0FC0121933193CF010C94F110CF9365
:10222000DF93EC010E940711CE01DF91CF910C9456
:10223000FA2A08952F923F924F925F926F927F9267
:102240008F929F92AF92BF92CF92DF92EF92FF92C6
:102250000F931F93CF93DF9300D000D01F92CDB781
:10226000DEB780E00E94581A8B83817080935202FF
:1022700073E2C72E73E0D72E76011A82198200E02E
:1022800010E0802F0E943918FC01828193819827E9
:1022900089279827F701819391937F01C8010196BF
:1022A00029813A812F5F3F4F3A83298321313105BC
:1022B00049F029813A812830310511F4C80102968C
:1022C0008C01DFCF8BE20E94581A81E08093BB0221
:1022D00003E612E01D830C8366246394712C53E0A3
:1022E000552EE12CF12C812C912C54018394852DB9
:1022F0000E946A1A90E0EC81FD8197838683208496
:10230000318444244394450C842D0E946A1A90E041
:102310002816390601F1842D0E946A1A90E0EC819A
:10232000FD8191878087C701880F991FA5019401BE
:1023300004C0220F331F441F551F8A95D2F7DA01BC
:10234000C9012091540230915502822B932B909316
:1023500055028093540217013FEF231A330AEC8190
:10236000FD810284F385E02DFA83E98322E0422E89
:10237000450C842D0E946A1A90E029813A81281721
:102380003907E1F0842D0E946A1A90E0EC81FD810A
:10239000938782872091540230915502D501C40160
:1023A000062C04C0880F991FAA1FBB1F0A94D2F7DE
:1023B000822B932B909355028093540283E0850DDA
:1023C0000E946A1A90E0EC81FD819587848784E001
:1023D000850D0E946A1A90E0EC81FD8197878687BF
:1023E000852D0E946A1A2091620282FF0CC0D501DD
:1023F000C4010E2C04C0880F991FAA1FBB1F0A948A
:10240000D2F7822B0CC0D501C4010E2C04C0880F5A
:10241000991FAA1FBB1F0A94D2F78095822380932D
:102420006202852D0E946A1A20914C0280FF0BC027
:10243000D501C40104C0880F991FAA1FBB1FEA94CD
:10244000D2F7822B0BC0D501C40104C0880F991F9D
:10245000AA1FBB1FEA94D2F78095822380934C0277
:1024600055E0550E8C819D810A969D838C8392E068
:10247000690E711CEBE25E1611F0710138CF80918C
:10248000540290915502892B09F061C020913B05BF
:10249000223008F46CC02231D1F040F4283099F099
:1024A000213199F02730C1F428E016C02C3189F091
:1024B00020F42B3189F42CE10FC0253261F0263253
:1024C00059F425E209C027E007C022E105C021E157
:1024D00003C02BE101C026E230E022503109C901DE
:1024E00065E070E00E94342A660F771F2170332761
:1024F000260F371F81E090E0A0E0B0E004C0880F15
:10250000991FAA1FBB1F2A95D2F79093550280935B
:1025100054028091BB028823A1F081E694E00E94DE
:1025200073186AE070E080915402909155020E9405
:10253000B01789E492E00E946D1780913B050E94DC
:1025400001188091540290915502892B81F080915D
:10255000E5029091E602A091E702B091E802809333
:10256000560290935702A0935802B09359021092CA
:102570003B058091BB02882309F407C18CEB91E0F5
:102580000E94831A83E594E00E94B91881E494E0E4
:102590000E9473188B810E94011823E632E03A836F
:1025A0002983A12CB12C8AE394E00E947318750151
:1025B0003FEFE31AF30A6AE070E0C7010E94B01728
:1025C00088E492E00E946D17F601819191916F016C
:1025D0000E947D1A89E492E00E946D17F6018681BF
:1025E00097810E947D1A89E492E00E946D176AE04B
:1025F00070E0E981FA81868197810E94B01789E4B1
:1026000092E00E946D176AE070E0E981FA818085AE
:1026100091850E94B01789E492E00E946D176AE0EC
:1026200070E0E981FA81828593850E94B01789E480
:1026300092E00E946D176AE070E0E981FA8184857A
:1026400095850E94B01789E492E00E946D176AE0B8
:1026500070E0E981FA81868597850E94B01789E448
:1026600092E00E946D178091620290E002C0959501
:102670008795AA94E2F7817099270E946D1A2981A3
:102680003A81265F3F4F3A832983570134E0E316AE
:10269000F10409F088CF83E3E82E83E0F82E44E0CC
:1026A00050E05A83498383E394E00E947318C98001
:1026B000DA805FEFC51AD50A6AE070E0C6010E94B1
:1026C000B01788E492E00E946D17F7018191919113
:1026D0007F010E947D1A89E492E00E946D17F70144
:1026E000868197810E947D1A89E492E00E946D178D
:1026F0006AE070E0F80186A597A50E94B01789E40A
:1027000092E00E946D176AE070E0F80180A991A93B
:102710000E94B01789E492E00E946D176AE070E0B1
:10272000F80182A993A90E94B01789E492E00E945F
:102730006D176AE070E0F80184A995A90E94B017AE
:1027400089E492E00E946D176AE070E0F80186A9C2
:1027500097A90E94B01789E492E00E946D178091BA
:10276000620290E0098002C0959587950A94E2F78D
:10277000817099270E946D1A065F1F4FDA82C98205
:1027800096012830310509F08ECF0F900F900F90F1
:102790000F900F90DF91CF911F910F91FF90EF90CD
:1027A000DF90CF90BF90AF909F908F907F906F9071
:1027B0005F904F903F902F9008951F920F920FB609
:1027C0000F9211242F933F934F935F938F939F9377
:1027D000AF93BF9380912103909122030097F9F466
:1027E0002091C4023091C50280911F039091200373
:1027F000820F931F9093200380931F038091BC024C
:10280000882321F0283833410CF415C12091880029
:10281000309189008091C4029091C502CAC0813074
:102820009105D1F447988091C6029091C7022091FA
:102830001F0330912003280F391F3093200320936A
:102840001F032091BD02222309F4AFC0883823E181
:1028500092070CF4F2C0A9C082309105D1F44698D9
:102860008091C8029091C90220911F0330912003EA
:10287000280F391F3093200320931F032091BE029D
:10288000222309F492C0883823E192070CF4D7C0C0
:102890008CC083309105D1F445988091CA02909103
:1028A000CB0220911F0330912003280F391F309352
:1028B000200320931F032091BF02222309F475C037
:1028C000883823E192070CF4BCC06FC084309105B6
:1028D000D1F444988091CC029091CD0220911F03B5
:1028E00030912003280F391F3093200320931F03BA
:1028F0002091C002222309F458C0883823E19207AE
:102900000CF4A1C052C085309105C9F44398809160
:10291000CE029091CF0220911F0330912003280F07
:10292000391F3093200320931F032091C1022223DB
:10293000E1F1883823E192070CF487C036C0863075
:102940009105C9F442988091D0029091D1022091D2
:102950001F0330912003280F391F30932003209349
:102960001F032091C202222301F1883823E192073C
:102970000CF46DC01AC0079761F541988091D2029E
:102980009091D30220911F0330912003280F391F0B
:102990003093200320931F032091C302222329F0A8
:1029A000883823E192070CF454C0209188003091BC
:1029B0008900820F931F90938900809388008091F3
:1029C0002103909122030196909322038093210387
:1029D00042C0409840911F0350912003483588E938
:1029E000580788F4209188003091890088E598E99B
:1029F000A0E0B0E0841B950BA109B109880F991FD5
:102A0000820F931F06C080918800909189008A569A
:102A10009F4F90938900809388001092200310921A
:102A20001F0310922203109221038091E4028F5F12
:102A30008093E40210C0479AE9CE469AB6CF459AF1
:102A4000B4CF449AB2CF439AB0CF429AAECF419A14
:102A5000ACCF409AAACFBF91AF919F918F915F91D8
:102A60004F913F912F910F900FBE0F901F9018958F
:102A7000CF92DF92EF92FF920F931F93CF93DF934A
:102A80006C017A018B01C0E0D0E0CE15DF0581F04A
:102A9000D8016D918D01D601ED91FC910190F081ED
:102AA000E02DC6010995892B11F02196EECF7E010C
:102AB000C701DF91CF911F910F91FF90EF90DF90B1
:102AC000CF900895089580E090E00895FC01538D23
:102AD000448D252F30E0842F90E0821B930B5417F8
:102AE00010F0CF96089501970895FC01918D828D85
:102AF000981761F0828DDF01A80FB11D5D968C9152
:102B0000928D9F5F9F73928F90E008958FEF9FEF5C
:102B10000895FC01918D828D981731F0828DE80F18
:102B2000F11D858D90E008958FEF9FEF0895FC01D2
:102B3000918D228D892F90E0805C9F4F821B91099F
:102B40008F739927089585E493E00E94971521E0FB
:102B5000892B09F420E0822F0895FC01848DDF0188
:102B6000A80FB11DA35ABF4F2C91848D90E0019600
:102B70008F739927848FA689B7892C93A089B189EF
:102B80008C91837080648C93938D848D981306C090
:102B90000288F389E02D80818F7D80830895EF92F4
:102BA000FF920F931F93CF93DF93EC0181E0888F07
:102BB0009B8D8C8D981305C0E889F989808185FDEE
:102BC00026C0F62E0B8D10E00F5F1F4F0F731127DD
:102BD000E02E8C8DE8120CC00FB607FCFACFE88906
:102BE000F989808185FFF5CFCE010E94AD15F1CF27
:102BF0008B8DFE01E80FF11DE35AFF4FF0829FB766
:102C0000F8940B8FEA89FB89808180620AC09FB7A4
:102C1000F894EE89FF896083E889F989808183705F
:102C2000806480839FBF81E090E0DF91CF911F910E
:102C30000F91FF90EF900895CF93DF93EC01888D73
:102C40008823C9F0EA89FB89808185FD05C0A889B0
:102C5000B9898C9186FD0FC00FB607FCF5CF808136
:102C600085FFF2CFA889B9898C9185FFEDCFCE0180
:102C70000E94AD15E7CFDF91CF91089580E090E0FD
:102C8000892B29F00E94A31581110C94000008954E
:102C90000E94832B0C94FA2A1F920F920FB60F9268
:102CA00011242F933F934F935F936F937F938F9351
:102CB0009F93AF93BF93EF93FF9385E493E00E94BC
:102CC000AD15FF91EF91BF91AF919F918F917F9142
:102CD0006F915F914F913F912F910F900FBE0F9089
:102CE0001F9018951F920F920FB60F9211242F93D9
:102CF0008F939F93EF93FF93E0915503F0915603C9
:102D00008081E0915B03F0915C0382FD12C09081B1
:102D100080915E038F5F8F7320915F03821751F064
:102D2000E0915E03F0E0EB5BFC4F958F80935E03D8
:102D300001C08081FF91EF919F918F912F910F9012
:102D40000FBE0F901F9018958EBD00000DB407FEAA
:102D5000FDCF8EB50895FC019381892F8F7D805919
:102D6000823058F080E3890F823038F081E0903F64
:102D700031F0913F21F080E0089581E008950895B9
:102D8000FC019381892F8F7D8859823058F088E229
:102D9000890F823038F081E0983F31F0993F21F07F
:102DA00080E0089581E008950895FC0193819B35AA
:102DB000C1F088E6890F8330A0F0892F8F798D5973
:102DC000823078F088E4890F823058F088E2890FE9
:102DD000823038F088E0890F843018F080E090E08D
:102DE000089586E0890F823010F09B3519F48489AC
:102DF000958902C0868997899827892798270895F9
:102E0000FC019381292F2F7B2059263070F080E51B
:102E1000890F853050F080E1890F823030F0935F68
:102E2000933018F080E090E008958689978998277C
:102E3000892798270895FC0193899234A9F180EBA2
:102E4000890F8B3088F184EA890F823068F181E93B
:102E5000890F873048F180E7890F8F3028F180E5AE
:102E6000890F873008F188E4890F8230E8F0292F34
:102E70002F7B2D5B2230C0F080E3890F8630A0F0DD
:102E800088E2890F823080F083E2890F823060F01F
:102E9000933E51F080E1890F823030F0935F97309C
:102EA00018F080E090E00895848995899827892713
:102EB000982708950895009769F0FC01019000207B
:102EC000E9F73197AF01481B590BBC0185E493E04A
:102ED0000C94381580E090E008950C945B178F9265
:102EE0009F92AF92BF920F931F93CF93DF93CDB773
:102EF000DEB7A1970FB6F894DEBF0FBECDBF19A203
:102F0000423008F44AE08E010F5D1F4F842E912C51
:102F1000A12CB12CA50194010E94F729E62FB9013B
:102F2000CA0101501109EA3014F4E05D01C0E95C06
:102F3000D801EC93232B242B252B61F7C8010E9489
:102F40005B17A1960FB6F894DEBF0FBECDBFDF9121
:102F5000CF911F910F91BF90AF909F908F90089548
:102F6000CF92DF92EF92FF92CF93DF9361157105BD
:102F700059F4682F85E493E0DF91CF91FF90EF90B3
:102F8000DF90CF900C94CF156C01990FEE08FF08DD
:102F90006A307105E9F4F7FE19C06DE285E493E04B
:102FA0000E94CF15EC0166277727CB016C197D09AC
:102FB0008E099F094AE00E946F178C0F9D1FDF91B9
:102FC000CF91FF90EF90DF90CF9008954AE001C03D
:102FD000462FC701B601DF91CF91FF90EF90DF90B0
:102FE000CF900C946F17AB01682F4115510521F458
:102FF00085E493E00C94CF1570E080E090E00C94B1
:103000006F17CF93DF936AE070E00E94F317EC0133
:103010008AEB91E00E945B178C0F9D1FDF91CF918F
:103020000895E5E4F3E0A089B18982E08C93A4855A
:10303000B5851C92A685B78580E18C93108EA489F6
:10304000B58986E08C93A289B3898C9180618C9339
:10305000A289B3898C9188608C93A289B3898C9161
:1030600080688C930288F389E02D80818F7D808336
:1030700008951092D4041092D5041092D6041092A0
:10308000D7041092DE049091CE04981720F090910E
:10309000CB04981720F481E08093DE0421C090E0F7
:1030A000FC01EE0FFF1FEE51FC4F20812093D40452
:1030B000FC01EE0FFF1FEC5FFB4F20812093D50436
:1030C000FC01EE0FFF1FEA5DFB4F20812093D60429
:1030D000880F991FFC01E85BFB4F80818093D70428
:1030E00084ED94E008950F931F93CF93DF938C01A9
:1030F000C0E0D0E0F801EC0FFD1F6491662341F0C1
:1031000085E493E00E94CF15892B11F02196F2CF30
:10311000CE01DF91CF911F910F910895FF920F93F0
:103120001F93CF93DF93C82FF62E072F142F60E045
:103130008091EF040E949C1B82E00E94A4168C2FB9
:103140000E94A416CF2DD02FCE01810F911D8C018E
:10315000C017D10721F089910E94A416F9CF61E030
:103160008091EF04DF91CF911F910F91FF900C940C
:103170009C1BCF93DF930E947318EC018AEB91E0C4
:103180000E945B178C0F9D1FDF91CF9108951F93B5
:10319000CF93DF93182FC2ECD4E060E08DA50E949E
:1031A0009C1B83E00E94A416812F0E94A41680E03D
:1031B0000E94A416182F61E08DA50E949C1B812FF0
:1031C000DF91CF911F910895FF920F931F93CF939B
:1031D000DF93F82E062F142FC2ECD4E060E08DA50B
:1031E0000E949C1B85E00E94A4168F2D0E94A416AD
:1031F000802F0E94A416812F0E94A41661E08DA545
:10320000DF91CF911F910F91FF900C949C1B0F9316
:103210001F93CF93DF93082F162FC2ECD4E060E00A
:103220008DA50E949C1B82E00E94A416802F0E9404
:10323000A416812F0E94A41661E08DA5DF91CF9185
:103240001F910F910C949C1B4F925F926F928F92E3
:103250009F92AF92BF92CF92DF92FF920F931F93F4
:10326000CF93DF9300D000D0CDB7DEB71092DF044C
:103270006093E0047093E1048093E2049093E3048C
:10328000493008F048E04093E4041092ED04A5EEC4
:10329000B4E0F90150E0CF01821B930B841795072E
:1032A0001CF481918D93F7CFA12CB12C4090780123
:1032B0005090790160907A014E0124E0820E911CB9
:1032C00049825A826B82CE0101966C01F82E0D2D37
:1032D000F60111916F01812F0E94C718982F9870E5
:1032E00083FD02C01F5F05C08C149D0489F710E0A8
:1032F00092E0FFEFAF1ABF0A923029F422E3A21640
:10330000B104F1F67CC082E3A816B10409F477C0D9
:103310004091E40465EE74E085E0810F0E948E1810
:103320008091ED04813029F48091E40480648093DD
:10333000E4046091E40484E0810F0E940719409145
:10334000E0045091E1046091E2047091E304809103
:10335000DF048130B1F44C835B83AB0166277727B0
:10336000942F9C71842F8370E8E09E9F800D112420
:1033700088608A8365E0569547956A95E1F74983A9
:103380000DC0CA0123E0969587952A95E1F78983B8
:103390004295440F407E4A831C821B8244E06F2D7D
:1033A000702F812F0E948E18115048E068E0812F05
:1033B0000E94E418C12CD12CFFEFCF1ADF0A812F15
:1033C0000E94C71883FF05C022E3C216D104A1F7EB
:1033D00018C082E3C816D104A1F01092E004109244
:1033E000E1041092E2041092E3041092E4041092BB
:1033F000DF041092ED041092EE0480E003C086E03A
:1034000001C087E00F900F900F900F90DF91CF9148
:103410001F910F91FF90DF90CF90BF90AF909F9042
:103420008F906F905F904F900895CF93DF93C091EE
:10343000F704C63B21F0C295C695C77001C0C7E02E
:10344000CF5F81E08093F4048093F50460912505BB
:1034500070E080E090E027EF34E04C2F0E942419C8
:10346000811102C080E00FC0D3E06091250570E0BB
:1034700080E090E027EF34E04C2F0E94241988234D
:1034800089F3D15091F7DF91CF910895E2ECF4E008
:10349000A6E2B5E09C9111962C913FE635AB26ABA8
:1034A00097AB80AF11AE12AE13AE14AE0C94151ADA
:1034B0001092DE049091CD04891720F08FEF809355
:1034C000DE040895E82FF0E0EE0FFF1FE659FB4FF2
:1034D0008081089581500C94581ACF93DF936AE04D
:1034E00070E00E94B017EC018AEB91E00E945B173C
:1034F0008C0F9D1FDF91CF910895BC0180E090E07B
:103500004AE00C946F17CF93DF930E945B17EC0196
:103510008AEB91E00E945B178C0F9D1FDF91CF918A
:10352000089590E0FC01EF50FB4F2491FC01E35221
:10353000FB4F8491882399F090E0880F991FFC013C
:10354000ED52FB4FA591B491FC01E753FB4F8591E0
:1035500094918FB7F894EC91E22BEC938FBF089580
:10356000CF93C82F482F60EE8FE00E94E4188FE0C1
:103570000E94C718982F907E81E09C1301C080E0C4
:10358000CF91089580910205823721F08C3911F096
:10359000853B19F4809115050895853F19F48091B4
:1035A00017050895823F19F480911905089580E068
:1035B0000895809102058C3911F0853B19F48091B2
:1035C00016050895823B11F0823D19F4809117058C
:1035D0000895853F19F480911805089580E00895B5
:1035E000CF93DF93C2ECD4E09F838887492F63E1B8
:1035F00070E084EC94E00E94400B488564E170E048
:1036000084EC94E0DF91CF910C94400BCF93DF9347
:10361000CDB7DEB728970FB6F894DEBF0FBECDBF8B
:1036200010920E068093390584E090E0909389050E
:103630008093880582E08093F40483E08093F5040E
:103640006091250570E080E090E0FE013196AE01CA
:10365000475F5F4F9F011192E417F507E1F741E0E3
:103660004093ED0440E00E9424191092ED040E9462
:10367000F21C60938A0570938B0580938C05909360
:103680008D0528960FB6F894DEBF0FBECDBFDF9133
:10369000CF910895833081F028F4813099F0823001
:1036A000A1F008958730A9F08830B9F08430D1F4C2
:1036B000809180008F7D03C0809180008F77809300
:1036C0008000089584B58F7702C084B58F7D84BD56
:1036D00008958091B0008F7703C08091B0008F7DF6
:1036E0008093B0000895CF93DF93282F30E0F90145
:1036F000E15FFA4F8491F901EF50FB4FD491F9014A
:10370000E352FB4FC491CC2391F081110E944A1BDC
:10371000EC2FF0E0EE0FFF1FEB5FFA4FA591B49195
:10372000EC91ED2381E090E021F480E002C080E0A4
:1037300090E0DF91CF9108951F93CF93DF93282FCF
:1037400030E0F901E15FFA4F8491F901EF50FB4F4E
:10375000D491F901E352FB4FC491CC23C1F0162F51
:1037600081110E944A1BEC2FF0E0EE0FFF1FE75380
:10377000FB4FA591B4919FB7F894111104C08C919F
:10378000D095D82302C0EC91DE2BDC939FBFDF9154
:10379000CF911F910895FF920F931F93CF93DF93C3
:1037A000182FF62EC72FD42F60E08091EF040E94CF
:1037B0009C1B83E00E94A416812F0E94A4160F2D4B
:1037C0001C2FC0E0CD1751F0C83041F080E00E94BE
:1037D000A416F80181938F01CF5FF4CF61E080914F
:1037E000EF04DF91CF911F910F91FF900C949C1BE0
:1037F0000F931F93CF93DF9300D000D0CDB7DEB7E8
:10380000182F1092DF041092E0041092E10410923D
:10381000E2041092E30444E0BE016F5F7F4F0E9418
:10382000CB1B2A813981822F90E065E095958795A1
:103830006A95E1F748E0349F800D911D1124092E0F
:10384000000CAA0BBB0B8093E0049093E104A093BF
:10385000E204B093E30423FF29C032E0880F991FEC
:10386000AA1FBB1F3A95D1F72370820F911DA11D8E
:10387000B11DBA2FA92F982F88272B81820F911D58
:10388000A11DB11DBA2FA92F982F88272C81820F37
:10389000911DA11DB11D8093E0049093E104A093BC
:1038A000E204B093E30481E08093DF048FEF810FA3
:1038B0000E94C718082F84E0810F0E94C71803FFD9
:1038C00004C091E09093ED0402C01092ED04482FE3
:1038D0004F704093E40465EE74E085E0810F0E9430
:1038E000CB1B0F900F900F900F90DF91CF911F91F6
:1038F0000F9108951F93CF93DF93C2ECD4E060E063
:103900008DA50E949C1B80EA0E94A41680E00E9464
:10391000A416182F61E08DA50E949C1B812FDF91BA
:10392000CF911F9108953FB7F89480912A06909106
:103930002B06A0912C06B0912D0626B5A89B05C09C
:103940002F3F19F00196A11DB11D3FBFBA2FA92F1E
:10395000982F8827820F911DA11DB11DBC01CD019B
:1039600042E0660F771F881F991F4A95D1F7089587
:103970008F929F92AF92BF92CF92DF92EF92FF927F
:103980006B017C010E94931C4B015C01C114D104AA
:10399000E104F104F1F00E94931CDC01CB018819D1
:1039A0009909AA09BB09883E9340A105B10570F3A6
:1039B00021E0C21AD108E108F10888EE880E83E000
:1039C000981EA11CB11CC114D104E104F10419F723
:1039D000DDCFFF90EF90DF90CF90BF90AF909F90A2
:1039E0008F9008952FB7F89460912606709127065E
:1039F00080912806909129062FBF08951F920F925B
:103A00000FB60F9211242F933F938F939F93AF93F1
:103A1000BF938091260690912706A0912806B09129
:103A200029063091250623E0230F2D3720F4019637
:103A3000A11DB11D05C026E8230F0296A11DB11DD1
:103A4000209325068093260690932706A0932806A8
:103A5000B093290680912A0690912B06A0912C06FE
:103A6000B0912D060196A11DB11D80932A06909359
:103A70002B06A0932C06B0932D06BF91AF919F917A
:103A80008F913F912F910F900FBE0F901F9018951F
:103A9000CF93DF9300D000D000D0CDB7DEB77894BD
:103AA00084B5826084BD84B5816084BD85B5826043
:103AB00085BD85B5816085BD80916E0081608093F4
:103AC0006E0010928100809181008260809381005D
:103AD000809181008160809381008091800081606D
:103AE000809380008091B10084608093B1008091C8
:103AF000B00081608093B00080917A0084608093F0
:103B00007A0080917A00826080937A0080917A00B6
:103B1000816080937A0080917A00806880937A0037
:103B20001092C10081E2E0E0F0E0809357009491B0
:103B3000E2E0F0E0809357002491E4E0F0E080932D
:103B400057008491253921F4863111F49E3131F0EA
:103B50000E94111884E993E00E94B918FEE34F2EE9
:103B6000F1E05F2E26E331E03A832983A981BA810F
:103B70001D91BA83A98361E0812F0E949C1B812F34
:103B80000E94911AE981FA81EE53F14079F746E0FB
:103B900051E05A834983A981BA811D91BA83A983CF
:103BA000812F0E94911A60E0812F0E949C1BE98165
:103BB000FA81EE50F14079F7A8E2B5E080E395E0B4
:103BC000FD0111928E179F07E1F7EBE7F1E081917C
:103BD0008D9331E0E338F307D1F789E58093310520
:103BE0008DE08093300588E38093330581E08093F6
:103BF0003405809132058360809332058DEB90E02F
:103C0000A0E0B0E080933C0590933D05A0933E0575
:103C1000B0933F058AE59CE09093100680930F06D1
:103C20008AE08093EF040E94911A61E08091EF0492
:103C30000E949C1B44E150E05A83498377EEA72EF3
:103C400074E0B72EEBEFEE2EE4E0FE2EDFB6F89434
:103C50008091E902811123C0F5018491F70124913B
:103C6000E82FF0E0EE0FFF1FED52FB4FA591B4914E
:103C70009C91822F892321F461E08AE00E949C1BA1
:103C80008AE00E94911A8CB580618CBD8CB58064ED
:103C90008CBD8DE00E94911A8BE00E94911A809158
:103CA000E9028F5F8093E902DFBE60E08091EF045C
:103CB0000E949C1B80EC0E94A41661E08091EF049E
:103CC0000E949C1B6AE070E080E090E00E94B81CBB
:103CD00080E80E94B01A8823B1F06AE070E080E0CA
:103CE00090E00E94B81C6EE170E080E090E00E94DD
:103CF000B81C29813A81215031093A832983232B29
:103D000009F0A4CF4BC06AE070E080E090E00E9430
:103D1000B81C61E08AE20E94071961EB89E20E9407
:103D2000071965E088E20E9407196AE070E080E008
:103D300090E00E94B81C10E360E0812F0E940719F8
:103D400060E080E1810F0E94071960E080E2810F4E
:103D50000E9407191F5F1E3379F760E080E60E941A
:103D6000071960E080E70E94071963E08BE20E9478
:103D7000071944E064E680E60E94E41840E060E64B
:103D800080E70E94E41880E00E94B01A8111A5CF5C
:103D90006AE070E080E090E00E94B81C8BE20E9434
:103DA000581A81E08093BB020E9411188CEB91E0BD
:103DB0000E94831A8DE793E00E9473186AE070E016
:103DC00081E090E00E94B01784E891E00E946D17B6
:103DD00088E090E00E946D1A86E891E00E94831AC4
:103DE00084EC94E00E9430108FE091E00E94B918BA
:103DF00088E091E00E94731880E090E00E943E0B02
:103E00006AE070E00E94F3178FEF90E00E94731851
:103E10006AE070E08091C8040E94F3178AEF90E096
:103E20000E9473188091C9049091CA049827892729
:103E300098279093DA048093D9040E947D1A82EF28
:103E400090E00E9473186AE070E08091D8040E94AC
:103E5000F31785EE90E00E9473186AE070E080919D
:103E6000CB040E94F31783ED90E00E9473186AE080
:103E700070E08091CF040E94F31787EC90E00E94DD
:103E800073186AE070E08091CD040E94F3178FE907
:103E900091E00E946D176AE070E089E190E00E9475
:103EA000B01786EA91E00E946D178091CD0490E0F2
:103EB0006AE070E048960E94B01788EA91E00E949C
:103EC0006D1719828091CD04C980C81688F48C2D95
:103ED00090E049960E943E0B60E170E00E94F3176B
:103EE00085EC90E00E94731829812F5F2983EACF27
:103EF00084EB90E00E9473186AE070E080E190E04B
:103F00000E94B0178CEA91E00E946D176AE070E0A1
:103F100082E090E00E94B01786EA91E00E946D175F
:103F20006AE070E081E190E00E94B01788EA91E0D9
:103F30000E946D1742E050E05A83498389819A813B
:103F40000E943E0B60E170E00E94F31782EB90E06C
:103F50000E94731889819A8101969A838983429776
:103F600069F784EA90E00E9473186AE070E080913B
:103F7000D0040E94F31782EB91E00E946D176AE073
:103F800070E08091D3040E94F31786EA91E00E94CA
:103F90006D178091D00490E00197880F991F2091B0
:103FA000D304820F911D6AE070E001960E94B01761
:103FB00088EB91E00E946D176AE070E082E090E08B
:103FC0000E94B01788EA91E00E946D1710E080917E
:103FD000D004181728F5A12FB0E0AA0FBB1FBA8391
:103FE000A9838091D304A80FB11DCD010E943E0B7F
:103FF00060E170E00E94F3178091D304C980DA80F9
:10400000C80ED11CC60101960E943E0B60E170E013
:104010000E94F31782EA90E00E9473181F5FD7CFC7
:10402000E090D104F090D204FA82E98289E990E02C
:104030000E9473186AE070E08091CE040E94F3172A
:1040400082EB91E00E946D176AE070E089819A81AD
:104050000E94B01786EA91E00E946D178091CE040D
:1040600024E0829FE00CF11C1124C7016AE070E09B
:1040700001970E94B01788EB91E00E946D176AE0EB
:1040800070E084E090E00E94B01788EA91E00E941E
:10409000831A10E08091CE04181708F05FC0E98001
:1040A000FA8034E0E30EF11C89819A810E943E0B74
:1040B00060E170E00E94F31749815A814F5F5F4FC2
:1040C0005A83498387E990E00E947318C980DA8097
:1040D000CE14DF0449F785E990E00E947318C12EE1
:1040E000D12CCC0CDD1CE12CF12CF601EE0DFF1DCA
:1040F000EE51FC4F60E170E0808191810E94B01729
:1041000083E990E00E94731822E2E20EF11C38E885
:10411000E316F10451F78DE890E00E94731800E077
:104120008091CF040817A0F489819A810E943E0BE8
:1041300060E170E00E94F31749815A814F5F5F4F41
:104140005A8349838BE890E00E9473180F5FE8CF91
:104150008AEB91E00E945B171F5F9CCF8091BB02AE
:1041600081110EC01092140681E08093150680E044
:104170000E94911A809115068F3F11F00E94911AAA
:10418000F89489E0E0E0F0E080935700E491E3E008
:10419000F0E080935700E491E2E0F0E08093570074
:1041A000E491E1E0F0E080935700849178940E94DC
:1041B0001A11109256021092570210925802109241
:1041C000590210925502109254028091BB0288232A
:1041D00011F18CE693E00E9473186AE070E080E1D0
:1041E00090E00E94B01789E493E00E9473186AE09F
:1041F00070E08CE291E00E94B01782E493E00E94AC
:1042000073186AE070E08CE89AE00E94B0178EE3C1
:1042100093E00E94B9188AE20E94581A90E09093A5
:10422000BA028093B90213E6E12E12E0F12E04EDFA
:10423000C02E02E0D02E84EC882E82E0982E04E07E
:1042400010E01A82198298E8692E93E1792E28E10C
:10425000A22E25E1B22E80915202882341F1E091F5
:10426000B902F091BA02098002C0F595E7950A9467
:10427000E2F7E170FF27E00FF11FEE0FFF1FED598E
:10428000FD4F80819181B4E0880F991FBA95E1F7C5
:10429000D501A81BB90BF401B183A0838091BB02A7
:1042A000882309F187E293E00E9473181CC0D401AF
:1042B00011967C926E9280914C0290E0098002C02F
:1042C000959587950A94E2F780FF0DC0F7018085E8
:1042D000918574E0880F991F7A95E1F79501281B65
:1042E000390B2D933C93D4018D919C91F6018193D0
:1042F00091936F012091BB0249815A814F5F5F4FBB
:104300005A8349832223B1F08838934199F081E29E
:1043100093E00E9473186AE070E089819A810E949C
:10432000B01789E492E00E946D17D4018D919C91A1
:104330000E946D1AB2E08B0E911CEAE0EE0EF11CA9
:104340000B5F1F4F29813A812830310509F083CF57
:1043500080915202811108C08091BB02882321F014
:1043600080E093E00E94B9180E94931C4B015C010D
:1043700060934D0270934E0280934F0290935002CF
:104380000E94931C20912605309127056B017C012A
:10439000C818D908EA08FB08A0E1B7E20E94192A68
:1043A000C616D706E806F90658F38091BB028823A3
:1043B00041F08CEB91E00E94831A8AEF92E00E9418
:1043C000B91884E690E09093890080938800F8946F
:1043D0001092800010928100809181008260809311
:1043E000810080916F00826080936F0078940E94BA
:1043F000931C6093E5027093E6028093E70290932A
:10440000E8020BEF12E080E01A821982FF24F39495
:10441000909152029923E1F08091BB02882321F010
:1044200083ED92E00E94B918E981FA81E454FD4FCE
:10443000F0828091E5029091E602A091E702B091AE
:10444000E802F80180839183A283B38389E014C0DA
:104450004091E5025091E6026091E7027091E80216
:10446000405854486F4F7F4F4093E5025093E60207
:104470006093E7027093E80229813A812F5F3F4FF2
:104480003A8329830C5F1F4F2830310509F68823B2
:1044900041F09091E4029923D1F381501092E4020B
:1044A000F6CF46E351E05A83498360E0A981BA819F
:1044B0008D91BA83A9830E949C1BC980DA804C1419
:1044C0005D0499F78CEB91E00E94831A89EC92E0ED
:1044D0000E94B91880E992E00E94B9188AE892E037
:1044E0000E94B9188CE692E00E94B9188BE592E020
:1044F0000E94B91888E392E00E94B91884E192E022
:104500000E94B9188FEA91E00E94B91889E391E0FE
:104510000E94B9188BE191E00E94B9188CEB91E0F0
:104520000E94831A68E1262E65E1362E45E0F42EBE
:10453000EE24E3945AE0D52E85E493E00E9497158B
:10454000181619060CF05AC185E493E00E947515FF
:104550008C3349F46CEB71E08BEE92E00E94882B77
:104560001092EA02E9CF8E3309F020C18DEB91E081
:104570000E946D178BEE92E00E946D178FEB91E019
:104580000E946D170091EB02802F8F7D833511F50E
:1045900080E00E94581A80FF04C0109252028E7F61
:1045A00003C0E0925202816089834981406860E0E3
:1045B00084EC94E00E94C60B8BE094E00E94731898
:1045C0006AE070E08981817090E00E94B01783EF0B
:1045D00093E0E3C08091EC028A3309F0E0C0002E42
:1045E000000C110B9801215331093A83298328309B
:1045F000310518F08CED93E0D0C08091ED02982F3A
:104600009F7D9C3461F0823579F0823741F0409192
:10461000EA0250E0EDEEF2E080E090E062C021E0DE
:10462000823719F020E001C021E0A981BA81AA0FE8
:10463000BB1FAC52BD4F49815A81F49EF001F59EDB
:10464000F00D1124E20FF11DEE0FFF1FE559FD4F94
:104650008081918134E0880F991F3A95E1F7F1014B
:10466000E81BF90BED93FC938091B9029091BA028B
:1046700041E050E060E070E0098004C0440F551F45
:10468000661F771F0A94D2F7222319F0842B952BEB
:1046900005C09A0120953095822393239093BA0206
:1046A0008093B902809152028823C9F10E94931C21
:1046B00060934D0270934E0280934F02909350028C
:1046C0002EC0619120ED260F2A3058F4D89E90011B
:1046D000D99E300D1124C901C097860F911D67FD29
:1046E0009A959F012B5E32402417350754F3E981D8
:1046F000FA81EE0FFF1FEC52FD4F8F3F910509F03D
:1047000050F4A4E0880F991FAA95E1F79101281BA6
:10471000390BC90102C0880F991F91838083498199
:104720005A81440F551F5A834983FA01EC52FD4FB9
:10473000808191818838934124F087E893E19183C7
:104740008083E981FA81EC52FD4F808191818D3D1A
:10475000954024F42DED35E03183208385ED93E001
:104760000E9473186AE070E0C801C0970E94B017F9
:1047700082ED93E00E94731849815A814C525D4F3B
:10478000DA018D919C9197FD01966AE070E0959514
:1047900087950E94B0178EEC93E00E94B9186CEBDD
:1047A00071E08BEE92E00E94882BC6CEEBEEF2E039
:1047B00001900020E9F73197EB5EF2403F9708F057
:1047C000BBCE282F082E000C330B3F938F93EBEEBC
:1047D000F2E0FF93EF9322EC31E03F932F93FF93AE
:1047E000EF930E948F2B8091EA028F5F8093EA0201
:1047F0000FB6F894DEBF0FBECDBF9ECE0E94931CB5
:104800006093E5027093E6028093E7029093E802DA
:1048100000911B0310911C0320911D0330911E0376
:104820006B017C01C01AD10AE20AF30A49EEC416F0
:1048300043E0D406E104F10450F40E94BE028091EA
:104840003B05882309F43DC00E941A113AC06093C9
:104850001B0370931C0380931D0390931E03D12CA4
:104860000BE016E03CE3E32EF12CCC24C3940E9431
:104870007A1C837001F178C28091F0048093FE0568
:104880008091F1048093FF058091F20480930006EB
:104890008091F304809301064093FC058091ED0420
:1048A00081118DC21092FD05809182059091830542
:1048B000892B09F487C2D39492E0D91609F4BDCFAD
:1048C000D6CF8091E402882309F4D1C1BAE56B2EDA
:1048D000B2E07B2EABEFB2E0BA83A98303E612E02D
:1048E00086E3882E81E0982EE4ECF2E0FE83ED83EF
:1048F00094EDE92E92E0F92E24E030E03C832B8306
:1049000044244394512C620131E0C31AD108D701E9
:10491000AD90BC90ED81FE8180819181A816B90691
:1049200009F4CFC0F601E454FD4F8081811103C02A
:1049300029E0208308C0808181508083808181119B
:1049400002C081E080838081813001F58091E502A1
:104950009091E602A091E702B091E802E981FA8124
:1049600080839183A283B3838091BB02882339F033
:10497000D4018C910E94731B019709F46CC260E012
:10498000F40180810E949C1B21E001C020E0AD81E8
:10499000BE818D919C9188389341B9F4F80140858E
:1049A000518582859385840F951F97FD0196959576
:1049B0008795A4E0880F991FAA95E1F7A101481BEC
:1049C000590BAD81BE814D935C93222309F42AC11A
:1049D000ED81FE8120813181D7018D919C91281735
:1049E000390724F4F801A484B58405C0D8011E96C3
:1049F000AD90BC901F97BB24B1E0AB1AB108E4E1C5
:104A0000AE16B10400F185E294E00E947318C5016E
:104A10000E946D1AAD81BE812D913C91F70180817C
:104A20009181281739074CF4D8011C96AD90BC90A1
:104A30001D97B1E0AB1AB10806C0F801A684B7848F
:104A4000F1E0AF1AB1088091620290E002C0959542
:104A50008795CA94E2F780FF0DC0D3018C9188231B
:104A600049F0853039F0B4E0AB1AB108B7FE02C0A6
:104A7000A12CB12CED81FE8120813181D7014D9196
:104A80005C91C501880F991FFC01E25FFE4F808198
:104A900091812417350734F4280F391F4217530723
:104AA0005CF005C0281B390B241735072CF0ED816D
:104AB000FE8131832083B6C0AD81BE814D935C936E
:104AC000B1C0F3012081222309F481C0E091B90231
:104AD000F091BA020C2C02C0F595E7950A94E2F722
:104AE000E170FF274B815C81E40FF51FEE0FFF1F84
:104AF000ED59FD4F8081918174E0880F991F7A955F
:104B0000E1F7F101E81BF90BD701ED93FC9320FDD0
:104B100039C0D80118968D919C9119971A966D916C
:104B20007C911B97422F50E0861B970B97FF03C089
:104B3000919581959109849FB001859F700D949FF7
:104B4000700D1124649FC001659F900D749F900D9E
:104B500011246AEF70E00E94342A54E0660F771F38
:104B60005A95E1F7B9EBAB16BBE0BB0634F0E61B98
:104B7000F70BD701ED93FC9305C06E0F7F1FF70174
:104B8000718360832150D3012C938091BB028823D1
:104B900009F448C087EC91E00E946D176AE070E06C
:104BA000C6010E94B0178DEC91E00E946D176AE07B
:104BB00070E0F30180810E94F31789E492E00E9483
:104BC0006D17D7018D919C910E946D1A2BC0809119
:104BD000E5029091E602A091E702B091E802E98136
:104BE000FA814081518162817381841B950BA60BF0
:104BF000B70B88369848AE41B105A0F08091BB0252
:104C0000882339F0D4018C910E94731B892B09F4FD
:104C10002CC1F601E454FD4F108261E0F401808163
:104C20000E949C1BFFEF4F1A5F0A22E0E20EF11C6C
:104C30004D815E814E5F5F4F5E834D835FEF851ACE
:104C4000950A8FEF681A780A065F1F4FA981BA810B
:104C50001496BA83A983EB81FC813596FC83EB83A0
:104C6000F9E04F16510409F04ECE1092E402809103
:104C7000560290915702A0915802B09159020097A4
:104C8000A105B10509F46DC04091E5025091E6021D
:104C90006091E7027091E802841B950BA60BB70B9D
:104CA0008139904DA340B10508F45BC01A82198286
:104CB00045E0D42E8091540290915502098002C0A3
:104CC000959587950A94E2F780FF3DC0E980FA80C8
:104CD000F594E7948701000F111F0C521D4FDE9CC5
:104CE0009001DF9C300D112489819A818170992770
:104CF000F901E80FF91FEE0FFF1FE559FD4F808105
:104D0000918134E0880F991F3A95E1F7A101481B82
:104D1000590BD8014D935C938091BB02882399F085
:104D20008FE194E00E9473186AE070E0C701019679
:104D30000E94B01789E492E00E946D17F80180810B
:104D400091810E946D1A29813A812F5F3F4F3A83EA
:104D500029832031310509F0ADCF10925502109210
:104D600054020E943E16E2CB0E947A1CD11008C069
:104D700080FFA1CD81E60E94F81B40E061E007C002
:104D800081FF99CD81E70E94F81B40E062E08CE250
:104D90000E94E4184091E404E2ECF4E09F01225CFC
:104DA000344031968091E40490E0281739070CF0E4
:104DB00063CD82A1DF01A15CBE4F8C93EFCFC09287
:104DC000FD0572CD81E090E090938305809382058C
:104DD0008091800590918105CC9724F010928105F7
:104DE00010928005ECEFF5E08091800590918105AF
:104DF0002191DC01AE5BBA4F12962C9301969093F1
:104E000081058093800580918605909187050196A4
:104E100090938705809386050E171F0729F7CD9776
:104E2000ACF080918405909185050F968C339105A7
:104E30002CF4909385058093840504C01092850519
:104E400010928405F0928705E09286051092830502
:104E50001092820530CD6AE070E0C2010E94B01766
:104E600085ED91E00E94831A8ACD6AE070E0C2016C
:104E70000E94B01781EE91E00E94831ACACE82ECA4
:104E800094E00C9407116F927F928F929F92AF9251
:104E9000BF92CF92DF92EF92FF920F931F93CF9327
:104EA000DF93CDB7DEB7C654D1090FB6F894DEBF95
:104EB0000FBECDBF109248031092470388EE93E0D7
:104EC000A0E0B0E08093490390934A03A0934B0382
:104ED000B0934C0382E491E09093460380934503A2
:104EE00085EC90E0909352038093510384EC90E022
:104EF000909354038093530380EC90E09093560377
:104F00008093550381EC90E090935803809357036E
:104F100082EC90E090935A038093590386EC90E0E2
:104F200090935C0380935B0310925E0310925F0387
:104F3000109260031092610384E791E09093C304A0
:104F40008093C2048CE691E09093C5048093C404DE
:104F50008FEF94E00E94270B84E691E09093240564
:104F600080932305E8E2F5E080E395E020E32193D8
:104F70008E179F07E1F78CE591E0909343058093AE
:104F8000420510921E061092380510920E0627E177
:104F9000FE013196AFEDB4E001900D922A95E1F754
:104FA0009A83898321961FAE1EAE219723961FAE4A
:104FB0001EAE239725961FAE1EAE259727961FAED1
:104FC0001EAE2797DE011396E4E4F5E08D91819300
:104FD00045E0E038F407D1F7109281051092800582
:104FE0001092830510928205109285051092840517
:104FF00010928705109286058CE691E09A8389834A
:105000008CE28A8781E18B8781E08C878D8785E4BC
:10501000888B87E490E09F878E8781E090E00E94F4
:10502000622A9C838B83CE0101960E941B0FCE01C6
:1050300001960E943010DA842AE6E22E24E0F22E55
:1050400000E010E0CC24CA941B8E0D1518F0CB8E16
:105050008FEF04C0C80149960E943E0B90E0F70113
:10506000819391937F010F5F1F4F0C32110561F700
:105070004091C0045091C10440FF0AC04E7F50933C
:10508000C1044093C0046BE2CE0101960E94C60B9E
:10509000EB847884CC84D12CF4E0CF0ED11C82EE4A
:1050A000882E83E0982E96E2A92E94E0B92E0E85E4
:1050B0001F85F12C66246394198A1A8A1B8A1C8A1C
:1050C0001B8EEF1410F07F1410F46B8E13C0C80108
:1050D0000E943E0B898BC80101960E943E0B8A8B71
:1050E000C80102960E943E0B8B8BC80103960E945A
:1050F0003E0B8C8B3989832F90E0F401819391933F
:105100004F012A89822F90E091A380A39B89492F88
:1051100050E0F501419351935F018C89482F50E095
:1051200051A340A3F3940C0D1D1DF1E1FF12C4CF58
:105130004B815C815093C7044093C6044D814093DA
:10514000C8044E814093C9044F814093CA044885E6
:105150004093CB0449854093CC044A854093CD04C9
:10516000E092CE044C854093CF044D854093D0040B
:105170004E855F855093D2044093D1044889409373
:10518000D3043093D4042093D5049093D604809311
:10519000D7048D898093D8048E899F899093DA04EF
:1051A0008093D904888D8093DB04898D8093DC04FF
:1051B0008A8D8093DD048B8D8093DE04CE01019671
:1051C0000E94F11084E691E09A838983DE011696AD
:1051D000CE010E96FD0120E32193E817F907E1F7D0
:1051E0008B81809325058C819D81909327058093E9
:1051F0002605E8E2F5E08D91819345E0E033F40780
:10520000D1F78E85809330058F858093310588890D
:10521000809332058989809333058A898093340588
:1052200081E1809335058CE28093370581E080939E
:105230003605CE0101960E94270B8B8180930105D4
:105240008C81809302058D81809303058E818093EC
:1052500004058F81988590930605809305058985BF
:105260009A8590930805809307058B859C8590937C
:105270000A05809309058D859E8590930C05809382
:105280000B058F85988990930E0580930D0589896C
:105290009A899093100580930F058B89809311054F
:1052A000DE015496E2E1F5E08D91819385E0EA31EB
:1052B000F807D1F78C8D80931A058D8D80931B058F
:1052C0008E8D80931C058F8D80931D0588A1809302
:1052D0001E0589A19AA19093200580931F058BA19B
:1052E000809321058CA180932205809138058160EF
:1052F00080933805109239050FEF00931406009340
:10530000150611E010931606109217060E94F21C63
:10531000609318067093190680931A0690931B06E3
:105320001092100610920F061092200610921F067F
:1053300010923A0510933B0500931C0610931D062E
:1053400087EC90E0A0E0B0E080933C0590933D05B1
:10535000A0933E05B0933F0584EC94E00E9430108A
:105360008091C9049091CA0498278927982790931F
:10537000DA048093D90490932705809326058091C1
:10538000C804809325051093320583E090E0909344
:10539000890580938805CA5BDF4F0FB6F894DEBF9E
:1053A0000FBECDBFDF91CF911F910F91FF90EF9076
:1053B000DF90CF90BF90AF909F908F907F906F9035
:1053C0000895F999FECF92BD81BDF89A992780B5CD
:1053D0000895262FF999FECF1FBA92BD81BD20BD39
:1053E0000FB6F894FA9AF99A0FBE01960895A1E2C1
:1053F0001A2EAA1BBB1BFD010DC0AA1FBB1FEE1F4F
:10540000FF1FA217B307E407F50720F0A21BB30B99
:10541000E40BF50B661F771F881F991F1A9469F715
:1054200060957095809590959B01AC01BD01CF0171
:105430000895A29FB001B39FC001A39F700D811D6D
:105440001124911DB29F700D811D1124911D08958D
:10545000991B79E004C0991F961708F0961B881FC6
:105460007A95C9F78095089597FB072E16F4009456
:1054700007D077FD09D00E944E2A07FC05D03EF4E4
:10548000909581959F4F0895709561957F4F0895F0
:10549000EE0FFF1F0590F491E02D0994AA1BBB1B92
:1054A00051E107C0AA1FBB1FA617B70710F0A61B24
:1054B000B70B881F991F5A95A9F780959095BC0145
:1054C000CD0108950F931F93CF93DF938230910501
:1054D00010F482E090E0E0913006F091310620E097
:1054E00030E0A0E0B0E0309719F1408151810281B5
:1054F000138148175907C8F08417950769F4109766
:1055000031F012960C93129713961C9327C00093B8
:1055100030061093310622C02115310519F04217CB
:10552000530718F49A01BD01EF01DF01F801DBCF49
:1055300021153105F9F0281B390B2430310580F491
:105540008A819B816115710521F0FB019383828320
:1055500004C09093310680933006FE01329644C019
:10556000FE01E20FF31F8193919322503109398399
:1055700028833AC020912E0630912F06232B41F428
:10558000209102013091030130932F0620932E06C3
:1055900020910001309101012115310541F42DB711
:1055A0003EB74091040150910501241B350BE09159
:1055B0002E06F0912F06E217F307A0F42E1B3F0BE7
:1055C0002817390778F0AC014E5F5F4F2417350775
:1055D00048F04E0F5F1F50932F0640932E06819385
:1055E000919302C0E0E0F0E0CF01DF91CF911F91F5
:1055F0000F910895CF93DF93009709F481C0FC01C8
:10560000329713821282A0913006B0913106109722
:1056100081F420813181820F931F20912E063091D9
:105620002F062817390751F5F0932F06E0932E0621
:1056300067C0ED0120E030E0CE17DF0740F44A817B
:105640005B819E0141155105F1F0EA01F5CFD3834D
:10565000C28340815181840F951FC817D90759F41F
:1056600088819981840F951F0296918380838A8116
:105670009B81938382832115310529F4F0933106B0
:10568000E09330063DC0E901FB83EA8349915991DB
:10569000C40FD51FEC17FD0761F480819181840F41
:1056A000951F0296E90199838883828193819B8368
:1056B0008A83E0E0F0E012968D919C911397009719
:1056C00019F0FD01DC01F7CF8D919C9111979D019F
:1056D0002E5F3F4F820F931F20912E0630912F0691
:1056E0002817390769F4309729F41092310610927F
:1056F000300602C013821282B0932F06A0932E06AA
:10570000DF91CF91089581E090E0F8940C94792E88
:10571000FB01DC0101900D920020E1F70895AEE05D
:10572000B0E0E5E9FBE20C94502E0D891E8986E07D
:105730008C831A8309838FEF9FE79E838D83AE014D
:10574000475E5F4F6F89788DCE0101960E94B12B25
:10575000EF81F885E00FF11F10822E96E4E00C94A3
:105760006C2EABE0B0E0E7EBFBE20C94422E6C0158
:105770007B018A01FC0117821682838181FFCCC1E3
:10578000CE0101963C01F6019381F70193FD8591CD
:1057900093FF81917F01882309F4BAC1853239F4DE
:1057A00093FD859193FF81917F01853229F4B601A4
:1057B00090E00E94A82DE7CF912C212C312CFFE105
:1057C000F315D8F08B3279F038F4803279F08332E7
:1057D000A1F4232D20611DC08D3261F0803369F466
:1057E000232D216016C0832D8260382EE32DE460C6
:1057F0003E2E2AC0F32DF8601DC037FC2DC020EDD1
:10580000280F2A3040F08E32B9F436FC81C1232DA6
:105810002064322E19C036FE06C08AE0989E200D04
:105820001124922E11C0EAE02E9E200D1124222E6A
:10583000F32DF0623F2E08C08C3621F4832D806852
:10584000382E02C0883641F4F70193FD859193FF0D
:1058500081917F018111B3CF982F9F7D9554933013
:1058600028F40C5F1F4F9FE399830DC0833631F0FE
:10587000833771F0833509F059C021C0F801808168
:1058800089830E5F1F4F88248394912C530113C08A
:105890002801F2E04F0E511CF801A080B18036FEC5
:1058A00003C0692D70E002C06FEF7FEFC5010E9459
:1058B0009D2D4C018201F32DFF773F2E16C028014C
:1058C00022E0420E511CF801A080B18036FE03C0D8
:1058D000692D70E002C06FEF7FEFC5010E94922D2D
:1058E0004C01F32DF0683F2E820133FC1BC0822D4A
:1058F00090E088169906B0F4B60180E290E00E942C
:10590000A82D2A94F4CFF50137FC859137FE8191BB
:105910005F01B60190E00E94A82D21102A9421E099
:10592000821A91088114910471F7E8C0843611F04D
:10593000893641F5F80137FE07C0608171818281A7
:1059400093810C5F1F4F08C060817181072E000C8E
:10595000880B990B0E5F1F4FF32DFF763F2E97FF9D
:1059600009C090958095709561957F4F8F4F9F4F9F
:10597000F0683F2E2AE030E0A3010E94E42D882E3B
:10598000861845C0853731F4232D2F7EB22E2AE0AC
:1059900030E025C0932D997FB92E8F36C1F018F4D1
:1059A000883579F0B5C0803719F0883721F0B0C05C
:1059B000E92FE061BE2EB4FE0DC0FB2DF460BF2EBA
:1059C00009C034FE0AC0292F2660B22E06C028E086
:1059D00030E005C020E130E002C020E132E0F80113
:1059E000B7FE07C060817181828193810C5F1F4F78
:1059F00006C06081718180E090E00E5F1F4FA301BF
:105A00000E94E42D882E8618FB2DFF773F2E36FE50
:105A10000DC0232D2E7FA22E891458F434FE0BC006
:105A200032FC09C0832D8E7EA82E05C0B82CA32C75
:105A300003C0B82C01C0B92CA4FE0FC0FE01E80DB4
:105A4000F11D8081803321F49A2D997EA92E09C001
:105A5000A2FE06C0B394B39404C08A2D867809F0E0
:105A6000B394A3FC11C0A0FE06C0B21488F4280CA5
:105A7000922C9B180EC0B21460F4B60180E290E044
:105A80000E94A82DB394F7CFB21418F42B1802C0BB
:105A9000982C212CA4FE10C0B60180E390E00E9457
:105AA000A82DA2FE17C0A1FC03C088E790E002C0A9
:105AB00088E590E0B6010CC08A2D867859F0A1FEE9
:105AC00002C08BE201C080E2A7FC8DE2B60190E04B
:105AD0000E94A82D891438F4B60180E390E00E945A
