:100000000C94BA020C94E2020C94E2020C94E20208
:100010000C94E2020C94E2020C94E2020C94E202D0
:100020000C94E2020C94E2020C94E2020C94E402BE
:100030000C94E2020C94E2020C94E2020C94E202B0
:100040000C9457300C94E2020C94282E0C945A2EE7
:100050000C94E2020C94E2020C94E2020C94E20290
:100060000C94E2020C94E2020C94E2020C94E20280
:100070000C94E2020C94E2020C94E2020C94E20270
:100080000C94E2020C94E2020C94E2020C94E20260
:100090000C94E2020C94E2020C94E2020C94E20250
:1000A0000C94E2020C94E2020C94E2020C94E20240
:1000B0000C94E2026D6373003A2000536572766F10
:1000C0002000756E6775656C74696765205365728D
:1000D000766F6E756D6D65720020496E73204545B3
:1000E00050524F4D2067657370656963686572741F
:1000F000005361766520506F736974696F6E204696
:100100006C61673A0053686F72743A204576656E89
:1001100074002020204576656E7420004C6F6E6759
:100120003A204E6F64654E6F2000536572766F20E3
:1001300000536572766F200053657474696E67733F
:100140007661726961626C652000454550524F4D81
:100150002D446174656E3A005570646174655F701A
:1001600061726100496E7320454550524F4D2067C2
:1001700065737065696368657274005361766520A4
:1001800053746174757300536572766F0020205349
:100190004C20746F6F206269673A00426569737022
:1001A00069656C3A203C313A523E206F646572209A
:1001B0003C363A313530303E00202020202020656A
:1001C000696E65205A61686C207A77697363686527
:1001D0006E203020756E642032353620667565726B
:1001E0002073747566656E6C6F73652056657273E7
:1001F00074656C6C756E6720756562657220726FD0
:10020000637261696C20436F64696572756E672003
:10021000284D697474656C7374656C6C756E6720B9
:100220006C6965677420626569203135302900206A
:10023000202020202065696E65205A61686C207A34
:100240007769736368656E2037353020756E64207A
:100250003235303020667565722073747566656E50
:100260006C6F7365205665727374656C6C756E6720
:1002700020284D697474656C7374656C6C756E6759
:10028000206C696567742062656920313530306D96
:100290006373290020202020202027522720667504
:1002A00065722072656368746520536572766F733A
:1002B00074656C6C756E6700202020202020274C10
:1002C000272066756572206C696E6B6520536572B8
:1002D000766F7374656C6C756E670020207820698A
:1002E000737420656E7477656465720020206E20DB
:1002F0006973742064696520536572766F6E756DDD
:100300006D65722028312D3829003C6E3A783E0008
:1003100053657269656C6C65205374656C6C6B6FAA
:100320006D6D616E646F73206D697420273C2720AA
:10033000626567696E6E656E20756E6420273E2764
:10034000206265656E64656E00416E6C65697475EA
:100350006E6700537461727400536572766F7374C4
:10036000617274706F736974696F6E206E6963680F
:10037000742067656C6164656E00536572766F000A
:100380006869676820006C6F77200052656C61694E
:10039000733A0047657370656963686572746520B8
:1003A000506F736974696F6E20006D6373006D63C5
:1003B00073202D2000202D3E207468656F726574B7
:1003C00069736368206D6178696D616C206D6F651C
:1003D000676C6963683A2000536572766F73707258
:1003E000656974756E673A20004172647543414EC9
:1003F0002D536572766F2056657273696F6E20009B
:10040000202042697474652065696E656E204174B0
:100410004D65676133323850422050726F7A657390
:10042000736F722076657277656E64656E21005019
:10043000726F7A6573736F726665686C65723A2065
:10044000004641494C454420746F2073656E64201A
:1004500043414E002000564152532000200020000E
:1004600020000A4556454E54533A0020000A4445A0
:10047000562D4E554D424552533A0020000A494EE2
:100480005445524E414C20564152532028002000E2
:100490000A4E4F444520564152533A000A4E554D9C
:1004A000204556454E545320564152533A000A4E69
:1004B000554D204556454E54533A000A466C6167E7
:1004C000733A000A4E4E3A000A43414E5F49443A9D
:1004D000004944454E543A004D454D4F5259204431
:1004E000554D500077726974652076617220746F83
:1004F00020656570726F6D000A0D0E090003020021
:1005000000040508000000000000000000000000DA
:1005100000000001020408102040800102040810BD
:100520002001020408102040804001020408040455
:10053000040404040404020202020202030303038B
:100540000303020203050505050000000023002641
:100550000029002C0000000000250028002B002EA0
:100560000000000000240027002A002D0000390EA2
:100570008A2E2B1111241FBECFEFD8E0DEBFCDBFD6
:1005800012E0A0E0B1E0E8E9FDE602C005900D92BE
:10059000A832B107D9F725E0A8E2B2E001C01D9268
:1005A000A73EB207E1F712E0C9EBD2E004C0219701
:1005B000FE010E947C32C73BD107C9F70E9442303E
:1005C0000C94BF360C9400001F920F920FB60F923E
:1005D00011242F933F934F935F938F939F93AF93E8
:1005E000BF938091710290917202009799F580916A
:1005F0007302909174022091610230916202820F25
:10060000931F9093740280937302739A8091880071
:10061000909189002091610230916202820F931FB4
:10062000909389008093880080917102909172026A
:1006300001969093720280937102BF91AF919F9146
:100640008F915F914F913F912F910F900FBE0F901F
:100650001F90189581309105C9F473982091630219
:10066000309164028091730290917402820F931F03
:100670009093740280937302283883E138070CF456
:10068000729A8091880090918900C8CF823091053C
:10069000A9F47298209165023091660280917302EC
:1006A00090917402820F931F90937402809373024F
:1006B000283883E138072CF7459AE3CF833091053A
:1006C000A9F44598209167023091680280917302E5
:1006D00090917402820F931F90937402809373021F
:1006E000283883E138076CF6449ACBCF84309105E3
:1006F000B1F444982091690230916A0280917302AA
:1007000090917402820F931F9093740280937302EE
:10071000283883E138070CF0B4CF439AB2CF853044
:100720009105B1F4439820916B0230916C02809155
:10073000730290917402820F931F909374028093BE
:100740007302283883E138070CF09BCF429A99CF87
:1007500086309105B1F4429820916D0230916E027D
:100760008091730290917402820F931F9093740290
:1007700080937302283883E138070CF082CF419AC6
:1007800080CF0797B1F4419820916F0230917002A9
:100790008091730290917402820F931F9093740260
:1007A00080937302283883E138070CF06ACF409AAF
:1007B00068CF40982091730230917402283588E9FF
:1007C000380710F5409188005091890088E598E934
:1007D000A0E0B0E0821B930BA109B109880F991F1B
:1007E000840F951F90938900809388001092740263
:1007F0001092730210927202109271028091500254
:100800008F5F8093500219CF80918800909189006A
:100810008A569F4FE7CF84E690E0909389008093BB
:100820008800F89410928000E1E8F0E01082808166
:1008300082608083EFE6F0E080818260808378943C
:10084000089580917502882331F06BE771E08DE3A4
:1008500095E00E942A2F6BE281EA92E00E946B1BD6
:1008600040915A0450915B048417150679F06BE2AD
:1008700081EA92E00E94991480917502882331F0F8
:1008800064E671E08DE395E00E942A2F81E0809379
:100890003D0208952F923F924F925F926F927F9206
:1008A0008F929F92AF92BF92CF92DF92EF92FF9280
:1008B0000F931F93CF93DF9300D000D000D0CDB71C
:1008C000DEB761E081EA92E00E946B1B8C83869523
:1008D0008170809398028C81817080933F0226E71B
:1008E00032E03B832A8379011E821D8210E000E002
:1008F000602F83EA92E00E946B1EFC01828193814B
:10090000982789279827F701819391937F01C80140
:1009100001962D813E812F5F3F4F3E832D832131F4
:10092000310509F008C16CE281EA92E00E946B1B7C
:1009300081E08093750204E014E046E3642E41E018
:10094000742E1E830D8353E05983912C812CC12C6E
:10095000D12C7601C394698181EA92E00E946B1BDD
:1009600090E0ED81FE8197838683A084B1845980D5
:100970005394652D81EA92E00E946B1B8A151B043B
:1009800009F1652D81EA92E00E946B1B90E0ED81F8
:10099000FE8191878087C401880F991FA701960166
:1009A00004C0220F331F441F551F8A95D2F7C90177
:1009B00020914E0230914F02822B932B90934F0245
:1009C00080934E0254013FEFA31AB30AED81FE81DA
:1009D00022843384598053945394652D81EA92E0A4
:1009E0000E946B1B8215130411F1652D81EA92E0C0
:1009F0000E946B1B90E0ED81FE8193878287C50189
:100A0000880F991F0197A701960104C0220F331F79
:100A1000441F551F8A95D2F7C90120914E0230918B
:100A20004F02822B932B90934F0280934E02698149
:100A30006D5F81EA92E00E946B1B90E0ED81FE8188
:100A40009587848769816C5F81EA92E00E946B1BC5
:100A500090E0ED81FE8197878687698181EA92E047
:100A60000E946B1B16012701082C04C0220C331CAA
:100A7000441C551C0A94D2F79091490282FF64C02D
:100A8000922990934902698181EA92E00E946B1B4E
:100A90009091400280FF5CC0292A20924002F3011D
:100AA00080812091400230E002C0359527958A94DC
:100AB000E2F720FF52C061E00E94A63180913E0221
:100AC000882381F0F3018081F501EE0FFF1FE15AC9
:100AD000FD4F2081318160E0283B3B400CF061E01C
:100AE0000E94E23189818B5F8983ED81FE813A9694
:100AF000FE83ED83FFEF6F1A7F0A45018B3209F009
:100B00002ACF80914E0290914F02892B09F075C037
:100B100020911A03223008F480C0223109F40CC25B
:100B200000F5283009F404C2213109F403C227304A
:100B300001F528E01EC04D815E814830510511F459
:100B4000C80102968C01D4CE822D8095982399CF2E
:100B50002094922190934002A2CF60E00E94A6319F
:100B6000C1CF2C3109F4ECC108F0DBC12B3109F401
:100B7000E5C12250330BC90165E070E00E944632A6
:100B8000660F771F21703327260F371F81E090E013
:100B9000A0E0B0E004C0880F991FAA1FBB1F2A95D0
:100BA000D2F790934F0280934E0280917502882372
:100BB000F1F068E571E08DE395E00E94F32E60911D
:100BC0004E0270914F024AE050E08DE395E00E94A2
:100BD000E72F62E471E08DE395E00E94172F4AE071
:100BE00050E060911A038DE395E00E9414308091EB
:100BF0004E0290914F02892B81F080919D0290913D
:100C00009E02A0919F02B091A00280934A0290930D
:100C10004B02A0934C02B0934D0210921A038091A4
:100C20007502882309F464C166E272E08DE395E001
:100C30000E943C2F6AE471E08DE395E00E942A2F28
:100C400068E371E08DE395E00E94F32E4AE050E006
:100C50006C818DE395E00E94143024E034E03E8303
:100C60002D83F12CE12C61E371E08DE395E00E948E
:100C7000F32E67013FEFC31AD30A4AE050E0B601F2
:100C80008DE395E00E94E72F61E471E08DE395E04C
:100C90000E94172FEA81FB8161917191FB83EA83A6
:100CA0004AE050E08DE395E00E94263062E471E076
:100CB0008DE395E00E94172FEA81FB8166817781A1
:100CC0004AE050E08DE395E00E94263062E471E056
:100CD0008DE395E00E94172FED81FE81668177817B
:100CE0004AE050E08DE395E00E94E72F62E471E076
:100CF0008DE395E00E94172FED81FE81608571855F
:100D00004AE050E08DE395E00E94E72F62E471E055
:100D10008DE395E00E94172FED81FE81628573853A
:100D20004AE050E08DE395E00E94E72F62E471E035
:100D30008DE395E00E94172FED81FE816485758516
:100D40004AE050E08DE395E00E94E72F62E471E015
:100D50008DE395E00E94172FED81FE8166857785F2
:100D60004AE050E08DE395E00E94E72F62E471E0F5
:100D70008DE395E00E94172F6091490270E002C058
:100D800075956795EA94E2F7617077274AE050E03D
:100D90008DE395E00E94EE2F2D813E81265F3F4F2F
:100DA0003E832D83760134E0C316D10409F05BCF76
:100DB00046E852E05B834A836AE271E08DE395E0A6
:100DC0000E94F32E76015FEFE51AF50A4AE050E043
:100DD000B7018DE395E00E94E72F61E471E08DE3B8
:100DE00095E00E94172FEA81FB8161917191FB834D
:100DF000EA834AE050E08DE395E00E94263062E409
:100E000071E08DE395E00E94172FEA81FB816681F6
:100E100077814AE050E08DE395E00E94263062E45D
:100E200071E08DE395E00E94172FF80166A577A584
:100E30004AE050E08DE395E00E94E72F62E471E024
:100E40008DE395E00E94172FF80160A971A94AE08F
:100E500050E08DE395E00E94E72F62E471E08DE3BE
:100E600095E00E94172FF80162A973A94AE050E0AB
:100E70008DE395E00E94E72F62E471E08DE395E059
:100E80000E94172FF80164A975A94AE050E08DE38C
:100E900095E00E94E72F62E471E08DE395E00E9407
:100EA000172FF80166A977A94AE050E08DE395E095
:100EB0000E94E72F62E471E08DE395E00E94172F16
:100EC0006091490270E002C075956795CA94E2F797
:100ED000617077274AE050E08DE395E00E94EE2FA5
:100EE000065F1F4F6701F8E0EF16F10409F064CFC9
:100EF00026960FB6F894DEBF0FBECDBFDF91CF911F
:100F00001F910F91FF90EF90DF90CF90BF90AF9027
:100F10009F908F907F906F905F904F903F902F9019
:100F20000895253279F0263209F023CE25E221CE2C
:100F300027E01FCE22E11DCE21E11BCE2CE119CEF0
:100F40002BE117CE26E215CE6F927F928F929F9261
:100F5000AF92BF92CF92DF92EF92FF920F931F93C7
:100F6000CF93DF93C1E2F0E0E0E0C093570014912B
:100F7000E2E0F0E0C0935700D491E4E0F0E0C093E9
:100F80005700C491D53929F4C63119F41E3109F43A
:100F90004BC026E040E052EC61E070E08DE395E06C
:100FA0000E94C62D61E08DE00E94A6318DE00E9476
:100FB000103261E0892B09F060E08DE00E94E2319F
:100FC0006FE274E08DE395E00E94F32E40E150E083
:100FD000612F8DE395E00E940D3062E471E08DE3B6
:100FE00095E00E94172F40E150E06D2F8DE395E0D2
:100FF0000E940D3062E471E08DE395E00E94172FAE
:1010000040E150E06C2F8DE395E00E940D3060E0F0
:1010100074E08DE395E00E942A2F68EE73E080E093
:1010200090E00E94D230C2CFC6E3D1E060E0899167
:101030000E94A631FE01319760E080810E94E2317A
:1010400021E0CE33D20791F7CEE2D1E061E0899181
:101050000E94A631FE01319760E080810E94E2315A
:1010600031E0C633D30791F76B9A6A9A48E050E0B3
:1010700064E471E082E093E00E94E92489E58093D2
:1010800010038DE080930F0388E380931203C1E087
:10109000C093130361E082E093E00E94312561E098
:1010A00082E093E00E943F258DEB90E0A0E0B0E06D
:1010B00080931B0390931C03A0931D03B0931E0306
:1010C0008BE09BE09093EF038093EE036AE081EA6C
:1010D00092E00E9427126CE281EA92E00E946B1B70
:1010E000C093750226E040E052EC61E070E08DE3D1
:1010F00095E00E94C62D66E272E08DE395E00E94C5
:101100003C2F69EE73E08DE395E00E94F32E4AE0F8
:1011100050E061E070E08DE395E00E94E72F6DE420
:1011200071E08DE395E00E94172F4AE050E068E0FF
:1011300070E08DE395E00E94EE2F83EA92E00E943A
:10114000982280917502811106C041E060E081EA39
:1011500092E00E94AF19F89489E0F0E0E0E080931B
:101160005700E491E3E0F0E080935700E491E2E07F
:10117000F0E080935700E491E1E0F0E080935700C5
:10118000849178940E944A0410924A0210924B0271
:1011900010924C0210924D0210924F0210924E0289
:1011A00080917502882381F168ED73E08DE395E00D
:1011B0000E94F32E4AE050E060E170E08DE395E09C
:1011C0000E94E72F65EB73E08DE395E00E94F32E1C
:1011D0004AE050E06CE271E08DE395E00E94E72F79
:1011E0006EEA73E08DE395E00E94F32E4AE050E052
:1011F0006CE87AE08DE395E00E94E72F6AEA73E0FD
:101200008DE395E00E942A2F6BE281EA92E00E9432
:101210006B1B90E090935B0480935A04C1E6D2E08C
:1012200051E5852E52E0952E64E0E62EF12C10E07B
:1012300000E078E8672E73E1772EE8E1CE2EE5E155
:10124000DE2E80913F02882309F42DC12091750282
:10125000E0915A04F0915B04002E02C0F595E795E9
:101260000A94E2F7E170FF27EE0DFF1DEE0FFF1F5E
:10127000EC5FFB4F8081918144E0880F991F4A9574
:10128000E1F7A601481B590B59834883222331F00B
:1012900063E973E08DE395E00E94F32E88819981E4
:1012A000F401819391934F018091400290E0002ED0
:1012B00002C0959587950A94E2F780FF23C080913C
:1012C0007502882331F06BE873E08DE395E00E94AE
:1012D000F32E8091750228813981A8014A5C5E4F06
:1012E0005A01283B3B400CF0FDC0882331F066E8F2
:1012F00073E08DE395E00E94F32E60E0F5018081BC
:101300000E94E2310F5F1F4F80917502882301F127
:101310008881998188389341D9F06AE773E08DE339
:1013200095E00E94F32E4AE050E0B8018DE395E08D
:101330000E94E72F62E471E08DE395E00E94172F91
:10134000688179814AE050E08DE395E00E94EE2FBC
:10135000229625E0E20EF11C0830110509F071CF4C
:1013600080913F0281110AC080917502882331F07B
:1013700069E573E08DE395E00E942A2F81E0809378
:101380003E020E94AD306093390270933A0280931E
:101390003B0290933C0210923D020E94AD300091BE
:1013A000390210913A0220913B0230913C026B01CC
:1013B0007C01C01AD10AE20AF30A81EA92E00E9493
:1013C000F1119C01A0E1B7E20E948232C616D70655
:1013D000E806F90610F380917502882361F066E251
:1013E00072E08DE395E00E943C2F63E573E08DE3AE
:1013F00095E00E942A2F0E940B0466E272E08DE3C2
:1014000095E00E943C2F69E473E08DE395E00E9433
:101410002A2F60E173E08DE395E00E942A2F6AE0B5
:1014200073E08DE395E00E942A2F6CEE72E08DE36D
:1014300095E00E942A2F6BED72E08DE395E00E940B
:101440002A2F68EB72E08DE395E00E942A2F64E971
:1014500072E08DE395E00E942A2F6FE272E08DE347
:1014600095E00E942A2F69EB71E08DE395E00E94E0
:101470002A2F6BE971E08DE395E00E942A2F66E246
:1014800072E08DE395E0DF91CF911F910F91FF9076
:10149000EF90DF90CF90BF90AF909F908F907F9014
:1014A0006F900C943C2F798268828091400290E08A
:1014B000002E02C0959587950A94E2F780FFEECE44
:1014C000F701EE0FFF1FEC5FFB4F8081918124E05D
:1014D000880F991F2A95E1F7F601E81BF90BF983AC
:1014E000E883DCCE882331F060E873E08DE395E09B
:1014F0000E94F32E61E002CFAF92BF92CF92DF92B3
:10150000EF92FF920F931F93CF93DF938091750219
:10151000882331F06FE471E08DE395E00E943C2F69
:1015200080913F02882309F46BC031E5E32E32E05D
:10153000F32E01E412E044E0A42EB12CD0E0C0E090
:1015400058E1C52E55E1D52EE0915A04F0915B0487
:101550000C2E02C0F595E7950A94E2F7E170FF279B
:10156000EA0DFB1DEE0FFF1FEC5FFB4F80819181A9
:1015700024E0880F991F2A95E1F7F601E81BF90B83
:10158000CF01F701819391937F01F80111928F01AF
:10159000219680917502882361F163E571E08DE306
:1015A00095E00E94172F4AE050E0BE018DE395E0E0
:1015B0000E94E72F62E471E08DE395E00E94172F0F
:1015C000F7013297608171814AE050E08DE395E048
:1015D0000E94E72F62E471E08DE395E00E94172FEF
:1015E0004AE050E0F801319760818DE395E00E9478
:1015F0001430F5E0AF0EB11CC830D10509F0A4CF0E
:10160000DF91CF911F910F91FF90EF90DF90CF90DE
:10161000BF90AF900895EF92FF920F931F93CF93D7
:10162000DF93EC017B01FB01E858FF4F10818091B3
:101630007502882309F47CC169E571E08DE395E0CA
:101640000E94172F4AE050E0612F8DE395E00E9441
:101650001430112309F46EC1809175028823A9F119
:1016600069E671E08DE395E00E94172F4AE050E0B3
:10167000612F8DE395E00E94143065E771E08DE302
:1016800095E00E94172F40E0BE01C7010E946F1B2A
:101690004AE050E0682F8DE395E00E94143060E846
:1016A00071E08DE395E00E94172FCE010E9478250E
:1016B0004AE050E0682F8DE395E00E940D3066E22D
:1016C00072E08DE395E00E943C2FCE010E947825C8
:1016D000982F977F903919F091E0813009F490E0CC
:1016E0008FEF810F813108F07CC140919D025091B4
:1016F0009E0260919F027091A00240933902509324
:101700003A0260933B0270933C0210923D02883093
:1017100041F4DF91CF911F910F91FF90EF900C94C6
:101720007C0A913011F483E0810F893008F08150F8
:1017300020915A0430915B04982F9770943008F4EC
:1017400034C1845091E0883008F032C141E050E06B
:1017500060E070E0082E04C0440F551F661F771F1D
:101760000A94D2F7422B532B50935B0440935A04B4
:10177000E1E0082F10E0E801CC0FDD1FDE01AF5AD9
:10178000BD4F65E0F0E0869FE00DF11D1124EE0FE6
:10179000FF1FE45FFB4F4081518134E0440F551F30
:1017A0003A95E1F728E135E1241B350B2D933C9365
:1017B0002091490230E002C0359527958A95E2F7DD
:1017C000C8018F5B9D4F7C01FC0120FF4AC06083F4
:1017D00080917502882309F404C163E571E08DE30B
:1017E00095E00E94172FB8016F5F7F4F4AE050E0ED
:1017F0008DE395E00E94E72F62E471E08DE395E0D0
:101800000E94172FFE01EF5AFD4F608171814AE05F
:1018100050E08DE395E00E94E72F62E471E08DE3F4
:1018200095E00E94172FCF59DD4F688179814AE0FA
:1018300050E08DE395E00E94E72F62E471E08DE3D4
:1018400095E00E94172F4AE050E0F70160818DE398
:1018500095E0DF91CF911F910F91FF90EF900C9445
:1018600014301082B5CFCE010E940627882351F094
:1018700065E071E08DE395E00E94F32ECE010E94B9
:10188000E52686C060E871E08DE395E00E94172FA1
:10189000CE010E94782540E150E0682F8DE395E06D
:1018A0000E940D3066E871E08DE395E00E94172FED
:1018B000CE010E94BB264AE050E0BC018DE395E0DA
:1018C0000E9426306EE871E08DE395E00E94172FAC
:1018D000CE010E946B254AE050E0682F8DE395E031
:1018E0000E940D3067E971E08DE395E00E94172FAB
:1018F000CE010E9460254AE050E0682F8DE395E01C
:101900000E940D3066EA71E08DE395E00E94172F8A
:1019100060916703709168034AE050E08DE395E0C1
:10192000DF91CF911F910F91FF90EF900C94EE2FCC
:101930001111CBCECE010E947825883029F48091F8
:101940003F0281110E94210480917502882309F4CD
:1019500048C0CE010E940F27882309F484CF6CE190
:1019600071E08DE395E00E94F32ECE010E94BB262C
:101970004AE050E0BC018DE395E00E94263062E130
:1019800071E08DE395E00E94F32ECE010E94D026F7
:101990004AE050E0BC018DE395E0DF91CF911F91CB
:1019A0000F91FF90EF900C942C30883020F090E055
:1019B00084509111CBCE41E050E060E070E0082E01
:1019C00004C0440F551F661F771F0A94D2F7409535
:1019D00050954223532350935B0440935A04E0E014
:1019E000C8CEDF91CF911F910F91FF90EF90089596
:1019F000EF92FF920F931F93CF93DF937C016FEAD7
:101A000071E08DE395E00E94172FB7018DE395E01B
:101A10000E94172F61EB71E08DE395E00E94172F74
:101A2000F7010081802F8F7D8335B9F561E081EA70
:101A300092E00E946B1B81FB992790F9909398028A
:101A400080FF25C010923F02C82FCE7F4C2F61E04F
:101A500081EA92E00E94991461EF70E08DE395E0D5
:101A60000E94F32E6C2F61704AE050E070E08DE32D
:101A700095E00E94E72F69ED70E08DE395E0DF913E
:101A8000CF911F910F91FF90EF900C942A2F91E02E
:101A900090933F02C82FC160D9CF81818A3309F06A
:101AA000E1C0002E000C110BE801E19762EC70E040
:101AB000C830D10510F78281982F9F7D9C3421F189
:101AC000823509F4AEC08237F9F04091280250E027
:101AD000329690E080E07AE09F012E193F092417AA
:101AE00035070CF0A5C0619120ED260F2A30A0F734
:101AF000789F9001799F300D1124C901C097860FFE
:101B0000911D67FD9A95E8CF41E0823709F040E0EA
:101B1000DE01AA0FBB1FAF5ABD4F85E08C9FF001BD
:101B20008D9FF00D1124E40FF11DEE0FFF1FE45FF8
:101B3000FB4F2081318194E0220F331F9A95E1F70A
:101B400088E195E1821B930B8D939C9320915A041D
:101B500030915B0481E090E0A0E0B0E00C2E04C086
:101B6000880F991FAA1FBB1F0A94D2F7442309F4B8
:101B70005AC0822B932B90935B0480935A048091DC
:101B80003F02882361F010923D020E94AD306093C5
:101B9000390270933A0280933B0290933C02CC0F3F
:101BA000DD1FFE01EF5AFD4F8081918188389341FE
:101BB00024F087E893E191838083FE01EF5AFD4F83
:101BC000808191818D3D954024F48DED95E0918348
:101BD00080836BEB70E08DE395E00E94F32EB801FB
:101BE000605371094AE050E08DE395E00E94E72FD1
:101BF00068EB70E08DE395E00E94F32ECF5ADD4F45
:101C00006881798177FF02C06F5F7F4F7595679517
:101C10004AE050E08DE395E00E94E72F64EB70E02E
:101C20002CCF41E075CF8095909582239323A3CF4D
:101C30009E01220F331F2F5A3D4F8F3F910509F010
:101C400070F4AC0164E0440F551F6A95E1F788E138
:101C500095E1841B950BF90191838083A0CF880FB8
:101C6000991FF9CFDF91CF911F910F91FF90EF90C6
:101C700008950F9301E021E041E16CE281EA92E0F6
:101C80000E94201C0F9108950F931F93CF93DF9311
:101C9000C9E2D2E004EB11E08DE395E00E94F52C5F
:101CA000181619060CF042C08DE395E00E940F2D26
:101CB0008C3349F466E272E089E292E00E94CA3312
:101CC00010922802E9CF8E3359F489E292E00E9403
:101CD000F80C66E272E089E292E00E94CA33DCCF3F
:101CE000FE0101900020E9F79F012A5232402F3077
:101CF000310590F6282F082E000C330B3F938F935D
:101D0000DF93CF931F930F93DF93CF930E94D13331
:101D1000809128028F5F80932802EDB7FEB7389636
:101D20000FB6F894FEBF0FBEEDBFB6CFDF91CF91D7
:101D30001F910F9108952F923F924F925F926F9251
:101D40007F928F929F92AF92BF92CF92DF92EF924B
:101D5000FF920F931F93CF93DF930E94440E0E9434
:101D6000AD3060939D0270939E0280939F0290938A
:101D7000A0020091990210919A0220919B02309149
:101D80009C026B017C01C01AD10AE20AF30A970196
:101D90008601093E13402105310560F060939902E8
:101DA00070939A0280939B0290939C0281EA92E046
:101DB0000E94B81B81EA92E00E94201B80911A03C6
:101DC00081110E944A0480915002882309F4E4C0E2
:101DD00071E5C72E72E0D72EC1E6D2E0E1E4AE2E67
:101DE000E2E0BE2E04E014E0F12CE12CF8E14F2EED
:101DF000F5E15F2EAAEF2A2E312CD6012D913C91D0
:101E0000E881F9814701BFEF8B1A9B0A2E173F0724
:101E100009F48CC1E838F341C1F4D80118968D91CA
:101E20009C9119971A964D915C91840F951F97FD7F
:101E300001969595879564E0880F991F6A95E1F75B
:101E4000F201E81BF90BF983E883888199818217F5
:101E500093070CF036C1D8011C966D907C907724C6
:101E6000F1E06F1A710824E162167104E0F06DE888
:101E700071E08DE395E00E94F32E4AE050E0B3015B
:101E80008DE395E00E94EE2F28813981D6018D9156
:101E90009C91281739070CF018C1F80164847584E7
:101EA000F1E06F1A71088091490290E00E2C02C097
:101EB000959587950A94E2F780FF0DC0F501808122
:101EC000882349F0853039F0F4E06F1A710877FE05
:101ED00002C0712C612C88819981D6012D913C9191
:101EE000F301EE0FFF1FEA5FFE4F40815181821721
:101EF00093070CF0F2C0840F951F281739070CF4D4
:101F0000F2C0998388838091400290E00E2C02C039
:101F1000959587950A94E2F780FF2DC08091750210
:101F200028813981F40131973F01283B3B400CF077
:101F3000DDC08823C9F069EB71E08DE395E00E9474
:101F4000172F4AE050E0B7018DE395E00E94E72F9C
:101F500062EF71E08DE395E00E94172F60EC71E075
:101F60008DE395E00E943C2FF301EA5CFE4F60E0B8
:101F700080810E94E231F2E0CF0ED11C22962FEF39
:101F8000A21AB20A065F1F4F740138E0831691044B
:101F900009F033CF1092500280914A0290914B0287
:101FA000A0914C02B0914D020097A105B10509F432
:101FB00075C040919D0250919E0260919F02709168
:101FC000A002841B950BA60BB70B8139904DA34043
:101FD000B10508F463C0D0E0C0E055E0B52E68E17B
:101FE000E62E65E1F62E80914E0290914F020C2E66
:101FF00002C0959587950A94E2F780FF46C08E014E
:1020000015950795C801880F991FDC01AF5ABD4F80
:102010006D01B09EF001B19EF00D1124CE018170D2
:102020009927E80FF91FEE0FFF1FE45FFB4F808138
:10203000918144E0880F991F4A95E1F7F701E81B69
:10204000F90BED93FC93809175028823F1F067E81A
:1020500071E08DE395E00E94F32EB8016F5F7F4F32
:102060004AE050E08DE395E00E94E72F62E471E0E2
:102070008DE395E00E94172FD6016D917C914AE087
:1020800050E08DE395E00E94EE2F2196C031D105FE
:1020900009F0A9CF10924F0210924E02DF91CF911A
:1020A0001F910F91FF90EF90DF90CF90BF90AF9076
:1020B0009F908F907F906F905F904F903F902F9068
:1020C0000895F80166847784CACED8011E966D9073
:1020D0007C90B1E06B1A7108E6CE841B950B8217D9
:1020E00093070CF00ECF398328830DCF8823C9F0D6
:1020F00069EB71E08DE395E00E94172F4AE050E014
:10210000B7018DE395E00E94E72F62EF71E08DE368
:1021100095E00E94172F64EC71E08DE395E00E943A
:102120003C2FF301EA5CFE4F61E022CFD5017C90A9
:10213000772009F420CFA0915A04B0915B040E2CB3
:1021400002C0B595A7950A94E2F7CD018170992751
:1021500025E0289DD001299DB00D1124A80FB91F9D
:10216000AA0FBB1FAE5FBB4F8D919C9124E0880FDF
:10217000991F2A95E1F79201281B390BD6012D935F
:102180003C9370FC2FC0472D50E0D80118968D91DC
:102190009C9119971A966D917C91861B970B97FFCE
:1021A00003C0919581959109849FB001859F700D21
:1021B000949F700D1124649FC001659F900D749FC2
:1021C000900D1124B1010E944632A4E0660F771FE2
:1021D000AA95E1F7E93BFB40C4F1261B370BF6015A
:1021E000318320837A94F50170828091750288236F
:1021F00009F4C1CE63E571E08DE395E00E94172FED
:102200004AE050E0B7018DE395E00E94E72F69ECCA
:1022100071E08DE395E00E94172F4AE050E0D50170
:102220006C918DE395E00E940D3062E471E08DE3E6
:1022300095E00E94172FF601608171814AE050E01D
:102240008DE395E00E94EE2F96CE260F371FD60124
:102250002D933C93C7CF81EA92E00C94CF1D089553
:102260000C94533025ED31E0FC013183208317AE0F
:1022700016AEE05CFF4F11821082329611821082FE
:102280008C5B9F4FFC011182108208950F931F9366
:10229000CF93DF93EC01C05CDF4F28813981232B82
:1022A00079F421E030E0398328839C012C5B3F4F97
:1022B000F901408151811416150624F01982188203
:1022C00080E02EC0DC01AE5BBF4F4D915C91119759
:1022D0004C3351051CF011961C921E928B01615FCC
:1022E0007F4F4D915C911197480F591FFA01428120
:1022F000F80141938F014D915C9111974F5F5F4FB2
:1023000011965C934E93F9014081518141505109DE
:10231000518340830617170721F71982188281E03D
:10232000DF91CF911F910F910895FC01EE5BFF4F5C
:1023300020813181215F3F4F2C3331051CF43183E3
:1023400020830895118210820895EF92FF920F93D7
:102350001F93CF93DF93FC017C0180E4E80EF11C16
:10236000D7018D919C911197892BC9F581E090E05F
:102370008D939C9386AD97ADCC9714F017AE16AEA7
:10238000DB019B01215F3F4F8F010C5B1F4F86AD2F
:1023900097AD6D91AF01480F591FEA016A8301960D
:1023A00097AF86AFE80188819981019699838883E8
:1023B000A217B30761F7CD973CF0CF010E949511AA
:1023C0008CE390E099838883F7011182108281E089
:1023D000DF91CF911F910F91FF90EF90089580E0D2
:1023E000F7CF8C599F4FFC01808191810895AF9266
:1023F000BF92CF92DF92EF92FF920F931F93CF93F2
:10240000DF934D965C010E94802BD0E0C0E0670115
:10241000F12CE12C42E06DE0C5010E948E2B882357
:10242000A1F02196C701B6010E94D230C017D10792
:1024300088F380E0DF91CF911F910F91FF90EF9093
:10244000DF90CF90BF90AF90089581E0F3CFEF92EF
:10245000FF920F931F932EE1E22EF12C04E110E086
:1024600021E04DE050E00E94F7111F910F91FF9085
:10247000EF900895AF92BF92CF92DF92EF92FF92CA
:102480000F93CF93DF935B017A016901EC016D96A5
:10249000CE010E94B72C833059F080E0DF91CF91BC
:1024A0000F91FF90EF90DF90CF90BF90AF90089585
:1024B000202FA501B601CE010E948E2C8111EDCFF7
:1024C000B701CE010E94FD2781E0E8CF0F931F9353
:1024D000CF93DF93EC01FC01E45BFE4F1082E55DDE
:1024E000F1096083E15BFF4F84E090E0918380839A
:1024F0008E01035E1F4F43E062E0C8010E9408287E
:10250000FE01ED59FF4F408150E070E060E0C801EE
:102510000E94312C0E94A130C853DF4F6883798319
:102520008A839B83DF91CF911F910F910895FC01C6
:10253000E35BFE4F0190F081E02D309719F0BC0174
:10254000CD96099580E008950F931F93CF93DF9365
:10255000EC018C01035C1F4FC8010E947825873075
:1025600099F08E3589F0FE01E35BFE4F0190F0811A
:10257000E02D309719F0BE01C801099580E0DF9188
:10258000CF911F910F9108950C940000ECCFCF9341
:10259000DF93DB01119681E08417A0F42D919FEF6A
:1025A000980FE92FF0E0EB01CE0FDF1F3881319655
:1025B000E60FF71F231718F430839150F2CF2083D2
:1025C0008F5FEACFDF91CF910895EF92FF920F9343
:1025D0001F93CF93DF93EC01FC01EA53FF4F83E09D
:1025E00090E0918380837E0184EBE81A8EEFF80AF5
:1025F0008E0104531F4FF7014081B801CE010E94A4
:10260000C712F701208130E0F80190E080E011E08E
:10261000180F821793072CF44191141710F00196AC
:10262000F6CF612FCE0102960E94B724FE01ED592C
:10263000FF4F1083749680818823D1F07397808137
:10264000918122E52DAB9EAB8FAB18AE19AE1AAEC1
:102650001BAE1CAE7E01F5E3EF0EF11C412F50E0E6
:1026600070E060E003E020E0CE014D960E94212C56
:10267000DF91CF911F910F91FF90EF900895FC0192
:1026800015AA16AA17AA10AE11AE12AE13AE14AE4A
:1026900008958F929F92AF92BF92CF92DF92EF9266
:1026A000FF920F931F93CF936C01FC01C5A9C63B0A
:1026B000E9F1C295C695C770CF5F5601FDE1AF0E37
:1026C000B11C41E061E0C5010E940828460185E394
:1026D000880E911CE3E6CE0ED11CF601408150E03D
:1026E00070E060E074010C2F20E0C5010E94212CF5
:1026F0008823F1F013E0F601408150E070E060E0E3
:1027000074010C2F20E0C5010E94212C882381F048
:10271000115089F7CF911F910F91FF90EF90DF90AB
:10272000CF90BF90AF909F908F900895C7E0C4CF97
:1027300080E0F0CF9F92AF92BF92CF92DF92EF9264
:10274000FF920F931F93CF93DF93EC01603709F44F
:102750008EC000F5613599F070F4603581F0DF913D
:10276000CF911F910F91FF90EF90DF90CF90BF908E
:10277000AF909F900895623511F0693581F7DE01C1
:10278000AC59BF4F8C9111969C916DAB9EAB8FABAA
:1027900018AE7BC0663B21F138F4643701F78985B8
:1027A000DE01AC59BF4F6AC0623E89F16F3EB9F697
:1027B000DC01AE58BF4F8C9113969C9111972C91D0
:1027C00011973C9114974C9112965C9113977C91C0
:1027D0006DAB7EAB5FAB48AF39AF2AAF9BAF15C0D7
:1027E000DC01A059BF4F8C9111979C9111972C91AE
:1027F0001A973C9111964C916DAB4EAB3FAB28AF05
:1028000099AF8AAF81E08BAF88E08CAFA8CF962ECE
:102810008C010F591F4FC8010E940325FC01F6804F
:10282000C8010E940325FC01E580C8010E94032520
:10283000FC01D480C8010E940325FC01C380C801AB
:102840000E940325FC01B280C8010E940325FC01FF
:10285000A180C8010E940325FC0180819DAA8EAB46
:10286000AFAAB8AEC9AEDAAEEBAEFCAE78CFDC0143
:10287000AD58BF4F8C919985891B1F979C911196DC
:102880002C916DAB2EAB9FAB88AF19AE1AAE1BAEC1
:102890001CAE65CFCF93DF93EC01FC01EA53FF4FF1
:1028A00085E090E09183808360E5CE010E949A13D9
:1028B000CE01DF91CF910C944913FC01DC01AC599E
:1028C000BF4F8C9111969C912FE625AB96AB87ABB1
:1028D00060AF11AE12AE13AE14AECF010C9449131B
:1028E0000F931F93CF938C01C22FFC01EB58FF4F26
:1028F00080818617A0F0C80102960E943920C1117C
:1029000006C0C1E08C2FCF911F910F91089569E50A
:10291000C8010E949A13C8010E944913F3CF6F3F68
:1029200081F3222379F369E0C8010E945D14C0E0BD
:10293000E9CF615020E00C9470147F928F929F92A7
:10294000AF92BF92CF92DF92EF92FF920F931F93BD
:10295000CF93DF93EC017C012DE3E20EF11CC70164
:102960000E947825182FC7010E94BB265E0134E61D
:10297000A30EB11CF501C080D1808C159D0579F1A5
:10298000EE59FF4F808191810297039740F51D30EA
:10299000B1F1103109F46EC1113109F068C0FE01C6
:1029A000E45AFE4F1082E95FF109608170E06C1516
:1029B0007D0539F0F50171836083CE0102960E9496
:1029C000BE24FE01EA53FF4F8081918162EE05979C
:1029D00009F46EC163E0CE010E945D1448C01D354C
:1029E00009F402C208F075C0133509F487C108F074
:1029F0004DC0103109F43EC1A0F51D30C1F5C11420
:102A0000D104A9F1FE01E45AFE4F1082E95FF109F9
:102A1000608170E06C157D0539F0F501718360838C
:102A2000CE0102960E94BE2466EBCE010E949A134C
:102A3000B601660F771F6C0D7D1D90E080E00E944F
:102A4000D230CE01DF91CF911F910F91FF90EF9087
:102A5000DF90CF90BF90AF909F908F907F900C941D
:102A60004913113109F49BCF123409F425C180E0D8
:102A7000DF91CF911F910F91FF90EF90DF90CF905A
:102A8000BF90AF909F908F907F900895163509F476
:102A90005CC188F4143509F43AC1153541F7FE01DB
:102AA000EA53FF4F80819181892B09F7CE0102966D
:102AB0000E942D20DCCF173509F44DC11835B9F629
:102AC000FE01E45AFE4F108264E7CE010E949A1381
:102AD000BEC1153909F4DCC108F045C0123709F44C
:102AE00092C138F5113719F6FE01E45AFE4F1082F3
:102AF000C7010E94BD25182F7E01F2E0EF0EF11CE8
:102B00006BE2C7010E94001F80FF05C08DEF810F9F
:102B100063E1843108F06FEF610FC7010E94001F6D
:102B20009C8D911143C197E99DABDEAACFAA18AF46
:102B3000A2C1133709F48FC1153709F098CFFE01F0
:102B4000E45AFE4F108263E0C7010E94A025FE01F7
:102B5000ED59FF4F83E6808363E6CE0102960E9423
:102B6000B72462E5B2CF123B09F416C278F51639E4
:102B700009F4BFC11C3909F07ACFFE01E45AFE4FB7
:102B80001082C7010E94CA25082FC7010E94DE25B6
:102B9000182FFE01EC58FF4F8081811708F406C101
:102BA0004FEF410F6FEF600FCE0102960E94331F6F
:102BB0009C8D9111FBC0F5019081218135EB3DABDE
:102BC0002EAB9FAB08AF19AF8AAF57C1123D09F4C6
:102BD00012C2153F09F04BCFFE01E45AFE4F80812F
:102BE000811145CFE659F10980819181892B09F046
:102BF00000C2C7010E94D026C82EB92EC7010E946C
:102C0000BB26A82E992EC7010E94DE25182FC701CA
:102C10000E94F225D82EC7010E94CA25082FBE01A6
:102C200064537F4FFB0190823196A0823196B0822F
:102C30003196C0827E01F2E0EF0EF11C4FEF480F9B
:102C4000C7010E949C1F682F70E0202F2150330B7A
:102C50006217730709F0ECC04FEF410F2D2DC7012C
:102C60000E946B20412F4150550B8417150609F027
:102C70009DC019C2FE01E45AFE4F1082E95FF109BE
:102C8000608170E06C157D0539F0F501718360831A
:102C9000CE0102960E94BE24FE01EA53FF4F8081BE
:102CA0009181059709F0E3CECE010E943F136FEEAC
:102CB000CE010E949A13C5CEFE01E45AFE4F108247
:102CC0008E010A531F4FF80180819181059709F009
:102CD00081CEC7010E94BB26F50191838083BC0190
:102CE000CE0102960E94BE2462E5CE010E949A1394
:102CF00083E090E0F80191838083A3CEFE01E45A43
:102D0000FE4F1082CA53DF4F19821882B0CEFE01E7
:102D1000E45AFE4F1082E95FF109608170E06C15A2
:102D20007D0539F0F50171836083CE0102960E9422
:102D3000BE24FE01EA53FF4F83E090E0918380833D
:102D4000C758DF4F81E0888392CEFE01E45AFE4FE0
:102D5000108260E7ADCFFE01E45AFE4F1082B984C5
:102D6000BB2009F484CE7E01F2E0EF0EF11C6BE291
:102D7000C7010E94001F10E080FF03C019E099E026
:102D8000B92EAD2C00E082EF982E6BE2C7010E94B5
:102D9000001F80FF03C0113109F418E0612FC70143
:102DA0000E946B1EFC018C8D882311F06AE013CE0B
:102DB00083819281218130819DAAAEAACFAA38AFAA
:102DC00029AF9AAF8BAF0CAFCE010E944913882375
:102DD00031F061E474E08DE395E00E942A2F1F5FDB
:102DE0000F5FB012D2CF43CEC7010E94BB26F501C0
:102DF000208131818217930709F039CE61E0CE013D
:102E00000E94661234CEFE01E45AFE4F1082CE01BB
:102E10000E943F13C7010E94CA25182F6FEF680F49
:102E2000CE0102960E946B1EFC019C8D992311F02D
:102E300066E0D1CD838192812181308142EF4DAB1B
:102E4000DEAACFAA38AF29AF9AAF8BAF1CAFCE01A5
:102E50000E9449130CCEFE01E45AFE4F1082C701B6
:102E60000E94AC25182F81110BC08BE98DABDEAA17
:102E7000CFAA18AE88E089AF1AAE1BAE1CAEE7CF62
:102E8000682FCE018F599F4F0E9405259BE94CCE9C
:102E9000FE01E45AFE4F1082C7010E94D0268C0129
:102EA000C7010E94BB267E0122E0E20EF11CA801B0
:102EB000BC01C7010E94EA1E182FBE0164537F4F58
:102EC000FB01108231961082319610823196108269
:102ED000482FC7010E949C1F1813AACF612F70E0D2
:102EE00020E040E0C7010E946B20882309F4BFCD99
:102EF0005DCF6E01F4EACF1AFEEFDF0AF601908192
:102F00009111B5CDC7010E94BD25982E1FEF180F56
:102F1000C7010E94C825082F7E01F2E0EF0EF11CC8
:102F20001130D9F48E3F89F4C7010E948B2081E0D3
:102F3000F601808383E690E0F5019183808363E668
:102F400070E0C7010E94BE2403E6FE01ED59FF4F69
:102F50000083602FC7010E94B7246BE2C7010E9463
:102F6000001F80FF06C08DEF890D843110F413E13E
:102F7000190D21E0402F612FCE010E947014812F86
:102F800065E00E943A329350C758DF4F923008F004
:102F9000D9CE115018836BCDFE01E45AFE4F10823A
:102FA000E659F10980819181892B19F5C7010E94A9
:102FB000DE25D82E682F7E01F2E0EF0EF11CC7014E
:102FC0000E946B1E8C0140E06D2DC7010E94331FD3
:102FD0009C8D91112DCFF801938122813181408107
:102FE00053ED5DAB4EAB3FAB28AF99AFDAAE8BAFD5
:102FF00045CF62E0F0CCFE01E45AFE4F80818111A2
:1030000036CDC7010E94D026982E892EC7010E9476
:10301000BB26782EB92EC7010E94DE25182FC701C6
:103020000E94F225082F6E01FCECCF0ED11CF60198
:10303000B0825E01FDECAF0EB11CF50170823196DD
:103040008082319690827E01F2E0EF0EF11C6BE2FD
:10305000C7010E94001F80FF03C0183008F4175FEB
:103060006CEF610F643020F083EF810F843058F4EF
:10307000C7010E946B1EFC012081F6012083FC0128
:103080008181F5018083412FB601C7010E949C1FF9
:103090001813CECE612F70E0202F40E0C7010E94B0
:1030A0006B20811183CE69E510CDCF92DF92EF9234
:1030B000FF920F931F93CF93DF93EC01FC01E15A32
:1030C000FF4F80818823F1F0359680819181892B93
:1030D000C9F07E0185E3E80EF11C3197408150E094
:1030E00070E060E000E020E0CE014D960E94212CCF
:1030F00080E0DF91CF911F910F91FF90EF90DF90D3
:10310000CF900895FE01EA53FF4F8081918104978B
:10311000F9F46E01EDE3CE0ED11CC6010E945D25CF
:103120008111E6CF7E01F4EBEF1AFEEFFF0AF70103
:1031300010811336E8F6C6010E946B25C10FD11D20
:10314000C453DF4F8883F70180818F5F8083D0CFA6
:10315000FE01ED5BFF4F808191818230910569F125
:1031600020F4019791F081E0C4CF83309105D1F034
:103170000497C9F7CE018F599F4F0E944825882395
:1031800091F3CE010E94A412EECFFE01E15BFE4F4F
:103190000190F081E02D309731F3BE01CE01CD9644
:1031A0000995E1CFCE018F599F4F0E944825882372
:1031B000D1F2CE010E949712D6CFCE01DF91CF91EE
:1031C0001F910F91FF90EF90DF90CF900C949D1482
:1031D000AF92BF92DF92EF92FF920F931F93CF9324
:1031E000DF938C017C0182E0E80EF11C60E0C701F6
:1031F0000E94001F81FBDD24D0F8E801ED96CE018E
:103200000E940F278823A1F0D11012C0CE010E9486
:10321000D0265C01CE010E94BB26A501BC01C701DE
:103220000E94EA1EF8019485981710F08F5F30C055
:10323000CE010E940627882379F0CE010E94E52660
:10324000009751F0AC0170E060E0C7010E94EA1EF7
:10325000F8019485981750F7CE010E940F27882314
:1032600089F0DD2079F0CE010E94D026009751F040
:10327000AC0170E060E0C7010E94EA1EF80194858D
:103280009817A0F6CE010E94E526009759F480E039
:10329000DF91CF911F910F91FF90EF90DF90BF9042
:1032A000AF900895AC0170E060E0C7010E94EA1E93
:1032B000F8019485981708F0B9CFE9CFAF92BF9283
:1032C000CF92DF92FF920F931F93CF93DF93EC0186
:1032D0006C0188E7C80ED11CF60110825E01FAED80
:1032E000AF1AFEEFBF0AB501CE0180589F4F0E9472
:1032F0004611F82E882329F18E01035C1F4FC80167
:103300000E948725F5018081E45EF1098083BE017A
:10331000685D7E4FC8010E947B25BE01645D7E4FC3
:10332000C8010E94DE27FE01E95DFE4F8081E85C56
:10333000F109811111C01082CE010E94E818F60136
:1033400080838F2DDF91CF911F910F91FF90DF90A0
:10335000CF90BF90AF90089581E08083EDCFCF9361
:10336000DF93FC01EE5AFE4F6083EC01CD5ADE4F35
:1033700048836F3F21F0862F61E00E94A63188814B
:103380008F3F29F061E0DF91CF910C94A631DF915E
:10339000CF9108958F929F92AF92BF92EF92FF923A
:1033A0000F931F93CF93DF938C010D5A1E4FF8019B
:1033B00020812F3F21F4319720812F3F71F1EC01C3
:1033C0000E94A1307E01FAEAEF1AFEEFFF0AF70130
:1033D00080809180A280B380681979098A099B094D
:1033E0006436710581059105C0F0E059F1098081CD
:1033F0009181059719F5F8018081CB5ADE4F9881AC
:103400009130B1F460E00E94E23118820E94A13054
:10341000F7016083718382839383DF91CF911F9142
:103420000F91FF90EF90BF90AF909F908F90089575
:1034300061E00E94E23181E08883E8CFFE01EE5A2C
:10344000FE4F80819CA9913049F460E00E94E231F6
:1034500061E0F80180810E94E231D8CF61E00E94F2
:10346000E23160E0F6CFFC01E059FF4F6081029647
:103470000C94D024CF93DF93EC011CAA8F599F4F5B
:103480000E944D25CE01DF91CF910C94331ACF933A
:10349000DF93EC0102960E94101FFE01EC59FF4FD2
:1034A0009183808331978E8180833D9681E08083F4
:1034B000CE018F599F4F0E945225811103C0CE012A
:1034C0000E943A1ACA53DF4F83E090E099838883C1
:1034D000DF91CF910895CF93DF93EC0102960E9484
:1034E0005E21CE01DF91CF910C94471A0F931F9369
:1034F000CF93DF93EC01FC01E65AFE4F80818F3FB2
:10350000A9F00E9410328E01055A1E4FF801892B36
:1035100091F48081813051F40E94A130C853DF4F73
:10352000688379838A839B83F8011082DF91CF912E
:103530001F910F91089580818111F8CF81E08083E0
:103540000E94A130FE01E853FF4F008111812281CA
:103550003381DC01CB01801B910BA20BB30B8C01DF
:103560009D01095E134021093109073813412105E6
:103570003105D8F4FE01EA53FF4F808191812CA9D7
:10358000213081F4059739F4CA53DF4F83E090E08E
:1035900099838883CBCFCE01DF91CF911F910F917B
:1035A0000C944A14059711F6EFCF81379741A10586
:1035B000B10508F4BBCF8CA981111BC08E010A5341
:1035C0001F4FF801808191810597F1F260E0E45787
:1035D000FF4F80810E94E23160E0CE010E946612BE
:1035E000F801808191810497B1F6CE010E94201BE1
:1035F000F7CF1CAA8E010F591F4FC8010E944D25FD
:10360000CE010E94331AC8010E943A259E012E5F06
:103610003F4FFE01EC59FF4F882369F0C658DF4F3A
:103620006881798171836083C901DF91CF911F9196
:103630000F910C94BE241182108270E060E0F4CFF0
:10364000EF92FF920F931F93CF93DF93EC010E94B1
:10365000CA19CE010E94761AFE01EA53FF4F8081FB
:1036600091810497A9F40E94A130FE01E853FF4F15
:103670000081118122813381601B710B820B930BBE
:10368000693E73408105910518F0CE010E94E51254
:103690007E0183EBE81A8EEFF80A8E01035C1F4F60
:1036A000CE010E945E19882371F0CE010E94551848
:1036B0008823B1F3D701ED91FC91309789F3BE01D6
:1036C000C8010995EDCF80E0DF91CF911F910F9157
:1036D000FF90EF900895615002960C94001FAF92F6
:1036E000BF92CF92DF92EF92FF920F931F93CF93EF
:1036F0008C017B01C42FCB010E940627680192E058
:10370000C90ED11C8823F9F0C7010E94E526AC013F
:1037100070E060E0C6010E94EA1EC111C150F801CC
:10372000ED58FF4F90818917C0F44C2F682FC601C8
:10373000CF911F910F91FF90EF90DF90CF90BF90AE
:10374000AF900C94331FC7010E94D0265C01C701C3
:103750000E94BB26A501BC01DDCF80E0CF911F9167
:103760000F91FF90EF90DF90CF90BF90AF900895B2
:103770002F923F924F925F926F927F928F929F9281
:10378000AF92BF92CF92DF92EF92FF920F931F936F
:10379000CF93DF931F92CDB7DEB77C01198210E083
:1037A0002C0184EC481A8EEF580A570190ECA91AA4
:1037B0009EEFB90A6701E6ECCE1AEEEFDE0A47018A
:1037C000FDE18F0E911CC701855C9E4F1C013701E6
:1037D00090E8690E711C012F9E012F5F3F4FA201DF
:1037E000B501C7010E943A12882371F08981F60160
:1037F0008083C4010E94162881111EC0F10110822D
:10380000B601C3010E94A5111130A1F40F90DF9100
:10381000CF911F910F91FF90EF90DF90CF90BF90CD
:10382000AF909F908F907F906F905F904F903F9060
:103830002F90089511E0CFCF81E0F1018083E0CF98
:103840002F923F924F925F926F927F928F929F92B0
:10385000AF92BF92CF92DF92EF92FF920F931F939E
:10386000CF93DF93CDB7DEB7C654D1090FB6F89426
:10387000DEBF0FBECDBF7C01362E242E122F2DEDC4
:1038800031E0FC0121933193CF010E940E1E3701DC
:10389000FDE16F0E711CC3010E947F2B57018DE368
:1038A000A80EB11CC5010E9499256701E1E6CE0E64
:1038B000D11CC6010E94DA244701F0E88F0E911C4A
:1038C000C4010E943211F701E45AFE4F1082270111
:1038D00086E7480E511CF2011082EA52FF4F108217
:1038E000CE0101960E947F2B87E1FE013196D30124
:1038F00001900D928A95E1F7CE0101960E94321156
:10390000F4013296DE011396C70182549F4F2D9128
:103910002193E817F907D9F721968EAD9FAD21972E
:10392000F40197AF86AF23968EAD9FAD2397F70135
:10393000E054FF4F9183808325968EAD9FAD2597F0
:1039400032969183808327968EAD9FAD27973296CE
:1039500091838083CE0101960E942F11212F422D49
:10396000632DCE0101960E941F228B819C81F7015D
:10397000958384838D8186838E8187838F818087E1
:1039800088858187898582878A8583878B858487D7
:103990008C8585878D8586878E859F85908B87878B
:1039A0008889818B8989828B8A89838B8B89848B97
:1039B0008C89858B8D89868B8E899F89908F878B4B
:1039C000888D818F898D828F8A8D838F8B8D848F57
:1039D000CE0101960E94F41DCE0101960E94DA24C8
:1039E0008B81F60182838C819D81948383833596BC
:1039F000DE011696C70182599F4F2D912193E8173A
:103A0000F907D9F78E85F60185878F85868788899E
:103A100087878989808B8A89818B8B89828B8C8926
:103A2000838B8D89848BCE0101960E94D724F70168
:103A3000ED58FF4F20823296308231971083CE01AD
:103A400001960E9499258B81F70187AF8C81E05CFC
:103A5000FF4F80838D81319680838E813196808364
:103A60008F81988531969183808389859A85329656
:103A7000918380838B859C853296918380838D850D
:103A80009E853296918380838F8598893296918323
:103A9000808389899A893296918380838B89329633
:103AA0008083F5017396DE015496C701885A9F4FB3
:103AB0002D912193E817F907D9F78C8D8083F701B1
:103AC000E75AFF4F8D8D808331968E8D808331969E
:103AD0008F8D8083319688A18083319689A19AA1A8
:103AE0009183808332968BA1808331968CA18083D1
:103AF000CE0101960E945A25F20180818160808367
:103B0000F701E958FF4F1082E552FF4F0FEF008396
:103B100031960083319611E01083319610820E9415
:103B2000A130F701EA5AFE4F608371838283938349
:103B3000399711821082709611821082E55EF10928
:103B4000108231961083EF51FF4F0083319610831E
:103B5000E15EF10987EC90E0A0E0B0E08083918322
:103B6000A283B383C7010E946B1ACA5BDF4F0FB6F3
:103B7000F894DEBF0FBECDBFDF91CF911F910F91A3
:103B8000FF90EF90DF90CF90BF90AF909F908F907D
:103B90007F906F905F904F903F902F900895CF93BC
:103BA000DF93EC018DED91E099838883CE018058FD
:103BB0009F4F0E942F11CE018F599F4F0E94D724F3
:103BC000CE01CD960E945A25CE010296DF91CF916B
:103BD0000C94F41DCF93DF93EC010E94CF1DCE0116
:103BE000DF91CF910C94533020E032E0FC0131831F
:103BF000208382819381009711F00C9455300895B1
:103C0000CF93DF93EC010E94F41DCE01DF91CF91A1
:103C10000C9453300C9472360C947A3620E032E0D7
:103C2000FC01318320830895FC0190E080E023852E
:103C30002817190641F03CF0A281B381A80FB91FE3
:103C40001C920196F4CF83E68483158287EC8683E9
:103C50001782148A0895EF92FF920F931F93CF93C8
:103C6000DF93EC01188A198A1A8A1B8A1A8E7C0142
:103C700080E1E80EF11C8A85861718F08F8186177F
:103C800050F481E08A8FC701DF91CF911F910F918E
:103C9000FF90EF9008958B8590E00496689F8001D7
:103CA000699F100D11248D859E85080F191FC8016D
:103CB0000E940A1E888BC80101960E940A1E898BE9
:103CC000C80102960E940A1E8A8BC80103960E94B0
:103CD0000A1E8B8BD8CFFC01108A118A128A138A94
:103CE000128E40962285261718F02781261718F481
:103CF00021E0228F089570E0DB01AA0FBB1FAC54B6
:103D0000BB4F2C91208BDB01AA0FBB1FAA52BB4FCC
:103D10002C91218BDB01AA0FBB1FA850BB4F2C910C
:103D2000228B660F771FDB01A65EBA4F2C91238B87
:103D30000895AF92BF92CF92DF92EF92FF920F93CE
:103D40001F93CF93DF93DC0117969C911797E4EBB9
:103D5000F4E080E0A62EB12CE42EF12C30E010E04F
:103D6000981751F1611102C0442309F1C080D1803C
:103D7000AC14BD04C9F4C2A0D3A0EC14FD04A1F49A
:103D80006F0154E4C50ED11CE601C880D9802C1502
:103D90003D0551F46F01D6E6CD0ED11CE601C88079
:103DA000D9800C151D0559F08F5F3296D9CF6F0160
:103DB000D4E4CD0ED11CE8CF1A968C918F5FDF91A1
:103DC000CF911F910F91FF90EF90DF90CF90BF9018
:103DD000AF9008950F93252F042F462F672F0E9431
:103DE000991E0F910895FC01128E8185681728F4A1
:103DF000862F90E049960C940A1E8FEF828F0895CB
:103E0000FC01128E8185681718F08FEF828F08955C
:103E1000E62FF0E0EE0FFF1FE45AFB4F808108957C
:103E2000CF93DF93EC016E818D810E943E309E8B9B
:103E30008D8BDF91CF910895DC011B962C911B9700
:103E400030E02C5F3F4F629FF001639FF00D112423
:103E50001D968D919C918E0F9F1F50E04C5F5F4F80
:103E6000840F951F0895FC01128E8781681740F416
:103E70008385481728F4CF010E941C1F0C940A1E4A
:103E80008FEF828F0895CF92DF92EF92FF921F9370
:103E9000CF93DF937C016B01142FCB010E940A1E8C
:103EA000811721F0612FC6010E940C1EF701838546
:103EB00090E004962285289FE001299FD00D1124CF
:103EC00085859685C80FD91FC535F1E0DF0764F5F4
:103ED000CC0DDD1DCE010E940A1E811721F0612F3D
:103EE000CE010E940C1EF701238530E02C5F3F4F6E
:103EF0004285429FC001439F900D11242585368540
:103F0000820F931FC80FD91FCE010E940A1E81176E
:103F100059F0612FCE01DF91CF911F91FF90EF906B
:103F2000DF90CF900C940C1EDF91CF911F91FF90EA
:103F3000EF90DF90CF900895BF92CF92DF92EF92F3
:103F4000FF920F931F93CF93DF937C01EB01B42E6D
:103F5000FC018285481770F0BB24B394B80E8B2DFA
:103F6000DF91CF911F910F91FF90EF90DF90CF9055
:103F7000BF900895242F30E0D901AA0FBB1FAC5485
:103F8000BB4F888190E08D939C93D901AA0FBB1FF2
:103F9000AA52BB4F898190E08D939C93D901AA0FBF
:103FA000BB1FA850BB4F8A8190E08D939C93D90191
:103FB000AA0FBB1FA65EBA4F8B8190E08D939C9396
:103FC000838590E00496829F8001839F100D929FCD
:103FD000100D112485859685080F191F6B01F4E0DB
:103FE000CF0ED11C061B170BB8016C0F7D1F49911A
:103FF000C7010E94431FCC15DD05B1F7B0CFCF93A9
:10400000DF93EC0149E570E060E00E94431F4C81C2
:1040100062E170E0CE010E94431F4D8163E170E0D8
:10402000CE010E94431F4E8164E170E0CE010E94E8
:10403000431F4C8965E170E0CE010E94431F4F8110
:1040400067E170E0CE010E94431F4B8568E170E09C
:10405000CE01DF91CF910C94431FCF93DF93EC01FE
:1040600040E067E170E00E94431F1F82DF91CF9123
:104070000895EF92FF921F93CF93DF93FC01218568
:10408000261718F1142F7C01C62FD0E0FE01EE0F89
:10409000FF1FE45AFB4F842F90E091838083699641
:1040A000CE010E940A1E181781F064EE74E08DE3C1
:1040B00095E00E942A2F412FBE01C701DF91CF91C9
:1040C0001F91FF90EF900C94431FDF91CF911F91B0
:1040D000FF90EF9008950F931F93CF93DF938C0180
:1040E000C42FD22FFC0187818617170609F038F4F8
:1040F000CF5F8C2FDF91CF911F910F910895838512
:104100004817B0F7C8010E941C1F4D2FBC01C80101
:104110000E94431FEECFBF92CF92DF92EF92FF92A9
:104120000F931F93CF93DF9300D000D0CDB7DEB7AE
:104130008C010E94141EF8018285878319821A82DD
:1041400082E48B838CEC8C83D12CC12CF12CE12C60
:10415000BE2C4E2DBE016F5F7F4FC8010E949C1F79
:1041600020E040E0B701C8010E946B208C818F5F86
:104170008C83811103C08B818F5F8B8344E04B0D57
:10418000BE016F5F7F4FC8010E949C1F20E040E08E
:10419000B7016C5F7F4FC8010E946B208C818F5FDD
:1041A0008C83811103C08B818F5F8B838FEFE81A23
:1041B000F80AEFEFCE1ADE0AF8E0CF16D10409F0C4
:1041C00074C019821A8282E18B8387E68C8348E06F
:1041D000BE016F5F7F4FC8010E949C1F20E040E03E
:1041E00068E070E0C8010E946B2042E060E0C80116
:1041F0000E94392042E060E0C8010E94392043E675
:1042000061E0C8010E94392082E0F82E40E06F2D65
:10421000C8010E94392061E06F0D4BE4C8010E9483
:10422000392062E06F0D41EEC8010E94392063E041
:104230006F0D4DE0C8010E94392064E06F0D4DE024
:10424000C8010E94392085E0F80EEAE2FE12DECFB6
:1042500040E06BE2C8010E94392040E06AE2C801F8
:104260000E943920C8010E94FF1F60E08DEF93E09B
:104270000E940C1E60E08EEF93E00E940C1E60E036
:104280008FEF93E00E940C1EC8010E945E210F90E8
:104290000F900F900F90DF91CF911F910F91FF9092
:1042A000EF90DF90CF90BF900895F4E0CF16D10447
:1042B00009F04ECF99E0E92EF12C4ACF5F926F9230
:1042C0007F928F929F92AF92BF92CF92DF92EF92A6
:1042D000FF920F931F93CF93DF93EC010E94141E64
:1042E0008B8590E004962A85289F7001299FF00C09
:1042F00011248D859E85E80EF91E85E5E81681E07E
:10430000F8060CF06AC08FEF93E00E940A1E782E28
:104310008EEF93E00E940A1E182F8DEF93E00E940B
:104320000A1E7116A9F1781206C0672D8FEF93E06F
:104330000E940C1E08C0181306C0612F8EEF93E078
:104340000E940C1E712E5701AA0CBB1C10E000E04D
:104350000E151F056CF5C8010E940A1E682E470144
:10436000800E911EC4010E940A1E582E6501C00EC7
:10437000D11EC6010E940A1E651491F068120BC07E
:10438000662DC4010E940C1E73940F5F1F4FE0CF77
:104390007816C9F2CACF5812F8CF652DC801F2CFEE
:1043A000681699F37394662DC6010E940C1EEDCF1A
:1043B0008FEF93E00E940A1E871579F0672D8DEF2D
:1043C00093E00E940C1E672D8EEF93E00E940C1E5E
:1043D000672D8FEF93E00E940C1E90E080E00E941A
:1043E0000A1E893519F0CE010E948B2082E190E0EF
:1043F0000E940A1E8C8383E190E00E940A1E8D8336
:1044000084E190E00E940A1E8E8385E190E00E9484
:104410000A1E8C8B87E190E00E940A1E8F83DF9139
:10442000CF911F910F91FF90EF90DF90CF90BF90B1
:10443000AF909F908F907F906F905F900895CF92F4
:10444000DF92EF92FF920F931F93CF93DF93EC01D4
:1044500080E092E09983888369874A872B870C875D
:10446000675E6F8710E0000F111F600F712F711DC5
:104470007E876D87822F90E00E9451309B838A83D4
:10448000CE010E94141ECE010E945E214CE5E42E56
:1044900044E0F42E10E0612FCE010E94F31E90E064
:1044A000D7018D939D937D011F5F1C32A1F7409131
:1044B000B2045091B30440FF09C04E7F5093B3043F
:1044C0004093B2046BE2CE010E94392084EBC82EE7
:1044D00084E0D82E98EFE92E94E0F92E10E0612FB9
:1044E000CE010E942B1EFC01808190E0D6018D93AD
:1044F0009D936D01818190E091969C938E9390970E
:10450000828190E0D7018D939D937D01838190E01E
:1045100091969C938E9390971F5F113101F7DF91D5
:10452000CF911F910F91FF90EF90DF90CF90089562
:10453000CF92DF92EF92FF920F931F93CF93DF936F
:10454000EC010E945E2168ED74E08DE395E00E942D
:104550002A2F61ED74E08DE395E00E94F32E90E048
:1045600080E00E940A1E4AE050E0682F8DE395E04B
:104570000E940D3068EC74E08DE395E00E94F32E0C
:104580004AE050E06C818DE395E00E940D3063ECD1
:1045900074E08DE395E00E94F32ECE010E94101F7F
:1045A0004AE050E0BC018DE395E00E9426306BEBC1
:1045B00074E08DE395E00E94F32E4AE050E06C89B0
:1045C0008DE395E00E940D306EEA74E08DE395E096
:1045D0000E94F32E4AE050E06F818DE395E00E9447
:1045E0000D306CE974E08DE395E00E94F32E4AE013
:1045F00050E06B858DE395E00E940D3060E974E03A
:104600008DE395E00E94F32E4AE050E069858DE34A
:1046100095E00E940D3061EE71E08DE395E00E941F
:10462000172F4AE050E069E170E08DE395E00E94C9
:10463000E72F68EE71E08DE395E00E94172F698502
:1046400070E0685E7F4F4AE050E08DE395E00E94A5
:10465000E72F6AEE71E08DE395E00E94172F10E0DE
:1046600089851817A0F4812F90E049960E940A1EB0
:1046700040E150E0682F8DE395E00E940D306EE838
:1046800074E08DE395E00E94F32E1F5FE9CF6DE7A4
:1046900074E08DE395E00E94F32E4AE050E060E183
:1046A00070E08DE395E00E94E72F6EEE71E08DE300
:1046B00095E00E94172F4AE050E062E070E08DE341
:1046C00095E00E94E72F68EE71E08DE395E00E948F
:1046D000172F4AE050E061E170E08DE395E00E9421
:1046E000E72F6AEE71E08DE395E00E94172F02E05C
:1046F00010E0C8010E940A1E40E150E0682F8DE3DF
:1047000095E00E940D306BE774E08DE395E00E9428
:10471000F32E0F5F1F4F0231110559F76DE674E05C
:104720008DE395E00E94F32E4AE050E06C858DE326
:1047300095E00E940D3064EF71E08DE395E00E94FA
:10474000172F4AE050E06F858DE395E00E940D3011
:1047500068EE71E08DE395E00E94172F6C85615043
:10476000770BCB01880F991F6F85680F792F711D0B
:104770006F5F7F4F4AE050E08DE395E00E94E72FA6
:104780006AEF71E08DE395E00E94172F4AE050E058
:1047900062E070E08DE395E00E94E72F6AEE71E041
:1047A0008DE395E00E94172F10E08C85181738F5DF
:1047B000E12EF12CEE0CFF1C8F858E0D9F2D911D8F
:1047C0000E940A1E40E150E0682F8DE395E00E94B0
:1047D0000D308F858E0D9F2D911D01960E940A1E12
:1047E00040E150E0682F8DE395E00E940D306BE6CC
:1047F00074E08DE395E00E94F32E1F5FD6CF0D8508
:104800001E8562E674E08DE395E00E94F32E4AE097
:1048100050E06A858DE395E00E940D3064EF71E011
:104820008DE395E00E94172F4AE050E0B8018DE338
:1048300095E00E94E72F68EE71E08DE395E00E941D
:10484000172F6A856150770B660F771F660F771FEA
:10485000600F711F6D5F7F4F4AE050E08DE395E080
:104860000E94E72F6AEF71E08DE395E00E94172F19
:104870004AE050E064E070E08DE395E00E94E72FAD
:104880006AEE71E08DE395E00E943C2FD12C8A8581
:10489000D81608F063C0780184E0E80EF11CC80166
:1048A0000E940A1E40E150E0682F8DE395E00E94CF
:1048B0000D300F5F1F4F60E674E08DE395E00E94BE
:1048C000F32EE016F10659F787016EE574E08DE3EB
:1048D00095E00E94F32EED2CF12CEE0CFF1CF7015D
:1048E000EC54FB4F7F0194E0C92EF7016081718188
:1048F00040E150E08DE395E00E94E72F6CE574E025
:104900008DE395E00E94F32ECA94F2E2EF0EF11CC3
:10491000C110EBCF66E574E08DE395E00E94F32EC5
:10492000F12C8B85F816A0F4C8010E940A1E40E104
:1049300050E0682F8DE395E00E940D300F5F1F4F10
:1049400064E574E08DE395E00E94F32EF394E9CFE3
:104950008DE395E00E94262FD39499CFDF91CF91DC
:104960001F910F91FF90EF90DF90CF900895462F09
:10497000FC01648362E170E00C94431FCF93DF93EA
:10498000EC01472F7D836E8363E170E00E94431F3B
:104990004E8164E170E0CE01DF91CF910C94431F12
:1049A000462FFC01648B65E170E00C94431F089571
:1049B0000C945330FC0188E092E09183808380E383
:1049C000858386838783808781878287838784879F
:1049D0000895FC014830510514F048E050E015827C
:1049E00016821782108611861286138614863596D3
:1049F000DB01CD01861B970B841795071CF48D9165
:104A00008193F7CF089505960895DC0161506830D1
:104A100030F5E62FF0E0E15FFA4D0C947C3217257B
:104A20001A251D2520252325262529252C251D96DB
:104A30008C91089550968C9108951E968C910895AE
:104A400052968C91089553968C91089554968C911A
:104A5000089551968C9108951F968C91089580E049
:104A60000895FC019785662319F092609787089551
:104A70009D7FFCCFFC018785869581700895FC01A0
:104A80009785662319F09160978708959E7FFCCFE4
:104A9000FC018785809581700895FC0197859B7F37
:104AA00097870895FC01878582FB882780F991E02C
:104AB0008927089508950C945330FC018581089549
:104AC000FC01238930E085E0359527958A95E1F74B
:104AD0002483822F0895FC01838D20E1829FC001F1
:104AE0001124948D929596959770892B82830895C1
:104AF000FC0183810895FC017B96CB010496DB01C8
:104B00002D91BD012193A817B907C9F70895FC019C
:104B1000138A148A158A168A178A108E118E128E9D
:104B2000138E148E158E168E178E11A210A212A23D
:104B3000089520E132E0FC01318320830C94872525
:104B4000FC01683038F48381882329F0E60FF11DD9
:104B50008389089580E00895FC012381233711F4AF
:104B60008689089580E00895FC01938196599230DA
:104B700010F48789089580E00895FC0193819137AE
:104B800019F09659923010F48689089580E00895BE
:104B90000C94B425FC019381923721F09C3911F0DB
:104BA000953B11F486890895953F11F4808D089501
:104BB000923F11F4828D089580E00895FC01938165
:104BC0009C3911F0953B11F487890895923B11F0BF
:104BD000923D11F4808D0895953F11F4818D0895D3
:104BE00080E00895FC018381853B11F4808D089558
:104BF0009EE2980F923010F4818D0895853F11F454
:104C0000828D089580E008954230510509F455C021
:104C100048F441155105D1F04130510509F461C006
:104C200080E008954430510509F497C008F476C037
:104C300045305105A9F7603839F08EE7860F84308A
:104C400018F0623A09F091C081E036C06234E1F3B5
:104C500080EB860F8B30C0F384EA860F8230A0F39E
:104C600081E9860F873080F380E7860F8F3060F30D
:104C700080E5860F873040F388E4860F823020F38A
:104C8000862F8F7B8D5B8230F8F280E3860F863033
:104C9000D8F288E2860F8230B8F283E2860F823043
:104CA00098F2633E89F280E1860F823068F2635F9A
:104CB00081E0673008F0B4CF0895862F8F7B80594C
:104CC000863010F280E5860F853008F4BDCF80E194
:104CD000860F823008F4B8CF635F81E0633060F301
:104CE0009FCF6B3509F4B0CF88E6860F833008F488
:104CF000ABCF862F8F798D59823008F4A5CF88E409
:104D0000860F823008F4A0CF88E2860F823008F444
:104D10009BCF685F81E0643078F282CF8FED860FA1
:104D2000833008F491CF8CEB860F873008F48CCF5A
:104D30006C3409F489CF603609F486CF603809F401
:104D400083CF8EE7860F843008F47ECF81E0623A0D
:104D500089F0613E09F064CFAFCF603409F474CFBD
:104D6000862F8F77813609F46FCF81E0613C09F09F
:104D700057CFA2CF0895CF93DF93EC0150E040E0EE
:104D80006B890E940426882341F08C899D8998278D
:104D900089279827DF91CF91089590E080E0FACF9E
:104DA000CF93DF93EC0142E050E06B810E94042638
:104DB000882341F08E899F89982789279827DF913A
:104DC000CF91089590E080E0FACF1F93CF93DF93C7
:104DD000EC011B8141E050E0612F0E9404268823F2
:104DE00091F086E0810F823010F01B3549F48C89F8
:104DF0009D89982789279827DF91CF911F91089542
:104E00008E899F89F6CF90E080E0F6CFFC019381F8
:104E10009F79985981E0923008F080E00895FC0174
:104E200093819F79905981E0923008F080E0089555
:104E3000643008F4B7C0673009F4B4C0962F9F7B84
:104E40009F3309F4AFC082EA860F823008F4AAC00B
:104E5000862F8F7D8F3909F4A5C0663B09F4A2C067
:104E60006F3D09F49FC02CEF260F233008F49DC03E
:104E700028EF260F233008F498C02FED260F23309B
:104E800008F493C0603409F490C02CEB260F27304F
:104E900008F48BC06C3409F488C0262F2F7730EAD1
:104EA000320F323008F481C0233609F47EC08038D6
:104EB00009F47BC02EE7260F243008F476C0623A4E
:104EC00009F473C020E4260F223008F46EC026EAED
:104ED000260F223008F46CC020E7260F253008F496
:104EE00067C028E6260F233008F462C08D5982304F
:104EF00008F45EC0862F877F805B823008F458C03C
:104F00008DE4890F823008F453C081E3860F83302B
:104F100008F44EC08CE2860F823008F449C088E263
:104F2000860F823008F444C083E2860F823008F492
:104F30003FC080E1860F8230D8F18AE0860F86304C
:104F4000B8F183E0860F833098F184EF860F8230CA
:104F500030F180EF860F823010F1623401F180EB86
:104F6000860F8A30E0F084EA860F8230C0F081E953
:104F7000860F8730A0F08BE6860F833080F085E6C1
:104F8000860F823060F0923B51F0953B41F08EE20B
:104F9000860F823020F0623E11F06F3E61F482E0B5
:104FA00090E0089584E090E0089581E090E0089515
:104FB00083E090E0089590E080E00895CF93DF9340
:104FC000EC01FC017396CB010896DB012D91BD012C
:104FD0002193A817B907C9F76B896B83CE010E948B
:104FE00018279F838E83DF91CF9108958EBD000097
:104FF0000DB407FEFDCF8EB50895DC015196FB017F
:10500000CB0104962D912193E817F907D9F708955C
:10501000FC01633028F4658B443028F4468B0895F6
:1050200082E0858BF9CF82E0868B0895FC0186852E
:105030000895CF93DF93EC0160E088890E94E2310C
:1050400080EC0E94F62761E088890E94E2316AE0E4
:1050500070E080E090E0DF91CF910C94D2301F930C
:10506000CF93DF93EC01162F60E088890E94E23134
:1050700083E00E94F627812F0E94F62780E00E949D
:10508000F627182F61E088890E94E231812FDF9195
:10509000CF911F910895DF92EF92FF920F931F938C
:1050A000CF93DF937C01162FD42EC52FD22F60E033
:1050B000FC0180890E94E23183E00E94F627812F63
:1050C0000E94F6270D2D1C2FC0E0CD1751F0C830DF
:1050D00041F080E00E94F627F80181938F01CF5FB5
:1050E000F4CF61E0F7018089DF91CF911F910F919B
:1050F000FF90EF90DF900C94E2310F931F93CF93CA
:10510000DF93EC01062F142F60E088890E94E231C2
:1051100082E00E94F627802F0E94F627812F0E94AE
:10512000F62761E08889DF91CF911F910F910C9450
:10513000E231DF92EF92FF920F931F93CF93DF93B1
:105140007C01C62FD42E152F022F60E0FC01808930
:105150000E94E23182E00E94F6278C2F0E94F627FF
:10516000CD2DD12F0C0F1D2F111DC017D10721F0F0
:1051700089910E94F627F9CF61E0F7018089DF91DC
:10518000CF911F910F91FF90EF90DF900C94E2313F
:10519000FF920F931F93CF93DF93EC01F62E042F12
:1051A000122F60E088890E94E23185E00E94F62794
:1051B0008F2D0E94F627802F0E94F627812F0E94B4
:1051C000F62761E08889DF91CF911F910F91FF90C1
:1051D0000C94E2311F93CF93DF93EC0160E0888958
:1051E0000E94E23180EA0E94F62780E00E94F627C2
:1051F000182F61E088890E94E231812FDF91CF91E1
:105200001F9108950F931F93CF938C01C62F262FC4
:1052100040EE6FE00E94C8286FE0C8010E942F286E
:10522000982F907E81E09C1301C080E0CF911F9168
:105230000F9108950F931F93CF93DF93413029F07F
:10524000423009F457C081E049C061506231D8F75B
:10525000E62FF0E0E25DF64D0C947C32B729BF29D1
:10526000402923294429232947294B294E29232929
:1052700023295229552958295C297329232977295B
:10528000C7E8DFEF4FE01BC0C5E8D1EFFBCFC7E8B1
:10529000DFEF47E014C0C7E8DAEFFBCFC7E8DFEF86
:1052A00043E00DC0C7E8DAEFFBCFC6E8D0EFF8CF98
:1052B000C7E8DAEF41E003C0C5E8D1EF41E48C0173
:1052C0006AE20E947D284D2F69E2C8010E947D2874
:1052D0004C2F68E2C8010E947D2880E0DF91CF91C9
:1052E0001F910F910895C6E8D0EF40E0E8CFC2E8E3
:1052F000D0EDFBCF6150623108F0A5CFE62FF0E092
:10530000EC57F64D0C947C32BB29C22996292329EF
:10531000992923299C299F29A22923292329A529C1
:10532000A829AB29AE29B1292329B429C7E0DFEB8D
:10533000B0CFC4E0D4EAADCFC7E0DFEBB1CFC6E079
:10534000D4EBAECFC7E0DFEBB5CFC6E0D4EBB2CF46
:10535000C5E0D1EBAFCFC6E0D4EBC7CFC5E0D1EB12
:10536000C4CFC2E0D0E9C1CFC0E0D0E8BECFC7E82B
:10537000DFEF4FE3A4CFC7E0DFEB4FE1A0CFC7E8FB
:10538000DFEFFBCFC7E0DFEB7DCF0F931F93CF9312
:105390008C01C0E340E06C2FC8010E947D2860E1D1
:1053A0006C0F40E0C8010E947D2860E26C0F40E075
:1053B000C8010E947D28CF5FCE3361F740E060E6F0
:1053C000C8010E947D2840E060E7C801CF911F918D
:1053D0000F910C947D28FF920F931F93CF93DF932F
:1053E000EC01062FF42E0E94192860E8CE010E94DD
:1053F0000229182F6AE070E080E090E0112349F064
:105400000E94D230812FDF91CF911F910F91FF9099
:1054100008950E94D2304F2D602FCE010E941A298C
:10542000882329F06AE070E080E090E0E9CF6AE04C
:1054300070E080E090E00E94D230CE010E94C52949
:1054400043E06BE2CE010E947D2824E044E660E662
:10545000CE010E94C82820E040E660E7CE010E940D
:10546000C82860E0CE010E940229C82F8823D1F20B
:105470006AE070E080E090E00E94D2301C2FC2CF42
:105480000F931F93CF93DF9300D000D0CDB7DEB73B
:10549000413021F50C831B83890122273327402FBC
:1054A000440F440F440F407E502F53705860452BDB
:1054B0004A8355E0169507955A95E1F7098324E04C
:1054C000AE014F5F5F4F0E9499280F900F900F9091
:1054D0000F90DF91CF911F910F910895A80123E0C4
:1054E000569547952A95E1F749830295000F007E6E
:1054F0000A831C821B82E3CFEF92FF920F931F93CC
:10550000CF93DF9300D000D0CDB7DEB77A01890109
:10551000FA011082F901108211821282138224E0B2
:10552000AE014F5F5F4F0E944B282A818981F8E0CE
:105530008F9FC0011124422F50E065E0559547959B
:105540006A95E1F7840F951F092E000CAA0BBB0B7F
:10555000F80180839183A283B38323FF25C032E0C7
:10556000880F991FAA1FBB1F3A95D1F72370820F8E
:10557000911DA11DB11DBA2FA92F982F88272B810E
:10558000820F911DA11DB11DBA2FA92F982F882719
:105590002C81820F911DA11DB11D80839183A28357
:1055A000B38381E0F70180830F900F900F900F90ED
:1055B000DF91CF911F910F91FF90EF900895FF928F
:1055C0000F931F93CF93DF93EC01F62EAC014A5F4C
:1055D0005F4F65E06F0D2D810E9499288E85813087
:1055E00019F48D8180648D8364E06F0D4D81CE014F
:1055F0000E947D2809811A812B813C8148816F2D71
:10560000CE010E94402ADF91CF911F910F91FF9010
:1056100008950F931F93CF93DF93EC01162F9C01F6
:105620002F5F3F4FAC010E947C2A6FEF610FCE01CC
:105630000E942F28082F64E0610FCE010E942F28BE
:105640008D8303FF11C091E09E87282F2F702D833B
:10565000AE014A5F5F4F65E0610FCE01DF91CF91F0
:105660001F910F910C944B281E86EFCF615028E0BC
:1056700048E00C94C8288F929F92AF92BF92CF922D
:10568000DF92EF92FF921F93CF93DF9300D01F9290
:10569000CDB7DEB74C016B0180913E0190913F0187
:1056A000A091400189839A83AB83FB011082CE01D4
:1056B00001967C015E0194E0A90EB11CF7011191E5
:1056C0007F01612FC4010E942F2883FD13C01F5F3B
:1056D000F601108380E00F900F900F90DF91CF9133
:1056E0001F91FF90EF90DF90CF90BF90AF909F9071
:1056F0008F900895EA14FB0409F782E0ECCF089537
:10570000CF93DF93EC01862F688B61E00E94A63176
:1057100061E08889DF91CF910C94E2310F931F9360
:10572000CF93DF93EC01162F042F0E94BF2C402F44
:10573000612FCE010E94EB2991E0811101C090E020
:10574000892FDF91CF911F910F910895EF92FF92D2
:105750000F931F93FC0120834183528363837483DF
:10576000093008F008E0058316863696D70110E068
:10577000CD018E199F09801791071CF48D9181939B
:10578000F7CF80E01F910F91FF90EF900895FC01FB
:105790001182128213821482158210821686178655
:1057A00080E00895CF92DF92EF92FF921F93CF9304
:1057B000DF931F92CDB7DEB77C01D12CC12CBE0187
:1057C0006F5F7F4FC7010E943B2B9FEFC91AD90A19
:1057D000823031F482E3C816D10489F716E027C07D
:1057E00092E3C916D104D1F36981C7010E94DF2A6F
:1057F0006981C7010E94362BD12CC12C8FEFC81AAA
:10580000D80A69816150C7010E942F28182F18708B
:1058100083FF06C092E3C916D10481F717E007C0E1
:1058200082E3C816D104D1F3C7010E94C72B812F90
:105830000F90DF91CF911F91FF90EF90DF90CF906D
:105840000895EF92FF920F93CF93DF93EC010E94A4
:10585000A62BCE01DF91CF910F91FF90EF900C948A
:10586000D22BCF92DF92EF92FF920F93CF93DF93E1
:10587000CDB7DEB728970FB6F894DEBF0FBECDBF09
:105880006C0119821A821B821C821D821E821F8259
:10589000188681E0F6018687CE0101967C0100E042
:1058A00020E0C6010E94212CF601168628960FB62C
:1058B000F894DEBF0FBECDBFDF91CF910F91FF9067
:1058C000EF90DF90CF9008950F931F93CF938C01AB
:1058D000C62F0E94EA28C11111C080FF1DC061E6D9
:1058E000C8010E94092B20E041E06CE2C8010E943F
:1058F000C8288C2FCF911F910F91089581FF0CC064
:1059000061E7C8010E94092B20E042E06CE2C80177
:105910000E94C828C0E0EDCFC4E0EBCFEF92FF9229
:105920000F931F93CF93DF93EC018B017A01622FCA
:105930000E94642C811111C09D81F8019083DE01C9
:105940001696F7019D819F012E193F0992171306A4
:1059500039F034F09D919193F5CFF801108284E0F5
:10596000DF91CF911F910F91FF90EF9008950E94CA
:10597000EA28837011F484E0089583E00895CF93BA
:10598000CFB7F89480913C05811127C0E8E3F5E09A
:105990008491EDE1F5E09491E82FF0E0EE0FFF1F28
:1059A000EF59FA4FA591B491EC91E92321F461E00C
:1059B0008AE00E94E23161E08AE00E94A6318CB563
:1059C00080618CBD8CB580648CBD61E08DE00E94EF
:1059D000A63161E08BE00E94A63180913C058F5F8B
:1059E00080933C05CFBFCF910895FC01918D228D0E
:1059F000892F90E0805C9F4F821B91098F739927BC
:105A00000895FC01918D828D981731F0828DE80FF9
:105A1000F11D858D90E008958FEF9FEF0895FC01B3
:105A2000918D828D981761F0A28DAE0FBF2FB11DA1
:105A30005D968C91928D9F5F9F73928F90E00895F9
:105A40008FEF9FEF089580E89EE2892B49F080E078
:105A500090E0892B29F00E94802E81110E94000085
:105A600080E090E0892B49F080E090E0892B29F0DC
:105A70000E94000081110C9400000895FC01A48D87
:105A8000A80FB92FB11DA35ABF4F2C91848D90E060
:105A900001968F739927848FA689B7892C93A08943
:105AA000B1898C9180648C93938D848D981306C0FA
:105AB0000288F389E02D80818F7D80830895CF93C4
:105AC000DF93EC01888D8823B9F0AA89BB89E88926
:105AD000F9898C9185FD03C0808186FD0DC00FB6CC
