:100000000C9438010C9460010C9460010C94600114
:100010000C9460010C9460010C9460010C946001DC
:100020000C9460010C9460010C9460010C946201CA
:100030000C9460010C9460010C9460010C946001BC
:100040000C94FC230C9460010C9411270C9443270E
:100050000C9460010C9460010C9460010C9460019C
:100060000C9460010C9460010C9460010C9460018C
:100070000C9460010C9460010C9460010C9460017C
:100080000C9460010C9460010C9460010C9460016C
:100090000C9460010C9460010C9460010C9460015C
:1000A0000C9460010C9460010C9460010C9460014C
:1000B0000C9460011C1C1F1C221C251C281C2B1CC2
:1000C0002E1C311CB6205F20BA20B4206220B42040
:1000D000652068206B20B420B4206E20712074202D
:1000E00077207B20B4207E20BE208C208F20B4205F
:1000F0009220B420962099209D20B420B420A020E6
:10010000A420A720AB20AE20B420B1201C251F25A1
:100110001225162540254025232527252D25312567
:10012000402537253B2553686F72743A2045766524
:100130006E74002020204576656E7420004C6F6E32
:10014000673A204E6F64654E6F200055706461748D
:10015000655F7061726100496E7320454550524F72
:100160004D206765737065696368657274005365D7
:1001700072766F005374617274706F736974696F13
:100180006E20536572766F004765737065696368AA
:100190006572746520506F736974696F6E200053C7
:1001A000746172740050726F7A6573736F726665F2
:1001B000686C657220004172647543414E2D536531
:1001C00072766F2056657273696F6E2000464149E2
:1001D0004C454420746F2073656E642043414E008B
:1001E00077726974652076617220746F206565701E
:1001F000726F6D000A0D0E0900030200000405086D
:1002000000000000000000000000000000000001ED
:10021000020408102040800102040810200102049A
:10022000081020408040010204080404040404046F
:100230000404020202020202030303030303020294
:100240000305050505000000002300260029002CF9
:100250000000000000250028002B002E00000000F8
:1002600000240027002A002D0000D30B7327DE0B8B
:1002700011241FBECFEFD8E0DEBFCDBF12E0A0E05B
:10028000B1E0E0EBF5E502C005900D92A832B107B0
:10029000D9F725E0A8E2B2E001C01D92A03DB20767
:1002A000E1F711E0C7E3D1E004C02197FE010E940D
:1002B0007A29C533D107C9F70E9422290C94CB2A89
:1002C0000C9400001F920F920FB60F9211242F93DF
:1002D0003F934F935F938F939F93AF93BF9380917F
:1002E0005B0290915C020097D9F420914B0230910F
:1002F0004C0280915D0290915E02820F931F909359
:100300005E0280935D02283833410CF4739A209189
:1003100088003091890080914B0290914C02AEC0D0
:1003200081309105B1F4739880914D0290914E0205
:1003300020915D0230915E02280F391F30935E02DA
:1003400020935D02883823E192070CF093C0729AE3
:1003500091C082309105B1F4729880914F029091D2
:10036000500220915D0230915E02280F391F3093B8
:100370005E0220935D02883823E192070CF07AC078
:10038000459A78C083309105B1F445988091510227
:100390009091520220915D0230915E02280F391F28
:1003A00030935E0220935D02883823E192070CF0BF
:1003B00061C0449A5FC084309105B1F44498809143
:1003C00053029091540220915D0230915E02280FF9
:1003D000391F30935E0220935D02883823E1920733
:1003E0000CF048C0439A46C085309105A9F4439863
:1003F000809155029091560220915D0230915E02EB
:10040000280F391F30935E0220935D02883823E164
:10041000920784F5429A2EC086309105A9F442983D
:10042000809157029091580220915D0230915E02B6
:10043000280F391F30935E0220935D02883823E134
:100440009207C4F4419A16C0079741F541988091EC
:10045000590290915A0220915D0230915E02280F5C
:10046000391F30935E0220935D02883823E19207A2
:100470000CF4409A2091880030918900820F931FDC
:10048000909389008093880080915B0290915C0238
:10049000019690935C0280935B0231C0409840913A
:1004A0005D0250915E02483588E9580788F4209132
:1004B00088003091890088E598E9A0E0B0E0841BCD
:1004C000950BA109B109880F991F820F931F06C0D0
:1004D00080918800909189008A569F4F909389005F
:1004E0008093880010925E0210925D0210925C026E
:1004F00010925B0280913A028F5F80933A02BF9123
:10050000AF919F918F915F914F913F912F910F905C
:100510000FBE0F901F90189584E690E0909389008D
:1005200080938800F89410928000E1E8F0E0108257
:10053000808182608083EFE6F0E08081826080834A
:10054000789408956BE28BE892E00E94C215409186
:1005500043045091440490E08417950729F06BE21E
:100560008BE892E00E94410F80915F02882331F076
:1005700067E571E08FE295E00C94102808952F92C2
:100580003F924F925F926F927F928F929F92AF9223
:10059000BF92CF92DF92EF92FF920F931F93CF9370
:1005A000DF9361E08BE892E00E94C21581FB9927FE
:1005B00090F99093820281708093290250E6E52E93
:1005C00052E0F52EC0E0D0E000E010E0602F8DE8B2
:1005D00092E00E94C118FC018281938198278927AB
:1005E0009827F701819391937F01C8010196219685
:1005F000C131D10539F0C830D10511F4C8010296D6
:100600008C01E4CFCDEED3E02BE4C22E22E0D22E3B
:1006100006E311E0E12CF12C33E0332E812C912CF8
:1006200054018394C801865391403C01632D8BE8AB
:1006300092E00E94C21590E09F838E834884598483
:1006400022242394230C622D8BE892E00E94C21591
:1006500090E048165906E1F0622D8BE892E00E9486
:10066000C21590E09987888720913802309139022D
:10067000D501C4010E2C04C0880F991FAA1FBB1FEF
:100680000A94D2F7822B932B9093390280933802ED
:100690004A845B8492E0292E230C622D8BE892E041
:1006A0000E94C21590E048165906F9F0622D8BE8B9
:1006B00092E00E94C21590E09B878A87C70101964D
:1006C000A501940104C0220F331F441F551F8A95B2
:1006D000D2F7DA01C9012091380230913902822B18
:1006E000932B909339028093380263E0630D8BE87B
:1006F00092E00E94C21590E09D878C8764E0630DB4
:100700008BE892E00E94C21590E09F878E87632D50
:100710008BE892E00E94C2152091330282FF0CC048
:10072000D501C401062C04C0880F991FAA1FBB1F46
:100730000A94D2F7822B0CC0D501C401062C04C048
:10074000880F991FAA1FBB1F0A94D2F78095822396
:1007500080933302632D8BE892E00E94C2152091B2
:100760002A0280FF0CC0D501C401062C04C0880FEA
:10077000991FAA1FBB1F0A94D2F7822B0CC0D50168
:10078000C401062C04C0880F991FAA1FBB1F0A941E
:10079000D2F78095822380932A0280912A0290E0EA
:1007A00002C0959587956A94E2F780FF26C061E0C4
:1007B000F80180810E9441258091280281110FC09B
:1007C000F5E03F0E2A960F5F1F4F22E0C20ED11CAC
:1007D00032E0E30EF11C4BE2341224CF14C0F601D8
:1007E00080819181883B9B4014F460E001C061E00E
:1007F000F80180810E947D25E3CF60E0F8018081CF
:100800000E944125DDCF8091380290913902892BD9
:1008100009F06BC020910403223008F476C0223125
:10082000D1F040F4283099F0213199F02730C1F40B
:1008300028E016C02C3189F020F42B3189F42CE10A
:100840000FC0253261F0263259F425E209C027E0B5
:1008500007C022E105C021E103C02BE101C026E26F
:1008600030E022503109C90165E070E00E9444295E
:10087000660F771F21703327260F371F81E090E026
:10088000A0E0B0E004C0880F991FAA1FBB1F2A95E3
:10089000D2F7909339028093380280915F028823C7
:1008A000F1F06BE471E08FE295E00E94DF27609148
:1008B0003802709139024AE050E08FE295E00E94E0
:1008C00003296EEA71E08FE295E00E9403284AE076
:1008D00050E0609104038FE295E00E94912880919E
:1008E000380290913902892B81F080918702909192
:1008F0008802A0918902B0918A0280933402909379
:100900003502A0933602B093370210920403DF91B0
:10091000CF911F910F91FF90EF90DF90CF90BF90FC
:10092000AF909F908F907F906F905F904F903F908F
:100930002F9008954F925F926F927F928F929F9225
:10094000AF92BF92CF92DF92EF92FF920F931F93DD
:10095000CF93DF93B6E3AB2EB1E0BB2E85017801D8
:1009600060E0F80181918F010E94412560E0F7016C
:1009700080810E947D25F1E00E331F0781F70EE292
:1009800011E0A6E3EA2EA1E0FA2E680161E0F80189
:1009900081918F010E94412561E0F60180810E94D2
:1009A0007D25E016F10689F76B9A6A9A3E9A61E016
:1009B00080E00E94412561E081E00E9441250E9483
:1009C00046246838734181059105E8F460E080E0D1
:1009D0000E947D2560E081E00E947D2564E670E054
:1009E00080E090E00E94772461E080E00E947D2515
:1009F00061E081E00E947D2564EF71E080E090E09D
:100A00000E947724DCCF61E080E00E947D2561E0D8
:100A100081E00E947D253E98469A48E050E061E4DE
:100A200071E08CEE92E00E94F61B89E58093FA0259
:100A30008DE08093F90282E38093FC0281E0809351
:100A4000FD0261E08CEE92E00E94361C61E08CEECB
:100A500092E00E94441C8DEB90E0A0E0B0E0809317
:100A6000050390930603A0930703B093080311E0D6
:100A700036991BC00E9446246B017C01C1E00E9494
:100A80004624DC01CB018C199D09AE09BF09883EC3
:100A90009340A105B10508F0BCC1CC2349F3C6B110
:100AA000C6FBCC27C0F9C127EACF61E080E00E94F5
:100AB0007D2561E081E00E947D2585E19AE09093AB
:100AC000D9038093D8036AE08BE892E00E94D40CAB
:100AD00080915F02882391F126E040E052EC61E0D2
:100AE00070E08FE295E00E94AC2605E010E068EE31
:100AF00073E080E090E00E9477246AE471E08FE286
:100B000095E00E9403280150110989F76BE172E01A
:100B10008FE295E00E94222866EB71E08FE295E07B
:100B20000E94DF274AE050E062E070E08FE295E04B
:100B30000E940A298DE892E00E94471A80915F0284
:100B4000811106C041E060E08BE892E00E94F11361
:100B5000F89489E0E0E0F0E0809357003491E3E01E
:100B6000F0E0809357002491E2E0F0E0809357009A
:100B70009491E1E0F0E08093570084917894C1E093
:100B80003F3F09F4C0E02C3509F0CE5FE2E0E90F09
:100B9000E23020F0CC5F8F3F19F406C08F3F11F098
:100BA000C85F02C0CC2389F180915F02811102C02D
:100BB000C1E01AC065EA71E08FE295E00E94DF278C
:100BC0004AE050E06C2F8FE295E00E948A286CE4A6
:100BD00071E08FE295E00E94222868EE73E080E0E9
:100BE00090E00E947724E6CFDC27D1706D2F80E063
:100BF0000E947D256D2F81E00E947D2564EF71E0CC
:100C000080E090E00E947724EFCF0E94BF02109214
:100C1000340210923502109236021092370210926E
:100C20003902109238026BE28BE892E00E94C21502
:100C300090E0909344048093430480915F02882362
:100C400031F06FE971E08FE295E00E9410280BE42B
:100C500012E05BE3652E52E0752E6DEEC62E63E06A
:100C6000D62E74E0E72EF12CC0E0D0E0E8E84E2E5E
:100C7000E3E15E2EF8E18F2EF5E19F2E80912902AF
:100C8000882359F1E0914304F09144040C2E02C0F2
:100C9000F595E7950A94E2F7E170FF27EE0DFF1D49
:100CA000EE0FFF1FE351FC4F8081918144E0880FDC
:100CB000991F4A95E1F7F401E81BF90BCF01F80100
:100CC0009183808380915F02882319F168E871E045
:100CD0008FE295E00E94DF271CC0F801518240821C
:100CE00080912A0290E00C2E02C0959587950A9477
:100CF000E2F780FF0EC0F6018085918524E0880F21
:100D0000991F2A95E1F79401281B390BF8013183CB
:100D10002083F80180819181F301819391933F01B8
:100D200080912A0290E00C2E02C0959587950A9436
:100D3000E2F780FF29C080915F02882331F06EE4E2
:100D400071E08FE295E00E940328F8012081318153
:100D500080915F02283B3B4054F4882331F066E5E4
:100D600071E08FE295E00E94032860E009C08823CB
:100D700031F06BE571E08FE295E00E94032861E0BD
:100D8000F50180810E947D2580915F022196882354
:100D9000E1F064E771E08FE295E00E94DF274AE02E
:100DA00050E0BE018FE295E00E9403296EEA71E0F7
:100DB0008FE295E00E940328F801608171814AE08A
:100DC00050E08FE295E00E940A290E5F1F4FFFEF6F
:100DD000AF1ABF0A2AE0C20ED11C35E0E30EF11CA7
:100DE000C830D10509F04ACF81E080932802DF9115
:100DF000CF911F910F91FF90EF90DF90CF90BF9018
:100E0000AF909F908F907F906F905F904F900C94D9
:100E10008C02CC2309F42CCE8BE892E00E94EE13D6
:100E20008BE892E00E94B6148BE892E00E94731463
:100E300060E081E00E947D2560E080E00E947D25E9
:100E4000FFCF3F924F925F926F927F928F929F92CD
:100E5000AF92BF92CF92DF92EF92FF920F931F93C8
:100E6000CF93DF930E94522460938702709388028D
:100E70008093890290938A020091830210918402E8
:100E800020918502309186026B017C01C01AD10A43
:100E9000E20AF30A49EEC41643E0D406E104F10481
:100EA00060F0609383027093840280938502909334
:100EB00086028BE892E00E9412168BE892E00E9474
:100EC00075158091040381110E94BF028091510326
:100ED00090915203039769F436990BC00E944624FF
:100EE000613177428105910520F08BE892E00E9404
:100EF000980E80913A02882309F473C1FBE3CF2E48
:100F0000F2E0DF2ECBE4D2E0A6E38A2EA1E09A2E17
:100F1000BBE2AB2EB2E0BB2E1DEEE12E13E0F12EB4
:100F200004E0602E712C00E010E088E1482E85E19D
:100F3000582ED6012D913C91888199812817390727
:100F400009F4A9C088389341A9F4F7014085518577
:100F500082859385840F951F97FD019695958795BA
:100F6000E4E0880F991FEA95E1F7A201481B590BAD
:100F700059834883488159814217530734F4D70174
:100F80001C968D919C911D9703C0F70186859785CE
:100F900001976091330270E0002E02C0759567954D
:100FA0000A94E2F760FF0BC0D5016C91662339F01B
:100FB000653029F0049797FF02C080E090E0880F29
:100FC000991FFC01EA5FFE4F808191814217530710
:100FD00034F4480F591F241735074CF005C0481B3F
:100FE000590B421753071CF05983488302C03983B9
:100FF000288380912A0290E0002E02C09595879563
:101000000A94E2F780FFD5C08881998120915F0220
:10101000883B9B40FCF42223C9F061E671E08FE23B
:1010200095E00E9403284AE050E0B8018FE295E085
:101030000E94032964E571E08FE295E00E94032895
:1010400068E671E08FE295E00E94222860E0F401FA
:1010500080811EC02223C9F061E671E08FE295E035
:101060000E9403284AE050E0B8018FE295E00E9418
:10107000032964E571E08FE295E00E9403286CE6A5
:1010800071E08FE295E00E94222861E0D4018C910A
:101090000E947D258EC0F5013080332009F489C07F
:1010A000E0914304F0914404002E02C0F595E795C9
:1010B0000A94E2F7E170FF27E60DF71DEE0FFF1F20
:1010C000E351FC4F8081918144E0880F991F4A953C
:1010D000E1F7F201E81BF90BD601ED93FC9330FC2C
:1010E00037C0D70118968D919C9119971A964D91FA
:1010F0005C911B97632D70E0841B950B97FF03C0D9
:10110000919581959109869FA001879F500D969F8B
:10111000500D1124469FC001479F900D569F900D82
:1011200011246AEF70E00E944429A4E0660F771F43
:10113000AA95E1F7293B3B4034F0E61BF70BD601BB
:10114000ED93FC9305C06E0F7F1FF60171836083E2
:101150003A94D5013C9280915F02882351F161E776
:1011600071E08FE295E00E9403284AE050E0B80168
:101170008FE295E00E94032967E771E08FE295E036
:101180000E9403284AE050E0F50160818FE295E07B
:101190000E948A286EEA71E08FE295E00E9403289F
:1011A000D6016D917C914AE050E08FE295E00E947B
:1011B0000A290F5F1F4FB2E0CB0ED11C2296EFEF32
:1011C0008E1A9E0AFFEFAF1ABF0A25E0620E711C4D
:1011D0003AE0E30EF11C0830110509F0AACE109296
:1011E0003A028091340290913502A0913602B0917A
:1011F00037020097A105B10509F475C04091870237
:10120000509188026091890270918A02841B950B2B
:10121000A60BB70B8139904DA340B10508F463C00C
:10122000C0E0D0E055E0B52E68E1E62E65E1F62E8F
:1012300080913802909139020C2E02C095958795C5
:101240000A94E2F780FF46C08E0115950795C80104
:10125000880F991FDC01A55CBD4F6D01B09EF001A8
:10126000B19EF00D1124CE0181709927E80FF91F6E
:10127000EE0FFF1FEB50FC4F8081918144E0880FFF
:10128000991F4A95E1F7F701E81BF90BED93FC93E1
:1012900080915F028823F1F06EE671E08FE295E0C5
:1012A0000E94DF27B8016F5F7F4F4AE050E08FE276
:1012B00095E00E9403296EEA71E08FE295E00E94BA
:1012C0000328D6016D917C914AE050E08FE295E0D1
:1012D0000E940A292196C031D10509F0A9CF1092A8
:1012E000390210923802DF91CF911F910F91FF9038
:1012F000EF90DF90CF90BF90AF909F908F907F90B6
:101300006F905F904F903F900895AF92BF92CF92B1
:10131000DF92EF92FF920F931F93CF93DF93809111
:101320005F02882331F06FE771E08FE295E00E9461
:10133000222880912902882309F46CC03BE3E32E24
:1013400032E0F32E0BE212E0C0E0D0E044E0A42E45
:10135000B12C58E1C52E55E1D52EE0914304F09112
:1013600044040C2E02C0F595E7950A94E2F7E1706B
:10137000FF27EA0DFB1DEE0FFF1FE351FC4F80819D
:10138000918124E0880F991F2A95E1F7F601E81B67
:10139000F90BCF01F70191838083F8011082219628
:1013A00080915F02882351F161E771E08FE295E05F
:1013B0000E9403284AE050E0BE018FE295E00E94BF
:1013C00003296EEA71E08FE295E00E940328F7019D
:1013D000608171814AE050E08FE295E00E9403292C
:1013E0006EEA71E08FE295E00E9403284AE050E047
:1013F000F80160818FE295E00E949128F5E0AF0E40
:10140000B11C22E0E20EF11C0F5F1F4FC830D10566
:1014100009F0A3CFDF91CF911F910F91FF90EF9033
:10142000DF90CF90BF90AF900895EF92FF920F930F
:101430001F93CF93DF93EC017B01FB01E858FF4F33
:10144000108180915F02882309F403C163E871E091
:101450008FE295E00E9403284AE050E0612F8FE27E
:1014600095E00E949128112309F4F5C080915F0254
:10147000882329F163E971E08FE295E00E94032857
:101480004AE050E0612F8FE295E00E9491286FE9D9
:1014900071E08FE295E00E94032840E0BE01C701A1
:1014A0000E94C6154AE050E0682F8FE295E00E9446
:1014B00091286BE172E08FE295E00E9422288FEF85
:1014C000810F813108F068C1883041F4DF91CF91FC
:1014D0001F910F91FF90EF900C948509893010F0C7
:1014E0008EEF810F2091430430914404982F977020
:1014F000943028F08450883040F091E003C0883068
:10150000C0F090E084509923A1F041E050E060E009
:1015100070E0082E04C0440F551F661F771F0A9401
:10152000D2F7422B532B5093440440934304E1E001
:1015300015C041E050E060E070E0082E04C0440FA8
:10154000551F661F771F0A94D2F740955095422386
:1015500053235093440440934304E0E0082F10E0E9
:10156000E801CC0FDD1FDE01A55CBD4FF0E025E0FA
:10157000829FE00DF11D1124EE0FFF1FEB50FC4F79
:101580004081518134E0440F551F3A95E1F728E13D
:1015900035E1241B350B2D933C932091330230E031
:1015A000A90102C0559547958A95E2F7F801E55DD6
:1015B000FD4F7F0140FF03C085E0808301C01082A2
:1015C00080915F02882309F4E7C061E771E08FE250
:1015D00095E00E940328B8016F5F7F4F4AE050E01A
:1015E0008FE295E00E9403296EEA71E08FE295E0B8
:1015F0000E940328FE01E55CFD4F608171814AE095
:1016000050E08FE295E00E9403296EEA71E08FE2DC
:1016100095E00E940328C55BDD4F688179814AE02F
:1016200050E08FE295E00E9403296EEA71E08FE2BC
:1016300095E00E9403284AE050E0F70160818FE2C4
:1016400095E0DF91CF911F910F91FF90EF900C9457
:101650009128111134CFCE010E94821C883021F4D0
:1016600080912902811195C080915F02882309F43D
:1016700093C0CE010E94341E8823D1F06DE371E047
:101680008FE295E00E94DF27CE010E94D41D4AE040
:1016900050E0BC018FE295E00E94A32863E371E073
:1016A0008FE295E00E94DF27CE010E94E91D0EC067
:1016B000CE010E941F1E8823B1F066E271E08FE226
:1016C00095E00E94DF27CE010E94FE1D4AE050E017
:1016D000BC018FE295E0DF91CF911F910F91FF90B8
:1016E000EF900C94A9286AEA71E08FE295E00E94DD
:1016F0000328CE010E94821C40E150E0682F8FE257
:1017000095E00E948A2860EB71E08FE295E00E94EC
:101710000328CE010E94D41D4AE050E0BC018FE2B4
:1017200095E00E94A32868EB71E08FE295E00E94AB
:101730000328CE010E94751C4AE050E0682F8FE21A
:1017400095E00E948A2861EC71E08FE295E00E94AA
:101750000328CE010E946A1C4AE050E0682F8FE205
:1017600095E00E948A2860ED71E08FE295E00E948A
:10177000032860915103709152034AE050E08FE2D8
:1017800095E0DF91CF911F910F91FF90EF900C9416
:101790000A290E94A20268CFDF91CF911F910F9179
:1017A000FF90EF9008950F9301E021E041E16CE29A
:1017B0008BE892E00E9479160F9108958BE892E0F1
:1017C0000C94241808950C9433292DED31E0FC017C
:1017D0003183208317AE16AEE05CFF4F118210827A
:1017E00032961182108232961182108208950F93E0
:1017F0001F93CF93DF93EC01C05CDF4F28813981C9
:10180000232B09F03FC021E030E0398328839C017D
:101810002C5B3F4FF90140815181141615061CF0D5
:10182000198218822FC0DC01AE5BBF4F4D915C91D5
:1018300011974C3351051CF011961C921E928B018E
:10184000615F7F4F4D915C911197480F591FFA01CD
:101850004281F80141938F014D915C9111974F5F47
:101860005F4F11965C934E93F90140815181415035
:101870005109518340830617170721F719821882EF
:1018800081E001C080E0DF91CF911F910F91089519
:10189000FC01EE5BFF4F20813181215F3F4F2C33F4
:1018A00031051CF43183208308951182108208953C
:1018B000EF92FF920F931F93CF93DF93FC017C0174
:1018C00080E4E80EF11CD7018D919C911197892B32
:1018D00099F581E090E08D939C9386AD97ADCC9780
:1018E00014F017AE16AEDB019B01215F3F4F8F0155
:1018F0000C5B1F4F86AD97AD6D91AF01480F591F1F
:10190000EA016A83019697AF86AFE80188819981E1
:10191000019699838883A217B30761F7CD973CF0AE
:10192000CF010E94480C8CE390E099838883F701F3
:101930001182108281E001C080E0DF91CF911F9180
:101940000F91FF90EF900895AF92BF92CF92DF92E8
:10195000EF92FF920F931F93CF93DF934D965C010D
:101960000E949022C0E0D0E06701E12CF12C42E01F
:101970006DE0C5010E949E22882351F02196C70187
:10198000B6010E947724C017D10788F380E001C018
:1019900081E0DF91CF911F910F91FF90EF90DF9049
:1019A000CF90BF90AF900895EF92FF920F931F9347
:1019B0002EE1E22EF12C04E110E021E04DE050E0B8
:1019C0000E94A40C1F910F91FF90EF900895AF9289
:1019D000BF92CF92DF92EF92FF920F93CF93DF935C
:1019E0005B017A016901EC016D96CE010E94BE2374
:1019F000833011F080E00DC0202FA501B601CE018B
:101A00000E9495238111F6CFB701CE010E942D1FB0
:101A100081E0DF91CF910F91FF90EF90DF90CF9019
:101A2000BF90AF9008950F931F93CF93DF93EC0176
:101A3000FC01E45BFE4F1082E55DF1096083E15B30
:101A4000FF4F84E090E0918380838E01035E1F4FFF
:101A500043E062E0C8010E94371FFE01ED59FF4FCD
:101A6000408150E060E070E0C8010E943F230E9486
:101A70004624C853DF4F688379838A839B83DF9131
:101A8000CF911F910F910895FC01E35BFE4F0190F0
:101A9000F081E02D309719F0BC01CD96099580E0DA
:101AA00008950F931F93CF93DF93EC018C01035C98
:101AB0001F4FC8010E94821C873011F08E3511F42F
:101AC0000C940000FE01E35BFE4F0190F081E02DDD
:101AD000309719F0BE01C801099580E0DF91CF91E0
:101AE0001F910F910895CF93DF93DB01119681E051
:101AF000841780F42D919FEF980FEB01C90FD11D32
:101B0000FE013191231718F439839150F6CF2083C9
:101B10008F5FEECFDF91CF910895FC01F596CD96C2
:101B20001192E817F907E1F708958F929F92AF920B
:101B3000BF92CF92DF92EF92FF920F931F93CF93BA
:101B40008C01FC01C5A9C295C695C770CF5F6C0119
:101B5000FDE1CF0ED11C41E061E0C6010E94371FBC
:101B6000580185E3A80EB11C4801E3E68E0E911CD6
:101B7000F401408150E060E070E075010C2F20E03E
:101B8000C6010E942F23811102C080E010C013E023
:101B9000F401408150E060E070E075010C2F20E01E
:101BA000C6010E942F23882381F3115089F7CF911A
:101BB0001F910F91FF90EF90DF90CF90BF90AF906B
:101BC0009F908F9008959F92AF92BF92CF92DF9295
:101BD000EF92FF920F931F93CF93DF93FC01603737
:101BE00009F47DC078F4613509F488C020F46035CB
:101BF00009F484C091C0623509F480C0693509F4E4
:101C00007DC08AC0663B39F140F4643709F084C076
:101C10008185DF01AC59BF4F69C0623E79F16F3EEB
:101C200009F07AC0DC01AE58BF4F8C9113969C919D
:101C300011972C9111973C9114974C9112965C91AD
:101C400013977C9165AB76AB57AB40AF31AF22AF0A
:101C500093AF84AF61C0DC01A059BF4F8C91119745
:101C60009C9111972C911A973C9111964C9165ABD0
:101C700046AB37AB20AF91AF82AF4CC0962EEC0194
:101C80008C010F591F4FC8010E940E1CFC01F680E9
:101C9000C8010E940E1CFC01E580C8010E940E1CB8
:101CA000FC01D480C8010E940E1CFC01C380C80145
:101CB0000E940E1CFC01B280C8010E940E1CFC0197
:101CC000A180C8010E940E1CFC0180819DAA8EABE0
:101CD000AFAAB8AEC9AEDAAEEBAEFCAE1DC0DC0149
:101CE000AD58BF4F8C919185891B1F979C91119680
:101CF0002C9165AB26AB97AB80AF0AC0DF01AC5926
:101D0000BF4F8C9111969C9165AB96AB87AB10AE93
:101D100011AE12AE13AE14AEDF91CF911F910F91A1
:101D2000FF90EF90DF90CF90BF90AF909F9008957D
:101D3000CF93DF93EC01FC01EA53FF4F85E090E085
:101D40009183808360E5CE010E94E30DCE01DF9197
:101D5000CF910C94950DFC01DC01AC59BF4F8C91D7
:101D600011969C912FE625AB96AB87AB60AF11AE79
:101D700012AE13AE14AECF010C94950DEF92FF92FC
:101D80000F931F93CF93DF93EC01FC01EA53FF4FB6
:101D900083E090E0918380837E0184EBE81A8EEFEC
:101DA000F80A8E0104531F4FF7014081B801CE019C
:101DB0000E94730DF701208130E0F80180E090E08F
:101DC00011E0180F821793072CF44191141710F0AB
:101DD0000196F6CF612FCE0102960E941E1AFE01D7
:101DE000ED59FF4F1083749680818823E1F0FE0146
:101DF000EC59FF4F8081918122E52DAB9EAB8FABDB
:101E000018AE19AE1AAE1BAE1CAE7E01F5E3EF0E96
:101E1000F11C412F50E060E070E003E020E0CE01D3
:101E20004D960E942F23DF91CF911F910F91FF902C
:101E3000EF9008951F93CF93DF93EC01122FFC01D5
:101E4000EB58FF4F8081861778F0CE0102960E94F2
:101E5000F419112339F069E5CE010E94E30DCE019A
:101E60000E94950D81E009C06F3FE1F3222321F02C
:101E700069E0CE010E94AB0E80E0DF91CF911F910F
:101E80000895615020E00C941A0F7F928F929F92D8
:101E9000AF92BF92CF92DF92EF92FF920F931F9378
:101EA000CF93DF93EC017C012DE3E20EF11CC7011F
:101EB0000E94821C182FC7010E94D41D5E01E4E617
:101EC000AE0EB11CF501C080D1808C159D0589F046
:101ED000EE59FF4F808191810297039750F41D3096
:101EE00009F464C0103109F473C0113109F0F4C26F
:101EF0007CC01D3509F416C130F5133509F49DC0B9
:101F000078F4103109F464C020F41D3009F0E4C203
:101F10004DC0113109F469C0123409F471C0DCC23A
:101F2000163509F4A6C038F4143509F48BC01535FC
:101F300009F492C0D1C2173509F4AFC0183509F0C1
:101F4000CBC264E771C2153909F451C1E8F4123704
:101F500009F40CC120F4113709F4F3C0BDC21337E2
:101F600009F428C1153709F0B7C263E0C7010E9420
:101F7000A81CFE01ED59FF4F8083682FCE01029609
:101F80000E941E1A62E550C2123B09F4B8C138F42F
:101F9000163909F459C11C3909F48CC19DC2123D8E
:101FA00009F4E1C1153F09F4D4C196C2C114D104AA
:101FB00009F492C266EBCE010E94E30DB601660FF2
:101FC000771F6C0D7D1D80E090E00E94772455C046
:101FD000FE01EA53FF4F80819181059709F07CC291
:101FE000CE010E948D0D6FEE45C0FE01EA53FF4FFA
:101FF00080819181059711F462EE3CC063E0C8C016
:102000008E010A531F4FF801808191810597B1F726
:10201000C7010E94D41DF50191838083BC01CE01CC
:1020200002960E94241A62E5CE010E94E30D83E02D
:1020300090E0F8019183808320C0CA53DF4F19825A
:1020400018824AC2FE01EA53FF4F83E090E0918379
:102050008083C758DF4F2BC1FE01EA53FF4F8081B9
:102060009181892B09F038C2CE0102960E94E819AD
:1020700033C260E7CE010E94E30DCE01DF91CF9124
:102080001F910F91FF90EF90DF90CF90BF90AF9096
:102090009F908F907F900C94950D0985002309F4F3
:1020A0001BC25E01F2E0AF0EB11C6BE2C5010E94E3
:1020B000B01980FF03C019E009E001C010E0ED2C69
:1020C000F12C82EF982E6BE2C5010E94B01980FFBF
:1020D00003C0113109F418E0612FC5010E94C11835
:1020E000FC018C8D882311F06AE052C083819281BB
:1020F000218130819DAAEEAACFAA38AF29AF9AAF2D
:102100008BAFFCAECE010E94950D882331F06DECB3
:1021100071E08FE295E00E9410281F5FF3940F1189
:10212000D2CFDAC1C7010E94D41DF50120813181CF
:102130008217930709F0D0C161E0CE010E94130D10
:10214000CBC1C7010E94BC1C182F7E01F2E0EF0E2C
:10215000F11C6BE2C7010E94B01980FFB0C18DEF86
:10216000810F843108F0ABC163E1AAC1CE010E94A6
:102170008D0DC7010E94D01C182F6FEF680FCE0184
:1021800002960E94C118FC019C8D992329F066E0FB
:10219000CE010E94AB0EA0C183819281218130814A
:1021A00042EF4DABDEAACFAA38AF29AF9AAF8BAFC3
:1021B0001CAF3DC1C7010E94B41C182F811107C07C
:1021C0008BE98DABDEAACFAA18AE88E00BC0682FD2
:1021D000CE018F599F4F0E94101C9BE99DABDEAA38
:1021E000CFAA18AF89AF1AAE1BAE1CAE20C1C70173
:1021F0000E94E91D8C01C7010E94D41D7E0122E0CE
:10220000E20EF11CA801BC01C7010E949A19182F07
:10221000BE0164537F4FFB011082319610823196CC
:10222000108231961082482FC7010E94EF181813B0
:10223000AECF612F70E020E040E0C7010E946C1A31
:10224000882309F449C150CFC7010E94BC1C082F44
:102250001FEF180FC7010E94C71CF82ECE0102966F
:102260006C01113039F4FE01ED59FF4FF0826F2DF2
:102270000E941E1A6BE2C6010E94B01980FF05C0C1
:102280008DEF800F843108F424C121E04F2D612FA0
:10229000CE010E941A0F812F65E00E9438299350C9
:1022A000C758DF4F923018F41150188315C181E0E0
:1022B000888312C1C7010E94D01C082FC7010E9449
:1022C000E41C182FFE01EC58FF4F8081811708F4A1
:1022D0000BCF4FEF410F6FEF600FCE0102960E94C0
:1022E0005C1A9C8D911100CFF5019081218135EB15
:1022F0003DAB2EAB9FAB08AF19AF8AAF75CFFE01D8
:10230000EA53FF4F80819181892B59F5C7010E94C3
:10231000E41C182F682F6E01F2E0CF0ED11CC6010D
:102320000E94C1187C0140E0612FC6010E945C1A26
:102330009C8D91112CCFF7019381228131814081B5
:1023400053ED5DAB4EAB3FAB28AF99AF1AAF8BAF40
:102350004CCFFE01EA53FF4F80819181892B09F414
:102360006AC062E015CFC7010E94E91D982E892E30
:10237000C7010E94D41D782EB92EC7010E94E41C0B
:10238000182FC7010E94F81C082F6E01FCECCF0E1D
:10239000D11CF601B0825E01FDECAF0EB11CF5015F
:1023A000708231968082319690827E01F2E0EF0E4B
:1023B000F11C6BE2C7010E94B01980FF03C0183006
:1023C00008F4175F6CEF610F643020F083EF810F2A
:1023D000843058F4C7010E94C118FC012081F60125
:1023E0002083FC018181F5018083412FB601C70163
:1023F0000E94EF181813CBCE612F70E0202F40E021
:10240000C7010E946C1A182F61EE71E08FE295E00F
:102410000E9403284AE050E0612F8FE295E00E947D
:102420009128111161CE69E5CE010E94E30DCE0124
:102430000E94950D51C0C7010E94E91DD82EC92EDA
:10244000C7010E94D41DB82EA92EC7010E94E41C0A
:10245000182FC7010E94F81C082FC7010E94D01C2A
:10246000F82EBE0164537F4FFB01A0823196B082EB
:102470003196C0823196D0826E01F2E0CF0ED11C2F
:102480004FEF480FC6010E94EF18682F70E02F2D04
:1024900030E0215031096217730709F078CE4FEF11
:1024A000410F202FC6010E946C1A90E0212F30E0CE
:1024B000215031098217930709F016CEB4CF6FEF80
:1024C000610FC7010E94B0199C8D91110DCE97E943
:1024D00085CE13E1100FD9CE80E0DF91CF911F910F
:1024E0000F91FF90EF90DF90CF90BF90AF909F90B3
:1024F0008F907F900895CF92DF92EF92FF920F938B
:102500001F93CF93DF93EC01FC01E15AFF4F8081D1
:102510008823A9F0359680819181892B81F07E01F5
:1025200085E3E80EF11C3197408150E060E070E0F7
:1025300000E020E0CE014D960E942F2368C0FE01EE
:10254000EA53FF4F80819181049709F56E01EDE315
:10255000CE0ED11CC6010E94671C182F811157C0D6
:102560007E01F4EBEF1AFEEFFF0AF701008103365C
:1025700008F050C0C6010E94751CC00FD11DC45385
:10258000DF4F8883F70180818F5F808343C0FE0126
:10259000ED5BFF4F808191818230910569F118F4E4
:1025A000019739F036C08330910581F00497C9F066
:1025B00030C0FE01E15BFE4F0190F081E02D3097CD
:1025C00041F1BE01CE01CD96099523C0CE018F59B0
:1025D0009F4F0E944D1C8823E1F0CE010E94440DC4
:1025E00018C0CE018F599F4F0E944D1C882389F03F
:1025F000CE010E94510D0DC0CE01DF91CF911F91F0
:102600000F91FF90EF90DF90CF900C94450F10E06A
:1026100001C011E0812FDF91CF911F910F91FF90A9
:10262000EF90DF90CF900895AF92BF92DF92EF923C
:10263000FF920F931F93CF93DF938C017C0182E075
:10264000E80EF11C60E0C7010E94B01981FBDD2497
:10265000D0F8E801ED96CE010E94341E882319F0CF
:10266000DD2009F44AC0CE010E941F1E882399F084
:10267000CE010E94FE1D009771F0AC0160E070E099
:10268000C7010E949A19F801248530E0482F50E0D4
:102690002417350784F5CE010E94341E8823B1F03B
:1026A000F1E0DF1213C0CE010E94E91D009771F026
:1026B000AC0160E070E0C7010E949A19F80124851E
:1026C00030E0482F50E024173507ACF4CE010E94CB
:1026D000FE1D009711F480E026C0AC0160E070E0C0
:1026E000C7010E949A19F801248530E0482F50E074
:1026F0002417350784F38F5F16C0CE010E94E91DB1
:102700005C01CE010E94D41DA501BC01C7010E943D
:102710009A19F801248530E0482F50E02417350736
:102720000CF4A1CFE8CFDF91CF911F910F91FF90D3
:10273000EF90DF90BF90AF900895AF92BF92CF928D
:10274000DF92FF920F931F93CF93DF93EC016C0105
:1027500088E7C80ED11CF60110825E01FAEDAF1AAF
:10276000FEEFBF0AB501CE0180589F4F0E94F70BC4
:10277000F82E882341F18E01035C1F4FC8010E948F
:10278000901CF5018081E45EF1098083BE01685DE3
:102790007E4FC8010E94851CBE01645D7E4FC8014A
:1027A0000E940F1FFE01E95DFE4F8081E85CF10988
:1027B000811102C0108202C081E08083CE010E949C
:1027C0001413F60180838F2DDF91CF911F910F910C
:1027D000FF90DF90CF90BF90AF90089502960C9439
:1027E000871ACF93DF93EC01862FFE01EE5AFE4F3E
:1027F0006083CD5ADE4F488361E00E94412561E04D
:102800008881DF91CF910C9441258F929F92AF9256
:10281000BF92EF92FF920F931F93CF93DF938C01A0
:102820000D5A1E4FF80120812F3F29F43197208146
:102830002F3F09F44DC0EC010E9446247E01FAEAC4
:10284000EF1AFEEFFF0AF70180809180A280B3802B
:10285000DC01CB0188199909AA09BB0984369105C5
:10286000A105B105A8F1E059F10980819181059791
:10287000A1F4CB5ADE4F8881813039F460E0F80151
:1028800080810E947D2518821CC061E0F801808152
:102890000E947D2581E0888314C08CA9CE5ADE4F2A
:1028A000813031F460E088810E947D2561E005C0BF
:1028B00061E088810E947D2560E0F80180810E94AE
:1028C0007D250E944624F701608371838283938370
:1028D000DF91CF911F910F91FF90EF90BF90AF903C
:1028E0009F908F900895FC01E059FF4F6081029600
:1028F0000C94411ACF93DF93EC011CAA8F599F4F80
:102900000E94521CCE01DF91CF910C947314CF938F
:10291000DF93EC0102960E94351AFE01EC59FF4F3D
:102920009183808331978E8180833D9681E080837F
:10293000CE018F599F4F0E945C1C811103C0CE01B4
:102940000E947A14CA53DF4F83E090E09983888312
:10295000DF91CF910895CF93DF93EC0102960E940F
:10296000441BCE01DF91CF910C948714CF93DF935A
:10297000EC0181E08CABCE018F599F4F0E94571C18
:10298000CE01DF91CF910C9473140F931F93CF93CB
:10299000DF93EC01FC01E65AFE4F80818F3F09F482
:1029A0009FC00E94AC258E01055A1E4FF801892B4D
:1029B00079F48081813009F093C00E944624C85385
:1029C000DF4F688379838A839B83F801108288C0F4
:1029D0008081811185C081E080830E944624FE01B0
:1029E000E853FF4F0081118122813381DC01CB014B
:1029F000801B910BA20BB30B8C019D01095E134050
:102A0000210931090738134121053105F0F48CA95A
:102A1000FE01EA53FF4F813091F480819181059747
:102A200039F4CA53DF4F83E090E09983888358C01C
:102A3000CE01DF91CF911F910F910C94980E808160
:102A40009181059709F04CC0ECCF81379741A105E2
:102A5000B10508F445C08CA981111BC08E010A5331
:102A60001F4FF801808191810597D9F260E0E4570A
:102A7000FF4F80810E947D2560E0CE010E94130DF2
:102A8000F80180819181049799F6CE010E94751515
:102A9000F7CF1CAA8E010F591F4FC8010E94521C6C
:102AA000CE010E947314C8010E943F1CFE01EC5924
:102AB000FF4F9E012E5F3F4F882339F0C658DF4FEE
:102AC000688179817183608304C01182108260E023
:102AD00070E0C901DF91CF911F910F910C94241ADE
:102AE000DF91CF911F910F910895EF92FF920F9375
:102AF0001F93CF93DF93EC010E940514CE010E9437
:102B0000C514FE01EA53FF4F808191810497B9F407
:102B10000E944624FE01E853FF4F0081118122816B
:102B20003381DC01CB01801B910BA20BB30B893EDF
:102B30009340A105B10518F0CE010E94BE0E7E01A2
:102B400083EBE81A8EEFF80A8E01035C1F4FCE016B
:102B50000E949D13882371F0CE010E947B1288236E
:102B6000B1F3D701ED91FC91309789F3BE01C80113
:102B70000995EDCF80E0DF91CF911F910F91FF90EC
:102B8000EF900895615002960C94B019AF92BF92E5
:102B9000CF92DF92EF92FF920F931F93CF938C010E
:102BA0007B01C42FCB010E941F1E98012E5F3F4F57
:102BB0006901882339F0C7010E94FE1DAC0160E065
:102BC00070E009C0C7010E94E91D5C01C7010E94B5
:102BD000D41DA501BC01C6010E949A19CC2319F08D
:102BE0004FEF4C0F01C040E0F801ED58FF4F9081CE
:102BF000891768F4682FC601CF911F910F91FF903C
:102C0000EF90DF90CF90BF90AF900C945C1A80E073
:102C1000CF911F910F91FF90EF90DF90CF90BF90D9
:102C2000AF9008952F923F924F925F926F927F9252
:102C30008F929F92AF92BF92CF92DF92EF92FF92CC
:102C40000F931F93CF93DF931F92CDB7DEB77C0115
:102C5000198210E02C0184EC481A8EEF580A5701B3
:102C600090ECA91A9EEFB90A6701E6ECCE1AEEEFD6
:102C7000DE0A4701FDE18F0E911CC701855C9E4F66
:102C80001C01370190E8690E711C012F9E012F5F16
:102C90003F4FA201B501C7010E94E70C882391F0C4
:102CA0008981F6018083C4010E94451F811103C000
:102CB000F101108203C081E0F1018083B601C301FC
:102CC0000E94580C1F5F123001F70F90DF91CF91D7
:102CD0001F910F91FF90EF90DF90CF90BF90AF903A
:102CE0009F908F907F906F905F904F903F902F902C
:102CF00008952F923F924F925F926F927F928F92A0
:102D00009F92AF92BF92CF92DF92EF92FF920F937A
:102D10001F93CF93DF93CDB7DEB7C654D1090FB65B
:102D2000F894DEBF0FBECDBF7C01362E242E122FAD
:102D30002DEE31E0FC0121933193CF010E94631805
:102D40003701FDE16F0E711CC3010E948F225701F4
:102D50008DE3A80EB11CC5010E94A11C6701E1E62C
:102D6000CE0ED11CC6010E94E91B4701F0E88F0E70
:102D7000911CC4010E94E50B270186E7480E511CF7
:102D8000F2011082EA52FF4F1082CE0101960E949A
:102D90008F2287E1FE013196D30101900D928A9531
:102DA000E1F7CE0101960E94E50BF4013296DE01B7
:102DB0001396C70182549F4F2D9121938E179F0721
:102DC000D9F721968EAD9FAD2197F40197AF86AFCD
:102DD00023968EAD9FAD2397F701E054FF4F91836B
:102DE000808325968EAD9FAD259732969183808303
:102DF00027968EAD9FAD2797329691838083CE0123
:102E000001960E94E20B212F422D632DCE010196E7
:102E10000E946E1B8B819C81F701958384838D8139
:102E200086838E8187838F81808788858187898546
:102E300082878A8583878B8584878C8585878D8526
:102E400086878E859F85908B87878889818B8989E6
:102E5000828B8A89838B8B89848B8C89858B8D89E6
:102E6000868B8E899F89908F878B888D818F898DA6
:102E7000828F8A8D838F8B8D848FCE0101960E94E5
:102E80004918CE0101960E94E91B8B81F6018283CD
:102E90008C819D81948383833596DE011696C701CC
:102EA00082599F4F2D9121938E179F07D9F78E85B9
:102EB000F60185878F858687888987878989808BB2
:102EC0008A89818B8B89828B8C89838B8D89848B7A
:102ED000CE0101960E94E61BF701ED58FF4F2082BC
:102EE0003296308231971083CE0101960E94A11C48
:102EF0008B81F70187AF8C81E05CFF4F80838D81F0
:102F0000319680838E81319680838F81988531962A
:102F10009183808389859A853296918380838B857E
:102F20009C853296918380838D859E853296918390
:102F300080838F85988932969183808389899A8945
:102F40003296918380838B8932968083F5017396C4
:102F5000DE015496C701885A9F4F2D912193E8179F
:102F6000F907D9F78C8D8083F701E75AFF4F8D8DD4
:102F7000808331968E8D808331968F8D80833196BC
:102F800088A18083319689A19AA19183808332960A
:102F90008BA1808331968CA18083CE0101960E9403
:102FA000641CF201808181608083F701E958FF4F42
:102FB0001082E552FF4F0FEF008331960083319668
:102FC00011E01083319610820E944624F701EA5ADC
:102FD000FE4F6083718382839383399711821082BD
:102FE0003F9611821082E45EF109108231961083BF
:102FF000EF51FF4F008331961083E15EF10987ECBA
:1030000090E0A0E0B0E080839183A283B383C70106
:103010000E94AB14CA5BDF4F0FB6F894DEBF0FBE41
:10302000CDBFDF91CF911F910F91FF90EF90DF9077
:10303000CF90BF90AF909F908F907F906F905F9058
:103040004F903F902F900895CF93DF93EC018DEE3A
:1030500091E099838883CE0180589F4F0E94E20BB4
:10306000CE018F599F4F0E94E61BCE01CD960E9444
:10307000641CCE010296DF91CF910C944918CF9336
:10308000DF93EC010E942418CE01DF91CF910C94C4
:10309000332925EF31E0FC01318320838281938144
:1030A000009711F00C9435290895CF93DF93EC012C
:1030B0000E944918CE01DF91CF910C9433290C94D2
:1030C000B52A0C94BD2A25EF31E0FC013183208321
:1030D0000895FC0180E090E0238530E0821793079B
:1030E0003CF4A281B381A80FB91F1C920196F4CFC2
:1030F00083E68483158287EC86831782148A089579
:10310000EF92FF920F931F93CF93DF93FC01108AEE
:10311000118A128A138A128E82859F01205F3F4F87
:103120007901861718F08781861718F481E0828F5D
:1031300020C0EF01838590E00496689F8001699F1D
:10314000100D112485859685080F191FC8010E944E
:103150005F18888BC80101960E945F18898BC8018F
:1031600002960E945F188A8BC80103960E945F181E
:103170008B8BC701DF91CF911F910F91FF90EF9043
:103180000895FC01108A118A128A138A128E2285F0
:103190004096261718F02781261718F421E0228F71
:1031A000089570E0DB01AA0FBB1FA356BB4F2C9103
:1031B000208BDB01AA0FBB1FA154BB4F2C91218B8D
:1031C000DB01AA0FBB1FAF51BB4F2C91228B660FA7
:1031D000771FDB01AD5FBA4F2C91238B0895CF92FF
:1031E000DF92EF92FF921F93CF93DF93FC01128542
:1031F000411718F081E0810F4DC0142FFB01DC0155
:10320000842F90E0EC01CC0FDD1FC356DB4F2081F3
:1032100030E039832883EC01CC0FDD1FC154DB4F34
:10322000218130E039832883EC01CC0FDD1FCF51A1
:10323000DB4F228130E039832883EC01CC0FDD1F86
:10324000CD5FDA4F238130E0398328831B962C91A0
:103250001B9730E02C5F3F4F289F7001299FF00C97
:10326000389FF00C11241D968D919C911E97E80EAD
:10327000F91E6B0184E0C80ED11CEB01E61AF70AB7
:10328000C7018C0F9D1F69910E946118CC15DD0547
:10329000B9F7812FDF91CF911F91FF90EF90DF90D1
:1032A000CF900895AF92BF92CF92DF92EF92FF92AC
:1032B0000F931F93CF93DF93EC018F81ADE9B4E0BF
:1032C000E1EEF4E090E0E62EF12CC42ED12C30E0BB
:1032D00010E09817F9F0611102C0442369F0AD9035
:1032E000BC901197EA14FB0489F49296AD90BC90BF
:1032F0009397CA14DB0451F4A080B1802A153B05D2
:1033000029F4A2A0B3A00A151B0541F09F5F1296F5
:103310003296DFCF9A8581E0890F01C0892FDF9136
:10332000CF911F910F91FF90EF90DF90CF90BF90C2
:10333000AF9008950F93252F042F462F672F0E94DB
:1033400052190F910895FC01128E8185681728F497
:10335000862F90E049960C945F188FEF828F089526
:10336000FC01128E8185681718F08FEF828F089507
:10337000E62FF0E0EE0FFF1FEB5BFB4F808108951F
:10338000CF93DF93EC0169E580E090E00E94611843
:103390006C8182E190E00E9461186D8183E190E090
:1033A0000E9461186E8184E190E00E9461186C892E
:1033B00085E190E00E9461186F8187E190E00E94B2
:1033C00061186B8588E190E0DF91CF910C946118D2
:1033D000CF93DF93EC0160E087E190E00E946118F9
:1033E0001F82DF91CF9108951F93CF93DF93FC014C
:1033F00081858617F8F0142FC62FD0E0FE01EE0F5E
:10340000FF1FEB5BFB4F842F90E0918380836996D5
:10341000CE010E945F18181769F060EE71E08FE22C
:1034200095E00E941028612FCE01DF91CF911F916E
:103430000C946118DF91CF911F910895FC01648372
:1034400082E190E00C946118CF93DF93EC017D83CF
:103450006E83672F83E190E00E9461186E8184E1A2
:1034600090E0DF91CF910C946118CF93DF93EC0142
:103470006E818D810E941C299E8B8D8BDF91CF9157
:103480000895FC01648B85E190E00C946118089527
:10349000FC01238530E02C5F3F4F629FD001639F8A
:1034A000B00D1124858596858A0F9B1F50E04C5FD7
:1034B0005F4F840F951F0895FC01128E8781681756
:1034C00040F48385481728F4CF010E94481A0C94D1
:1034D0005F188FEF828F0895CF93DF93DC011796EB
:1034E000EC91F0E06E177F0718F081E0840F0CC0BC
:1034F000FC0133854317C8F7D22FC42F0E94481A06
:103500006D2F0E9461188C2FDF91CF910895BF928B
:10351000CF92DF92EF92FF920F931F93CF93DF939F
:1035200000D000D0CDB7DEB78C010E946918F80139
:103530008285878319821A8282E48B838CEC8C8348
:10354000C12CD12CE12CF12CBE2C4E2DBE016F5F75
:103550007F4FC8010E94EF1820E040E0B701C8018A
:103560000E946C1A8C818F5F8C83811103C08B81C8
:103570008F5F8B8344E04B0DBE016F5F7F4FC801AF
:103580000E94EF1820E040E0B7016C5F7F4FC80158
:103590000E946C1A8C818F5F8C83811103C08B8198
:1035A0008F5F8B838FEFE81AF80AEFEFCE1ADE0AEF
:1035B000F8E0CF16D10441F0F4E0CF16D10421F6A3
:1035C00099E0E92EF12CC0CF19821A8282E18B8317
:1035D00087E68C8348E0BE016F5F7F4FC8010E9481
:1035E000EF1820E040E068E070E0C8010E946C1A2B
:1035F00042E060E0C8010E94F41943E661E0C801BE
:103600000E94F41982E0F82E40E06F2DC8010E945C
:10361000F41961E06F0D4BE4C8010E94F41962E0F7
:103620006F0D41EEC8010E94F41963E06F0D4DE08B
:10363000C8010E94F41964E06F0D4DE0C8010E94BA
:10364000F41985E0F80EEAE2FE12DECF40E06BE20C
:10365000C8010E94F41940E06AE2C8010E94F4190E
:10366000C8010E94C019C8010E94441B0F900F900E
:103670000F900F90DF91CF911F910F91FF90EF90DE
:10368000DF90CF90BF900895CF93DF93EC010E941D
:10369000691880E090E00E945F18893519F0CE012A
:1036A0000E94871A82E190E00E945F188C8383E178
:1036B00090E00E945F188D8384E190E00E945F1883
:1036C0008E8385E190E00E945F188C8B87E190E00B
:1036D0000E945F188F83DF91CF910895CF92DF9280
:1036E000EF92FF920F931F93CF93DF93EC0185EF3F
:1036F00091E09983888369874A872B870C87675E67
:103700006F8770E0600F711D600F711D7E876D8780
:10371000822F90E00E9431299B838A83CE010E94F0
:103720006918CE010E94441B25E4E22E24E0F22E0B
:1037300010E0612FCE010E94A31990E0D7018D9374
:103740009D937D011F5F1C32A1F740919B04509116
:103750009C0440FF09C04E7F50939C0440939B04FF
:103760006BE2CE010E94F4198DE9C82E84E0D82EB8
:1037700091EEE92E94E0F92E10E0612FCE010E9427
:103780008018FC01808190E0D6018D939D936D019E
:10379000818190E091969C938E939097828190E0A6
:1037A000D7018D939D937D01838190E091969C93A9
:1037B0008E9390971F5F113101F7DF91CF911F9189
:1037C0000F91FF90EF90DF90CF90089508950C94A3
:1037D00033292DEF31E0FC013183208335960D969E
:1037E00020E32193E817F907E1F7089548305105E0
:1037F00014F048E050E0FC0135960D96DF011D9273
:10380000A817B907E1F7DB01CD01861B970B8417D9
:1038100095071CF48D918193F7CF0895059608952F
:10382000DC01462F50E0FA013197E830F105E0F471
:10383000E65AFF4F0C947A291D968C910895509664
:103840008C9108951E968C91089552968C910895AE
:1038500053968C91089554968C91089551968C911D
:1038600008951F968C91089580E00895FC01978536
:10387000662311F0926001C09D7F97870895FC0137
:103880008785869581700895FC019785662311F0E0
:10389000916001C09E7F97870895FC018785809580
:1038A00081700895FC0197859B7F97870895FC019F
:1038B0009785946097870895FC01878582FB882708
:1038C00080F991E08927089508950C943329FC012B
:1038D00085810895FC01238930E085E035952795A1
:1038E0008A95E1F72483822F0895FC01238D80E1DE
:1038F000289F90011124848D829586958770822B54
:1039000082830895FC0183810895FC017B964F9684
:10391000DB012D91BD012193E817F907C9F708953F
:10392000FC01DC0153964B961D92A817B907E1F7ED
:10393000138E148E158E168E178E11A210A212A23F
:10394000089525E032E0FC01318320830C94901C23
:10395000FC01683038F48381882329F0E60FF11DDB
:103960008389089580E00895FC012381233711F4B1
:103970008689089580E00895FC019381913719F0BC
:103980009659923010F48689089580E00895FC01DC
:1039900093819659923010F48789089580E00895B4
:1039A000FC019381923721F09C3911F0953B11F481
:1039B00086890895953F11F4808D0895923F11F402
:1039C000828D089580E00895FC0193819C3911F067
:1039D000953B11F487890895923B11F0923D11F4C3
:1039E000808D0895953F11F4818D089580E00895AC
:1039F000FC018381853B11F4808D08959EE2980F30
:103A0000923010F4818D0895853F11F4828D0895D0
:103A100080E008954230510509F45EC040F441153C
:103A2000510581F04130510509F470C0B7C04430F0
:103A3000510509F4A1C008F487C04530510509F4C7
:103A4000A2C0ACC0623409F4ACC080EB860F8B30EE
:103A500008F4A7C084EA860F823008F4A2C081E986
:103A6000860F873008F49DC080E7860F8F3008F4FA
:103A700098C080E5860F873008F493C088E4860FED
:103A8000823008F48EC083E4860F823008F489C047
:103A900080E3860F863008F484C088E2860F823087
:103AA00008F47FC083E2860F823008F47AC0633E58
:103AB00009F477C080E1860F823008F472C08DE08F
:103AC000860F873008F46DC081E06D3F09F468C04F
:103AD0006E3F09F063C067C0862F8F7B80598630A8
:103AE00008F45FC080E5860F853008F45AC080E195
:103AF000860F823008F455C08DE0860F823008F4BE
:103B000050C081E0653F09F049C04DC06B3509F4F4
:103B100048C088E6860F833008F443C0862F8F7D27
:103B20008D598230F0F188E4860F8230D0F188E23E
:103B3000860F8230B0F183E2860F823090F188E008
:103B4000860F843008F62DC08FED860F833048F144
:103B50008CEB860F873028F16C3419F1603609F14F
:103B60006038F9F08EE7860F8430D8F0623AC9F0F9
:103B700081E0613E99F417C0603499F0613689F0B4
:103B8000613CB1F70EC0603861F08EE7860F84307B
:103B900040F081E0623A39F0613C29F080E008951C
:103BA000089581E008950895CF93DF93EC0140E0FC
:103BB00050E06B890E940A1D882331F08C899D8911
:103BC00098278927982702C080E090E0DF91CF9165
:103BD0000895CF93DF93EC0142E050E06B810E94A7
:103BE0000A1D882331F08E899F8998278927982775
:103BF00002C080E090E0DF91CF9108951F93CF93B2
:103C0000DF93EC011B8141E050E0612F0E940A1D0F
:103C1000882379F086E0810F823010F01B3519F48B
:103C20008C899D8902C08E899F899827892798272A
:103C300002C080E090E0DF91CF911F910895FC01D8
:103C40009381892F8F7D8859823058F088E2890FBF
:103C5000823038F081E0983F31F0993F21F080E0E8
:103C6000089581E008950895FC019381892F8F7D47
:103C70008059823058F080E3890F823038F081E03B
:103C8000903F31F0913F21F080E0089581E0089568
:103C90000895643008F4B4C0673009F4B1C0962FB9
:103CA0009F7B9F3309F4ACC082EA860F823008F410
:103CB000A7C0862F8F7D8F3909F4A2C0663B09F417
:103CC0009FC06F3D09F49CC02CEF260F233008F4F1
:103CD0009AC028EF260F233008F495C02FED260F49
:103CE000233008F490C0603409F48DC02CEB260F0B
:103CF000273008F488C06C3409F485C0262F2F774C
:103D000030EA320F323008F47EC0233609F47BC02B
:103D1000803809F478C02EE7260F243008F473C0E9
:103D2000623A09F470C020E4260F223008F46BC018
:103D300026EA260F223008F469C020E7260F253036
:103D400008F464C028E6260F233008F45FC08D59BC
:103D5000823008F45BC0862F877F805B823008F456
:103D600055C08DE4890F823008F450C081E3860F7E
:103D7000833008F44BC08CE2860F823008F446C0D2
:103D800088E2860F823008F441C083E2860F8230D9
:103D9000E8F180E1860F8230C8F18AE0860F863034
:103DA000A8F183E0860F833088F184EF860F82309C
:103DB00080F180EF860F823060F1623451F180EB48
:103DC000860F8A3030F184EA860F823010F181E963
:103DD000860F8730F0F08BE6860F8330D0F085E6D3
:103DE000860F8230B0F0923BA1F0953B91F08EE2CD
:103DF000860F823070F0623E61F06F3E69F409C058
:103E000084E090E0089581E090E0089583E090E000
:103E1000089582E090E0089580E090E00895CF93C7
:103E2000DF93EC01FC0173964B96DB012D91BD01F4
:103E30002193E817F907C9F76B896B83CE010E94BC
:103E4000491E9F838E83DF91CF9108958EBD000020
:103E50000DB407FEFDCF8EB50895DC015196FB0130
:103E600045962D912193A817B907D9F70895FC011C
:103E7000633010F4658B02C082E0858B443010F40F
:103E8000468B089582E0868B0895FC01868508950F
:103E9000CF93DF93EC0160E088890E947D2580EC60
:103EA0000E94261F61E088890E947D256AE070E0FB
:103EB00080E090E0DF91CF910C9477241F93CF9313
:103EC000DF93EC01162F60E088890E947D2583E056
:103ED0000E94261F812F0E94261F80E00E94261F1D
:103EE000182F61E088890E947D25812FDF91CF9175
:103EF0001F910895DF92EF92FF920F931F93CF933C
:103F0000DF937C01162FD42EC52FD22F60E0FC0149
:103F100080890E947D2583E00E94261F812F0E94B8
:103F2000261F0D2D1C2FC0E0CD1751F0C83041F0D9
:103F300080E00E94261FF80181938F01CF5FF4CFAC
:103F400061E0F7018089DF91CF911F910F91FF9080
:103F5000EF90DF900C947D250F931F93CF93DF9309
:103F6000EC01062F142F60E088890E947D2582E0F5
:103F70000E94261F802F0E94261F812F0E94261F2D
:103F800061E08889DF91CF911F910F910C947D257D
:103F9000DF92EF92FF920F931F93CF93DF938C01E9
:103FA000C62FD42EE52EF22E60E0FC0180890E94FF
:103FB0007D2582E00E94261F8C2F0E94261FCD2D7A
:103FC000DE2DCE018F0D911D7C01CE15DF0521F078
:103FD00089910E94261FF9CF61E0F8018089DF9165
:103FE000CF911F910F91FF90EF90DF900C947D2562
:103FF000FF920F931F93CF93DF93EC01F62E042FC4
:10400000122F60E088890E947D2585E00E94261F8E
:104010008F2D0E94261F802F0E94261F812F0E9415
:10402000261F61E08889DF91CF911F910F91FF904A
:104030000C947D251F93CF93DF93EC0160E088897A
:104040000E947D2580EA0E94261F80E00E94261F94
:10405000182F61E088890E947D25812FDF91CF9103
:104060001F9108950F931F93CF938C01C62F262F76
:1040700040EE6FE00E94F81F6FE0C8010E945E1FD3
:10408000982F907E81E09C1301C080E0CF911F911A
:104090000F9108950F931F93CF93DF93413019F041
:1040A000423079F161C0462F50E0FA013197E23198
:1040B000F10508F059C0EE59FF4F0C947A29C7E872
:1040C000DFEF5EC0C5E8D1EF57C0C7E8DFEF2CC017
:1040D000C7E8DAEF29C0C7E8DFEF2DC0C7E8DAEF9D
:1040E0002AC0C6E8D0EF27C0C7E8DAEF2BC0C5E882
:1040F000D1EF41E446C0C6E8D0EF2BC0C2E8D0ED16
:1041000028C0462F50E0FA013197E231F10560F501
:10411000EC58FF4F0C947A29C7E0DFEB2DC0C7E0C5
:10412000DFEB02C0C4E0D4EA47E02BC0C7E0DFEB1E
:1041300002C0C6E0D4EB43E024C0C7E0DFEB02C01E
:10414000C6E0D4EB41E01DC0C5E0D1EBFBCFC6E03B
:10415000D4EB40E016C0C5E0D1EBFBCFC2E0D0E924
:10416000F8CFC0E0D0E8F5CF81E01AC0C7E8DFEFB4
:104170004FE307C0C7E8DFEF4FE003C0C7E0DFEB66
:104180004FE18C016AE20E94AC1F4D2F69E2C80129
:104190000E94AC1F4C2F68E2C8010E94AC1F80E057
:1041A000DF91CF911F910F9108950F931F93CF939C
:1041B0008C01C0E340E06C2FC8010E94AC1F60E19D
:1041C0006C0F40E0C8010E94AC1F60E26C0F40E041
:1041D000C8010E94AC1FCF5FCE3361F740E060E6BC
:1041E000C8010E94AC1F40E060E7C801CF911F9159
:1041F0000F910C94AC1FFF920F931F93CF93DF93FB
:10420000EC01062FF42E0E94481F60E8CE010E94A8
:104210003220182F6AE070E080E090E011110DC0AC
:104220000E9477244F2D602FCE010E944A208823C0
:1042300039F06AE070E080E090E00E94772428C0C6
:104240006AE070E080E090E00E947724CE010E9456
:10425000D52043E06BE2CE010E94AC1F24E044E68F
:1042600060E6CE010E94F81F20E040E660E7CE0144
:104270000E94F81F60E0CE010E943220C82F8823E0
:10428000C1F26AE070E080E090E00E9477241C2F89
:10429000812FDF91CF911F910F91FF9008950F9380
:1042A0001F93CF93DF9300D000D0CDB7DEB741305E
:1042B000B1F40C831B83890122273327502F5C71B3
:1042C000402F437078E0579F400D112448604A8387
:1042D00055E0169507955A95E1F709830DC0A80199
:1042E00023E0569547952A95E1F749830295000FFB
:1042F000007E0A831C821B8224E0AE014F5F5F4F69
:104300000E94C81F0F900F900F900F90DF91CF91D8
:104310001F910F910895EF92FF920F931F93CF93E8
:10432000DF9300D000D0CDB7DEB77A018901FA0162
:104330001082F901108211821282138224E0AE01F0
:104340004F5F5F4F0E947A1F2A813981822F90E050
:1043500065E0959587956A95E1F7F8E03F9F800DB8
:10436000911D1124092E000CAA0BBB0BF8018083B0
:104370009183A283B38323FF25C032E0880F991F66
:10438000AA1FBB1F3A95D1F72370820F911DA11D63
:10439000B11DBA2FA92F982F88272B81820F911D2D
:1043A000A11DB11DBA2FA92F982F88272C81820F0C
:1043B000911DA11DB11D80839183A283B38381E0F0
:1043C000F70180830F900F900F900F90DF91CF91A6
:1043D0001F910F91FF90EF900895FF920F931F93FD
:1043E000CF93DF93EC01F62EAC014A5F5F4F65E09F
:1043F0006F0D2D810E94C81F8E85813019F48D812B
:1044000080648D8364E06F0D4D81CE010E94AC1FEE
:1044100009811A812B813C8148816F2DCE010E9438
:104420004F21DF91CF911F910F91FF9008950F932E
:104430001F93CF93DF93EC01162F9C012F5F3F4F0B
:10444000AC010E948B216FEF610FCE010E945E1FB5
:10445000082F64E0610FCE010E945E1F8D8303FF71
:1044600003C091E09E8701C01E86282F2F702D83E8
:10447000AE014A5F5F4F65E0610FCE01DF91CF91E2
:104480001F910F910C947A1F615028E048E00C9422
:10449000F81F8F929F92AF92BF92CF92DF92EF92CE
:1044A000FF921F93CF93DF9300D01F92CDB7DEB75B
:1044B0004C016B0180913E0190913F01A091400120
:1044C00089839A83AB83FB011082CE0101967C0124
:1044D0005E0194E0A90EB11CF70111917F01612FDB
:1044E000C4010E945E1F982F987083FD04C01F5F57
:1044F000F601108304C0EA14FB0471F792E0892FDF
:104500000F900F900F90DF91CF911F91FF90EF9040
:10451000DF90CF90BF90AF909F908F9008950895B7
:10452000CF93DF93EC01862F688B61E00E944125D9
:1045300061E08889DF91CF910C947D250F931F93C3
:10454000CF93DF93EC01162F042F0E94C623402F38
:10455000612FCE010E94FB2091E0811101C090E00B
:10456000892FDF91CF911F910F910895EF92FF92C4
:104570000F931F93FC0120834183528363837483D1
:10458000093008F008E0058316863696D70110E05A
:10459000CD018E199F09801791071CF48D9181938D
:1045A000F7CF80E01F910F91FF90EF900895FC01ED
:1045B0001182128213821482158210821686178647
:1045C00080E00895EF92FF920F931F93CF93DF93B4
:1045D0001F92CDB7DEB78C01E12CF12CBE016F5FCD
:1045E0007F4FC8010E9449229FEFE91AF90A8230E1
:1045F00029F482E3E816F10489F726C092E3E9166C
:10460000F10411F16981C8010E94ED216981C8019D
:104610000E944422E12CF12C8FEFE81AF80A6981FC
:104620006150C8010E945E1F83FF05C092E3E91636
:10463000F10491F70BC082E3E816F10439F0C801E8
:104640000E94D72280E003C086E001C087E00F907F
:10465000DF91CF911F910F91FF90EF900895EF920E
:10466000FF920F93CF93DF93EC010E94B622CE010D
:10467000DF91CF910F91FF90EF900C94E222CF92B7
:10468000DF92EF92FF920F93CF93DF93CDB7DEB718
:1046900028970FB6F894DEBF0FBECDBF6C01FE01A8
:1046A0003196CE0109967F011192E817F907E1F7DB
:1046B00081E0F601868700E020E0C6010E942F23FA
:1046C000F601168628960FB6F894DEBF0FBECDBF52
:1046D000DF91CF910F91FF90EF90DF90CF900895F1
:1046E0001F93CF93DF93EC01162F0E941A20111114
:1046F00009C080FF15C061E6CE010E94172220E0AC
:1047000041E008C081FF0CC061E7CE010E94172282
:1047100020E042E06CE2CE010E94F81F80E001C080
:1047200084E0DF91CF911F910895EF92FF920F9354
:104730001F93CF93DF93EC018B017A01622F0E94CC
:104740007023811111C09D81F8019083DE011696BE
:10475000F7012D8130E0AF014E195F094217530771
:1047600034F49D919193F5CFF801108284E0DF91AC
:10477000CF911F910F91FF90EF9008950E941A2002
:10478000837011F484E0089583E00895CF93CFB748
:10479000F89480912505811127C0E4E3F2E084912B
:1047A000E9E1F2E09491E82FF0E0EE0FFF1FE35A09
:1047B000FD4FA591B491EC91E92321F461E08AE0E9
:1047C0000E947D2561E08AE00E9441258CB58061D0
:1047D0008CBD8CB580648CBD61E08DE00E9441256C
:1047E00061E08BE00E944125809125058F5F8093D9
:1047F0002505CFBFCF9108951F920F920FB60F924C
:1048000011242F933F938F939F93AF93BF938091E6
:10481000270590912805A0912905B0912A0530918E
:10482000260523E0230F2D3720F40196A11DB11D8D
:1048300005C026E8230F0296A11DB11D2093260571
:104840008093270590932805A0932905B0932A0506
:1048500080912B0590912C05A0912D05B0912E05EE
:104860000196A11DB11D80932B0590932C05A0935B
:104870002D05B0932E05BF91AF919F918F913F91E0
:104880002F910F900FBE0F901F9018952FB7F8948F
:1048900060912705709128058091290590912A053E
:1048A0002FBF08953FB7F89480912B0590912C0568
:1048B000A0912D05B0912E0526B5A89B05C02F3FD0
:1048C00019F00196A11DB11D3FBFBA2FA92F982F36
:1048D0008827820F911DA11DB11DBC01CD0142E0B1
:1048E000660F771F881F991F4A95D1F708958F92F9
:1048F0009F92AF92BF92CF92DF92EF92FF926B01A5
:104900007C010E9452244B015C01C114D104E104DA
:10491000F10401F10E9437290E945224DC01CB01ED
:1049200088199909AA09BB09883E9340A105B105D8
:1049300060F321E0C21AD108E108F10888EE880E80
:1049400083E0981EA11CB11CC114D104E104F10440
:1049500019F7DBCFFF90EF90DF90CF90BF90AF9033
:104960009F908F900895789484B5826084BD84B5BB
:10497000816084BD85B5826085BD85B5816085BD5A
:10498000EEE6F0E0808181608083E1E8F0E0108273
:10499000808182608083808181608083E0E8F0E0B4
:1049A000808181608083E1EBF0E08081846080839E
:1049B000E0EBF0E0808181608083E1E9F0E08081DC
:1049C00082608083808181608083E0E9F0E0808183
:1049D00081608083E1EAF0E0808182608083808171
:1049E00081608083E0EAF0E0808181608083EAE793
:1049F000F0E0808184608083808182608083808118
:104A0000816080838081806880831092C1000895D6
:104A100090E0FC013297ED30F10590F5EA57FF4F39
:104A20000C947A29809180008F7703C08091800058
:104A30008F7D80938000089584B58F7702C084B500
:104A40008F7D84BD08958091B0008F7703C08091E1
:104A5000B0008F7D8093B0000895809190008F7793
:104A600003C0809190008F7D809390000895809185
:104A7000A0008F7703C08091A0008F7D8093A0005D
:104A80000895CF93DF9390E0FC01E15FFD4F249107
:104A9000FC01E65DFD4F8491882361F190E0880F71
:104AA000991FFC01E35AFD4FC591D491FC01EF5AC7
:104AB000FD4FA591B491611109C09FB7F894888109
:104AC000209582238883EC912E230BC0623061F401
:104AD0009FB7F8948881322F309583238883EC9197
:104AE0002E2B2C939FBF06C08FB7F894E8812E2BF6
:104AF00028838FBFDF91CF9108951F93CF93DF93CA
:104B0000282F30E0F901EC50FE4F8491F901E15F6C
:104B1000FD4FD491F901E65DFD4FC491CC23C1F066
:104B2000162F81110E940825EC2FF0E0EE0FFF1FD9
:104B3000EF5AFD4FA591B4919FB7F894111104C09D
:104B40008C91D095D82302C0EC91DE2BDC939FBFD3
:104B5000DF91CF911F910895CF93DF93282F30E0FD
:104B6000F901EC50FE4F8491F901E15FFD4FD491C2
:104B7000F901E65DFD4FC491CC2391F081110E94B3
:104B80000825EC2FF0E0EE0FFF1FEB5BFD4FA5912A
:104B9000B491EC91ED2381E090E021F480E002C03B
:104BA00080E090E0DF91CF910895FC01918D228DFE
:104BB000892F90E0805C9F4F821B91098F7399270A
:104BC0000895FC01918D828D981731F0828DE80F48
:104BD000F11D858D90E008958FEF9FEF0895FC0102
:104BE000918D828D981761F0828DDF01A80FB11D24
:104BF0005D968C91928D9F5F9F73928F90E0089548
:104C00008FEF9FEF089589E697E2892B41F080E0CE
:104C100090E0892B21F00E94692781110DC080E06E
:104C200090E0892B71F080E090E0892B51F00E9498
:104C30000000811104C008950E940000F0CF0C9480
:104C400000000895FC01848DDF01A80FB11DA35A57
:104C5000BF4F2C91848D90E001968F739927848F9C
:104C6000A689B7892C93A089B1898C9180648C9393
:104C7000938D848D981306C00288F389E02D80817E
:104C80008F7D80830895EF92FF920F931F93CF93B0
:104C9000DF93EC0181E0888F9B8D8C8D981305C08C
:104CA000E889F989808185FD24C0F62E0B8D10E0FE
:104CB0000F5F1F4F0F731127E02E8C8DE8120CC071
:104CC0000FB607FCFACFE889F989808185FFF5CF17
:104CD000CE010E942226F1CF8B8DFE01E80FF11D3F
:104CE000E35AFF4FF0820B8FEA89FB898081806253
:104CF00007C0EE89FF896083E889F9898081806433
:104D0000808381E090E0DF91CF911F910F91FF9020
:104D1000EF900895CF93DF93EC01888D8823C9F03D
:104D2000EA89FB89808185FD05C0A889B9898C91B4
:104D300086FD0FC00FB607FCF5CF808185FFF2CF4F
:104D4000A889B9898C9185FFEDCFCE010E942226DA
:104D5000E7CFDF91CF910895CF92DF92EF92FF924C
:104D60001F93CF93DF93EC016A017B01122FE88937
:104D7000F98982E080834115514E61057105B1F0DA
:104D800060E079E08DE390E0A70196010E94582948
:104D9000DA01C9010197A109B109B695A7959795BF
:104DA00087959C01211580E13807A8F0E889F989E9
:104DB000108260E874E88EE190E0A70196010E94FD
:104DC0005829DA01C9010197A109B109B695A7953A
:104DD000979587959C01EC85FD853083EE85FF8551
:104DE0002083188EEC89FD891083EA89FB898081F4
:104DF00080618083EA89FB89808188608083EA8979
:104E0000FB89808180688083EA89FB8980818F7D2E
:104E10008083DF91CF911F91FF90EF90DF90CF9033
:104E200008951F920F920FB60F9211242F938F9314
:104E30009F93EF93FF93E0913F05F09140058081B0
:104E4000E0914505F091460582FD12C09081809168
:104E500048058F5F8F7320914905821751F0E091CB
:104E60004805F0E0E15DFA4F958F8093480501C059
:104E70008081FF91EF919F918F912F910F900FBEA5
:104E80000F901F9018951F920F920FB60F9211243A
:104E90002F933F934F935F936F937F938F939F9342
:104EA000AF93BF93EF93FF938FE295E00E9422268A
:104EB000FF91EF91BF91AF919F918F917F916F91F2
:104EC0005F914F913F912F910F900FBE0F901F90C8
:104ED00018958FE295E00E94D52521E0892B09F4F1
:104EE00020E0822F0895EFE2F5E01382128288EE2F
:104EF00093E0A0E0B0E084839583A683B7838DE040
:104F000092E09183808385EC90E09587848784ECA0
:104F100090E09787868780EC90E0918B808B81EC86
:104F200090E0938B828B82EC90E0958B848B86EC67
:104F300090E0978B868B118E128E138E148E0895AF
:104F4000CF92DF92EF92FF920F931F93CF93DF9355
:104F50006C017A018B01C0E0D0E0CE15DF0581F055
:104F6000D8016D918D01D601ED91FC910190F081F8
:104F7000E02DC6010995892B11F02196EECF7E0117
:104F8000C701DF91CF911F910F91FF90EF90DF90BC
:104F9000CF9008956115710579F0FB010190002013
:104FA000E9F73197AF01461B570BDC01ED91FC91FE
:104FB0000280F381E02D099480E090E00895EF9263
:104FC000FF920F931F93CF93DF938C017B01C0E07F
:104FD000D0E0F701EC0FFD1F6491662361F0D8016A
:104FE000ED91FC910190F081E02DC8010995892B8C
:104FF00011F02196EECFCE01DF91CF911F910F914D
:10500000FF90EF9008950C94CA27DC01ED91FC917C
:105010000190F081E02D099469E172E00C94CA27B7
:105020000F931F93CF93DF93EC010E94DF278C0136
:10503000CE010E940C28800F911FDF91CF911F910C
:105040000F9108950F931F93CF93DF93EC010E946C
:10505000CA278C01CE010E940C28800F911FDF917E
:10506000CF911F910F9108958F929F92AF92BF920F
:10507000EF92FF920F931F93CF93DF93CDB7DEB7DD
:10508000A1970FB6F894DEBF0FBECDBF7C01FA0129
:10509000CB0119A2223008F42AE08E010F5D1F4FC8
:1050A000822E912CA12CB12CBF01A50194010E944C
:1050B0005829F901CA01015011096A3014F4605DE0
:1050C00001C0695CD8016C93232B242B252B61F73D
:1050D000B801C7010E94CA27A1960FB6F894DEBF97
:1050E0000FBECDBFDF91CF911F910F91FF90EF9039
:1050F000BF90AF909F908F9008952115310541F496
:10510000DC01ED91FC910190F081E02D642F099478
:105110000C9434289A01462F50E060E070E00C9423
:105120007D280F931F93CF93DF93EC010E948A2871
:105130008C01CE010E940C28800F911FDF91CF912E
:105140001F910F9108959A01AB0160E070E00C94FB
:105150007D280F931F93CF93DF93EC010E94A32828
:105160008C01CE010E940C28800F911FDF91CF91FE
:105170001F910F910895CF92DF92EF92FF920F93BC
:105180001F93CF93DF932115310581F4DC01ED915D
:10519000FC910190F081E02D642FDF91CF911F9160
:1051A0000F91FF90EF90DF90CF9009942A30310556
:1051B00001F577FF1DC06A017B01EC016DE20E94E1
:1051C00005288C0144275527BA014C195D096E0941
:1051D0007F092AE0CE010E943428800F911FDF91C1
:1051E000CF911F910F91FF90EF90DF90CF90089596
:1051F0002AE0DF91CF911F910F91FF90EF90DF9008
:10520000CF900C9434289A01AB01770F660B770B83
:105210000C94BB280F931F93CF93DF93EC010E9454
:1052200003298C01CE010E940C28800F911FDF9171
:10523000CF911F910F91089570E09B01382BC90108
:10524000089508950E94B3240E9421290E949A047F
:10525000C3E0D6E20E9421072097E1F30E940326D3
:10526000F9CF0C9494290C942C2A0C942C2A089590
:10527000991B79E004C0991F961708F0961B881FA8
:105280007A95C9F78095089597FB072E16F4009438
:1052900007D077FD09D00E94802907FC05D03EF495
:1052A000909581959F4F0895709561957F4F0895D2
:1052B000A1E21A2EAA1BBB1BFD010DC0AA1FBB1F1A
:1052C000EE1FFF1FA217B307E407F50720F0A21B8C
:1052D000B30BE40BF50B661F771F881F991F1A94F9
:1052E00069F760957095809590959B01AC01BD0123
:1052F000CF010895EE0FFF1F0590F491E02D099462
:10530000AA1BBB1B51E107C0AA1FBB1FA617B707EB
:1053100010F0A61BB70B881F991F5A95A9F7809507
:105320009095BC01CD0108950F931F93CF93DF9308
:105330008230910510F482E090E0E091CE05F0918A
:10534000CF0520E030E0A0E0B0E0309719F14081D7
:1053500051810281138148175907C8F084179507B6
:1053600069F4109731F012960C93129713961C93D0
:1053700027C00093CE051093CF0522C0211531051B
:1053800019F04217530718F49A01BD01EF01DF012C
:10539000F801DBCF21153105F9F0281B390B24303A
:1053A000310580F48A819B816115710521F0FB0133
:1053B0009383828304C09093CF058093CE05FE0132
:1053C000329644C0FE01E20FF31F81939193225065
:1053D0003109398328833AC02091CC053091CD051D
:1053E000232B41F420910201309103013093CD052C
:1053F0002093CC0520910001309101012115310548
:1054000041F42DB73EB74091040150910501241B92
:10541000350BE091CC05F091CD05E217F307A0F430
:105420002E1B3F0B2817390778F0AC014E5F5F4FFA
:105430002417350748F04E0F5F1F5093CD0540935A
:10544000CC058193919302C0E0E0F0E0CF01DF91C1
:10545000CF911F910F910895CF93DF93009709F497
:1054600081C0FC01329713821282A091CE05B091C7
:10547000CF05109781F420813181820F931F2091F5
:10548000CC053091CD052817390751F5F093CD059E
:10549000E093CC0567C0ED0120E030E0CE17DF07D8
:1054A00040F44A815B819E0141155105F1F0EA010A
:1054B000F5CFD383C28340815181840F951FC817D4
:1054C000D90759F488819981840F951F0296918399
:1054D00080838A819B81938382832115310529F4FE
:1054E000F093CF05E093CE053DC0E901FB83EA834D
:1054F00049915991C40FD51FEC17FD0761F48081C4
:105500009181840F951F0296E90199838883828196
:1055100093819B838A83E0E0F0E012968D919C91C9
:105520001397009719F0FD01DC01F7CF8D919C9145
:1055300011979D012E5F3F4F820F931F2091CC0545
:105540003091CD052817390769F4309729F4109266
:10555000CF051092CE0502C013821282B093CD0502
:10556000A093CC05DF91CF910895F999FECF92BD1C
:1055700081BDF89A992780B50895262FF999FECF15
:105580001FBA92BD81BD20BD0FB6F894FA9AF99A60
:105590000FBE0196089511E0C7E3D1E004C0FE01FB
:1055A0000E947A292196C833D107C9F7F894FFCF12
:1055B0000000D005800004000500070009000C0071
:1055C000100016001E00280037004A006400870003
:1055D000B700F7004D01C2016002340353041A19E9
:1055E000131211100F0E09080706050403023040BC
:1055F00050415244534552564F002A0021005265F3
:105600006C6169733A006C6F772000686967682085
:105610000052656C616973006C6F77006869676838
:1056200000536572766F0020626F756E636500537C
:105630006F4400557365725F46756E6374696F6E73
:105640003A20004576656E744D61746368200045AC
:1056500076656E745661723A20004F50433A2000CE
:10566000204E6F64653A20002043616E49443A2021
:1056700000204D65737361676553697A653A200050
:105680002053746174653A200000000000E20BE3CF
:105690000B72657370566172000000000024183FA1
:1056A00018000000004918551800000000E61BE72C
:1056B0001B00000000641C651C000000004326A0C5
:1056C00027D525EF25E1258A260D0A006E616E009B
:0856D000696E66006F7666004A
:00000001FF
