:100000000C94C4020C94EC020C94EC020C94EC02E0
:100010000C94EC020C94EC020C94EC020C94EC02A8
:100020000C94EC020C94EC020C94EC020C94EE0296
:100030000C94EC020C94EC020C94EC020C94EC0288
:100040000C94C5300C94EC020C94962E0C94C82E93
:100050000C94EC020C94EC020C94EC020C94EC0268
:100060000C94EC020C94EC020C94EC020C94EC0258
:100070000C94EC020C94EC020C94EC020C94EC0248
:100080000C94EC020C94EC020C94EC020C94EC0238
:100090000C94EC020C94EC020C94EC020C94EC0228
:1000A0000C94EC020C94EC020C94EC020C94EC0218
:1000B0000C94EC026D6373003A2000536572766F06
:1000C0002000756E6775656C74696765205365728D
:1000D000766F6E756D6D65720020496E73204545B3
:1000E00050524F4D2067657370656963686572741F
:1000F000005361766520506F736974696F6E204696
:100100006C61673A0053686F72743A204576656E89
:1001100074002020204576656E7420004C6F6E6759
:100120003A204E6F64654E6F2000536572766F20E3
:1001300000536572766F200053657474696E67733F
:100140007661726961626C652000454550524F4D81
:100150002D446174656E3A005570646174655F701A
:1001600061726100496E7320454550524F4D2067C2
:1001700065737065696368657274005361766520A4
:1001800053746174757300536572766F0020205349
:100190004C20746F6F206269673A00426569737022
:1001A00069656C3A203C313A523E206F646572209A
:1001B0003C363A313530303E00202020202020656A
:1001C000696E65205A61686C207A77697363686527
:1001D0006E203020756E642032353620667565726B
:1001E0002073747566656E6C6F73652056657273E7
:1001F00074656C6C756E6720756562657220726FD0
:10020000637261696C20436F64696572756E672003
:10021000284D697474656C7374656C6C756E6720B9
:100220006C6965677420626569203135302900206A
:10023000202020202065696E65205A61686C207A34
:100240007769736368656E2037353020756E64207A
:100250003235303020667565722073747566656E50
:100260006C6F7365205665727374656C6C756E6720
:1002700020284D697474656C7374656C6C756E6759
:10028000206C696567742062656920313530306D96
:100290006373290020202020202027522720667504
:1002A00065722072656368746520536572766F733A
:1002B00074656C6C756E6700202020202020274C10
:1002C000272066756572206C696E6B6520536572B8
:1002D000766F7374656C6C756E670020207820698A
:1002E000737420656E7477656465720020206E20DB
:1002F0006973742064696520536572766F6E756DDD
:100300006D65722028312D3829003C6E3A783E0008
:1003100053657269656C6C65205374656C6C6B6FAA
:100320006D6D616E646F73206D697420273C2720AA
:10033000626567696E6E656E20756E6420273E2764
:10034000206265656E64656E00416E6C65697475EA
:100350006E67004C65747A746520536572766F70B1
:100360006F736974696F6E20776965646572206860
:1003700065727374656C6C656E00537461727400A1
:10038000536572766F7374617274706F7369746998
:100390006F6E206E696368742067656C6164656E5A
:1003A00000536572766F00476573706569636865B1
:1003B00072746520506F736974696F6E20006D638D
:1003C00073006D6373202D2000202D3E207468651E
:1003D0006F72657469736368206D6178696D616CB3
:1003E000206D6F65676C6963683A200053657276AB
:1003F0006F737072656974756E673A20004172643C
:100400007543414E2D536572766F20566572736940
:100410006F6E2000202042697474652065696E65E6
:100420006E2041744D6567613332385042205072FE
:100430006F7A6573736F722076657277656E646527
:100440006E210050726F7A6573736F726665686CA7
:1004500065723A20004641494C454420746F207330
:10046000656E642043414E002000564152532000E7
:100470002000200020000A4556454E54533A0020E3
:10048000000A4445562D4E554D424552533A0020E0
:10049000000A494E5445524E414C20564152532079
:1004A000280020000A4E4F444520564152533A003E
:1004B0000A4E554D204556454E54532056415253F1
:1004C0003A000A4E554D204556454E54533A000ABF
:1004D000466C6167733A000A4E4E3A000A43414E39
:1004E0005F49443A004944454E543A004D454D4F0A
:1004F00052592044554D50007772697465207661D9
:100500007220746F20656570726F6D000A0D0E09A0
:1005100000030200000405080000000000000000C5
:1005200000000000000000010204081020408001CB
:10053000020408102001020408102040804001023B
:100540000408040404040404040402020202020273
:10055000030303030303020203050505050000006E
:10056000002300260029002C0000000000250028A0
:10057000002B002E0000000000240027002A002D80
:1005800000006C0EF82E981111241FBECFEFD8E09A
:10059000DEBFCDBF12E0A0E0B1E0E4E7FEE602C0BE
:1005A00005900D92AA34B107D9F726E0AAE4B2E08B
:1005B00001C01D92A133B207E1F712E0C3ECD2E013
:1005C00004C02197FE010E94EA32C13CD107C9F75D
:1005D0000E94B0300C942D370C9400001F920F92A3
:1005E0000FB60F9211242F933F934F935F938F93E6
:1005F0009F93AF93BF938091BB029091BC020097F1
:10060000D1F52091AB023091AC028091BD02909166
:10061000BE02820F931F9093BE028093BD02809111
:100620005B02882321F0283833410CF4739A8091BF
:100630008800909189002091AB023091AC02820F2A
:10064000931F90938900809388008091BB029091C2
:10065000BC0201969093BC028093BB02BF91AF9104
:100660009F918F915F914F913F912F910F900FBE6E
:100670000F901F90189581309105E9F4739820919F
:10068000AD023091AE028091BD029091BE02820F08
:10069000931F9093BE028093BD0280915C028823D9
:1006A00029F0283883E138070CF4729A8091880089
:1006B00090918900C4CF82309105C9F4729820913D
:1006C000AF023091B0028091BD029091BE02820FC4
:1006D000931F9093BE028093BD0280915D02882398
:1006E00029F3283883E138070CF7459ADFCF8330A8
:1006F0009105C9F445982091B1023091B2028091E0
:10070000BD029091BE02820F931F9093BE02809310
:10071000BD0280915E02882349F2283883E13807C0
:100720002CF6449AC3CF84309105D9F44498209193
:10073000B3023091B4028091BD029091BE02820F4B
:10074000931F9093BE028093BD0280915F02882325
:1007500009F4ACCF283883E138070CF0A7CF439ACF
:10076000A5CF85309105D9F443982091B5023091F9
:10077000B6028091BD029091BE02820F931F9093AA
:10078000BE028093BD0280916002882309F48ECF5F
:10079000283883E138070CF089CF429A87CF86301A
:1007A0009105D9F442982091B7023091B802809116
:1007B000BD029091BE02820F931F9093BE02809360
:1007C000BD0280916102882309F470CF283883E14B
:1007D00038070CF06BCF419A69CF0797D9F441984D
:1007E0002091B9023091BA028091BD029091BE026F
:1007F000820F931F9093BE028093BD02809162028C
:10080000882309F453CF283883E138070CF04ECF02
:10081000409A4CCF40982091BD023091BE022835BD
:1008200088E9380710F5409188005091890088E5E3
:1008300098E9A0E0B0E0821B930BA109B109880FF1
:10084000991F840F951F90938900809388001092C0
:10085000BE021092BD021092BC021092BB028091A7
:100860009A028F5F80939A02F9CE809188009091CE
:1008700089008A569F4FE7CF84E690E090938900E5
:1008800080938800F89410928000E1E8F0E01082F4
:10089000808182608083EFE6F0E0808182608083E7
:1008A000789408958091BF02882331F06BE771E05E
:1008B00087E895E00E94982F6BE28BEE92E00E9411
:1008C000D91B4091A4045091A5048417150679F012
:1008D0006BE28BEE92E00E9406158091BF028823A6
:1008E00031F064E671E087E895E00E94982F81E09E
:1008F0008093870208952F923F924F925F926F925A
:100900007F928F929F92AF92BF92CF92DF92EF929F
:10091000FF920F931F93CF93DF9300D01F92CDB719
:10092000DEB761E08BEE92E00E94D91B8983869549
:1009300081708093E202898181708093890270ECDA
:10094000672E72E0772E73011B821A8210E000E09E
:10095000602F8DEE92E00E94D91EFC01828193816E
:10096000982789279827F701819391937F01C801E0
:1009700001962A813B812F5F3F4F3B832A832131A0
:10098000310509F0DEC06CE28BEE92E00E94D91BCB
:1009900081E08093BF020EE414E01B830A8353E0DE
:1009A000352E912C812CC12CD12C7601C394632D32
:1009B0008BEE92E00E94D91B90E0EA81FB81978345
:1009C0008683A084B18455245394530C652D8BEEFB
:1009D00092E00E94D91B8A151B0409F1652D8BEE4C
:1009E00092E00E94D91B90E0EA81FB819187808789
:1009F000C401880F991FA701960104C0220F331F5D
:100A0000441F551F8A95D2F7C90120919802309151
:100A10009902822B932B9093990280939802240140
:100A20003FEF431A530AEA81FB81A284B38432E088
:100A3000232E230C622D8BEE92E00E94D91B8A1587
:100A40001B0411F1622D8BEE92E00E94D91B90E005
:100A5000EA81FB8193878287C201880F991F0197E2
:100A6000A701960104C0220F331F441F551F8A950A
:100A7000D2F7C9012091980230919902822B932BD1
:100A8000909399028093980263E0630D8BEE92E05D
:100A90000E94D91B90E0EA81FB819587848764E0FE
:100AA000630D8BEE92E00E94D91B90E0EA81FB81FE
:100AB00097878687632D8BEE92E00E94D91BA70152
:100AC000960104C0220F331F441F551F8A94D2F78A
:100AD00049019091930282FF3DC0922B9093930223
:100AE000632D8BEE92E00E94D91B90918A0280FFC9
:100AF00035C0892A80928A0255E0350E8A819B8111
:100B00000A969B838A8342019BE2391250CF8091DF
:100B1000980290919902892B09F071C02091640389
:100B2000223008F47CC0223109F402C2E0F42830FB
:100B300009F4FAC1213109F4F9C12730E1F428E0C0
:100B40001AC02A813B812830310511F4C801029670
:100B50008C01FECE822F80959823C0CF809498215F
:100B600090938A02C9CF2C3109F4E6C108F0D5C1AF
:100B70002B3109F4DFC12250330BC90165E070E06D
:100B80000E94B432660F771F21703327260F371F5C
:100B900081E090E0A0E0B0E004C0880F991FAA1F98
:100BA000BB1F2A95D2F79093990280939802809167
:100BB000BF028823F1F068E571E087E895E00E94C4
:100BC000612F60919802709199024AE050E087E8A5
:100BD00095E00E94553062E471E087E895E00E945C
:100BE000852F4AE050E06091640387E895E00E9419
:100BF00082308091980290919902892B81F08091A6
:100C0000E7029091E802A091E902B091EA02809394
:100C1000940290939502A0939602B093970210923B
:100C200064038091BF02882309F461C168E472E023
:100C300087E895E00E94AA2F6AE471E087E895E0D2
:100C40000E94982F68E371E087E895E00E94612F89
:100C50004AE050E0698187E895E00E9482304EE4E6
:100C600054E05B834A83F12CE12C61E371E087E877
:100C700095E00E94612F67015FEFC51AD50A4AE02F
:100C800050E0B60187E895E00E94553061E471E0DC
:100C900087E895E00E94852FF301619171913F01F2
:100CA0004AE050E087E895E00E94943062E471E009
:100CB00087E895E00E94852FF301668177814AE0FD
:100CC00050E087E895E00E94943062E471E087E8A4
:100CD00095E00E94852FEA81FB81668177814AE059
:100CE00050E087E895E00E94553062E471E087E8C3
:100CF00095E00E94852FEA81FB81608571854AE03D
:100D000050E087E895E00E94553062E471E087E8A2
:100D100095E00E94852FEA81FB81628573854AE018
:100D200050E087E895E00E94553062E471E087E882
:100D300095E00E94852FEA81FB81648575854AE0F4
:100D400050E087E895E00E94553062E471E087E862
:100D500095E00E94852FEA81FB81668577854AE0D0
:100D600050E087E895E00E94553062E471E087E842
:100D700095E00E94852F6091930270E002C0759506
:100D80006795EA94E2F7617077274AE050E087E8D8
:100D900095E00E945C302A813B81265F3F4F3B8378
:100DA0002A83760134E0C316D10409F05ECF40ED0A
:100DB00052E05B834A836AE271E087E895E00E9433
:100DC000612F76015FEFE51AF50A4AE050E0B701BE
:100DD00087E895E00E94553061E471E087E895E08E
:100DE0000E94852FEA81FB8161917191FB83EA83E7
:100DF0004AE050E087E895E00E94943062E471E0B8
:100E000087E895E00E94852FEA81FB8166817781E2
:100E10004AE050E087E895E00E94943062E471E097
:100E200087E895E00E94852FF80166A577A54AE03E
:100E300050E087E895E00E94553062E471E087E871
:100E400095E00E94852FF80160A971A94AE050E061
:100E500087E895E00E94553062E471E087E895E00C
:100E60000E94852FF80162A973A94AE050E087E843
:100E700095E00E94553062E471E087E895E00E94B9
:100E8000852FF80164A975A94AE050E087E895E04C
:100E90000E94553062E471E087E895E00E94852F5A
:100EA000F80166A977A94AE050E087E895E00E943A
:100EB000553062E471E087E895E00E94852F6091EB
:100EC000930270E002C075956795CA94E2F761706D
:100ED00077274AE050E087E895E00E945C30065FA3
:100EE0001F4F6701F8E0EF16F10409F064CF0F908F
:100EF0000F900F90DF91CF911F910F91FF90EF9086
:100F0000DF90CF90BF90AF909F908F907F906F9029
:100F10005F904F903F902F900895253279F02632C0
:100F200009F029CE25E227CE27E025CE22E123CEE7
:100F300021E121CE2CE11FCE2BE11DCE26E21BCEDE
:100F40006F927F928F929F92AF92BF92CF92DF92D9
:100F5000EF92FF920F931F93CF93DF93C1E2F0E0E4
:100F6000E0E0C09357001491E2E0F0E0C093570036
:100F7000D491E4E0F0E0C0935700C491D53929F44E
:100F8000C63119F41E3109F44BC026E040E052ECA2
:100F900061E070E087E895E00E94342E61E08DE02A
:100FA0000E9414328DE00E947E3261E0892B09F0AC
:100FB00060E08DE00E94503263E474E087E895E0E1
:100FC0000E94612F40E150E0612F87E895E00E9488
:100FD0007B3062E471E087E895E00E94852F40E174
:100FE00050E06D2F87E895E00E947B3062E471E06D
:100FF00087E895E00E94852F40E150E06C2F87E85C
:1010000095E00E947B3064E174E087E895E00E94FF
:10101000982F68EE73E080E090E00E944031C2CFEC
:10102000F6E38F2EF1E09F2EE40161E089910E94AA
:101030005032FE01319761E080810E94143221E03C
:10104000CE33D20791F7CEE2D1E061E089910E94E0
:101050001432FE01319760E080810E94503231E00D
:10106000C633D30791F76B9A6A9A48E050E064E47C
:1010700071E08CE493E00E94572589E580935A0340
:101080008DE08093590388E380935C03C1E0C093B3
:101090005D0361E08CE493E00E949F2561E08CE4B5
:1010A00093E00E94AD258DEB90E0A0E0B0E080934E
:1010B000650390936603A0936703B09368038EE380
:1010C0009BE090933904809338046AE08BEE92E0C1
:1010D0000E9494126CE28BEE92E00E94D91BC093A6
:1010E000BF0226E040E052EC61E070E087E895E066
:1010F0000E94342E68E472E087E895E00E94AA2FEF
:101100006DEF73E087E895E00E94612F4AE050E0C0
:1011100061E070E087E895E00E9455306DE471E091
:1011200087E895E00E94852F4AE050E068E070E093
:1011300087E895E00E945C306FE471E087E895E015
:101140000E94AA2F8DEE92E00E9406238091BF029A
:10115000811106C041E060E08BEE92E00E941D1A12
:10116000F89489E0F0E0E0E080935700E491E3E058
:10117000F0E080935700E491E2E0F0E080935700C4
:10118000E491E1E0F0E080935700849178940E942C
:101190007B04109294021092950210929602109283
:1011A000970210929902109298028091BF028823B0
:1011B00081F16CEE73E087E895E00E94612F4AE0D0
:1011C00050E060E170E087E895E00E94553069ECFE
:1011D00073E087E895E00E94612F4AE050E06CE2FE
:1011E00071E087E895E00E94553062EC73E087E893
:1011F00095E00E94612F4AE050E06CE87AE087E8D1
:1012000095E00E9455306EEB73E087E895E00E9410
:10121000982F6BE28BEE92E00E94D91B90E09093A6
:10122000A5048093A4040BEA12E05BE9C52E52E00A
:10123000D52E64E0E62EF12CD0E0C0E078E8672EF1
:1012400073E1772EE8E1AE2EE5E1BE2E80918902B2
:10125000882309F4EDC02091BF02E091A404F0912D
:10126000A5040C2E02C0F595E7950A94E2F7E1700B
:10127000FF27EE0DFF1DEE0FFF1FE25BFB4F80818E
:10128000918144E0880F991F4A95E1F7F501E81B29
:10129000F90BCF01F80191838083222331F067EAB3
:1012A00073E087E895E00E94612FF80181919191A8
:1012B0008F01F601819391936F0121962091BF02D6
:1012C000222301F188389341E9F061EA73E087E86D
:1012D00095E00E94612F4AE050E0BE0187E895E06A
:1012E0000E94553062E471E087E895E00E94852F06
:1012F000F8013297608171814AE050E087E895E01B
:101300000E945C3025E0E20EF11CC830D10509F0E6
:101310009DCF8091890281110AC08091BF028823EC
:1013200031F060E873E087E895E00E94982F81E053
:10133000809388020E941B31609383027093840221
:101340008093850290938602109287020E941B313F
:1013500000918302109184022091850230918602CF
:101360006B017C01C01AD10AE20AF30A8BEE92E00B
:101370000E945E129C01A0E1B7E20E94F032C61604
:10138000D706E806F90610F38091BF02882361F0C2
:1013900068E472E087E895E00E94AA2F6AE773E0AC
:1013A00087E895E00E94982F0E943C040E941B3120
:1013B0006093E7027093E8028093E9029093EA0257
:1013C00003E612E0D0E0C0E080E0FF24F3949091C7
:1013D0008902992309F44DC08091BF02882331F01E
:1013E00063E573E087E895E00E94982FFE01E55AD7
:1013F000FD4FF0828091E7029091E802A091E9020E
:10140000B091EA02F80180839183A283B38389E0DB
:1014100021960C5F1F4FC830D105C9F68823F1F122
:1014200090919A029923D1F3815010929A02F6CFAB
:10143000F8017182608280918A0290E00C2E02C0D5
:10144000959587950A94E2F780FF2FCFF701EE0F6D
:10145000FF1FE25BFB4F8081918124E0880F991F81
:101460002A95E1F79501281B390BF8013183208378
:101470001CCF4091E7025091E8026091E90270911F
:10148000EA02405854486F4F7F4F4093E702509311
:10149000E8026093E9027093EA02BACF60E0F401D7
:1014A00081914F010E945032FEE38F16F1E09F06BA
:1014B000A9F768E472E087E895E00E94AA2F69E442
:1014C00073E087E895E00E94982F60E173E087E879
:1014D00095E00E94982F6AE073E087E895E00E940B
:1014E000982F6CEE72E087E895E00E94982F6BEDE4
:1014F00072E087E895E00E94982F68EB72E087E839
:1015000095E00E94982F64E972E087E895E00E94D8
:10151000982F6FE272E087E895E00E94982F69EBC0
:1015200071E087E895E00E94982F6BE971E087E809
:1015300095E00E94982F68E472E087E895E0DF91DB
:10154000CF911F910F91FF90EF90DF90CF90BF90C0
:10155000AF909F908F907F906F900C94AA2FAF9236
:10156000BF92CF92DF92EF92FF920F931F93CF9390
:10157000DF938091BF02882331F068E671E087E84D
:1015800095E00E94AA2F80918902882309F46BC0FC
:101590003BE9E32E32E0F32E0BE812E044E0A42E08
:1015A000B12CD0E0C0E058E1C52E55E1D52EE09138
:1015B000A404F091A5040C2E02C0F595E7950A94B9
:1015C000E2F7E170FF27EA0DFB1DEE0FFF1FE25B64
:1015D000FB4F8081918124E0880F991F2A95E1F7C4
:1015E000F601E81BF90BCF01F701819391937F017D
:1015F000F80111928F0121968091BF02882361F139
:101600006CE671E087E895E00E94852F4AE050E0A3
:10161000BE0187E895E00E94553062E471E087E8FA
:1016200095E00E94852FF7013297608171814AE031
:1016300050E087E895E00E94553062E471E087E869
:1016400095E00E94852F4AE050E0F80131976081D3
:1016500087E895E00E948230F5E0AF0EB11CC830FB
:10166000D10509F0A4CFDF91CF911F910F91FF9089
:10167000EF90DF90CF90BF90AF900895EF92FF92E0
:101680000F931F93CF93DF93EC017B01FB01E8588D
:10169000FF4F10818091BF02882309F47CC162E76B
:1016A00071E087E895E00E94852F4AE050E0612FC5
:1016B00087E895E00E948230112309F46EC1809181
:1016C000BF028823A9F162E871E087E895E00E94F3
:1016D000852F4AE050E0612F87E895E00E94823034
:1016E0006EE871E087E895E00E94852F40E0BE013A
:1016F000C7010E94DD1B4AE050E0682F87E895E0B3
:101700000E94823069E971E087E895E00E94852FA8
:10171000CE010E94E6254AE050E0682F87E895E078
:101720000E947B3068E472E087E895E00E94AA2F6F
:10173000CE010E94E625982F977F903919F091E00D
:10174000813009F490E08FEF810F813108F07CC186
:101750004091E7025091E8026091E9027091EA023B
:1017600040938302509384026093850270938602B3
:1017700010928702883041F4DF91CF911F910F9131
:10178000FF90EF900C94AF0A913011F483E0810F39
:10179000893008F081502091A4043091A504982F3D
:1017A0009770943008F434C1845091E0883008F088
:1017B00032C141E050E060E070E0082E04C0440F08
:1017C000551F661F771F0A94D2F7422B532B509355
:1017D000A5044093A404E1E0082F10E0E801CC0F39
:1017E000DD1FDE01A556BD4F65E0F0E0869FE00DF0
:1017F000F11D1124EE0FFF1FEA5AFB4F408151816A
:1018000034E0440F551F3A95E1F728E135E1241BF8
:10181000350B2D933C932091930230E002C0359517
:1018200027958A95E2F7C80185579D4F7C01FC01F9
:1018300020FF4AC060838091BF02882309F404C15D
:101840006CE671E087E895E00E94852FB8016F5F34
:101850007F4F4AE050E087E895E00E94553062E40F
:1018600071E087E895E00E94852FFE01E556FD4F67
:10187000608171814AE050E087E895E00E94553030
:1018800062E471E087E895E00E94852FC555DD4F41
:10189000688179814AE050E087E895E00E94553000
:1018A00062E471E087E895E00E94852F4AE050E00D
:1018B000F701608187E895E0DF91CF911F910F914B
:1018C000FF90EF900C9482301082B5CFCE010E9431
:1018D0007427882351F065E071E087E895E00E9465
:1018E000612FCE010E94532786C069E971E087E825
:1018F00095E00E94852FCE010E94E62540E150E050
:10190000682F87E895E00E947B306FE971E087E8F7
:1019100095E00E94852FCE010E9429274AE050E0E1
:10192000BC0187E895E00E94943067EA71E087E89F
:1019300095E00E94852FCE010E94D9254AE050E013
:10194000682F87E895E00E947B3060EB71E087E8C4
:1019500095E00E94852FCE010E94CE254AE050E0FE
:10196000682F87E895E00E947B306FEB71E087E895
:1019700095E00E94852F6091B1037091B2034AE017
:1019800050E087E895E0DF91CF911F910F91FF9094
:10199000EF900C945C301111CBCECE010E94E62565
:1019A000883029F48091890281110E94520480912B
:1019B000BF02882309F448C0CE010E947D278823F6
:1019C00009F484CF6CE171E087E895E00E94612F13
:1019D000CE010E9429274AE050E0BC0187E895E04B
:1019E0000E94943062E171E087E895E00E94612FE7
:1019F000CE010E943E274AE050E0BC0187E895E016
:101A0000DF91CF911F910F91FF90EF900C949A303E
:101A1000883020F090E084509111CBCE41E050E02E
:101A200060E070E0082E04C0440F551F661F771F4A
:101A30000A94D2F740955095422353235093A5041E
:101A40004093A404E0E0C8CEDF91CF911F910F91A5
:101A5000FF90EF900895EF92FF920F931F93CF9313
:101A6000DF937C0168EC71E087E895E00E94852FA8
:101A7000B70187E895E00E94852F6AEC71E087E85E
:101A800095E00E94852FF7010081802F8F7D83359F
:101A9000B9F561E08BEE92E00E94D91B81FB99279A
:101AA00090F99093E20280FF25C010928902C82F1E
:101AB000CE7F4C2F61E08BEE92E00E94061561EF25
:101AC00070E087E895E00E94612F6C2F61704AE01A
:101AD00050E070E087E895E00E94553069ED70E0D5
:101AE00087E895E0DF91CF911F910F91FF90EF90E4
:101AF0000C94982F91E090938902C82FC160D9CFA0
:101B000081818A3309F0E1C0002E000C110BE8013D
:101B1000E19762EC70E0C830D10510F78281982F10
:101B20009F7D9C3421F1823509F4AEC08237F9F0F3
:101B300040914A0250E0329690E080E07AE09F01C6
:101B40002E193F09241735070CF0A5C0619120ED2F
:101B5000260F2A30A0F7789F9001799F300D11242D
:101B6000C901C097860F911D67FD9A95E8CF41E0A6
:101B7000823709F040E0DE01AA0FBB1FA556BD4F1A
:101B800085E08C9FF0018D9FF00D1124E40FF11D75
:101B9000EE0FFF1FEA5AFB4F2081318194E0220FA4
:101BA000331F9A95E1F788E195E1821B930B8D93A2
:101BB0009C932091A4043091A50481E090E0A0E0E2
:101BC000B0E00C2E04C0880F991FAA1FBB1F0A94F7
:101BD000D2F7442309F45AC0822B932B9093A50487
:101BE0008093A40480918902882361F01092870277
:101BF0000E941B316093830270938402809385025C
:101C000090938602CC0FDD1FFE01E556FD4F8081CB
:101C100091818838934124F087E893E19183808310
:101C2000FE01E556FD4F808191818D3D954024F464
:101C30008DED95E0918380836BEB70E087E895E014
:101C40000E94612FB801605371094AE050E087E8B3
:101C500095E00E94553068EB70E087E895E00E94BF
:101C6000612FC556DD4F6881798177FF02C06F5FB4
:101C70007F4F759567954AE050E087E895E00E94B0
:101C8000553064EB70E02CCF41E075CF8095909596
:101C900082239323A3CF9E01220F331F25563D4F4E
:101CA0008F3F910509F070F4AC0164E0440F551FBB
:101CB0006A95E1F788E195E1841B950BF901918321
:101CC0008083A0CF880F991FF9CFDF91CF911F910B
:101CD0000F91FF90EF9008950F9301E021E041E113
:101CE0006CE28BEE92E00E948E1C0F9108950F9390
:101CF0001F93CF93DF93CBE4D2E00DEC11E087E8A4
:101D000095E00E94632D181619060CF042C087E872
:101D100095E00E947D2D8C3349F468E472E08BE4F9
:101D200092E00E94383410924A02E9CF8E3359F47F
:101D30008BE492E00E942B0D68E472E08BE492E069
:101D40000E943834DCCFFE0101900020E9F79F01AA
:101D50002C5432402F30310590F6282F082E000CDD
:101D6000330B3F938F93DF93CF931F930F93DF93A7
:101D7000CF930E943F3480914A028F5F80934A0242
:101D8000EDB7FEB738960FB6F894FEBF0FBEEDBFA5
:101D9000B6CFDF91CF911F910F9108952F923F926F
:101DA0004F925F926F927F928F929F92AF92BF926B
:101DB000CF92DF92EF92FF920F931F93CF93DF9317
:101DC0000E94770E0E941B316093E7027093E80235
:101DD0008093E9029093EA020091E3021091E402F9
:101DE0002091E5023091E6026B017C01C01AD10A14
:101DF000E20AF30A97018601093E134021053105E5
:101E000060F06093E3027093E4028093E5029093A4
:101E1000E6028BEE92E00E94261C8BEE92E00E947E
:101E20008E1B8091640381110E947B0480919A0231
:101E3000882309F4F6C05BE9C52E52E0D52ECBEA23
:101E4000D2E06BE8862E62E0962E73E6472E72E0B3
:101E5000572EEEE4EE2EE4E0FE2E10E000E0F8E176
:101E60002F2EF5E13F2ED601AD90BC903801BFEF8B
:101E70006B1A7B0A88819981A816B90609F486C174
:101E8000F801E55AFD4F8081811161C129E020836D
:101E9000808120E0813091F58091E7029091E80205
:101EA000A091E902B091EA02F20180839183A283BA
:101EB000B3838091BF0293012150310959018823D6
:101EC000A9F0F901EA5CFE4F80810E947E32019701
:101ED00069F44AE050E0B30187E895E00E9455308C
:101EE00062ED71E087E895E00E94AA2FF501EA5CB7
:101EF000FE4F60E080810E94503221E0888199810C
:101F000088389341C1F4D70118968D919C91199707
:101F10001A964D915C91840F951F97FD01969595AA
:101F2000879544E0880F991F4A95E1F7F101E81B76
:101F3000F90BF983E883222309F45FC028813981F2
:101F4000D6018D919C91281739070CF009C1F70132
:101F5000A484B584BB24B1E0AB1AB108E4E1AE16A9
:101F6000B104E0F06DE871E087E895E00E94612F30
:101F70004AE050E0B50187E895E00E945C30288196
:101F80003981D6018D919C91281739070CF0EDC04D
:101F9000F701A484B584F1E0AF1AB10880919302EF
:101FA00090E002C0959587950A95E2F780FF0DC0F5
:101FB000F4018081882349F0853039F0F4E0AF1ACC
:101FC000B108B7FE02C0B12CA12C88819981D6013D
:101FD0002D913C91F501EE0FFF1FEA5FFE4F40810E
:101FE0005181821793070CF0C8C0840F951F2817E2
:101FF00039070CF4C8C09983888322E0C20ED11C33
:1020000022963FEF831A930A44E0440E511C5AE093
:10201000E50EF11C83010830110509F024CF109260
:102020009A028091940290919502A0919602B091AB
:1020300097020097A105B10509F476C04091E70227
:102040005091E8026091E9027091EA02841B950BBD
:10205000A60BB70B8139904DA340B10508F464C0BD
:10206000D0E0C0E055E0B52E68E1E62E65E1F62E41
:1020700080919802909199020C2E02C095958795B7
:102080000A94E2F780FF47C08E0115950795C801B5
:10209000880F991F9C0125563D4F6901B09EF001A4
:1020A000B19EF00D1124CE0181709927E80FF91F20
:1020B000EE0FFF1FEA5AFB4F8081918144E0880FA9
:1020C000991F4A95E1F7A701481B590BD6014D937B
:1020D0005C938091BF028823F1F067E871E087E8A4
:1020E00095E00E94612FB8016F5F7F4F4AE050E09A
:1020F00087E895E00E94553062E471E087E895E05A
:102100000E94852FF601608171814AE050E087E8E6
:1021100095E00E945C302196C031D10509F0A8CF2E
:102120001092990210929802DF91CF911F910F9116
:10213000FF90EF90DF90CF90BF90AF909F908F90E7
:102140007F906F905F904F903F902F900895808187
:1021500081508083808181119BCE81E0808398CEE5
:10216000D7011E96AD90BC90F5CED7011E96AD90CE
:10217000BC90B1E0AB1AB10811CF841B950B82174C
:1021800093070CF038CF3983288337CFF40140818F
:10219000442309F491C0E091A404F091A504002E19
:1021A00002C0F595E7950A94E2F7CF01817099276F
:1021B00025E0269DF001279DF00D1124E80FF91F61
:1021C000EE0FFF1FE45BFB4F80819181B4E0880F2D
:1021D000991FBA95E1F79101281B390BD6012D9370
:1021E0003C9340FD30C0642F70E0F70180859185FD
:1021F0000284F385E02D8E1B9F0B97FF03C0919502
:1022000081959109869FF001879FF00D969FF00DB3
:102210001124E69FC001E79F900DF69F900D1124B9
:102220006AEF70E00E94B432E4E0660F771FEA952F
:10223000E1F7F9EBAF16FBE0BF06C4F1261B370B45
:10224000D6012D933C934150D4014C938091BF0211
:10225000882309F4D2CE6CE671E087E895E00E940D
:10226000852F4AE050E0B80187E895E00E9455309C
:102270006EED71E087E895E00E94852F4AE050E01E
:10228000F401608187E895E00E947B3062E471E0B0
:1022900087E895E00E94852FD6016D917C914AE0F8
:1022A00050E087E895E00E945C30A7CE260F371FEC
:1022B000F60131832083C7CF8091E7029091E80235
:1022C000A091E902B091EA02F2014081518162815C
:1022D0007381841B950BA60BB70B88369848AE41CB
:1022E000B10508F48ACE8091BF028823A9F0F801D5
:1022F000EA5CFE4F80810E947E32892B69F44AE0BD
:1023000050E0B30187E895E00E94553066EE71E039
:1023100087E895E00E94AA2FF801E55AFD4F108248
:1023200061E0F301EB5CFE4F80810E94503265CE8C
:102330008BEE92E00C943D1E08950C94C13027EF73
:1023400031E0FC013183208317AE16AEE05CFF4F15
:10235000118210823296118210828C5B9F4FFC0199
:102360001182108208950F931F93CF93DF93EC0196
:10237000C05CDF4F28813981232B79F421E030E0E4
:10238000398328839C012C5B3F4FF90140815181A7
:102390001416150624F01982188280E02EC0DC0184
:1023A000AE5BBF4F4D915C9111974C3351051CF0C2
:1023B00011961C921E928B01615F7F4F4D915C9133
:1023C0001197480F591FFA014281F80141938F017B
:1023D0004D915C9111974F5F5F4F11965C934E93B7
:1023E000F9014081518141505109518340830617C1
:1023F000170721F71982188281E0DF91CF911F9191
:102400000F910895FC01EE5BFF4F20813181215F28
:102410003F4F2C3331051CF4318320830895118202
:1024200010820895EF92FF920F931F93CF93DF9343
:10243000FC017C0180E4E80EF11CD7018D919C9198
:102440001197892BC9F581E090E08D939C9386AD1F
:1024500097ADCC9714F017AE16AEDB019B01215F50
:102460003F4F8F010C5B1F4F86AD97AD6D91AF0154
:10247000480F591FEA016A83019697AF86AFE801BA
:1024800088819981019699838883A217B30761F7A0
:10249000CD973CF0CF010E9402128CE390E099832B
:1024A0008883F7011182108281E0DF91CF911F9123
:1024B0000F91FF90EF90089580E0F7CF8C599F4FD8
:1024C000FC01808191810895AF92BF92CF92DF92FB
:1024D000EF92FF920F931F93CF93DF934D965C0182
:1024E0000E94EE2BD0E0C0E06701F12CE12C42E02D
:1024F0006DE0C5010E94FC2B8823A1F02196C70145
:10250000B6010E944031C017D10788F380E0DF9107
:10251000CF911F910F91FF90EF90DF90CF90BF90E0
:10252000AF90089581E0F3CFEF92FF920F931F9346
:102530002EE1E22EF12C04E110E021E04DE050E02C
:102540000E9464121F910F91FF90EF900895AF9237
:10255000BF92CF92DF92EF92FF920F93CF93DF93D0
:102560005B017A016901EC016D96CE010E94252D77
:10257000833059F080E0DF91CF910F91FF90EF9081
:10258000DF90CF90BF90AF900895202FA501B601A6
:10259000CE010E94FC2C8111EDCFB701CE010E942B
:1025A0006B2881E0E8CF0F931F93CF93DF93EC016B
:1025B000FC01E45BFE4F1082E55DF1096083E15BA5
:1025C000FF4F84E090E0918380838E01035E1F4F74
:1025D00043E062E0C8010E947628FE01ED59FF4FFA
:1025E000408150E070E060E0C8010E949F2C0E9492
:1025F0000F31C853DF4F688379838A839B83DF91D0
:10260000CF911F910F910895FC01E35BFE4F019064
:10261000F081E02D309719F0BC01CD96099580E04E
:1026200008950F931F93CF93DF93EC018C01035C0C
:102630001F4FC8010E94E625873099F08E3589F03A
:10264000FE01E35BFE4F0190F081E02D309719F021
:10265000BE01C801099580E0DF91CF911F910F91D4
:1026600008950C940000ECCFCF93DF93DB0111961B
:1026700081E08417A0F42D919FEF980FE92FF0E0EF
:10268000EB01CE0FDF1F38813196E60FF71F2317BE
:1026900018F430839150F2CF20838F5FEACFDF911F
:1026A000CF910895EF92FF920F931F93CF93DF93F3
:1026B000EC01FC01EA53FF4F83E090E091838083BB
:1026C0007E0184EBE81A8EEFF80A8E0104531F4F47
:1026D000F7014081B801CE010E943413F701208137
:1026E00030E0F80190E080E011E0180F82179307C6
:1026F0002CF44191141710F00196F6CF612FCE0102
:1027000002960E942525FE01ED59FF4F1083749615
:1027100080818823D1F073978081918122E52DAB50
:102720009EAB8FAB18AE19AE1AAE1BAE1CAE7E01BF
:10273000F5E3EF0EF11C412F50E070E060E003E0A4
:1027400020E0CE014D960E948F2CDF91CF911F91FA
:102750000F91FF90EF900895FC0115AA16AA17AAF1
:1027600010AE11AE12AE13AE14AE08958F929F92BA
:10277000AF92BF92CF92DF92EF92FF920F931F938F
:10278000CF936C01FC01C5A9C63BE9F1C295C69582
:10279000C770CF5F5601FDE1AF0EB11C41E061E0B3
:1027A000C5010E947628460185E3880E911CE3E668
:1027B000CE0ED11CF601408150E070E060E0740163
:1027C0000C2F20E0C5010E948F2C8823F1F013E02C
:1027D000F601408150E070E060E074010C2F20E0D1
:1027E000C5010E948F2C882381F0115089F7CF9169
:1027F0001F910F91FF90EF90DF90CF90BF90AF901F
:102800009F908F900895C7E0C4CF80E0F0CF9F9253
:10281000AF92BF92CF92DF92EF92FF920F931F93EE
:10282000CF93DF93EC01603709F48EC000F561357A
:1028300099F070F4603581F0DF91CF911F910F9185
:10284000FF90EF90DF90CF90BF90AF909F90089552
:10285000623511F0693581F7DE01AC59BF4F8C91BB
:1028600011969C916DAB9EAB8FAB18AE7BC0663B57
:1028700021F138F4643701F78985DE01AC59BF4F87
:102880006AC0623E89F16F3EB9F6DC01AE58BF4FB7
:102890008C9113969C9111972C9111973C911497C0
:1028A0004C9112965C9113977C916DAB7EAB5FABB4
:1028B00048AF39AF2AAF9BAF15C0DC01A059BF4F5D
:1028C0008C9111979C9111972C911A973C9111968C
:1028D0004C916DAB4EAB3FAB28AF99AF8AAF81E067
:1028E0008BAF88E08CAFA8CF962E8C010F591F4F6D
:1028F000C8010E947125FC01F680C8010E94712563
:10290000FC01E580C8010E947125FC01D480C8014A
:102910000E947125FC01C380C8010E947125FC0141
:10292000B280C8010E947125FC01A180C8010E94EB
:102930007125FC0180819DAA8EABAFAAB8AEC9AE4D
:10294000DAAEEBAEFCAE78CFDC01AD58BF4F8C9168
:102950009985891B1F979C9111962C916DAB2EAB7D
:102960009FAB88AF19AE1AAE1BAE1CAE65CFCF932E
:10297000DF93EC01FC01EA53FF4F85E090E0918387
:10298000808360E5CE010E940714CE01DF91CF91D4
:102990000C94B613FC01DC01AC59BF4F8C9111961D
:1029A0009C912FE625AB96AB87AB60AF11AE12AE14
:1029B00013AE14AECF010C94B6130F931F93CF93A5
:1029C0008C01C22FFC01EB58FF4F80818617A0F0CD
:1029D000C80102960E94A720C11106C0C1E08C2F39
:1029E000CF911F910F91089569E5C8010E940714C6
:1029F000C8010E94B613F3CF6F3F81F3222379F30E
:102A000069E0C8010E94CA14C0E0E9CF406820E034
:102A100060E00C94DD147F928F929F92AF92BF92F0
:102A2000CF92DF92EF92FF920F931F93CF93DF939A
:102A3000EC017C012DE3E20EF11CC7010E94E625AA
:102A4000182FC7010E9429275E0134E6A30EB11C8E
:102A5000F501C080D1808C159D0579F1EE59FF4FAD
:102A6000808191810297039740F51D30B1F11031BB
:102A700009F46EC1113109F068C0FE01E45AFE4F3D
:102A80001082E95FF109608170E06C157D0539F015
:102A9000F50171836083CE0102960E942C25FE0110
:102AA000EA53FF4F8081918162EE059709F46EC170
:102AB00063E0CE010E94CA1448C01D3509F402C269
:102AC00008F075C0133509F487C108F04DC0103106
:102AD00009F43EC1A0F51D30C1F5C114D104A9F11E
:102AE000FE01E45AFE4F1082E95FF109608170E057
:102AF0006C157D0539F0F50171836083CE01029676
:102B00000E942C2566EBCE010E940714B601660FC9
:102B1000771F6C0D7D1D90E080E00E944031CE015A
:102B2000DF91CF911F910F91FF90EF90DF90CF90A9
:102B3000BF90AF909F908F907F900C94B6131131FF
:102B400009F49BCF123409F425C180E0DF91CF91C5
:102B50001F910F91FF90EF90DF90CF90BF90AF90BB
:102B60009F908F907F900895163509F45CC188F48A
:102B7000143509F43AC1153541F7FE01EA53FF4F08
:102B800080819181892B09F7CE0102960E949B20BA
:102B9000DCCF173509F44DC11835B9F6FE01E45AFA
:102BA000FE4F108264E7CE010E940714BEC11539A2
:102BB00009F4DCC108F045C0123709F492C138F5B8
:102BC000113719F6FE01E45AFE4F1082C7010E9428
:102BD0002B26182F7E01F2E0EF0EF11C6BE2C701ED
:102BE0000E946E1F80FF05C08DEF810F63E184316D
:102BF00008F06FEF610FC7010E946E1F9C8D91114D
:102C000043C197E99DABDEAACFAA18AFA2C1133783
:102C100009F48FC1153709F098CFFE01E45AFE4F31
:102C2000108263E0C7010E940E26FE01ED59FF4F9E
:102C300083E6808363E6CE0102960E94252562E545
:102C4000B2CF123B09F416C278F5163909F4BFC1A8
:102C50001C3909F07ACFFE01E45AFE4F1082C701F9
:102C60000E943826082FC7010E944C26182FFE010B
:102C7000EC58FF4F8081811708F406C14FEF410FD8
:102C80006FEF600FCE0102960E94A11F9C8D9111E3
:102C9000FBC0F5019081218135EB3DAB2EAB9FABA5
:102CA00008AF19AF8AAF57C1123D09F412C2153FE0
:102CB00009F04BCFFE01E45AFE4F8081811145CFD0
:102CC000E659F10980819181892B09F000C2C70181
:102CD0000E943E27C82EB92EC7010E942927A82E80
:102CE000992EC7010E944C26182FC7010E9460260A
:102CF000D82EC7010E943826082FBE0164537F4F8B
:102D0000FB0190823196A0823196B0823196C082CA
:102D10007E01F2E0EF0EF11C4FEF480FC7010E9459
:102D20000A20682F70E0202F2150330B62177307A1
:102D300009F0ECC04FEF410F2D2DC7010E94D920A3
:102D4000412F4150550B8417150609F09DC019C23B
:102D5000FE01E45AFE4F1082E95FF109608170E0E4
:102D60006C157D0539F0F50171836083CE01029603
:102D70000E942C25FE01EA53FF4F80819181059727
:102D800009F0E3CECE010E94AC136FEECE010E949B
:102D90000714C5CEFE01E45AFE4F10828E010A537D
:102DA0001F4FF80180819181059709F081CEC701FD
:102DB0000E942927F50191838083BC01CE010296F0
:102DC0000E942C2562E5CE010E94071483E090E06A
:102DD000F80191838083A3CEFE01E45AFE4F108256
:102DE000CA53DF4F19821882B0CEFE01E45AFE4F5B
:102DF0001082E95FF109608170E06C157D0539F0A2
:102E0000F50171836083CE0102960E942C25FE019C
:102E1000EA53FF4F83E090E091838083C758DF4FF0
:102E200081E0888392CEFE01E45AFE4F108260E773
:102E3000ADCFFE01E45AFE4F1082B984BB2009F4E5
:102E400084CE7E01F2E0EF0EF11C6BE2C7010E941E
:102E50006E1F10E080FF03C019E099E0B92EAD2C81
:102E600000E082EF982E6BE2C7010E946E1F80FF88
:102E700003C0113109F418E0612FC7010E94D91E67
:102E8000FC018C8D882311F06AE013CE838192813E
:102E9000218130819DAAAEAACFAA38AF29AF9AAFBF
:102EA0008BAF0CAFCE010E94B613882331F065E5DD
:102EB00074E087E895E00E94982F1F5F0F5FB012C3
:102EC000D2CF43CEC7010E942927F501208131814D
:102ED0008217930709F039CE61E0CE010E94D31228
:102EE00034CEFE01E45AFE4F1082CE010E94AC1394
:102EF000C7010E943826182F6FEF680FCE01029687
:102F00000E94D91EFC019C8D992311F066E0D1CD61
:102F1000838192812181308142EF4DABDEAACFAA1D
:102F200038AF29AF9AAF8BAF1CAFCE010E94B6135A
:102F30000CCEFE01E45AFE4F1082C7010E941A26F1
:102F4000182F81110BC08BE98DABDEAACFAA18AE6A
:102F500088E089AF1AAE1BAE1CAEE7CF682FCE015A
:102F60008F599F4F0E9473259BE94CCEFE01E45A76
:102F7000FE4F1082C7010E943E278C01C7010E94AC
:102F800029277E0122E0E20EF11CA801BC01C70145
:102F90000E94581F182FBE0164537F4FFB011082FF
:102FA000319610823196108231961082482FC701D7
:102FB0000E940A201813AACF612F70E020E040E0A1
:102FC000C7010E94D920882309F4BFCD5DCF6E01CF
:102FD000F4EACF1AFEEFDF0AF60190819111B5CD28
:102FE000C7010E942B26982E1FEF180FC7010E94C1
:102FF0003626082F7E01F2E0EF0EF11C1130D9F4D5
:103000008E3F89F4C7010E94F92081E0F601808398
:1030100083E690E0F5019183808363E670E0C70169
:103020000E942C2503E6FE01ED59FF4F0083602F1F
:10303000C7010E9425256BE2C7010E946E1F80FF19
:1030400006C08DEF890D843110F413E1190D21E0D4
:10305000402F612FCE010E94DD14812F65E00E9478
:10306000A8329350C758DF4F923008F0D9CE115094
:1030700018836BCDFE01E45AFE4F1082E659F10928
:1030800080819181892B19F5C7010E944C26D82E89
:10309000682F7E01F2E0EF0EF11CC7010E94D91EDD
:1030A0008C0140E06D2DC7010E94A11F9C8D9111E4
:1030B0002DCFF801938122813181408153ED5DABA9
:1030C0004EAB3FAB28AF99AFDAAE8BAF45CF62E0E6
:1030D000F0CCFE01E45AFE4F8081811136CDC7014C
:1030E0000E943E27982E892EC7010E942927782EFC
:1030F000B92EC7010E944C26182FC7010E946026D6
:10310000082F6E01FCECCF0ED11CF601B0825E01DF
:10311000FDECAF0EB11CF5017082319680823196C4
:1031200090827E01F2E0EF0EF11C6BE2C7010E947B
:103130006E1F80FF03C0183008F4175F6CEF610F3B
:10314000643020F083EF810F843058F4C7010E946F
:10315000D91EFC012081F6012083FC018181F5014B
:103160008083412FB601C7010E940A201813CECEDA
:10317000612F70E0202F40E0C7010E94D92081110B
:1031800083CE69E510CDCF92DF92EF92FF920F933D
:103190001F93CF93DF93EC01FC01E15AFF4F808135
:1031A0008823F1F0359680819181892BC9F07E01C9
:1031B00085E3E80EF11C3197408150E070E060E05B
:1031C00000E020E0CE014D960E948F2C80E0DF9140
:1031D000CF911F910F91FF90EF90DF90CF900895C6
:1031E000FE01EA53FF4F808191810497F9F46E014B
:1031F000EDE3CE0ED11CC6010E94CB258111E6CF96
:103200007E01F4EBEF1AFEEFFF0AF701108113368F
:10321000E8F6C6010E94D925C10FD11DC453DF4F66
:103220008883F70180818F5F8083D0CFFE01ED5BC3
:10323000FF4F808191818230910569F120F40197DF
:1032400091F081E0C4CF83309105D1F00497C9F7A4
:10325000CE018F599F4F0E94B625882391F3CE014E
:103260000E941113EECFFE01E15BFE4F0190F08151
:10327000E02D309731F3BE01CE01CD960995E1CF17
:10328000CE018F599F4F0E94B6258823D1F2CE01DF
:103290000E940413D6CFCE01DF91CF911F910F91E1
:1032A000FF90EF90DF90CF900C940B15AF92BF92F0
:1032B000DF92EF92FF920F931F93CF93DF938C01D6
:1032C0007C0182E0E80EF11C60E0C7010E946E1FE5
:1032D00081FBDD24D0F8E801ED96CE010E947D2728
:1032E0008823A1F0D11012C0CE010E943E275C01BC
:1032F000CE010E942927A501BC01C7010E94581FC9
:10330000F8019485981710F08F5F30C0CE010E94AD
:103310007427882379F0CE010E945327009751F03B
:10332000AC0170E060E0C7010E94581FF80194856D
:10333000981750F7CE010E947D27882389F0DD2061
:1033400079F0CE010E943E27009751F0AC0170E069
:1033500060E0C7010E94581FF80194859817A0F6F5
:10336000CE010E945327009759F480E0DF91CF915E
:103370001F910F91FF90EF90DF90BF90AF90089555
:10338000AC0170E060E0C7010E94581FF80194850D
:10339000981708F0B9CFE9CFAF92BF92CF92DF92E2
:1033A000FF920F931F93CF93DF93EC016C0188E79B
:1033B000C80ED11CF60110825E01FAEDAF1AFEEFC5
:1033C000BF0AB501CE0180589F4F0E94B311F82E5D
:1033D000882329F18E01035C1F4FC8010E94F52547
:1033E000F5018081E45EF1098083BE01685D7E4F56
:1033F000C8010E94E925BE01645D7E4FC8010E949C
:103400004C28FE01E95DFE4F8081E85CF1098111E5
:1034100011C01082CE010E945619F60180838F2DB3
:10342000DF91CF911F910F91FF90DF90CF90BF90D0
:10343000AF90089581E08083EDCFCF93DF93FC01BF
:10344000EE5AFE4F6083EC01CD5ADE4F48836F3F4A
:1034500021F0862F61E00E94143288818F3F29F08D
:1034600061E0DF91CF910C941432DF91CF910895F8
:103470008F929F92AF92BF92EF92FF920F931F9302
:10348000CF93DF938C010D5A1E4FF80120812F3FFF
:1034900021F4319720812F3F71F1EC010E940F310F
:1034A0007E01FAEAEF1AFEEFFF0AF70180809180B1
:1034B000A280B380681979098A099B09643671056D
:1034C00081059105C0F0E059F1098081918105974E
:1034D00019F5F8018081CB5ADE4F98819130B1F413
:1034E00060E00E94503218820E940F31F701608321
:1034F000718382839383DF91CF911F910F91FF900E
:10350000EF90BF90AF909F908F90089561E00E94E0
:10351000503281E08883E8CFFE01EE5AFE4F808171
:103520009CA9913049F460E00E94503261E0F801BA
:1035300080810E945032D8CF61E00E94503260E01A
:10354000F6CFFC01E059FF4F608102960C943E25B6
:10355000CF93DF93EC011CAA8F599F4F0E94BB258C
:10356000CE01DF91CF910C94A11ACF93DF93EC01A0
:1035700002960E947E1FFE01EC59FF4F91838083CB
:1035800031978E8180833D9681E08083CE018F5973
:103590009F4F0E94C025811103C0CE010E94A81A2E
:1035A000CA53DF4F83E090E099838883DF91CF9106
:1035B0000895CF93DF93EC0102960E94CC21CE01B7
:1035C000DF91CF910C94B51A0F931F93CF93DF9394
:1035D000EC01FC01E65AFE4F80818F3FA9F00E946A
:1035E0007E328E01055A1E4FF801892B91F480819D
:1035F000813051F40E940F31C853DF4F68837983C3
:103600008A839B83F8011082DF91CF911F910F91E4
:10361000089580818111F8CF81E080830E940F316D
:10362000FE01E853FF4F0081118122813381DC01CB
:10363000CB01801B910BA20BB30B8C019D01095E8A
:103640001340210931090738134121053105D8F408
:10365000FE01EA53FF4F808191812CA9213081F432
:10366000059739F4CA53DF4F83E090E0998388834C
:10367000CBCFCE01DF91CF911F910F910C94B71456
:10368000059711F6EFCF81379741A105B10508F4F1
:10369000BBCF8CA981111BC08E010A531F4FF801AB
:1036A000808191810597F1F260E0E457FF4F8081BE
:1036B0000E94503260E0CE010E94D312F801808156
:1036C00091810497B1F6CE010E948E1BF7CF1CAA00
:1036D0008E010F591F4FC8010E94BB25CE010E94C9
:1036E000A11AC8010E94A8259E012E5F3F4FFE012E
:1036F000EC59FF4F882369F0C658DF4F6881798104
:1037000071836083C901DF91CF911F910F910C9458
:103710002C251182108270E060E0F4CFEF92FF92CE
:103720000F931F93CF93DF93EC010E94381ACE01C1
:103730000E94E41AFE01EA53FF4F808191810497B1
:10374000A9F40E940F31FE01E853FF4F008111815F
:1037500022813381601B710B820B930B693E734096
:103760008105910518F0CE010E9452137E0183EB72
:10377000E81A8EEFF80A8E01035C1F4FCE010E94FB
:10378000CC19882371F0CE010E94C3188823B1F3AD
:10379000D701ED91FC91309789F3BE01C8010995DD
:1037A000EDCF80E0DF91CF911F910F91FF90EF90CF
:1037B0000895615002960C946E1FAF92BF92CF9203
:1037C000DF92EF92FF920F931F93CF938C017B01B7
:1037D000C42FCB010E947427680192E0C90ED11C4E
:1037E0008823F9F0C7010E945327AC0170E060E024
:1037F000C6010E94581FC111C150F801ED58FF4F7A
:1038000090818917C0F44C2F682FC601CF911F916A
:103810000F91FF90EF90DF90CF90BF90AF900C94FE
:10382000A11FC7010E943E275C01C7010E942927F2
:10383000A501BC01DDCF80E0CF911F910F91FF90DA
:10384000EF90DF90CF90BF90AF9008952F923F926E
:103850004F925F926F927F928F929F92AF92BF92A0
:10386000CF92DF92EF92FF920F931F93CF93DF934C
:103870001F92CDB7DEB77C01198210E02C0184ECD9
:10388000481A8EEF580A570190ECA91A9EEFB90A10
:103890006701E6ECCE1AEEEFDE0A4701FDE18F0E7E
:1038A000911CC701855C9E4F1C01370190E8690E91
:1038B000711C012F9E012F5F3F4FA201B501C7016F
:1038C0000E94A712882371F08981F6018083C401C8
:1038D0000E94842881111EC0F1011082B601C3012B
:1038E0000E9412121130A1F40F90DF91CF911F911D
:1038F0000F91FF90EF90DF90CF90BF90AF909F908F
:103900008F907F906F905F904F903F902F90089591
:1039100011E0CFCF81E0F1018083E0CF2F923F9281
:103920004F925F926F927F928F929F92AF92BF92CF
:10393000CF92DF92EF92FF920F931F93CF93DF937B
:10394000CDB7DEB7C654D1090FB6F894DEBF0FBEAF
:10395000CDBF7C01362E242E122F2FEF31E0FC013B
:1039600021933193CF010E947C1E3701FDE16F0E40
:10397000711CC3010E94ED2B57018DE3A80EB11CF1
:10398000C5010E9407266701E1E6CE0ED11CC601E3
:103990000E9448254701F0E88F0E911CC4010E9447
:1039A0009F11F701E45AFE4F1082270186E7480E67
:1039B000511CF2011082EA52FF4F1082CE01019693
:1039C0000E94ED2B87E1FE013196D30101900D920B
:1039D0008A95E1F7CE0101960E949F11F40132967B
:1039E000DE011396C70182549F4F2D912193E81752
:1039F000F907D9F721968EAD9FAD2197F40197AFC6
:103A000086AF23968EAD9FAD2397F701E054FF4F0D
:103A10009183808325968EAD9FAD259732969183B5
:103A2000808327968EAD9FAD2797329691838083B2
:103A3000CE0101960E949C11212F422D632DCE01B3
:103A400001960E948D228B819C81F701958384834E
:103A50008D8186838E8187838F818087888581870A
:103A6000898582878A8583878B8584878C858587EE
:103A70008D8586878E859F85908B87878889818BAA
:103A80008989828B8A89838B8B89848B8C89858BAE
:103A90008D89868B8E899F89908F878B888D818F6A
:103AA000898D828F8A8D838F8B8D848FCE01019635
:103AB0000E94621ECE0101960E9448258B81F6016C
:103AC00082838C819D81948383833596DE01169653
:103AD000C70182599F4F2D912193E817F907D9F714
:103AE0008E85F60185878F8586878889878789896E
:103AF000808B8A89818B8B89828B8C89838B8D8942
:103B0000848BCE0101960E944525F701ED58FF4FA9
:103B100020823296308231971083CE0101960E9426
:103B200007268B81F70187AF8C81E05CFF4F808394
:103B30008D81319680838E81319680838F819885A7
:103B400031969183808389859A853296918380838B
:103B50008B859C853296918380838D859E85329658
:103B6000918380838F859889329691838083898918
:103B70009A893296918380838B8932968083F5016E
:103B80007396DE015496C701885A9F4F2D91219359
:103B9000E817F907D9F78C8D8083F701E75AFF4FB3
:103BA0008D8D808331968E8D808331968F8D80832D
:103BB000319688A18083319689A19AA191838083CF
:103BC00032968BA1808331968CA18083CE010196A1
:103BD0000E94C825F201808181608083F701E95845
:103BE000FF4F1082E552FF4F0FEF008331960083A5
:103BF000319611E01083319610820E940F31F70147
:103C0000EA5AFE4F608371838283938339971182CE
:103C10001082709611821082E55EF1091082319651
:103C20001083EF51FF4F008331961083E15EF1095D
:103C300087EC90E0A0E0B0E080839183A283B3831F
:103C4000C7010E94D91ACA5BDF4F0FB6F894DEBFD6
:103C50000FBECDBFDF91CF911F910F91FF90EF90DD
:103C6000DF90CF90BF90AF909F908F907F906F909C
:103C70005F904F903F902F900895CF93DF93EC018A
:103C80008FEF91E099838883CE0180589F4F0E94E7
:103C90009C11CE018F599F4F0E944525CE01CD9694
:103CA0000E94C825CE010296DF91CF910C94621E2E
:103CB000CF93DF93EC010E943D1ECE01DF91CF91A7
:103CC0000C94C13022E232E0FC01318320838281F6
:103CD0009381009711F00C94C3300895CF93DF9334
:103CE000EC010E94621ECE01DF91CF910C94C13095
:103CF0000C94E0360C94E83622E232E0FC01318389
:103D000020830895FC0190E080E0238528171906A0
:103D100041F03CF0A281B381A80FB91F1C9201961B
:103D2000F4CF83E68483158287EC86831782148A16
:103D30000895EF92FF920F931F93CF93DF93EC01BF
:103D4000188A198A1A8A1B8A1A8E7C0180E1E80E69
:103D5000F11C8A85861718F08F81861750F481E050
:103D60008A8FC701DF91CF911F910F91FF90EF9044
:103D700008958B8590E00496689F8001699F100DDF
:103D800011248D859E85080F191FC8010E94781E79
:103D9000888BC80101960E94781E898BC801029603
:103DA0000E94781E8A8BC80103960E94781E8B8B16
:103DB000D8CFFC01108A118A128A138A128E40967B
:103DC0002285261718F02781261718F421E0228F64
:103DD000089570E0DB01AA0FBB1FA250BB4F2C91CE
:103DE000208BDB01AA0FBB1FA05EBA4F2C91218B49
:103DF000DB01AA0FBB1FAE5BBA4F2C91228B660F63
:103E0000771FDB01AC59BA4F2C91238B0895AF92E9
:103E1000BF92CF92DF92EF92FF920F931F93CF93B7
:103E2000DF93DC0117969C911797EEEFF4E080E0AA
:103E3000A62EB12CE42EF12C30E010E0981751F1B1
:103E4000611102C0442309F1C080D180AC14BD04CB
:103E5000C9F4C2A0D3A0EC14FD04A1F46F0154E492
:103E6000C50ED11CE601C880D9802C153D0551F442
:103E70006F01D6E6CD0ED11CE601C880D9800C15A5
:103E80001D0559F08F5F3296D9CF6F01D4E4CD0E66
:103E9000D11CE8CF1A968C918F5FDF91CF911F9143
:103EA0000F91FF90EF90DF90CF90BF90AF9008956B
:103EB0000F93252F042F462F672F0E94071F0F9166
:103EC0000895FC01128E8185681728F4862F90E0F2
:103ED00049960C94781E8FEF828F0895FC01128E04
:103EE0008185681718F08FEF828F0895E62FF0E034
:103EF000EE0FFF1FEA55FB4F80810895CF93DF93AC
:103F0000EC016E818D810E94AC309E8B8D8BDF9198
:103F1000CF910895DC011B962C911B9730E02C5F0C
:103F20003F4F629FF001639FF00D11241D968D910C
:103F30009C918E0F9F1F50E04C5F5F4F840F951F29
:103F40000895FC01128E8781681740F48385481715
:103F500028F4CF010E948A1F0C94781E8FEF828F65
:103F60000895CF92DF92EF92FF921F93CF93DF934A
:103F70007C016B01142FCB010E94781E811721F068
:103F8000612FC6010E947A1EF701838590E0049696
:103F90002285289FE001299FD00D112485859685D3
:103FA000C80FD91FC535F1E0DF0764F5CC0DDD1D65
:103FB000CE010E94781E811721F0612FCE010E9450
:103FC0007A1EF701238530E02C5F3F4F4285429FE8
:103FD000C001439F900D112425853685820F931FC4
:103FE000C80FD91FCE010E94781E811759F0612F8A
:103FF000CE01DF91CF911F91FF90EF90DF90CF9096
:104000000C947A1EDF91CF911F91FF90EF90DF907B
:10401000CF900895BF92CF92DF92EF92FF920F93CD
:104020001F93CF93DF937C01EB01B42EFC018285BB
:10403000481770F0BB24B394B80E8B2DDF91CF914D
:104040001F910F91FF90EF90DF90CF90BF90089558
:10405000242F30E0D901AA0FBB1FA250BB4F88818B
:1040600090E08D939C93D901AA0FBB1FA05EBA4F1D
:10407000898190E08D939C93D901AA0FBB1FAE5B01
:10408000BA4F8A8190E08D939C93D901AA0FBB1FF0
:10409000AC59BA4F8B8190E08D939C93838590E0CF
:1040A0000496829F8001839F100D929F100D112412
:1040B00085859685080F191F6B01F4E0CF0ED11C82
:1040C000061B170BB8016C0F7D1F4991C7010E9499
:1040D000B11FCC15DD05B1F7B0CFCF93DF93EC0165
:1040E00049E570E060E00E94B11F4C8162E170E040
:1040F000CE010E94B11F4D8163E170E0CE010E94AC
:10410000B11F4E8164E170E0CE010E94B11F4C8965
:1041100065E170E0CE010E94B11F4F8167E170E060
:10412000CE010E94B11F4B8568E170E0CE01DF91A6
:10413000CF910C94B11FCF93DF93EC0140E067E186
:1041400070E00E94B11F1F82DF91CF910895EF921E
:10415000FF921F93CF93DF93FC012185261718F15F
:10416000142F7C01C62FD0E0FE01EE0FFF1FEA5591
:10417000FB4F842F90E0918380836996CE010E944B
:10418000781E181781F068EF74E087E895E00E94C8
:10419000982F412FBE01C701DF91CF911F91FF9052
:1041A000EF900C94B11FDF91CF911F91FF90EF9092
:1041B00008950F931F93CF93DF938C01C42FD22FB9
:1041C000FC0187818617170609F038F4CF5F8C2F22
:1041D000DF91CF911F910F91089583854817B0F714
:1041E000C8010E948A1F4D2FBC01C8010E94B11F47
:1041F000EECFBF92CF92DF92EF92FF920F931F9379
:10420000CF93DF9300D000D0CDB7DEB78C010E94F2
:10421000821EF8018285878319821A8282E48B8349
:104220008CEC8C83D12CC12CF12CE12CBE2C4E2D8E
:10423000BE016F5F7F4FC8010E940A2020E040E06E
:10424000B701C8010E94D9208C818F5F8C838111B6
:1042500003C08B818F5F8B8344E04B0DBE016F5F8A
:104260007F4FC8010E940A2020E040E0B7016C5F48
:104270007F4FC8010E94D9208C818F5F8C83811170
:1042800003C08B818F5F8B838FEFE81AF80AEFEF03
:10429000CE1ADE0AF8E0CF16D10409F074C01982F4
:1042A0001A8282E18B8387E68C8348E0BE016F5FD0
:1042B0007F4FC8010E940A2020E040E068E070E0E3
:1042C000C8010E94D92042E060E0C8010E94A720F6
:1042D00042E860E0C8010E94A72043E661E0C8010F
:1042E0000E94A72082E0F82E40E06F2DC8010E94B6
:1042F000A72061E06F0D4BE4C8010E94A72062E097
:104300006F0D41EEC8010E94A72063E06F0D4DE0E4
:10431000C8010E94A72064E06F0D4DE0C8010E9413
:10432000A72085E0F80EEAE2FE12DECF40E06BE265
:10433000C8010E94A72040E06AE2C8010E94A720AD
:10434000C8010E946D2060E08DEF93E00E947A1E0C
:1043500060E08EEF93E00E947A1E60E08FEF93E0C2
:104360000E947A1EC8010E94CC210F900F900F90DE
:104370000F90DF91CF911F910F91FF90EF90DF9001
:10438000CF90BF900895F4E0CF16D10409F04ECF3E
:1043900099E0E92EF12C4ACF5F926F927F928F9233
:1043A0009F92AF92BF92CF92DF92EF92FF920F93C4
:1043B0001F93CF93DF93EC010E94821E8B8590E0C8
:1043C00004962A85289F7001299FF00C11248D8561
:1043D0009E85E80EF91E85E5E81681E0F8060CF0EA
:1043E0006AC08FEF93E00E94781E782E8EEF93E0E4
:1043F0000E94781E182F8DEF93E00E94781E711690
:10440000A9F1781206C0672D8FEF93E00E947A1E03
:1044100008C0181306C0612F8EEF93E00E947A1E29
:10442000712E5701AA0CBB1C10E000E00E151F05F1
:104430006CF5C8010E94781E682E4701800E911EFF
:10444000C4010E94781E582E6501C00ED11EC601FF
:104450000E94781E651491F068120BC0662DC4018D
:104460000E947A1E73940F5F1F4FE0CF7816C9F237
:10447000CACF5812F8CF652DC801F2CF681699F34C
:104480007394662DC6010E947A1EEDCF8FEF93E0E4
:104490000E94781E871579F0672D8DEF93E00E94BA
:1044A0007A1E672D8EEF93E00E947A1E672D8FEFA4
:1044B00093E00E947A1E90E080E00E94781E893589
:1044C00019F0CE010E94F92082E190E00E94781E4E
:1044D0008C8383E190E00E94781E8D8384E190E0DC
:1044E0000E94781E8E8385E190E00E94781E8C8B5E
:1044F00087E190E00E94781E8F83DF91CF911F911A
:104500000F91FF90EF90DF90CF90BF90AF909F9072
:104510008F907F906F905F900895CF92DF92EF928F
:10452000FF920F931F93CF93DF93EC0182E292E00F
:104530009983888369874A872B870C87675E6F8793
:1045400010E0000F111F600F712F711D7E876D87A6
:10455000822F90E00E94BF309B838A83CE010E940D
:10456000821ECE010E94CC2146EAE42E44E0F42EC5
:1045700010E0612FCE010E94611F90E0D7018D9362
:104580009D937D011F5F1C32A1F74091FC04509167
:10459000FD0440FF09C04E7F5093FD044093FC048E
:1045A0006BE2CE010E94A7208EEFC82E84E0D82EA9
:1045B00092E4E92E95E0F92E10E0612FCE010E94E1
:1045C000991EFC01808190E0D6018D939D936D0131
:1045D000818190E091969C938E939097828190E058
:1045E000D7018D939D937D01838190E091969C935B
:1045F0008E9390971F5F113101F7DF91CF911F913B
:104600000F91FF90EF90DF90CF900895CF92DF92BF
:10461000EF92FF920F931F93CF93DF93EC010E94D1
:10462000CC216CEE74E087E895E00E94982F65EE4F
:1046300074E087E895E00E94612F90E080E00E949E
:10464000781E4AE050E0682F87E895E00E947B30B2
:104650006CED74E087E895E00E94612F4AE050E03D
:104660006C8187E895E00E947B3067ED74E087E815
:1046700095E00E94612FCE010E947E1F4AE050E02B
:10468000BC0187E895E00E9494306FEC74E087E805
:1046900095E00E94612F4AE050E06C8987E895E040
:1046A0000E947B3062EC74E087E895E00E94612F05
:1046B0004AE050E06F8187E895E00E947B3060EB34
:1046C00074E087E895E00E94612F4AE050E06B8536
:1046D00087E895E00E947B3064EA74E087E895E023
:1046E0000E94612F4AE050E0698587E895E00E94CA
:1046F0007B3063E072E087E895E00E94852F4AE016
:1047000050E069E170E087E895E00E9455306AE08A
:1047100072E087E895E00E94852F698570E0685E09
:104720007F4F4AE050E087E895E00E9455306CE00A
:1047300072E087E895E00E94852F10E089851817C0
:10474000A0F4812F90E049960E94781E40E150E04D
:10475000682F87E895E00E947B3062EA74E087E882
:1047600095E00E94612F1F5FE9CF61E974E087E85F
:1047700095E00E94612F4AE050E060E170E087E838
:1047800095E00E94553060E172E087E895E00E9474
:10479000852F4AE050E062E070E087E895E00E94F3
:1047A00055306AE072E087E895E00E94852F4AE084
:1047B00050E061E170E087E895E00E9455306CE0E0
:1047C00072E087E895E00E94852F02E010E0C801C2
:1047D0000E94781E40E150E0682F87E895E00E9433
:1047E0007B306FE874E087E895E00E94612F0F5FEF
:1047F0001F4F0231110559F761E874E087E895E031
:104800000E94612F4AE050E06C8587E895E00E94A5
:104810007B3066E172E087E895E00E94852F4AE0F0
:1048200050E06F8587E895E00E947B306AE072E097
:1048300087E895E00E94852F6C856150770BCB014E
:10484000880F991F6F85680F792F711D6F5F7F4FDC
:104850004AE050E087E895E00E9455306CE172E054
:1048600087E895E00E94852F4AE050E062E070E022
:1048700087E895E00E9455306CE072E087E895E0AB
:104880000E94852F10E08C85181738F5E12EF12C49
:10489000EE0CFF1C8F858E0D9F2D911D0E94781EA2
:1048A00040E150E0682F87E895E00E947B308F85DB
:1048B0008E0D9F2D911D01960E94781E40E150E0C3
:1048C000682F87E895E00E947B306FE774E087E807
:1048D00095E00E94612F1F5FD6CF0D851E8566E78C
:1048E00074E087E895E00E94612F4AE050E06A8515
:1048F00087E895E00E947B3066E172E087E895E00A
:104900000E94852F4AE050E0B80187E895E00E94B8
:1049100055306AE072E087E895E00E94852F6A854D
:104920006150770B660F771F660F771F600F711F3F
:104930006D5F7F4F4AE050E087E895E00E94553078
:104940006CE172E087E895E00E94852F4AE050E034
:1049500064E070E087E895E00E9455306CE072E01A
:1049600087E895E00E94AA2FD12C8A85D81608F0F6
:1049700063C0780184E0E80EF11CC8010E94781E33
:1049800040E150E0682F87E895E00E947B300F5FA0
:104990001F4F64E774E087E895E00E94612FE016FE
:1049A000F10659F7870162E774E087E895E00E9415
:1049B000612FED2CF12CEE0CFF1CF701E250FB4FA8
:1049C0007F0194E0C92EF7016081718140E150E0E0
:1049D00087E895E00E94553060E774E087E895E04D
:1049E0000E94612FCA94F2E2EF0EF11CC110EBCFCE
:1049F0006AE674E087E895E00E94612FF12C8B85D0
:104A0000F816A0F4C8010E94781E40E150E0682F1B
:104A100087E895E00E947B300F5F1F4F68E674E0E7
:104A200087E895E00E94612FF394E9CF87E895E04D
:104A30000E94942FD39499CFDF91CF911F910F9122
:104A4000FF90EF90DF90CF900895462FFC01648394
:104A500062E170E00C94B11FCF93DF93EC01472F1C
:104A60007D836E8363E170E00E94B11F4E8164E13B
:104A700070E0CE01DF91CF910C94B11F462FFC0165
:104A8000648B65E170E00C94B11F08950C94C13003
:104A9000FC018AE292E09183808380E385838683B0
:104AA0008783808781878287838784870895FC0135
:104AB0004830510514F048E050E015821682178204
:104AC000108611861286138614863596DB01CD0179
:104AD000861B970B841795071CF48D918193F7CF54
:104AE000089505960895DC016150683030F5E62F91
:104AF000F0E0E358FA4D0C94EA32852588258B25A1
:104B00008E259125942597259A251D968C9108959B
:104B100050968C9108951E968C91089552968C9182
:104B2000089553968C91089554968C9108955196BA
:104B30008C9108951F968C91089580E00895FC0152
:104B40009785662319F09260978708959D7FFCCF23
:104B5000FC018785869581700895FC019785662301
:104B600019F09160978708959E7FFCCFFC0187859F
:104B7000809581700895FC0197859B7F97870895A4
:104B8000FC01878582FB882780F991E089270895B9
:104B900008950C94C130FC0185810895FC0123899E
:104BA00030E085E0359527958A95E1F72483822FBB
:104BB0000895FC01838D20E1829FC0011124948D12
:104BC000929596959770892B82830895FC01838135
:104BD0000895FC017B96CB010496DB012D91BD016C
:104BE0002193A817B907C9F70895FC01138A148AFD
:104BF000158A168A178A108E118E128E138E148EB5
:104C0000158E168E178E11A210A212A2089522E3FD
:104C100032E0FC01318320830C94F525FC016830DF
:104C200038F48381882329F0E60FF11D83890895E4
:104C300080E00895FC012381233711F486890895CB
:104C400080E00895FC0193819659923010F4878991
:104C5000089580E00895FC019381913719F09659E9
:104C6000923010F48689089580E008950C942226ED
:104C7000FC019381923721F09C3911F0953B11F49E
:104C800086890895953F11F4808D0895923F11F41F
:104C9000828D089580E00895FC0193819C3911F084
:104CA000953B11F487890895923B11F0923D11F4E0
:104CB000808D0895953F11F4818D089580E00895C9
:104CC000FC018381853B11F4808D08959EE2980F4D
:104CD000923010F4818D0895853F11F4828D0895EE
:104CE00080E008954230510509F455C048F441155B
:104CF0005105D1F04130510509F461C080E00895BB
:104D00004430510509F497C008F476C04530510588
:104D1000A9F7603839F08EE7860F843018F0623AD0
:104D200009F091C081E036C06234E1F380EB860F78
:104D30008B30C0F384EA860F8230A0F381E9860FBE
:104D4000873080F380E7860F8F3060F380E5860F31
:104D5000873040F388E4860F823020F3862F8F7BE4
:104D60008D5B8230F8F280E3860F8630D8F288E2DD
:104D7000860F8230B8F283E2860F823098F2633E6B
:104D800089F280E1860F823068F2635F81E06730EC
:104D900008F0B4CF0895862F8F7B8059863010F2AB
:104DA00080E5860F853008F4BDCF80E1860F823024
:104DB00008F4B8CF635F81E0633060F39FCF6B3559
:104DC00009F4B0CF88E6860F833008F4ABCF862F86
:104DD0008F798D59823008F4A5CF88E4860F823010
:104DE00008F4A0CF88E2860F823008F49BCF685F7A
:104DF00081E0643078F282CF8FED860F833008F443
:104E000091CF8CEB860F873008F48CCF6C3409F48B
:104E100089CF603609F486CF603809F483CF8EE7F6
:104E2000860F843008F47ECF81E0623A89F0613EDB
:104E300009F064CFAFCF603409F474CF862F8F7739
:104E4000813609F46FCF81E0613C09F057CFA2CFE2
:104E50000895CF93DF93EC0150E040E06B890E940E
:104E60007226882341F08C899D8998278927982765
:104E7000DF91CF91089590E080E0FACFCF93DF9358
:104E8000EC0142E050E06B810E947226882341F0E1
:104E90008E899F89982789279827DF91CF91089538
:104EA00090E080E0FACF1F93CF93DF93EC011B815A
:104EB00041E050E0612F0E947226882391F086E045
:104EC000810F823010F01B3549F48C899D89982719
:104ED00089279827DF91CF911F9108958E899F8907
:104EE000F6CF90E080E0F6CFFC0193819F7998594E
:104EF00081E0923008F080E00895FC0193819F7971
:104F0000905981E0923008F080E00895643008F410
:104F1000B7C0673009F4B4C0962F9F7B9F3309F464
:104F2000AFC082EA860F823008F4AAC0862F8F7D38
:104F30008F3909F4A5C0663B09F4A2C06F3D09F49E
:104F40009FC02CEF260F233008F49DC028EF260FBA
:104F5000233008F498C02FED260F233008F493C0B7
:104F6000603409F490C02CEB260F273008F48BC076
:104F70006C3409F488C0262F2F7730EA320F323094
:104F800008F481C0233609F47EC0803809F47BC060
:104F90002EE7260F243008F476C0623A09F473C075
:104FA00020E4260F223008F46EC026EA260F2230B5
:104FB00008F46CC020E7260F253008F467C028E607
:104FC000260F233008F462C08D59823008F45EC089
:104FD000862F877F805B823008F458C08DE4890F6C
:104FE000823008F453C081E3860F833008F44EC04A
:104FF0008CE2860F823008F449C088E2860F823046
:1050000008F444C083E2860F823008F43FC080E198
:10501000860F8230D8F18AE0860F8630B8F183E0BF
:10502000860F833098F184EF860F823030F180EF65
:10503000860F823010F1623401F180EB860F8A30E6
:10504000E0F084EA860F8230C0F081E9860F873075
:10505000A0F08BE6860F833080F085E6860F8230E5
:1050600060F0923B51F0953B41F08EE2860F82302A
:1050700020F0623E11F06F3E61F482E090E008950E
:1050800084E090E0089581E090E0089583E090E06E
:10509000089590E080E00895CF93DF93EC01FC0148
:1050A0007396CB010896DB012D91BD012193A817C2
:1050B000B907C9F76B896B83CE010E9486279F834E
:1050C0008E83DF91CF9108958EBD00000DB407FE51
:1050D000FDCF8EB50895DC015196FB01CB010496FE
:1050E0002D912193E817F907D9F70895FC01633052
:1050F00028F4658B443028F4468B089582E0858B34
:10510000F9CF82E0868B0895FC0186850895CF93C0
:10511000DF93EC0160E088890E94503280EC0E94AD
:10512000642861E088890E9450326AE070E080E083
:1051300090E0DF91CF910C9440311F93CF93DF9398
:10514000EC01162F60E088890E94503283E00E94B3
:105150006428812F0E94642880E00E946428182F10
:1051600061E088890E945032812FDF91CF911F9199
:105170000895DF92EF92FF920F931F93CF93DF93E7
:105180007C01162FD42EC52FD22F60E0FC01808920
:105190000E94503283E00E946428812F0E9464287C
:1051A0000D2D1C2FC0E0CD1751F0C83041F080E02C
:1051B0000E946428F80181938F01CF5FF4CF61E0F2
:1051C000F7018089DF91CF911F910F91FF90EF90B0
:1051D000DF900C9450320F931F93CF93DF93EC0129
:1051E000062F142F60E088890E94503282E00E94CE
:1051F0006428802F0E946428812F0E94642861E027
:105200008889DF91CF911F910F910C945032DF92DA
:10521000EF92FF920F931F93CF93DF937C01C62FE2
:10522000D42E152F022F60E0FC0180890E9450329D
:1052300082E00E9464288C2F0E946428CD2DD12FFB
:105240000C0F1D2F111DC017D10721F089910E944D
:105250006428F9CF61E0F7018089DF91CF911F9138
:105260000F91FF90EF90DF900C945032FF920F93CC
:105270001F93CF93DF93EC01F62E042F122F60E0E3
:1052800088890E94503285E00E9464288F2D0E94F8
:105290006428802F0E946428812F0E94642861E086
:1052A0008889DF91CF911F910F91FF900C9450321C
:1052B0001F93CF93DF93EC0160E088890E94503206
:1052C00080EA0E94642880E00E946428182F61E030
:1052D00088890E945032812FDF91CF911F910895CC
:1052E0000F931F93CF938C01C62F262F40EE6FE0B4
:1052F0000E9436296FE0C8010E949D28982F907E59
:1053000081E09C1301C080E0CF911F910F9108951F
:105310000F931F93CF93DF93413029F0423009F46C
:1053200057C081E049C061506231D8F7E62FF0E004
:10533000E456F64D0C94EA32252A2D2AAE299129FD
:10534000B2299129B529B929BC2991299129C029C6
:10535000C329C629CA29E1299129E529C7E8DFEF30
:105360004FE01BC0C5E8D1EFFBCFC7E8DFEF47E058
:1053700014C0C7E8DAEFFBCFC7E8DFEF43E00DC0AA
:10538000C7E8DAEFFBCFC6E8D0EFF8CFC7E8DAEF2F
:1053900041E003C0C5E8D1EF41E48C016AE20E941C
:1053A000EB284D2F69E2C8010E94EB284C2F68E2E0
:1053B000C8010E94EB2880E0DF91CF911F910F91EF
:1053C0000895C6E8D0EF40E0E8CFC2E8D0EDFBCFCB
:1053D0006150623108F0A5CFE62FF0E0EE50F64DB7
:1053E0000C94EA32292A302A042A9129072A912981
:1053F0000A2A0D2A102A91299129132A162A192AD4
:105400001C2A1F2A9129222AC7E0DFEBB0CFC4E073
:10541000D4EAADCFC7E0DFEBB1CFC6E0D4EBAECF7F
:10542000C7E0DFEBB5CFC6E0D4EBB2CFC5E0D1EB40
:10543000AFCFC6E0D4EBC7CFC5E0D1EBC4CFC2E05D
:10544000D0E9C1CFC0E0D0E8BECFC7E8DFEF4FE37F
:10545000A4CFC7E0DFEB4FE1A0CFC7E8DFEFFBCF82
:10546000C7E0DFEB7DCF0F931F93CF938C01C0E399
:1054700040E06C2FC8010E94EB2860E16C0F40E017
:10548000C8010E94EB2860E26C0F40E0C8010E9456
:10549000EB28CF5FCE3361F740E060E6C8010E94A1
:1054A000EB2840E060E7C801CF911F910F910C9469
:1054B000EB28FF920F931F93CF93DF93EC01062FFE
:1054C000F42E0E94872860E8CE010E947029182FD0
:1054D0006AE070E080E090E0112349F00E944031E2
:1054E000812FDF91CF911F910F91FF9008950E941E
:1054F00040314F2D602FCE010E948829882329F04A
:105500006AE070E080E090E0E9CF6AE070E080E07F
:1055100090E00E944031CE010E94332A43E06BE2CA
:10552000CE010E94EB2824E044E660E6CE010E9412
:10553000362920E040E660E7CE010E94362960E08F
:10554000CE010E947029C82F8823D1F26AE070E052
:1055500080E090E00E9440311C2FC2CF0F931F9338
:10556000CF93DF9300D000D0CDB7DEB7413021F527
:105570000C831B83890122273327402F440F440FBC
:10558000440F407E502F53705860452B4A8355E09E
:10559000169507955A95E1F7098324E0AE014F5F10
:1055A0005F4F0E9407290F900F900F900F90DF918F
:1055B000CF911F910F910895A80123E0569547952B
:1055C0002A95E1F749830295000F007E0A831C8229
:1055D0001B82E3CFEF92FF920F931F93CF93DF9342
:1055E00000D000D0CDB7DEB77A018901FA01108270
:1055F000F901108211821282138224E0AE014F5F02
:105600005F4F0E94B9282A818981F8E08F9FC001ED
:105610001124422F50E065E0559547956A95E1F7D2
:10562000840F951F092E000CAA0BBB0BF801808379
:105630009183A283B38323FF25C032E0880F991F93
:10564000AA1FBB1F3A95D1F72370820F911DA11D90
:10565000B11DBA2FA92F982F88272B81820F911D5A
:10566000A11DB11DBA2FA92F982F88272C81820F39
:10567000911DA11DB11D80839183A283B38381E01D
:10568000F70180830F900F900F900F90DF91CF91D3
:105690001F910F91FF90EF900895FF920F931F932A
:1056A000CF93DF93EC01F62EAC014A5F5F4F65E0CC
:1056B0006F0D2D810E9407298E85813019F48D810F
:1056C00080648D8364E06F0D4D81CE010E94EB28D4
:1056D00009811A812B813C8148816F2DCE010E9466
:1056E000AE2ADF91CF911F910F91FF9008950F93F4
:1056F0001F93CF93DF93EC01162F9C012F5F3F4F39
:10570000AC010E94EA2A6FEF610FCE010E949D2832
:10571000082F64E0610FCE010E949D288D8303FF56
:1057200011C091E09E87282F2F702D83AE014A5F14
:105730005F4F65E0610FCE01DF91CF911F910F9117
:105740000C94B9281E86EFCF615028E048E00C94F5
:1057500036298F929F92AF92BF92CF92DF92EF92B3
:10576000FF921F93CF93DF9300D01F92CDB7DEB788
:105770004C016B0180913E0190913F01A09140014D
:1057800089839A83AB83FB011082CE0101967C0151
:105790005E0194E0A90EB11CF70111917F01612F08
:1057A000C4010E949D2883FD13C01F5FF601108372
:1057B00080E00F900F900F90DF91CF911F91FF909D
:1057C000EF90DF90CF90BF90AF909F908F90089513
:1057D000EA14FB0409F782E0ECCF0895CF93DF933E
:1057E000EC01862F688B61E00E94143261E08889A9
:1057F000DF91CF910C9450320F931F93CF93DF938F
:10580000EC01162F042F0E942D2D402F612FCE0169
:105810000E94592A91E0811101C090E0892FDF9107
:10582000CF911F910F910895EF92FF920F931F93C5
:10583000FC0120834183528363837483093008F021
:1058400008E0058316863696D70110E0CD018E1943
:105850009F09801791071CF48D918193F7CF80E009
:105860001F910F91FF90EF900895FC011182128219
:1058700013821482158210821686178680E008959E
:10588000CF92DF92EF92FF921F93CF93DF931F92FD
:10589000CDB7DEB77C01D12CC12CBE016F5F7F4F2D
:1058A000C7010E94A92B9FEFC91AD90A823031F48F
:1058B00082E3C816D10489F716E027C092E3C9161F
:1058C000D104D1F36981C7010E944D2B6981C701C1
:1058D0000E94A42BD12CC12C8FEFC81AD80A698141
:1058E0006150C7010E949D28182F187083FF06C0C1
:1058F00092E3C916D10481F717E007C082E3C81606
:10590000D104D1F3C7010E94352C812F0F90DF9174
:10591000CF911F91FF90EF90DF90CF900895EF927D
:10592000FF920F93CF93DF93EC010E94142CCE01D2
:10593000DF91CF910F91FF90EF900C94402CCF927C
:10594000DF92EF92FF920F93CF93DF93CDB7DEB745
:1059500028970FB6F894DEBF0FBECDBF6C01198239
:105960001A821B821C821D821E821F82188681E081
:10597000F6018687CE0101967C0100E020E0C60199
:105980000E948F2CF601168628960FB6F894DEBF7B
:105990000FBECDBFDF91CF910F91FF90EF90DF90C1
:1059A000CF9008950F931F93CF938C01C62F0E9421
:1059B0005829C11111C080FF1DC061E6C8010E94B5
:1059C000772B20E041E06CE2C8010E9436298C2F41
:1059D000CF911F910F91089581FF0CC061E7C8011D
:1059E0000E94772B20E042E06CE2C8010E94362939
:1059F000C0E0EDCFC4E0EBCFEF92FF920F931F9387
:105A0000CF93DF93EC018B017A01622F0E94D22C9D
:105A1000811111C09D81F8019083DE011696F70176
:105A20009D819F012E193F099217130639F034F01A
:105A30009D919193F5CFF801108284E0DF91CF9191
:105A40001F910F91FF90EF9008950E945829837045
:105A500011F484E0089583E00895CF93CFB7F894CC
:105A600080918605811127C0ECE4F5E08491E1E3A3
:105A7000F5E09491E82FF0E0EE0FFF1FEB58FA4F9E
:105A8000A591B491EC91E92321F461E08AE00E94B0
:105A9000503261E08AE00E9414328CB580618CBD86
:105AA0008CB580648CBD61E08DE00E94143261E0B1
:105AB0008BE00E941432809186058F5F809386056B
:105AC000CFBFCF910895FC01918D228D892F90E059
:105AD000805C9F4F821B91098F7399270895FC0169
