:100000000C942C010C9454010C9454010C94540144
:100010000C9454010C9454010C9454010C9454010C
:100020000C9454010C9454010C9454010C949E0CA7
:100030000C9454010C9454010C9454010C945401EC
:100040000C94EA140C9454010C94B9130C9493136B
:100050000C9454010C9454010C9454010C945401CC
:100060000C9454010C9454015F036203650368030C
:100070006B036E03710374034641494C454420747D
:100080006F2073656E642043414E00536572766F36
:100090002000536572766F200053657474696E6733
:1000A000737661726961626C652000557064617479
:1000B000655F7061726100496E7320454550524F13
:1000C0004D20676573706569636865727400536875
:1000D0006F72743A204576656E7400202020457654
:1000E000656E7420004C6F6E673A204E6F64654EEB
:1000F0006F200077726974652076617220746F20BA
:10010000656570726F6D0000000000240027002AF2
:100110000020005641525320002000200020000AF9
:100120004556454E54533A0020000A44455649432B
:1001300045204E554D424552533A0020000A494E43
:100140005445524E414C20564152533A0020000A29
:100150004E4F444520564152533A0020000A4E4F1C
:10016000444520564152533A000A4E554D205641BF
:1001700052533A000A4E554D204556454E54532091
:10018000564152533A000A4E554D204556454E545D
:10019000533A000A466C6167733A000A4E4E3A00C1
:1001A0000A43414E5F49443A004944454E543A009F
:1001B0004D454D4F52592044554D50005374617276
:1001C00074706F736974696F6E20536572766F0017
:1001D00053746172740050726F7A6573736F7266D4
:1001E00065686C657220004172647543414E2D5301
:1001F0006572766F2056657273696F6E2000536565
:1002000072766F000000000023002600290004041D
:1002100004040404040402020202020203030303AE
:10022000030301020408102040800102040810208A
:100230000102040810200000000800020100000371
:10024000040700000000000000000000000025007E
:1002500028002B00D520101A11241FBECFEFD8E0A4
:10026000DEBFCDBF11E0A0E0B1E0E2E3FAE402C0FE
:1002700005900D92A63FB107D9F725E0A6EFB1E0B2
:1002800001C01D92AB39B207E1F711E0CBE2D1E03A
:1002900004C02197FE010E94CC23CA32D107C9F7BE
:1002A0000E94141A0C940C250C940000DF92EF921B
:1002B000FF920F931F93CF93DF93C091750482E752
:1002C00094E00E940F057C010091990410919A041A
:1002D0008017910789F08091FB049091FC040297AC
:1002E000039750F4CD3009F46FC0C03109F484C0D5
:1002F000C13109F085C39EC0CD3509F482C180F5B6
:10030000C33509F4FEC078F4C03109F475C020F497
:10031000CD3009F075C358C0C13109F48BC0C23467
:1003200009F4B0C06DC3C63509F406C138F4C4354C
:1003300009F4ECC0C53509F4F0C062C3C73509F44F
:100340001AC1C83509F05CC380913E0494E79093CC
:100350006A0410936B0400936C0480936D0430C3A3
:10036000C53909F4D1C1F0F4C23709F460C120F4F1
:10037000C13709F44EC144C3C33709F486C1C53738
:1003800009F03EC3609188046093980460933B0435
:1003900082E190E00E9466058091990490919A0410
:1003A00022E506C3C23B09F451C238F4C63909F448
:1003B000D5C1CC3909F421C223C3C23D09F479C2A5
:1003C000C53F09F46DC21CC30115110509F418C31A
:1003D0008091A5049091A4042091A30436EB30935E
:1003E0006A0410936B0400936C0420936D04909343
:1003F0006E0480936F04B2C08091FB049091FC0462
:10040000059709F0FDC2EAE6F4E0119284E0E237D4
:10041000F807D9F78091A7049091AA042091A90424
:100420003091A8044091A4045091A6046091A304C3
:100430007FEE15C08091FB049091FC04059701F5B7
:100440008091A1049091A00420919F0430919E047A
:1004500040919D0450919C0460919B0472EE7093B6
:100460006A0460936B0450936C0440936D04309362
:100470006E0420936F04909370048093710472C093
:1004800083E0EAC08091FB049091FC040597C1F7DA
:10049000F0929A04E0929904C7010E946319809136
:1004A000990490919A0422E520936A0490936B0436
:1004B00080936C0410926D0410926E0410926F047D
:1004C000109270041092710483E090E09093FC0409
:1004D0008093FB0481E0809369046091A5046460CB
:1004E0006093A50460934B0485E190E00E9466054B
:1004F0006091A50460934B0485E190E00E9466053D
:1005000031C01092FC041092FB047AC283E090E0A8
:100510009093FC048093FB046CC18091FB04909148
:10052000FC04892B09F06CC260E087E190E00E9436
:10053000660510923E0464C28091A80490913E0426
:10054000891B90E790936A0410936B0400936C04EA
:1005500080936D0410926E0410926F0410927004D8
:1005600010927104DF91CF911F910F91FF90EF9046
:10057000DF900C943D18F0903E04FF2009F440C237
:100580008BE20E947C1880FF04C0C9E099E0F92E3C
:1005900001C0C0E0E12ED0E082EFD82E8BE20E94B5
:1005A0007C1880FF03C0C13109F4C8E08C2F0E9481
:1005B0008A16FC0180915104882311F08AE04CC016
:1005C0008381928121813081D0926A04E0926B0410
:1005D00000936C0430936D0420936E0490936F0429
:1005E00080937004D09371040E943D18882321F0F9
:1005F00088E790E00E94D815CF5FDF5FFD12CECF75
:10060000FFC1E016F10609F0FBC181E00E941F194D
:10061000F7C1C09188048BE20E947C1880FFDBC187
:100620008DEF8C0F843108F0D6C183E1D5C1EAE6A5
:10063000F4E082E794E011928E179F07E1F70E94A1
:10064000DC18C82F8FEF8C0F0E948A16FC01909146
:100650005104992321F086E00E946A18D1C1838158
:1006600092812181308142EF40936A0410936B04A0
:1006700000936C0430936D0420936E0490936F0488
:1006800080937004C0937104A3C120918804211148
:100690000BC08BE980936A0410936B0400936C0485
:1006A00010926D0488E02DC0822F90E0FC013197FC
:1006B000E830F105E0F4EC5CFF4F0C94CC23809122
:1006C000A30416C08091A60413C08091A40410C096
:1006D0008091A8040DC08091A9040AC08091AA0449
:1006E00007C08091A70404C08091A50401C080E0E8
:1006F0009BE990936A0410936B0400936C0420931D
:100700006D0480936E045EC182E794E00E949015B0
:10071000AC01B70187E394E00E942206C82F0E9433
:100720007A1610920105109202051092030510929C
:1007300004054C2F61E075E087E394E00E945608C1
:10074000C81389CF6C2F70E020E040E087E394E08D
:100750000E946A05882309F453C130CFD0918804E0
:10076000CFEFCD0F10918904C13049F41093980454
:1007700010933B04612F82E190E00E9466058BE2BA
:100780000E947C1880FF05C08DEF8D0F843108F426
:1007900034C18091AA048C17F0F0412F6C2F87E3AD
:1007A00094E00E9494058091990490919A0429E51F
:1007B00020936A0490936B0480936C0410926D04F0
:1007C00010926E0410926F041092700410927104D3
:1007D0000E943D1803C089E00E946A188C2F65E0D2
:1007E0000E94AC239350923020F4C150C093AE04C9
:1007F00007C181E08093AE0403C10E94DC18D82FAA
:100800000E940819C82F8091A9048C1708F4D6CE2D
:100810004FEF4C0F6FEF6D0F87E394E00E94BC0524
:10082000909151049111CACE9091990420919A040B
:1008300035EB30936A0420936B0490936C04D0934F
:100840006D04C0936E0480936F04BEC08091FB045E
:100850009091FC04892B59F50E940819182F0E94C9
:100860008A16EC0140E0612F87E394E00E94BC050A
:10087000909151049111EFCE9B812A813981488159
:1008800053ED50936A0440936B0430936C042093AF
:100890006D0490936E0410936F048093700496C05F
:1008A0008091FB049091FC04892B09F443C082E001
:1008B000D3CE82E794E00E949015182F092F0E9452
:1008C0000819C82F0E94F318D82FF0920105E09262
:1008D000020500930305109304058BE20E947C1827
:1008E00080FF03C0C83008F4C75F8CEF8C0F8430E2
:1008F00020F093EF9C0F943048F40E948A16FC017C
:100900002081209301058181809302054C2F61E0B5
:1009100075E087E394E00E945608C8139CCE6C2FC4
:1009200070E02D2F40E087E394E00E946A0581117A
:1009300045CE39C082E794E00E949015082FD92E49
:100940000E940819C82F0E94F318D82F0E94DC18A3
:10095000182FF0920105E0920205D0920305009352
:1009600004054FEF480F61E075E087E394E00E94D3
:100970005608682F70E0212F30E0215031096217AE
:10098000730709F068CE4FEF4C0F2D2F87E394E0EB
:100990000E946A0590E02C2F30E021503109821727
:1009A000930709F00BCE8091990490919A0429E560
:1009B00020936A0490936B0480936C0410926D04EE
:1009C00010926E0410926F041092700410927104D1
:1009D0000E943D1815C08FEF8C0F0E947C189091DB
:1009E00051049111EBCD97E990936A0410936B0435
:1009F00000936C04C0936D0484CEC3E1CD0FC9CEC7
:100A000080E0DF91CF911F910F91FF90EF90DF90E9
:100A100008950C947E240C947E240C947E24FC0176
:100A200093899234A9F180EB890F8B3088F184EAA5
:100A3000890F823068F181E9890F873048F180E7BA
:100A4000890F8F3028F180E5890F873008F188E41D
:100A5000890F8230E8F0292F2F7B2D5B2230C0F0E8
:100A600080E3890F8630A0F088E2890F823080F021
:100A700083E2890F823060F0933E51F080E1890F6C
:100A8000823030F0935F973018F080E090E0089566
:100A90008489958998278927982708950895FC01C6
:100AA00084E591E091838083DF015396CF014B96DB
:100AB0001D92A817B907E1F7138E148E158E168EA6
:100AC000178E11A210A212A2089508950C947C23EF
:100AD0000C947423CF93FC01DB01878190E06817AD
:100AE000790718F081E0840F1DC093854917D0F76E
:100AF000622FC42F492F50E04C5F5F4F4A9F9001F7
:100B00004B9F300D5A9F300D112485859685820F9D
:100B1000931F4C2F50E04C5F5F4F840F951F0E9436
:100B200066058C2FCF9108951F93CF93DF93FC011F
:100B300081858617E8F0142FC62FD0E0FE01EE0F56
:100B4000FF1FE352FC4F842F90E0918380836996CE
:100B5000CE010E946805181759F083EF90E00E94BB
:100B6000D815612FCE01DF91CF911F910C946605AE
:100B7000DF91CF911F910895FC01128E8781681734
:100B8000B0F42385421798F430E02C5F3F4F629F0A
:100B9000D001639FB00D1124858596858A0F9B1F18
:100BA00050E04C5F5F4F840F951F0C9468058FEFEA
:100BB000828F0895AF92BF92CF92DF92EF92FF9211
:100BC0000F931F93CF93DF93EC018F81A5E5B3E0E3
:100BD000E9E9F3E090E0E62EF12CC42ED12C30E0D0
:100BE00010E09817F9F0611102C0442369F0AD904C
:100BF000BC901197EA14FB0489F49296AD90BC90D6
:100C00009397CA14DB0451F4A080B1802A153B05E8
:100C100029F4A2A0B3A00A151B0541F09F5F12960C
:100C20003296DFCF9A8581E0890F01C0892FDF914D
:100C3000CF911F910F91FF90EF90DF90CF90BF90D9
:100C4000AF9008950F93252F042F462F672F0E94F2
:100C5000DA050F910895AF92BF92CF92DF92EF9293
:100C6000FF920F931F93CF93DF93EC017B01FB0166
:100C7000E858FF4F108180912302882309F465C151
:100C80008BE791E00E94E615812F0E947A161123CE
:100C900009F45DC1809123028823D1F18BE891E0B2
:100CA0000E94E615812F0E947A1687E991E00E9442
:100CB000E615CE010E94501597012E5F3F4F690146
:100CC000882339F0CE010E946515AC0160E070E028
:100CD00009C0CE010E9490155C01CE010E940F0553
:100CE000A501BC01C6010E942206F701ED58FF4F85
:100CF0009081891730F440E0682FC6010E94BC053E
:100D000001C080E00E947A168EEA91E00E94A41849
:100D10008FEF810F813108F0BEC12091230288300E
:100D200009F069C0222321F082EA91E00E94A41810
:100D300080911C02882309F4AEC1E5E9EE2EE2E0C1
:100D4000FE2E04E212E0C0E0D0E0F4E0AF2EB12CC1
:100D5000A8E1CA2EA5E1DA2EE0918302F091840287
:100D60000C2E02C0F595E7950A94E2F7E170FF2793
:100D7000EA0DFB1DEE0FFF1FE35DFD4F80819181AA
:100D800074E0880F991F7A95E1F7A601481B590B6B
:100D9000F70151834083F80110822196809123024C
:100DA0008823E1F086EA91E00E94E6156AE070E0AF
:100DB000CE010E9429168FED91E00E94E6156AE0AF
:100DC00070E0F701808191810E9429168FED91E0FA
:100DD0000E94E615F80180810E947A16F5E0AF0EB8
:100DE000B11C22E0E20EF11C0F5F1F4FC830D1058D
:100DF00009F0B2CF50C1893010F08EEF810FE09131
:100E00008302F0918402982F9770943028F08450D8
:100E1000883040F091E003C08830C0F090E084500A
:100E20009923A1F041E050E060E070E0082E04C09A
:100E3000440F551F661F771F0A94D2F7E42BF52B3A
:100E4000F0938402E0938302E1E015C041E050E0BA
:100E500060E070E0082E04C0440F551F661F771F26
:100E60000A94D2F7409550954E235F235093840205
:100E700040938302E0E0082F10E0E801CC0FDD1F73
:100E8000DE01AB56BD4FF0E035E0839FE00DF11D74
:100E90001124EE0FFF1FEB5CFD4F6081718154E068
:100EA000660F771F5A95E1F748E155E1461B570B4E
:100EB0004D935C9340912C0250E0BA0102C07595AD
:100EC00067958A95E2F7F801EC5DFD4F7F0160FFC1
:100ED00003C085E0808301C01082222309F4DBC0B7
:100EE00086EA91E00E94E6156AE070E0C80101968A
:100EF0000E9429168FED91E00E94E615FE01EB5647
:100F0000FD4F6AE070E0808191810E9429168FED8B
:100F100091E00E94E615CB57DD4F6AE070E08881D2
:100F200099810E9429168FED91E00E94E615F70144
:100F30008081DF91CF911F910F91FF90EF90DF9013
:100F4000CF90BF90AF900C947A161111E1CE8B81A7
:100F5000883009F580911C028823E9F08AE20E941A
:100F60007C18409183025091840290E08417950789
:100F700049F08091AA048A3228F06AE287E394E07B
:100F80000E94940580912302882309F484C087EB92
:100F900090E00E94D81580912302882309F47BC039
:100FA000CE010E943B15882389F085EE90E00E94D7
:100FB000BD15CE010E940F050E949E188BED90E09A
:100FC0000E94BD15CE010E9490150CC0CE010E945A
:100FD00050158823B9F08EEC90E00E94BD15CE012B
:100FE0000E9465150E949E188CEA91E0DF91CF91D6
:100FF0001F910F91FF90EF90DF90CF90BF90AF9037
:101000000C94AB158FEA91E00E94E61560E170E068
:101010008B810E946C1685EB91E00E94E615CE0153
:101020000E940F050E949E188DEB91E00E94E6152C
:101030002B8DF0E12F9F900111248C8D8295869548
:101040008770822B8A836AE070E00E946C1686ECBF
:1010500091E00E94E6158B8990E025E095958795B3
:101060002A95E1F78C836AE070E00E946C1685EDAA
:1010700091E00E94E6158091FB049091FC04DF91C1
:10108000CF911F910F91FF90EF90DF90CF90BF9085
:10109000AF900C948E18DF91CF911F910F91FF901C
:1010A000EF90DF90CF90BF90AF900895CF92DF92F6
:1010B000EF92FF921F93CF93DF93FC0112854117AC
:1010C00018F081E0810F4DC0142FFB01DC01842F4B
:1010D00090E0EC01CC0FDD1FCB5ADC4F208130E0DB
:1010E00039832883EC01CC0FDD1FC958DC4F2181E7
:1010F00030E039832883EC01CC0FDD1FC756DC4F6D
:10110000228130E039832883EC01CC0FDD1FC554E8
:10111000DC4F238130E0398328831B962C911B9769
:1011200030E02C5F3F4F289F7001299FF00C389FC3
:10113000F00C11241D968D919C911E97E80EF91EBE
:101140006B0184E0C80ED11CEB01E61AF70AC70157
:101150008C0F9D1F69910E946605CC15DD05B9F7BE
:10116000812FDF91CF911F91FF90EF90DF90CF9073
:101170000895FC0180E090E0238530E0821793071A
:101180003CF4A281B381A80FB91F1C920196F4CF41
:1011900083E68483158287EC86831782148A0895F8
:1011A000BF92CF92DF92EF92FF920F931F93CF9354
:1011B000DF9300D000D0CDB7DEB78C010E94B90814
:1011C000F8018285878319821A8282E48B838CECF2
:1011D0008C83C12CD12CE12CF12CBE2C4E2DBE01C8
:1011E0006F5F7F4FC8010E94560820E040E0B701C2
:1011F000C8010E946A058C818F5F8C83811103C0B6
:101200008B818F5F8B8344E04B0DBE016F5F7F4FFF
:10121000C8010E94560820E040E0B7016C5F7F4F94
:10122000C8010E946A058C818F5F8C83811103C085
:101230008B818F5F8B838FEFE81AF80AEFEFCE1A5E
:10124000DE0AF8E0CF16D10441F0F4E0CF16D10465
:1012500021F699E0E92EF12CC0CF19821A8282E1A1
:101260008B8387E68C8348E0BE016F5F7F4FC801A8
:101270000E94560820E040E068E070E0C8010E944B
:101280006A0542E060E0C8010E94940543E661E01F
:10129000C8010E94940582E0F82E40E06F2DC8013D
:1012A0000E94940561E06F0D4BE4C8010E94940513
:1012B00062E06F0D41EEC8010E94940563E06F0D7E
:1012C0004DE0C8010E94940564E06F0D4DE0C80137
:1012D0000E94940585E0F80EEAE2FE12DECF40E0BF
:1012E0006BE2C8010E94940540E06AE2C8010E94D6
:1012F000940569E580E090E00E946605F80164814C
:1013000082E190E00E946605F801658183E190E04A
:101310000E946605F801668184E190E00E946605FE
:10132000F801648985E190E00E946605F801678113
:1013300087E190E00E946605F801638588E190E00E
:101340000E946605C8010E94B3090F900F900F908C
:101350000F90DF91CF911F910F91FF90EF90DF9051
:10136000CF90BF900895CF93DF93EC010E94B9080E
:1013700080E090E00E946805893519F0CE010E9456
:10138000D00882E190E00E9468058C8383E190E0C0
:101390000E9468058D8384E190E00E9468058E8339
:1013A00085E190E00E9468058C8B87E190E00E94C7
:1013B00068058F83DF91CF9108952CE631E0FC0121
:1013C0003183208382819381009711F00C947E24D5
:1013D0000895CF93DF93EC010E94DD09CE01DF91E8
:1013E000CF910C947E2424E731E0FC0121933193CA
:1013F000CF010C94DD09CF93DF93EC010E94F30938
:10140000CE01DF91CF910C947E2408952F923F92CC
:101410004F925F926F927F928F929F92AF92BF9204
:10142000CF92DF92EF92FF920F931F93CF93DF93B0
:1014300000D000D01F92CDB7DEB780E00E947C18AC
:101440008B83817080931C027AEFC72E71E0D72EB8
:1014500076011A82198200E010E0802F0E948A161D
:10146000FC0182819381982789279827F70181932E
:1014700091937F01C801019629813A812F5F3F4FE7
:101480003A8329832131310549F029813A81283075
:10149000310511F4C80102968C01DFCF8BE20E9466
:1014A0007C18881F8827881F809323020DE212E092
:1014B0001D830C8366246394712C52E0552EE12C1D
:1014C000F12C812C912C54018394852D0E947C1841
:1014D00090E0EC81FD8197838683208431844424CD
:1014E0004394450C842D0E947C1890E02816390600
:1014F00001F1842D0E947C1890E0EC81FD819187A0
:101500008087C701880F991FA501940104C0220F8D
:10151000331F441F551F8A95D2F7DA01C901209164
:101520001D0230911E02822B932B90931E028093FA
:101530001D0217013FEF231A330AEC81FD8102845B
:10154000F385E02DFA83E98322E0422E450C842DB9
:101550000E947C1890E029813A8128173907E1F030
:10156000842D0E947C1890E0EC81FD819387828716
:1015700020911D0230911E02D501C401062C04C029
:10158000880F991FAA1FBB1F0A94D2F7822B932B97
:1015900090931E0280931D0283E0850D0E947C18AB
:1015A00090E0EC81FD819587848784E0850D0E9421
:1015B0007C1890E0EC81FD8197878687852D0E94BD
:1015C0007C1820912C0282FF0BC0D501C40104C0FD
:1015D000880F991FAA1FBB1FEA94D2F7822B0BC05A
:1015E000D501C40104C0880F991FAA1FBB1FEA942C
:1015F000D2F78095822380932C0255E0550E8C8182
:101600009D810A969D838C8392E0690E711CEAE2AB
:101610005E1611F0710159CF80911D0290911E024A
:10162000892B09F057C02091AE04223008F452C033
:101630002231D1F040F4283099F0213199F027304F
:10164000C1F428E016C02C3189F020F42B3189F444
:101650002CE10FC0253261F0263259F425E209C091
:1016600027E007C022E105C021E103C02BE101C052
:1016700026E230E022503109C90165E070E00E94A5
:10168000B823660F771F21703327260F371F81E09D
:1016900090E0A0E0B0E004C0880F991FAA1FBB1F14
:1016A0002A95D2F790931E0280931D028BEA90E058
:1016B0000E94BD156AE070E080911D0290911E02AB
:1016C0000E9429168FED91E00E94E6158091AE04EC
:1016D0000E947A1680911D0290911E02892B81F042
:1016E0008091A6029091A702A091A802B091A902B0
:1016F00080931F0290932002A0932102B0932202B4
:101700001092AE0489E990E00E94BD158B810E9481
:101710007A1680912302882309F4F8C02DE232E082
:101720003A832983A12CB12C82E990E00E94BD1557
:1017300075013FEFE31AF30A6AE070E0C7010E9407
:1017400029168EED91E00E94E615F60181919191A6
:101750006F010E949E188FED91E00E94E615F60140
:10176000868197810E949E188FED91E00E94E61578
:101770006AE070E0E981FA81868197810E942916EA
:101780008FED91E00E94E6156AE070E0E981FA8150
:10179000808591850E9429168FED91E00E94E615C3
:1017A0006AE070E0E981FA81828593850E942916BA
:1017B0008FED91E00E94E6156AE070E0E981FA8120
:1017C000848595850E9429168FED91E00E94E6158B
:1017D0006AE070E0E981FA81868597850E94291682
:1017E0008FED91E00E94E61580912C0290E002C0FE
:1017F00095958795AA94E2F7817099270E948E1893
:1018000029813A81265F3F4F3A832983570134E08B
:10181000E316F10409F088CF8AE0E82E82E0F82E82
:1018200044E050E05A8349838BE890E00E94BD1564
:10183000C980DA805FEFC51AD50A6AE070E0C60198
:101840000E9429168EED91E00E94E615F701819124
:1018500091917F010E949E188FED91E00E94E61504
:10186000F701868197810E949E188FED91E00E947A
:10187000E6156AE070E0F80186A597A50E94291692
:101880008FED91E00E94E6156AE070E0F80180A912
:1018900091A90E9429168FED91E00E94E6156AE059
:1018A00070E0F80182A993A90E9429168FED91E0BA
:1018B0000E94E6156AE070E0F80184A995A90E94EB
:1018C00029168FED91E00E94E6156AE070E0F801BC
:1018D00086A997A90E9429168FED91E00E94E6152E
:1018E00080912C0290E0098002C0959587950A941A
:1018F000E2F7817099270E948E18065F1F4FDA82E7
:10190000C98296012830310509F08ECF0F900F90D3
:101910000F900F900F90DF91CF911F910F91FF903B
:10192000EF90DF90CF90BF90AF909F908F907F907F
:101930006F905F904F903F902F9008951F920F925D
:101940000FB60F9211242F933F934F935F938F9372
:101950009F93AF93BF938091F8019091F901009705
:10196000D9F420918502309186028091F601909100
:10197000F701820F931F9093F7018093F6012838A7
:1019800033410CF4479A209188003091890080916E
:10199000850290918602AEC081309105B1F44798DE
:1019A00080918702909188022091F6013091F70191
:1019B000280F391F3093F7012093F601883823E16F
:1019C00092070CF093C0469A91C082309105B1F411
:1019D00046988091890290918A022091F601309177
:1019E000F701280F391F3093F7012093F60188384B
:1019F00023E192070CF07AC0459A78C083309105B4
:101A0000B1F4459880918B0290918C022091F6015F
:101A10003091F701280F391F3093F7012093F60119
:101A2000883823E192070CF061C0449A5FC084308B
:101A30009105B1F4449880918D0290918E0220918D
:101A4000F6013091F701280F391F3093F7012093E9
:101A5000F601883823E192070CF048C0439A46C04B
:101A600085309105A9F4439880918F02909190025E
:101A70002091F6013091F701280F391F3093F701BB
:101A80002093F601883823E1920784F5429A2EC00C
:101A900086309105A9F4429880919102909192022A
:101AA0002091F6013091F701280F391F3093F7018B
:101AB0002093F601883823E19207C4F4419A16C0B6
:101AC000079741F54198809193029091940220915B
:101AD000F6013091F701280F391F3093F701209359
:101AE000F601883823E192070CF4409A209188008F
:101AF00030918900820F931F909389008093880012
:101B00008091F8019091F90101969093F9018093E9
:101B1000F80131C040984091F6015091F7014835E5
:101B200088E9580788F4209188003091890088E579
:101B300098E9A0E0B0E0841B950BA109B109880FDA
:101B4000991F820F931F06C0809188009091890091
:101B50008A569F4F90938900809388001092F701D6
:101B60001092F6011092F9011092F8018091A502ED
:101B70008F5F8093A502BF91AF919F918F915F91ED
:101B80004F913F912F910F900FBE0F901F9018957E
:101B90008F929F92AF92BF92CF92DF92EF92FF927D
:101BA0000F931F93CF93DF93809188058F3F29F484
:101BB000809187058F3F09F44FC00E94DE14009189
:101BC0008B0510918C0520918D0530918E05DC01DF
:101BD000CB01801B910BA20BB30B84369105A105A1
:101BE000B105D0F18091FB049091FC040597A9F414
:101BF00080918A05813041F460E0809188050E94DF
:101C0000141410928A051EC061E0809188050E941C
:101C1000141481E080938A0515C080916904813095
:101C200039F460E0809187050E94141461E006C0D9
:101C300061E0809187050E94141460E0809188051E
:101C40000E9414140E94DE1460938B0570938C051F
:101C500080938D0590938E0520918F052F3F71F114
:101C600030E0F901EA5CFD4F8491F901EE5DFD4F32
:101C7000D491F901E25FFD4FC491CC2379F0811139
:101C80000E94EB13EC2FF0E0EE0FFF1FEC5FFD4F17
:101C9000A591B491EC91ED2309F055C38091900585
:101CA000813061F40E94DE146093FD047093FE04A1
:101CB0008093FF0490930005109290058091FB049F
:101CC0009091FC04049709F07CC00E94DE140091FE
:101CD000FD041091FE042091FF0430910005DC0109
:101CE000CB01801B910BA20BB30B893E9340A10546
:101CF000B10508F466C083E090E09093FC04809303
:101D0000FB0440918105A2E0B5E081E0841740F03A
:101D10002091810530E0E1E0F5E080E090E017C03F
:101D20002D919FEF980FE92FF0E0EF01CF5FDA4F91
:101D30003881EE5FFA4F231718F430839150F3CFB8
:101D400020838F5FE3CF4191C41730F00196C1E04B
:101D5000C80F82179307BCF3C43640F08091AC04DF
:101D6000882379F187E00E946A182BC0C0933B0456
:101D70006C2F82E190E00E946605C09398048091E8
:101D8000AC048823F1F08091990490919A0422E5A3
:101D900020936A0490936B0480936C0410926D04FA
:101DA00010926E0410926F041092700410927104DD
:101DB0006C2F70E080E090E02AE634E043E00E947F
:101DC0004C17C1E0D0E08DE8E82E84E0F82E99E6CB
:101DD000C92E95E0D92E11E029E5B22E1092AD045E
:101DE0008091F5049091F604892B09F056C3D093A5
:101DF000F604C093F5048091F9049091FA04181642
:101E000019062CF01092F6041092F50446C3809146
:101E1000F7049091F804CC9724F01092F8041092F3
:101E2000F704EBE5F5E0A091F704B091F804AB54AA
:101E3000BB4F12968C9181938091F7049091F80496
:101E400001969093F8048093F7048091F90490919F
:101E5000FA0401979093FA048093F90445E0EA3676
:101E6000F40709F71092F6041092F504E5E8F4E09F
:101E70001192EE16FF06E1F710929104109293046E
:101E8000109292041092940480915B0580937704E1
:101E900080915D0580938D0480915E0580938E0412
:101EA00080915F0580938F048091600580939004FA
:101EB000E1E6F5E08191DF01AD5DB1098C93CE16CD
:101EC000DF06C1F78091850480937504843008F49F
:101ED000B4C0873009F4B1C0282F2F7B2F3309F409
:101EE000ACC092EA980F923008F4A7C0982F9F7D5B
:101EF0009F3909F4A2C0863B09F49FC08F3D09F4C5
:101F00009CC03CEF380F333008F49AC038EF380FDC
:101F1000333008F495C03FED380F333008F490C0EB
:101F2000803409F48DC03CEB380F373008F488C09A
:101F30008C3409F485C0382F3F7740EA430F423094
:101F400008F47EC0333609F47BC0903809F478C0B9
:101F50003EE7380F343008F473C0823A09F470C099
:101F600030E4380F323008F46BC036EA380F3230C4
:101F700008F469C030E7380F353008F464C038E63B
:101F8000380F333008F45FC09D59923008F45BC0BD
:101F9000982F977F905B923008F455C09DE4920F84
:101FA000923008F450C091E3980F933008F44BC07E
:101FB0009CE2980F923008F446C098E2980F923055
:101FC00008F441C093E2980F9230E8F190E1980F45
:101FD0009230C8F19AE0980F9630A8F193E0980FEC
:101FE000933088F194EF980F923080F190EF980F32
:101FF000923060F1823451F190EB980F9A3030F1C9
:1020000094EA980F923010F191E9980F9730F0F020
:102010009BE6980F9330D0F095E6980F9230B0F091
:10202000223BA1F0253B91F09EE2980F923070F098
:10203000823E61F08F3E69F409C084E090E00BC0FD
:1020400081E090E008C083E090E005C082E090E08D
:1020500002C080E090E090937904809378048091AE
:102060005C0581111093940480E00E947C1881FB30
:10207000002700F982E794E00E943B15A82E8823F0
:1020800019F0002309F4DDC182E794E00E945015A5
:102090008823C1F082E794E00E9465154C01009707
:1020A000B1F0AC0160E070E087E394E00E942206AA
:1020B0002091410430E0482F50E0241735070CF4FC
:1020C000E0C134C0AA20E1F00130D1F404C0AA205C
:1020D00079F1013069F582E794E00E94901500974C
:1020E00079F0AC0160E070E087E394E00E942206A2
:1020F0002091410430E0482F50E024173507B4F414
:1021000082E794E00E9465154C01892B89F0A401B7
:1021100060E070E087E394E00E9422062091410491
:1021200030E0482F50E02417350714F08F5F01C0CE
:1021300080E08093AD0480919404882389F080919D
:10214000990490919A04892B59F06091980470E059
:1021500080E090E02AE634E040E00E944C173ECE5A
:10216000209175042D3581F482E794E00E940F05DB
:102170002091990430919A048217930709F02ECE8A
:1021800081E00E941F192ACE4091FB045091FC046B
:102190004430510501F58091770481111FCE2091C3
:1021A0008105233608F01ACE80918D0430E1839F9B
:1021B000C001112490918E04929596959770892B69
:1021C00080937404E22FF0E0EF5FFA4F80832F5F7B
:1021D0002093810503CE8091780490917904452B5A
:1021E00009F074C030916904311170C0029729F46C
:1021F000223D19F0253F09F03DC182E794E00E949D
:102200009015082F892E82E794E00E940F05909385
:1022100001058093020580920305009304059090C8
:102220003E04A09041049A1418F001E00A0D11C078
:10223000282D482F692F87E394E00E94DA05A8161D
:1022400038F4492D61E075E087E394E00E94560878
:10225000082F8091A804801710F484E01DC080919D
:102260007504823D11F0853FD1F40E940819982E23
:102270000E94F3184FEF490D602F70E0282F87E37D
:1022800094E00E946A0590E0292D30E02150310948
:102290008217930721F086E00E946A189FCD8091F3
:1022A000990490919A04B0926A0490936B0480937D
:1022B0006C0410926D0410926E0410926F041092D0
:1022C0007004109271040E943D1888CD82309105EF
:1022D00041F138F4019751F5E0918405F0918505BD
:1022E00018C0E0918205F09183058330910519F0C3
:1022F000049731F01BC08091A50480FD17C009C070
:102300008091A50480FD12C0273009F0B6C00C945E
:102310000000309759F065E374E082E794E0099596
:1023200005C00E945601882309F458CDE09182052A
:10233000F0918305309709F451CD65E374E082E7AD
:1023400094E009954BCD809190058111B7CC81E047
:10235000809390050E94DE140091FD041091FE040C
:102360002091FF0430910005DC01CB01801B910B13
:10237000A20BB30B8C019D01095E134021093109A9
:102380000738134121053105C0F42091690480917B
:10239000FB049091FC04213061F4059739F483E04B
:1023A00090E09093FC048093FB0488CC0E94C418B6
:1023B00085CC059709F082CCF2CF81379741A105F2
:1023C000B10508F47BCC80916904811117C080911C
:1023D000FB049091FC04059711F360E08091870560
:1023E0000E94141480E00E941F198091FB049091B8
:1023F000FC040497D9F60E94C80DF7CF1092690427
:102400006091A5046B7F6093A50460934B0485E104
:1024100090E00E9466058091A50481FD07C010929E
:102420009A041092990480E090E008C08091AF0473
:102430009091B00490939A04809399040E94631938
:102440003DCC82E794E00E9490154C0182E794E035
:102450000E940F05A401BC0187E394E00E942206BC
:102460002091410430E0482F50E0241735070CF448
:102470000BCE5CCE0E945601B1CC2E3509F447CF6D
:1024800048CFAA2009F443CE013009F424CE82E7D4
:1024900094E00E9465154C013ACE80E0DF91CF9127
:1024A0001F910F91FF90EF90DF90CF90BF90AF9072
:1024B0009F908F900895FF920F931F93CF93DF9378
:1024C000182FF62EC72FD42F60E0809162040E944F
:1024D000141483E00E943415812F0E9434150F2DAF
:1024E0001C2FC0E0CD1751F0C83041F080E00E94B1
:1024F0003415F80181938F01CF5FF4CF61E08091B3
:102500006204DF91CF911F910F91FF900C941414EE
:10251000CF92DF92EF92FF920F931F93CF93DF93AF
:102520006C017A018B01C0E0D0E0CE15DF0581F0AF
:10253000D8016D918D01D601ED91FC910190F08152
:10254000E02DC6010995892B11F02196EECF7E0171
:10255000C701DF91CF911F910F91FF90EF90DF9016
:10256000CF900895089580E090E00895FC01538D88
:10257000448D252F30E0842F90E0821B930B54175D
:1025800010F0CF96089501970895FC01918D828DEA
:10259000981761F0828DDF01A80FB11D5D968C91B7
:1025A000928D9F5F9F73928F90E008958FEF9FEFC2
:1025B0000895FC01918D828D981731F0828DE80F7E
:1025C000F11D858D90E008958FEF9FEF0895FC0138
:1025D000918D228D892F90E0805C9F4F821B910905
:1025E0008F739927089588EB92E00E94E71221E00B
:1025F000892B09F420E0822F0895FC01848DDF01EE
:10260000A80FB11DA35ABF4F2C91848D90E0019665
:102610008F739927848FA689B7892C93A089B18954
:102620008C9180648C93938D848D981306C002885E
:10263000F389E02D80818F7D80830895EF92FF9252
:102640000F931F93CF93DF93EC0181E0888F9B8DD5
:102650008C8D981305C0E889F989808185FD24C097
:10266000F62E0B8D10E00F5F1F4F0F731127E02E1A
:102670008C8DE8120CC00FB607FCFACFE889F989F7
:10268000808185FFF5CFCE010E94FD12F1CF8B8DA9
:10269000FE01E80FF11DE35AFF4FF0820B8FEA892C
:1026A000FB898081806207C0EE89FF896083E889A9
:1026B000F98980818064808381E090E0DF91CF910F
:1026C0001F910F91FF90EF900895CF93DF93EC014E
:1026D000888D8823C9F0EA89FB89808185FD05C042
:1026E000A889B9898C9186FD0FC00FB607FCF5CF7C
:1026F000808185FFF2CFA889B9898C9185FFEDCFC4
:10270000CE010E94FD12E7CFDF91CF91089580E0C6
:1027100090E0892B29F00E94F31281110C940000A3
:1027200008950E9407251F920F920FB60F92112451
:102730002F933F934F935F936F937F938F939F93C9
:10274000AF93BF93EF93FF9388EB92E00E94FD124B
:10275000FF91EF91BF91AF919F918F917F916F9179
:102760005F914F913F912F910F900FBE0F901F904F
:1027700018951F920F920FB60F9211242F938F93DB
:102780009F93EF93FF93E091C802F091C90280817B
:10279000E091CE02F091CF0282FD12C09081809133
:1027A000D1028F5F8F732091D202821751F0E09196
:1027B000D102F0E0E854FD4F958F8093D10201C023
:1027C0008081FF91EF919F918F912F910F900FBE7C
:1027D0000F901F901895833081F028F4813099F084
:1027E0008230A1F008958730A9F08830B9F08430A4
:1027F000D1F4809180008F7D03C0809180008F771D
:1028000080938000089584B58F7702C084B58F7D52
:1028100084BD08958091B0008F7703C08091B0008F
:102820008F7D8093B00008951F93CF93DF93282F5F
:1028300030E0F901EA5CFD4F8491F901EE5DFD4F56
:10284000D491F901E25FFD4FC491CC23C1F0162F62
:1028500081110E94EB13EC2FF0E0EE0FFF1FE65BFF
:10286000FD4FA591B4919FB7F894111104C08C91BC
:10287000D095D82302C0EC91DE2BDC939FBFDF9173
:10288000CF911F910895CF93DF9390E0FC01EE5D0F
:10289000FD4F2491FC01E25FFD4F8491882361F19B
:1028A00090E0880F991FFC01E95FFE4FC591D4911C
:1028B000FC01E65BFD4FA591B491611109C09FB782
:1028C000F8948881209582238883EC912E230BC075
:1028D000623061F49FB7F8948881322F309583235A
:1028E0008883EC912E2B2C939FBF06C08FB7F89452
:1028F000E8812E2B28838FBFDF91CF9108953FB7BA
:10290000F8948091B4029091B502A091B602B09172
:10291000B70226B5A89B05C02F3F19F00196A11D4F
:10292000B11D3FBFBA2FA92F982F8827820F911D65
:10293000A11DB11DBC01CD0142E0660F771F881FAC
:10294000991F4A95D1F708958F929F92AF92BF92A7
:10295000CF92DF92EF92FF926B017C010E947F1475
:102960004B015C01C114D104E104F104F1F00E94B7
:102970007F14DC01CB0188199909AA09BB09883E9B
:102980009340A105B10570F321E0C21AD108E10816
:10299000F10888EE880E83E0981EA11CB11CC114BA
:1029A000D104E104F10419F7DDCFFF90EF90DF903F
:1029B000CF90BF90AF909F908F9008952FB7F894CD
:1029C0006091B0027091B1028091B2029091B30215
:1029D0002FBF08951F920F920FB60F9211242F93BD
:1029E0003F938F939F93AF93BF938091B002909149
:1029F000B102A091B202B091B3023091AF0223E0D4
:102A0000230F2D3720F40196A11DB11D05C026E826
:102A1000230F0296A11DB11D2093AF028093B00237
:102A20009093B102A093B202B093B3028091B4022A
:102A30009091B502A091B602B091B7020196A11D86
:102A4000B11D8093B4029093B502A093B602B093E7
:102A5000B702BF91AF919F918F913F912F910F90AE
:102A60000FBE0F901F9018958EBD00000DB407FE8D
:102A7000FDCF8EB50895FC019381892F8F7D8059FC
:102A8000823058F080E3890F823038F081E0903F47
:102A900031F0913F21F080E0089581E0089508959C
:102AA000FC019381892F8F7D8859823058F088E20C
:102AB000890F823038F081E0983F31F0993F21F062
:102AC00080E0089581E008950895FC0193819B358D
:102AD000C1F088E6890F8330A0F0892F8F798D5956
:102AE000823078F088E4890F823058F088E2890FCC
:102AF000823038F088E0890F843018F080E090E070
:102B0000089586E0890F823010F09B3519F484898E
:102B1000958902C0868997899827892798270895DB
:102B2000FC019381292F2F7B2059263070F080E5FE
:102B3000890F853050F080E1890F823030F0935F4B
:102B4000933018F080E090E008958689978998275F
:102B5000892798270895009769F0FC0101900020CB
:102B6000E9F73197AF01481B590BBC0188EB92E0A4
:102B70000C94881280E090E008950F931F93CF93F8
:102B8000DF938C01C0E0D0E0F801EC0FFD1F6491F1
:102B9000662341F088EB92E00E941E13892B11F00E
:102BA0002196F2CFCE01DF91CF911F910F91089521
:102BB000CF93DF930E94BD15EC018CEA91E00E9457
:102BC000AB158C0F9D1FDF91CF9108950C94AB1521
:102BD0008F929F92AF92BF920F931F93CF93DF93E9
:102BE000CDB7DEB7A1970FB6F894DEBF0FBECDBF4D
:102BF00019A2423008F44AE08E010F5D1F4F842E67
:102C0000912CA12CB12CA50194010E948A23E62FBE
:102C1000B901CA0101501109EA3014F4E05D01C0A4
:102C2000E95CD801EC93232B242B252B61F7C801F9
:102C30000E94AB15A1960FB6F894DEBF0FBECDBFB4
:102C4000DF91CF911F910F91BF90AF909F908F9088
:102C50000895CF92DF92EF92FF92CF93DF936115A9
:102C6000710559F4682F88EB92E0DF91CF91FF90C6
:102C7000EF90DF90CF900C941E136C01990FEE082B
:102C8000FF086A307105E9F4F7FE19C06DE288EBC0
:102C900092E00E941E13EC0166277727CB016C1986
:102CA0007D098E099F094AE00E94E8158C0F9D1F3F
:102CB000DF91CF91FF90EF90DF90CF9008954AE0A1
:102CC00001C0462FC701B601DF91CF91FF90EF9071
:102CD000DF90CF900C94E815AB01682F411551059A
:102CE00021F488EB92E00C941E1370E080E090E0F9
:102CF0000C94E815CF93DF936AE070E00E946C16A5
:102D0000EC018CEA91E00E94AB158C0F9D1FDF91C6
:102D1000CF910895109247041092480410924904EC
:102D200010924A041092510490914104981720F097
:102D300090913E04981720F481E08093510421C0C3
:102D400090E0FC01EE0FFF1FEB5AFC4F2081209317
:102D50004704FC01EE0FFF1FE958FC4F2081209330
:102D60004804FC01EE0FFF1FE756FC4F2081209323
:102D70004904880F991FFC01E554FC4F8081809322
:102D80004A0487E494E008951F93CF93DF93182FAC
:102D9000C5E3D4E060E08DA50E94141483E00E9496
:102DA0003415812F0E94341580E00E943415182FAD
:102DB00061E08DA50E941414812FDF91CF911F91A6
:102DC0000895FF920F931F93CF93DF93F82E062F52
:102DD000142FC5E3D4E060E08DA50E94141485E0B3
:102DE0000E9434158F2D0E943415802F0E943415B7
:102DF000812F0E94341561E08DA5DF91CF911F9145
:102E00000F91FF900C941414FF920F931F93CF9384
:102E1000DF93C82FF62E072F142F60E080916204F5
:102E20000E94141482E00E9434158C2F0E943415E5
:102E3000CF2DD02FCE01810F911D8C01C017D1074E
:102E400021F089910E943415F9CF61E080916204EC
:102E5000DF91CF911F910F91FF900C9414140F9359
:102E60001F93CF93DF93082F162FC5E3D4E060E0C4
:102E70008DA50E94141482E00E943415802F0E94B8
:102E80003415812F0E94341561E08DA5DF91CF911B
:102E90001F910F910C9414144F925F926F928F9226
:102EA0009F92AF92BF92CF92DF92FF920F931F93A8
:102EB000CF93DF9300D000D0CDB7DEB7109252048D
:102EC0006093530470935404809355049093560474
:102ED000493008F048E04093570410926004A8E598
:102EE000B4E0F90150E0CF01821B930B84179507E2
:102EF0001CF481918D93F7CFA12CB12C40907801D7
:102F00005090790160907A014E0124E0820E911C6C
:102F100049825A826B82CE0101966C01F82E0D2DEA
:102F2000F60111916F01812F0E94C416982F98709D
:102F300083FD02C01F5F05C08C149D0489F710E05B
:102F400092E0FFEFAF1ABF0A923029F422E3A216F3
:102F5000B104F1F67CC082E3A816B10409F477C08D
:102F60004091570468E574E085E0810F0E940417E2
:102F700080916004813029F48091570480648093AB
:102F800057046091570484E0810F0E942F174091ED
:102F900053045091540460915504709156048091EB
:102FA00052048130B1F44C835B83AB0166277727F1
:102FB000942F9C71842F8370E8E09E9F800D1124D4
:102FC00088608A8365E0569547956A95E1F749835D
:102FD0000DC0CA0123E0969587952A95E1F789836C
:102FE0004295440F407E4A831C821B8244E06F2D31
:102FF000702F812F0E940417115048E068E0812F44
:103000000E94E116C12CD12CFFEFCF1ADF0A812FCD
:103010000E94C41683FF05C022E3C216D104A1F7A3
:1030200018C082E3C816D104A1F010925304109284
:1030300054041092550410925604109257041092A2
:103040005204109260041092610480E003C086E094
:1030500001C087E00F900F900F900F90DF91CF91FC
:103060001F910F91FF90DF90CF90BF90AF909F90F6
:103070008F906F905F904F900895CF93DF93C091A2
:103080006A04C295C695C770CF5F81E080936704DC
:10309000809368046091980470E080E090E02AE6F4
:1030A00034E04C2F0E944C17811102C080E00FC009
:1030B000D3E06091980470E080E090E02AE634E08C
:1030C0004C2F0E944C17882389F3D15091F7DF9140
:1030D000CF910895E5E3F4E0A9E9B4E09C9111965D
:1030E0002C913FE635AB26AB97AB80AF11AE12AE5D
:1030F00013AE14AE0C943D181092510490914004FC
:10310000891720F08FEF809351040895E82FF0E0A5
:10311000EE0FFF1FE352FC4F80810895CF93DF93A2
:103120006AE070E00E942916EC018CEA91E00E94AE
:10313000AB158C0F9D1FDF91CF910895BC0180E0EE
:1031400090E04AE00C94E815CF93DF930E94AB1512
:10315000EC018CEA91E00E94AB158C0F9D1FDF9172
:10316000CF910895CF93C82F482F60EE8FE00E9433
:10317000E1168FE00E94C416982F907E81E09C1388
:1031800001C080E0CF910895E5E3F4E085E090E0B0
:103190009093FC048093FB04A9E9B4E08C91119610
:1031A0009C9120E525AB96AB87AB10AE11AE12AE6D
:1031B00013AE14AE0C943D1880917504823721F043
:1031C0008C3911F0853B19F4809188040895853F6E
:1031D00019F480918A040895823F19F480918C0437
:1031E000089580E0089580917504853B19F48091DD
:1031F0008A0408959EE2980F923018F480918B040F
:103200000895853F19F480918C04089580E0089515
:10321000809175048C3911F0853B19F480918904F3
:103220000895823B11F0823D19F480918A0408953B
:10323000853F19F480918B04089580E00895CF9321
:10324000DF93CDB7DEB728970FB6F894DEBF0FBE79
:10325000CDBF109281058093AC0484E090E0909300
:10326000FC048093FB0482E08093670483E08093F6
:1032700068046091980470E080E090E0FE0131966F
:10328000AE01475F5F4F9F011192E417F507E1F729
:1032900041E04093600440E00E944C1710926004AB
:1032A0000E94DE146093FD047093FE048093FF047B
:1032B0009093000528960FB6F894DEBF0FBECDBFE1
:1032C000DF91CF910895CF93DF93C5E3D4E09F833F
:1032D0008887692F83E190E00E946605688584E114
:1032E00090E0DF91CF910C9466050F931F93CF93DD
:1032F000DF9300D000D0CDB7DEB7182F1092520464
:1033000010925304109254041092550410925604D3
:1033100044E0BE016F5F7F4F0E945B122A813981BA
:10332000822F90E065E0959587956A95E1F748E0F2
:10333000349F800D911D1124092E000CAA0BBB0B8C
:103340008093530490935404A0935504B09356046F
:1033500023FF29C032E0880F991FAA1FBB1F3A958F
:10336000D1F72370820F911DA11DB11DBA2FA92F76
:10337000982F88272B81820F911DA11DB11DBA2F77
:10338000A92F982F88272C81820F911DA11DB11D77
:103390008093530490935404A0935504B09356041F
:1033A00081E0809352048FEF810F0E94C416082F92
:1033B00084E0810F0E94C41603FF04C091E0909343
:1033C000600402C010926004482F4F70409357046D
:1033D00068E574E085E0810F0E945B120F900F900A
:1033E0000F900F90DF91CF911F910F9108951F9330
:1033F000CF93DF93C5E3D4E060E08DA50E94141461
:1034000080EA0E94341580E00E943415182F61E094
:103410008DA50E941414812FDF91CF911F910895E3
:1034200085E394E00C94F309789484B5826084BDBC
:1034300084B5816084BD85B5826085BD85B58160B8
:1034400085BD80916E00816080936E001092810036
:1034500080918100826080938100809181008160F1
:1034600080938100809180008160809380008091B2
:10347000B10084608093B1008091B000816080933E
:10348000B00080917A00846080937A0080917A0005
:10349000826080937A0080917A00816080937A00C4
:1034A00080917A00806880937A001092C100CEE00B
:1034B000D1E026E1E22E21E0F22E199160E0812F89
:1034C0000E94431460E0812F0E941414EC16FD0644
:1034D000A1F7C6E0D1E09EE0E92E91E0F92E199126
:1034E00061E0812F0E94431461E0812F0E94141437
:1034F000EC16FD06A1F73E9A61E080E00E944314BD
:1035000061E081E00E9443140E94DE146838734138
:1035100081059105E8F460E080E00E94141460E009
:1035200081E00E94141464E670E080E090E00E9464
:10353000A41461E080E00E94141461E081E00E9424
:10354000141464EF71E080E090E00E94A414DCCFDA
:1035500061E080E00E94141461E081E00E94141494
:103560003E98469AABE9B4E0FD01119234E0E33AAB
:10357000F307D9F7E1EEF1E081918D9341E0E93E67
:10358000F407D1F789E58093A4048DE08093A30428
:1035900081E08093A6048093A7048091A5048360B2
:1035A0008093A50484EC92E2A0E0B0E08093AF04A5
:1035B0009093B004A093B104B093B204D1E03699D3
:1035C0001BC00E94DE144B015C01C1E00E94DE14AE
:1035D000DC01CB0188199909AA09BB09883E9340EF
:1035E000A105B10508F042C5CC2349F3C6B1C6FB1D
:1035F000CC27C0F9CD27EACF61E080E00E94141407
:1036000061E081E00E9414148BE296E090938305C0
:10361000809382058AE08093620461E00E944314F3
:1036200061E0809162040E941414C4E1D0E008E1DA
:10363000A02E02E0B02E8CE2E82E82E0F82ECFB66B
:10364000F8948091AA02811126C0F5018491F701B6
:103650002491E82FF0E0EE0FFF1FE95FFE4FA591E8
:10366000B4919C91822F892321F461E08AE00E9429
:10367000141461E08AE00E9443148CB580618CBD13
:103680008CB580648CBD61E08DE00E94431461E0E4
:103690008BE00E9443148091AA028F5F8093AA025C
:1036A000CFBE60E0809162040E94141480EC0E94FE
:1036B000341561E0809162040E9414146AE070E0A5
:1036C00080E090E00E94A41480E80E94B218882351
:1036D00081F06AE070E080E090E00E94A4146EE166
:1036E00070E080E090E00E94A414219709F0A7CF39
:1036F0004BC06AE070E080E090E00E94A41461E0BA
:103700008AE20E942F1761EB89E20E942F1765E081
:1037100088E20E942F176AE070E080E090E00E944B
:10372000A41410E360E0812F0E942F1760E080E175
:10373000810F0E942F1760E080E2810F0E942F17F7
:103740001F5F1E3379F760E080E60E942F1760E06C
:1037500080E70E942F1763E08BE20E942F1744E05E
:1037600064E680E60E94E11640E060E680E70E94A1
:10377000E11680E00E94B2188111ABCF6AE070E0E0
:1037800080E090E00E94A4148BE20E947C18881FC5
:103790008827881F80932302882309F478C1E09149
:1037A000C802F091C90282E08083E091C402F091E6
:1037B000C5021082E091C602F091C70280E18083C9
:1037C0001092D002E091CC02F091CD0286E080838D
:1037D000E091CA02F091CB02808180618083E09108
:1037E000CA02F091CB02808188608083E091CA0296
:1037F000F091CB02808180688083E091CA02F091D1
:10380000CB0280818F7D8083C5E0D0E068EE73E0DD
:1038100080E090E00E94A4148AEE91E00E94E615F8
:103820002197A1F78EEA91E00E94A41887EE91E01B
:103830000E94BD1581E090E00E948E1887E394E01D
:103840000E94B30980EB91E00E94D81589EA91E0CB
:103850000E94BD1580E090E00E94680560E170E084
:103860000E946C1680EA91E00E94BD1560E170E054
:1038700080913B040E946C168BE991E00E94BD157B
:1038800080913C0490913D04982789279827909334
:103890004D0480934C040E949E1883E991E00E949D
:1038A000BD1560E170E080914B040E946C1686E8C3
:1038B00091E00E94BD1560E170E080913E040E949D
:1038C0006C1684E791E00E94BD1560E170E0809184
:1038D00042040E946C1689E691E00E94BD1560E1E9
:1038E00070E0809140040E946C168DE591E00E948A
:1038F000BD15C0E080914004C81778F48C2F90E08B
:1039000049960E94680560E170E00E946C168BE5A4
:1039100091E00E94BD15CF5FEDCF8FE491E00E9452
:10392000BD15C0E080914004C81790F4EC2FF0E082
:10393000EE0FFF1FE352FC4F60E170E08081918148
:103940000E9429168DE491E00E94BD15CF5FEACF59
:103950008DE391E00E94BD15C2E0D0E0CE010E944F
:10396000680560E170E00E946C168BE391E00E94B4
:10397000BD152196C231D10589F78AE291E00E94F6
:10398000BD1510E080914304181718F5C12FD0E041
:10399000CC0FDD1F809146047E01E80EF11CC701AB
:1039A0000E94680560E170E00E946C1680914604F8
:1039B0009E01280F311DC90101960E94680560E132
:1039C00070E00E946C1688E291E00E94BD151F5FB6
:1039D000D9CF8FE191E00E94D815C0914404D091D5
:1039E000450410E080914104181708F050C07E0192
:1039F00034E0E30EF11CCE010E94680560E170E046
:103A00000E946C1621968DE191E00E94BD15CE15A5
:103A1000DF0589F78BE191E00E94BD15A12EB12C45
:103A2000AA0CBB1CE12CF12CF501EE0DFF1DEB5A8D
:103A3000FC4F60E170E0808191810E94291689E14C
:103A400091E00E94BD1542E2E40EF11C58E8E51633
:103A5000F10451F783E191E00E94BD1500E08091EF
:103A60004204081770F4CE010E94680560E170E01E
:103A70000E946C16219681E191E00E94BD150F5FB6
:103A8000EECF8CEA91E00E94AB151F5FABCF809127
:103A9000230281110EC01092870581E08093880572
:103AA00061E080E00E94431461E0809188050E94FB
:103AB0004314F89489E0E0E0F0E0809357003491FB
:103AC000E3E0F0E0809357002491E2E0F0E080939F
:103AD00057009491E1E0F0E080935700849178944E
:103AE000C1E03F3F09F4C0E02C3509F0CE5FE2E0D1
:103AF000E90FE23020F0CC5F8F3F19F406C08F3F12
:103B000011F0C85F02C0CC2369F1809123028111BA
:103B100002C0C1E014C086ED91E00E94BD156AE0CC
:103B200070E08C2F0E946C168CEE91E00E94A4181D
:103B300068EE73E080E090E00E94A414ECCF8D2D3D
:103B40008C278170D82E682F80E00E9414146D2D70
:103B500081E00E94141464EF71E080E090E00E9424
:103B6000A414EDCF0E94060A10921F0210922002A8
:103B7000109221021092220210921E0210921D0237
:103B80008AE20E947C1890E09093840280938302E2
:103B900080912302882321F080ED91E00E94D815C6
:103BA00065E9862E62E0962E05E812E074E0E72EC5
:103BB000F12CC0E0D0E0E8E8CE2EE3E1DE2EF8E123
:103BC000AF2EF5E1BF2E80911C02882301F1E09118
:103BD0008302F09184020C2E02C0F595E7950A94B9
:103BE000E2F7E170FF27EE0DFF1DEE0FFF1FE35D13
:103BF000FD4F8081918154E0880F991F5A95E1F71C
:103C0000D501A81BB90BF801B183A08303C0D8016B
:103C1000CD92DC92F80180819181D4018D939D93A6
:103C20004D01809123022196882391F08CEB91E045
:103C30000E94BD156AE070E0CE010E9429168FED4A
:103C400091E00E94E615F801808191810E948E1812
:103C50000E5F1F4FF5E0EF0EF11CC830D10509F0E3
:103C6000B2CF84E690E09093890080938800F89426
:103C70001092800010928100809181008260809378
:103C8000810080916F00826080936F00789422247D
:103C90002394312C38E1432E35E1532E0E947F14BA
:103CA0006093A6027093A7028093A8029093A90242
:103CB0000091AB021091AC022091AD023091AE02A6
:103CC0006B017C01C01AD10AE20AF30A49EEC4165C
:103CD00043E0D406E104F10448F40E94C80D809149
:103CE000AE048823A1F10E94060A31C06093AB02A2
:103CF0007093AC028093AD029093AE02C0E00E943C
:103D0000F719837001F1D8C1809163048093710524
:103D1000809164048093720580916504809373059B
:103D2000809166048093740520936F0580916004F0
:103D30008111EDC1109270058091F5049091F60407
:103D4000892B09F4E8C1CF5FC230C9F6C6CF809194
:103D5000FB049091FC04039759F4369909C00E9422
:103D6000DE14613177428105910510F00E94C4187C
:103D70008091A502882309F405C1B4E2AB2EB2E01C
:103D8000BB2E0DE212E0C5E8D2E085E9E82E82E024
:103D9000F82E94E0692E712CC12CD12CD7012D91D5
:103DA0003C91888199812817390709F458C08838CF
:103DB0009341A9F4F8014085518582859385840F4C
:103DC000951F97FD019695958795A4E0880F991FFB
:103DD000AA95E1F7A201481B590B598348834881F2
:103DE00059814217530734F4D8011C968D919C9148
:103DF0001D9703C0F80186859785019760912C0275
:103E000070E00C2C02C0759567950A94E2F760FF8C
:103E10000BC0D5016C91662339F0653029F0049709
:103E200097FF02C080E090E0880F991FFC01EA5ED6
:103E3000FE4F808191814217530734F4480F591F78
:103E4000241735074CF005C0481B590B4217530780
:103E50001CF05983488380C0398328837DC0F501D5
:103E60004081442309F478C0E0918302F0918402F8
:103E70000C2C02C0F595E7950A94E2F7E170FF2754
:103E8000E60DF71DEE0FFF1FE35DFD4F8081918171
:103E900074E0880F991F7A95E1F74201881A990A10
:103EA000D7018D929C9240FD34C0F80180859185A8
:103EB0000284F385E02D642F70E08E1B9F0B97FF2B
:103EC00003C0919581959109869FF001879FF00D20
:103ED000969FF00D1124E69FC001E79F900DF69F7D
:103EE000900D11246AEF70E00E94B82354E0660F31
:103EF000771F5A95E1F7293B3B4034F0861A970A21
:103F0000D7018D929C9205C0680D791DF7017183D0
:103F100060834150D5014C93809123028823E1F0C6
:103F200086EA91E00E94E6156AE070E0C6010E9410
:103F300029168EEE91E00E94E6156AE070E0F50128
:103F400080810E946C168FED91E00E94E615D701EA
:103F50008D919C910E948E18BFEFCB1ADB0AE2E094
:103F6000EE0EF11C2296FFEFAF1ABF0A065F1F4F3D
:103F700025E0620E711C38E0C316D10409F00ECFA3
:103F80001092A50280911F0290912002A09121021F
:103F9000B09122020097A105B10509F464C04091D7
:103FA000A6025091A7026091A8027091A902841BF9
:103FB000950BA60BB70B8139904DA340B10508F4C2
:103FC00052C0C0E0D0E080911D0290911E020C2EE4
:103FD00002C0959587950A94E2F780FF3BC07E0169
:103FE000F594E7948701000F111F0B561D4F85E0D4
:103FF0008E9DF0018F9DF00D1124CE0181709927C7
:10400000E80FF91FEE0FFF1FEB5CFD4F80819181E0
:1040100034E0880F991F3A95E1F7D201A81BB90B3C
:10402000F801B183A08380912302882399F08EEF59
:1040300091E00E94BD156AE070E0C70101960E9400
:1040400029168FED91E00E94E615D8018D919C9183
:104050000E948E182196C031D10509F0B4CF10927C
:104060001E0210921D020E94871318CECC2309F461
:10407000A6CA87E394E00E94D00881E08093690497
:104080006091A50464606093A50460934B0485E18E
:1040900090E00E9466056091A50460934B0485E161
:1040A00090E00E94660560E081E00E94141460E0E8
:1040B00080E00E941414FFCF0E94F719C11108C0BC
:1040C00080FF41CE81E60E94751940E061E007C0A3
:1040D00081FF39CE81E70E94751940E062E08CE2F1
:1040E0000E94E11620915704E5E3F4E0AF01455347
:1040F000544031968091570490E0481759070CF0CE
:1041000003CE82A1DF01A15CBE4F8C93EFCF51E0C3
:104110005093700511CE3092F6042092F5048091F0
:10412000F3049091F404CC9724F01092F4041092CC
:10413000F304EFE6F5E08091F3049091F40421910B
:10414000DC01AB54BB4F12962C9301969093F40470
:104150008093F3048091F9049091FA04019690936E
:10416000FA048093F904A5E0EE37FA0721F7CD971A
:10417000BCF08091F7049091F8040F968C33910570
:104180002CF49093F8048093F70404C01092F80480
:104190001092F704ECE3F0E0F093FA04E093F904F2
:1041A0001092F6041092F504CECD6F927F928F920A
:1041B0009F92AF92BF92CF92DF92EF92FF920F93B6
:1041C0001F93CF93DF93CDB7DEB7C654D1090FB697
:1041D000F894DEBF0FBECDBF1092BB021092BA02A0
:1041E00088EE93E0A0E0B0E08093BC029093BD0223
:1041F000A093BE02B093BF0282E491E09093B90213
:104200008093B80285EC90E09093C5028093C4023D
:1042100084EC90E09093C7028093C60280EC90E01B
:104220009093C9028093C80281EC90E09093CB02F6
:104230008093CA0282EC90E09093CD028093CC02EE
:1042400086EC90E09093CF028093CE021092D10240
:104250001092D2021092D3021092D40284E791E01D
:1042600090933604809335048CE691E09093380463
:104270008093370482E794E00E944F0584E691E042
:104280009093970480939604EBE9F4E080E38193A4
:1042900044E0E33AF407D9F78CE591E09093B60453
:1042A0008093B5041092AB041092810527E1FE01C2
:1042B0003196A2E5B4E001900D922A95E1F79A8338
:1042C000898321961FAE1EAE219723961FAE1EAE88
:1042D000239725961FAE1EAE259727961FAE1EAEBE
:1042E0002797DE011396E7EBF4E08D91819384E04C
:1042F000E33FF807D1F71092F4041092F304109200
:10430000F6041092F5041092F8041092F70410923B
:10431000FA041092F9048CE691E09A8389838CE286
:104320008A8781E18B8781E08C878D8785E4888B04
:1043300087E490E09F878E8781E090E00E94E623EB
:104340009C838B83CE0101960E94B908CE01019611
:104350000E94B309DA842DEDE22E23E0F22E00E074
:1043600010E0CC24CA941B8E0D1518F0CB8E8FEF65
:1043700004C0C80149960E94680590E0F701819346
:1043800091937F010F5F1F4F0C32110561F7409130
:1043900033045091340440FF0AC04E7F50933404DC
:1043A000409333046BE2CE0101960E949405EB84A6
:1043B0007884CC84D12CF4E0CF0ED11C85E5882EF6
:1043C00083E0982E99E9A92E93E0B92E0E851F85DA
:1043D000F12C66246394198A1A8A1B8A1C8A1B8E04
:1043E000EF1410F07F1410F46B8E13C0C8010E94FC
:1043F0006805898BC80101960E9468058A8BC801EF
:1044000002960E9468058B8BC80103960E9468057E
:104410008C8B3989832F90E0F401819391934F0124
:104420002A89822F90E091A380A39B89492F50E095
:10443000F501419351935F018C89482F50E051A3BE
:1044400040A3F3940C0D1D1DF1E1FF12C4CF4B816D
:104450005C8150933A04409339044D8140933B046E
:104460004E8140933C044F8140933D0448854093E6
:104470003E04498540933F044A8540934004E092BE
:1044800041044C85409342044D85409343044E853E
:104490005F85509345044093440448894093460403
:1044A00030934704209348049093490480934A042E
:1044B0008D8980934B048E899F8990934D048093BE
:1044C0004C04888D80934E04898D80934F048A8D8F
:1044D000809350048B8D80935104CE0101960E94ED
:1044E000DD0984E691E09A838983DE011696CE0188
:1044F0000E96FD0120E32193E817F907E1F78B8180
:10450000809398048C819D8190939A048093990460
:10451000EBE9F4E08D91819344E0E33AF407D1F7BD
:104520008E858093A3048F858093A40488898093CB
:10453000A50489898093A6048A898093A70481E1D0
:104540008093A8048CE28093AA0481E08093A9045C
:10455000CE0101960E944F058B81809374048C815B
:10456000809375048D81809376048E818093770487
:104570008F819885909379048093780489859A85B2
:1045800090937B0480937A048B859C8590937D0423
:1045900080937C048D859E8590937F0480937E0418
:1045A0008F859889909381048093800489899A8962
:1045B00090938304809382048B8980938404DE012A
:1045C0005496E5E8F4E08D91819384E0ED38F807A6
:1045D000D1F78C8D80938D048D8D80938E048E8D7C
:1045E00080938F048F8D8093900488A18093910491
:1045F00089A19AA190939304809392048BA18093B4
:1046000094048CA1809395048091AB048160809385
:10461000AB041092AC040FEF00938705009388055C
:1046200011E01093890510928A050E94DE146093B0
:104630008B0570938C0580938D0590938E05109259
:1046400083051092820510929205109291051092A6
:10465000AD041093AE0400938F05109390058CE287
:1046600091E0A0E0B0E08093AF049093B004A093F9
:10467000B104B093B20487E394E00E94B30980913F
:104680003C0490913D0498278927982790934D04E6
:1046900080934C0490939A048093990480913B04F6
:1046A0008093980480914B048093A504109369042F
:1046B00083E090E09093FC048093FB04CA5BDF4F9F
:1046C0000FB6F894DEBF0FBECDBFDF91CF911F9123
:1046D0000F91FF90EF90DF90CF90BF90AF909F90A1
:1046E0008F907F906F900895F999FECF92BD81BD14
:1046F000F89A992780B50895262FF999FECF1FBA09
:1047000092BD81BD20BD0FB6F894FA9AF99A0FBEFA
:1047100001960895A1E21A2EAA1BBB1BFD010DC034
:10472000AA1FBB1FEE1FFF1FA217B307E407F50761
:1047300020F0A21BB30BE40BF50B661F771F881F3D
:10474000991F1A9469F760957095809590959B01D3
:10475000AC01BD01CF010895991B79E004C0991FF8
:10476000961708F0961B881F7A95C9F780950895CB
:1047700097FB072E16F4009407D077FD09D00E940E
:10478000D22307FC05D03EF4909581959F4F089564
:10479000709561957F4F0895EE0FFF1F0590F4917E
:1047A000E02D0994AA1BBB1B51E107C0AA1FBB1F28
:1047B000A617B70710F0A61BB70B881F991F5A95AD
:1047C000A9F780959095BC01CD0108950F931F9393
:1047D000CF93DF938230910510F482E090E0E09176
:1047E0009905F0919A0520E030E0A0E0B0E0309724
:1047F00019F1408151810281138148175907C8F08E
:104800008417950769F4109731F012960C9312975C
:1048100013961C9327C00093990510939A0522C004
:104820002115310519F04217530718F49A01BD01FB
:10483000EF01DF01F801DBCF21153105F9F0281B6D
:10484000390B2430310580F48A819B816115710513
:1048500021F0FB019383828304C090939A05809397
:104860009905FE01329644C0FE01E20FF31F8193C9
:10487000919322503109398328833AC020919705BA
:1048800030919805232B41F42091020130910301CE
:1048900030939805209397052091000130910101F4
:1048A0002115310541F42DB73EB7409104015091D7
:1048B0000501241B350BE0919705F0919805E2174F
:1048C000F307A0F42E1B3F0B2817390778F0AC0133
:1048D0004E5F5F4F2417350748F04E0F5F1F509310
:1048E0009805409397058193919302C0E0E0F0E032
:1048F000CF01DF91CF911F910F910895CF93DF9357
:10490000009709F481C0FC01329713821282A091B2
:104910009905B0919A05109781F420813181820F19
:10492000931F20919705309198052817390751F565
:10493000F0939805E093970567C0ED0120E030E023
:10494000CE17DF0740F44A815B819E014115510576
:10495000F1F0EA01F5CFD383C28340815181840F06
:10496000951FC817D90759F488819981840F951F1D
:104970000296918380838A819B8193838283211510
:10498000310529F4F0939A05E09399053DC0E901BA
:10499000FB83EA8349915991C40FD51FEC17FD079A
:1049A00061F480819181840F951F0296E9019983BA
:1049B0008883828193819B838A83E0E0F0E0129672
:1049C0008D919C911397009719F0FD01DC01F7CFB1
:1049D0008D919C9111979D012E5F3F4F820F931FE8
:1049E00020919705309198052817390769F4309779
:1049F00029F410929A051092990502C0138212822E
:104A0000B0939805A0939705DF91CF91089581E029
:104A100090E0F8940C940C2511E0CBE2D1E004C0B6
:104A2000FE010E94CC232196CC32D107C9F7F8941D
:024A3000FFCFB6
:104A320000009B0580001514131211100F0E0203C3
:104A420004050607080904000500070009000C0018
:104A5200100016001E00280037004A00640087007C
:104A6200B700F7004D01C201600234035304000095
:104A720000001E138812B6126513E712C512D9126E
:104A8200000000004E05090500000000050A0D05A2
:104A92000000000065050B0500000000DD09E909C2
:104AA20000000000F309FB09304050557365725F46
:104AB20046756E6374696F6E3A20004576656E7452
:104AC2004D6174636820004576656E745661723A72
:104AD2002000536F4400536572766F000D0A004F39
:104AE20050433A2000204E6F64653A200020436113
:104AF2006E49443A2000204D6573736167655369BE
:104B02007A653A20002053746174653A20002020AF
:104B120000415244534552564F002A002100206260
:064B22006F756E63650073
:00000001FF
