:100000000C948A020C94B2020C94B2020C94B202C8
:100010000C94B2020C94B2020C94B2020C94B20290
:100020000C94B2020C94B2020C94B2020C943714E9
:100030000C94B2020C94B2020C94B2020C94B20270
:100040000C94181D0C94B2020C9498160C94721611
:100050000C94B2020C94B2020C94B2020C94B20250
:100060000C94B2020C94B2027108740877087A08F2
:100070007D088008830886084641494C4544207421
:100080006F2073656E642043414E00000000002322
:1000900000260029000404040404040404020202EB
:1000A00002020203030303030301020408102040B9
:1000B0008001020408102001020408102000000042
:1000C0000800020100000304070000000000000017
:1000D00000536572766F2000536572766F2000536F
:1000E000657474696E67737661726961626C6520AC
:1000F00000454550524F4D2D446174656E3A005590
:1001000070646174655F7061726100496E7320454F
:100110004550524F4D20676573706569636865721D
:10012000740053617665205374617475730053686D
:100130006F72743A204576656E74002020204576F3
:10014000656E7420004C6F6E673A204E6F64654E8A
:100150006F200077726974652076617220746F2059
:10016000656570726F6D002000564152532000206B
:1001700000200020000A4556454E54533A00200006
:100180000A4445562D4E554D424552533A002000E3
:100190000A494E5445524E414C2056415253202854
:1001A0000020000A4E4F444520564152533A000A5F
:1001B0004E554D204556454E545320564152533AC4
:1001C000000A4E554D204556454E54533A000A46B6
:1001D0006C6167733A000A4E4E3A000A43414E5F23
:1001E00049443A004944454E543A004D454D4F521A
:1001F000592044554D5000426569737069656C3AE9
:10020000203C313A523E206F646572203C363A31D0
:100210003530303E0020202020202065696E65208A
:100220005A61686C207A7769736368656E20302044
:10023000756E64203235362066756572207374756C
:1002400066656E6C6F7365205665727374656C6C51
:10025000756E6720756562657220726F6372616981
:100260006C20436F64696572756E6720284D6974F0
:1002700074656C7374656C6C756E67206C6965670A
:10028000742062656920313530290020202020202B
:100290002065696E65205A61686C207A776973639E
:1002A00068656E2037353020756E64203235303009
:1002B00020667565722073747566656E6C6F736504
:1002C000205665727374656C6C756E6720284D6975
:1002D0007474656C7374656C6C756E67206C69659D
:1002E00067742062656920313530306D6373290091
:1002F000202020202020275227206675657220723A
:10030000656368746520536572766F7374656C6C91
:10031000756E6700202020202020274C272066753E
:100320006572206C696E6B6520536572766F7374AD
:10033000656C6C756E670020207820697374206589
:100340006E7477656465720020206E206973742076
:1003500064696520536572766F6E756D6D65722088
:1003600028312D3829003C6E3A783E005365726979
:10037000656C6C65205374656C6C6B6F6D6D616E34
:10038000646F73206D697420273C2720626567695C
:100390006E6E656E20756E6420273E27206265654F
:1003A0006E64656E00416E6C656974756E670053AE
:1003B0007461727400536572766F737461727470D5
:1003C0006F736974696F6E206E6963687420676506
:1003D0006C6164656E00536572766F00686967686A
:1003E00020006C6F77200052656C6169733A00479A
:1003F000657370656963686572746520506F7369B1
:1004000074696F6E20006D6373006D6373202D201F
:1004100000202D3E207468656F726574697363688F
:10042000206D6178696D616C206D6F65676C6963C3
:10043000683A2000536572766F73707265697475DF
:100440006E673A20004172647543414E2D536572C8
:10045000766F2056657273696F6E20004B65696E0A
:100460002041544D65676133323850422120536535
:1004700072766F6175736761656E6765203120758F
:100480006E642032206E69636874207665727765C9
:100490006E64626172006D6373003A20005365728E
:1004A000766F2000756E6775656C7469676520539B
:1004B0006572766F6E756D6D65720020496E732082
:1004C000454550524F4D2067657370656963686597
:1004D0007274005361766520506F736974696F6E32
:1004E00020466C61673A00536572766F0020205396
:1004F0004C20746F6F206269673A0000000000248E
:100500000027002A0000000000250028002B000022
:10051000F226621D11241FBECFEFD8E0DEBFCDBF93
:1005200012E0A0E0B1E0EAE6FCE502C005900D9221
:10053000AA32B107D9F725E0AAE2B2E001C01D92C4
:10054000A93EB207E1F712E0C9E8D2E004C0219762
:10055000FE010E94F729C838D107C9F70E94661D1D
:100560000C94282E0C9400002F923F924F925F9291
:100570006F927F928F929F92AF92BF92CF92DF92B3
:10058000EF92FF920F931F93CF93DF9300D000D091
:100590001F92CDB7DEB78091CC058F3F29F48091B3
:1005A000CB058F3F09F44FC00E940C1D0091CF0571
:1005B0001091D0052091D1053091D205DC01CB01FD
:1005C000801B910BA20BB30B84369105A105B105DD
:1005D000D0F180913F05909140050597A9F4809155
:1005E000CE05813041F460E08091CC050E947A1BF9
:1005F0001092CE051EC061E08091CC050E947A1B4E
:1006000081E08093CE0515C08091AD04813039F42E
:1006100060E08091CB050E947A1B61E006C061E03A
:100620008091CB050E947A1B60E08091CC050E94EE
:100630007A1B0E940C1D6093CF057093D0058093A8
:10064000D1059093D2052091D3052F3F09F432C0F4
:1006500030E0F901E354FF4F8491F901E755FF4F72
:1006600044914B83F901EB56FF4F54915983552325
:1006700089F081110E94511B6981E62FF0E0EE0F95
:10068000FF1FE557FF4FA591B491EC917B81E723C4
:1006900009F0FAC68091D405813061F40E940C1DE6
:1006A0006093410570934205809343059093440500
:1006B0001092D40580913F0590914005049709F070
:1006C0007BC00E940C1D00914105109142052091B4
:1006D000430530914405DC01CB01801B910BA20B3B
:1006E000B30B893E9340A105B10508F465C083E0D2
:1006F00090E09093400580933F054091C505A6E4A6
:10070000B5E081E0841740F02091C50530E0E5E4D4
:10071000F5E080E090E01AC02D919FEF980F092F2F
:1007200010E0B8016B5B7A4FFB013081F801EA5BA6
:10073000FA4F231718F430839150F1CF20838F5F45
:10074000E1CF41915981541738F0019641E0480FAB
:10075000498382179307ACF3898180937F04482FE4
:1007600062E170E08BE794E00E945A0B99819093CC
:10077000DC048091F0048823F9F08091DD049091ED
:10078000DE0422E52093AE049093AF048093B0047E
:100790001092B1041092B2041092B3041092B404F7
:1007A0001092B504E9816E2F70E080E090E02EEAAF
:1007B00034E043E00E944A193EEA232E35E0332E0E
:1007C00041ED642E44E0742E5DEAA52E55E0B52E71
:1007D00063E0C62ED12C5524539473E6872E912CBA
:1007E0001092F1048091390590913A05892B09F016
:1007F00029C721E030E030933A05209339058091F4
:100800003D0590913E05181619062CF010923A05F8
:100810001092390517C780913B0590913C05CC9704
:1008200024F010923C0510923B05EFE9F5E0A09111
:100830003B05B0913C05A750BB4F12968C9181931C
:1008400080913B0590913C05019690933C058093E7
:100850003B0580913D0590913E05019790933E05A3
:1008600080933D052E163F0611F710923A0510921F
:100870003905E9ECF4E011926E167F06E1F710926B
:10088000D5041092D7041092D6041092D804809107
:100890009F058093BB048091A1058093D104809132
:1008A000A2058093D2048091A3058093D304809104
:1008B000A4058093D404E5EAF5E08191DF01AD5D04
:1008C000B1098C93AE16BF06C1F78091C90480931D
:1008D000B904843008F4B4C0873009F4B1C0282FBB
:1008E0002F7B2F3309F4ACC092EA980F923008F4B2
:1008F000A7C0982F9F7D9F3909F4A2C0863B09F4B9
:100900009FC08F3D09F49CC03CEF380F333008F492
:100910009AC038EF380F333008F495C03FED380FE8
:10092000333008F490C0803409F48DC03CEB380FAC
:10093000373008F488C08C3409F485C0382F3F77ED
:1009400040EA430F423008F47EC0333609F47BC0DE
:10095000903809F478C03EE7380F343008F473C09B
:10096000823A09F470C030E4380F323008F46BC0BA
:1009700036EA380F323008F469C030E7380F3530C6
:1009800008F464C038E6380F333008F45FC09D596E
:10099000923008F45BC0982F977F905B923008F4F8
:1009A00055C09DE4920F923008F450C091E3980F27
:1009B000933008F44BC09CE2980F923008F446C084
:1009C00098E2980F923008F441C093E2980F923069
:1009D000E8F190E1980F9230C8F19AE0980F9630C4
:1009E000A8F193E0980F933088F194EF980F92302C
:1009F00080F190EF980F923060F1823451F190EBDA
:100A0000980F9A3030F194EA980F923010F191E9F2
:100A1000980F9730F0F09BE6980F9330D0F095E662
:100A2000980F9230B0F0223BA1F0253B91F09EE26E
:100A3000980F923070F0823E61F08F3E69F409C0E9
:100A400084E090E00BC081E090E008C083E090E09B
:100A500005C082E090E002C080E090E09093BD0489
:100A60008093BC048091A00581115092D80480E04D
:100A70000E947E1A81FB112710F986EB94E00E94F8
:100A8000D116082F882319F0112309F498C586EB95
:100A900094E00E94E6168823C9F086EB94E00E9459
:100AA000FB169A8389830097B1F0AC0160E070E097
:100AB0008BE794E00E942E0C2091850430E0482FB3
:100AC00050E0241735070CF4B0C536C00023E1F020
:100AD0001130D1F404C0002389F1113079F586EB8F
:100AE00094E00E942617009779F0AC0160E070E076
:100AF0008BE794E00E942E0C2091850430E0482F73
:100B000050E024173507C4F486EB94E00E94FB16EE
:100B10009A838983892B91F049815A8160E070E042
:100B20008BE794E00E942E0C2091850430E0482F42
:100B300050E02417350714F08F5F01C080E08093E8
:100B4000F1048091D804882389F08091DD0490918C
:100B5000DE04892B59F06091DC0470E080E090E0C5
:100B60002EEA34E040E00E944A193ACEE0903F0578
:100B7000F090400534E0E316F10401F58091BB04E8
:100B800081112ECE2091C505233608F029CE809103
:100B9000D10440E1849FC00111249091D204929528
:100BA00096959770892B8093B804E22FF0E0EB5B69
:100BB000FA4F80832F5F2093C50512CE8091BC042D
:100BC0009091BD048230910561F140F4019709F0E4
:100BD0004EC4E091C805F091C9051AC0E091C60560
:100BE000F091C7058330910519F0049731F03FC4A7
:100BF0008091E90480FD3BC40BC08091E90480FD35
:100C000036C48091B904873009F0F4C40C94000014
:100C1000309709F42CC469E774E086EB94E00995F9
:100C200026C41091B90486EB94E00E9441179A8380
:100C300089836091DD047091DE047C836B83861769
:100C4000970771F0C7010297039750F41D3009F41C
:100C500077C0103109F4B3C0113109F0C1CDE0C043
:100C60001D3509F4D3C1A0F5133509F440C178F45A
:100C7000103109F4A4C020F41D3009F0B1CD60C0DA
:100C8000113109F4CDC0123409F402C1A9CD1635D1
:100C900009F456C138F4143509F430C1153509F496
:100CA00042C19ECD173509F466C1183509F098CDBB
:100CB0001092D5058091820494E79093AE049C81B4
:100CC0009093AF04EB81E093B0048093B104C4C36C
:100CD000153909F42DC210F5123709F4B3C120F407
:100CE000113709F49FC17CCD133709F4DAC11537E8
:100CF00009F076CD1092D50583E68093DC048093CD
:100D00007F0443E662E170E08BE794E00E945A0BB7
:100D10008091DD049091DE0422E596C3123B09F434
:100D2000D5C238F4163909F435C21C3909F4A0C209
:100D300057CD123D09F4FEC2153F09F4F2C250CD61
:100D40008B819C81892B09F44BCD1092D505809124
:100D5000DC0490E0EB81FC81E817F90731F0909317
:100D6000DE048093DD040E94F71A8091E9049091DB
:100D7000E8042091E7043091DD044091DE04F6EBB5
:100D8000F093AE044093AF043093B0042093B104C9
:100D90009093B2048093B3045092B40428E020935B
:100DA000B5046B817C81660F771F4B815C81460F98
:100DB000571FBA0180E090E00E94D21C92C01092AE
:100DC000D5058091DC0490E06B817C816817790700
:100DD00031F09093DE048093DD040E94F71A809135
:100DE0003F0590914005059709F0FACCEEEAF4E052
:100DF00086EB94E011928E179F07E1F78091EB0448
:100E00009091EE042091ED043091EC044091E804BF
:100E10005091EA046091E7047FEE7093AE0427C01E
:100E20001092D5058091DC0490E0EB81FC81E817FD
:100E3000F90731F09093DE048093DD040E94F71AE5
:100E400080913F0590914005059701F58091E5045B
:100E50009091E4042091E3043091E2044091E10494
:100E60005091E0046091DF04F2EEF093AE046093E1
:100E7000AF045093B0044093B1043093B204209374
:100E8000B3049093B4048093B5042BC083E099C05D
:100E90001092D50525E0E216F104C1F786EB94E047
:100EA0000E9441179093DE048093DD040E94F71A9C
:100EB0008091DD049091DE0422E52093AE049093AE
:100EC000AF048093B0041092B1041092B204109257
:100ED000B3041092B4041092B504D0924005C092AD
:100EE0003F050E943B1A882309F47ACCC0C21092B5
:100EF000D5051092400510923F0572CC1092D50591
:100F00008091DC0490E04B815C814817590731F0F7
:100F10009093DE048093DD040E94F71AD09240057E
:100F2000C0923F05A2C1EF2809F05ACC40E067E12A
:100F300070E08BE794E00E945A0B1092820450CC30
:100F40001092D5058091EC0490918204891B90E762
:100F50009093AE045C815093AF046B816093B004B6
:100F60008093B1041092B2041092B3041092B404AE
:100F70001092B504B6CF1092D505F0908204FF20F0
:100F800009F42ECC8BE20E947E1A80FD02C010E094
:100F900003C019E099E0F92E4C8000E082EFE82EC2
:100FA0008BE20E947E1A80FF03C0113109F418E021
:100FB000812F0E945F18FC0180919504882321F005
:100FC0008AE00E946C1A0CCC83819281218130814D
:100FD000E092AE044092AF047B817093B0043093F2
:100FE000B1042093B2049093B3048093B4040093AB
:100FF000B5040E943B1A882321F088E790E00E9404
:10100000DF181F5F0F5FF012CBCFEACB29813A8147
:101010004B815C812417350709F0E2CB81E00E9407
:101020000D1BDECB1092D5051091CC048BE20E94F3
:101030007E1A80FFE3C28DEF810F843108F0DEC29B
:1010400083E1DDC21092D505EEEAF4E0119274E07E
:10105000E63BF707D9F70E94C91A182F8FEF810FC7
:101060000E945F18FC0180919504882311F086E0AE
:10107000A8CF838192812181308142EF4093AE04D9
:10108000EC81E093AF04FB81F093B0043093B104A2
:101090002093B2049093B3048093B4041093B504E6
:1010A000E3C11092D5059091CC0491110FC08BE94A
:1010B0008093AE042C812093AF043B813093B00425
:1010C0001092B10448E04093B204C8C1492F50E0E7
:1010D000FA013197E830F105E0F4EC5CFF4F0C9435
:1010E000F7298091E70416C08091EA0413C080912B
:1010F000E80410C08091EC040DC08091ED040AC09A
:101100008091EE0407C08091EB0404C08091E90453
:1011100001C080E02BE92093AE045C815093AF04C2
:101120006B816093B0049093B1048093B20496C134
:101130001092D50586EB94E00E9426179A83898346
:1011400086EB94E00E94411749815A81BC018BE7EC
:1011500094E00E942E0C898310924505109246055A
:101160001092470510924805482F65E475E08BE71B
:1011700094E00E94CE0E7981781379CF672F70E0CA
:1011800020E040E08BE794E00E94B20B882309F452
:1011900027CB16CF8091D505811122CB1091CC049D
:1011A0008FEF810F89839091CD049B838130F1F47F
:1011B0009E3F81F48BE794E00E944F0F5092D5053B
:1011C0009092DE048092DD0483E690E00E94F71A9C
:1011D000E3E6EB83FB81F093DC04F0937F044F2F75
:1011E00062E170E08BE794E00E945A0B8BE20E9470
:1011F0007E1A80FF05C08DEF810F843108F412C282
:101200008091EE0429818217F0F04B81622F8BE7E9
:1012100094E00E94E00B8091DD049091DE0429E5CA
:101220002093AE049093AF048093B0041092B10465
:101230001092B2041092B3041092B4041092B50448
:101240000E943B1A06C039813F3F19F089E00E9495
:101250006C1A898165E00E94D7299350923028F456
:10126000498141504093F204BBCA5092F204B8CA7B
:101270001092D5050E94C91A8B830E94E01A8983B7
:101280008091ED045981851708F49ACE452F41507D
:101290006B8161508BE794E00E94100C9091950453
:1012A00091118ECE9091DD042091DE0435EB3093C8
:1012B000AE042093AF049093B0046B816093B104AB
:1012C00079817093B2048093B304CAC01092D5059B
:1012D000EF2871F50E94E01A182F0E945F189A8378
:1012E000898340E0612F8BE794E00E94100C90917D
:1012F00095049111BCCEE981FA81938122813181DB
:10130000408153ED5093AE044093AF043093B0044A
:101310002093B1049093B2041093B3048093B40467
:10132000A1C08091D50581115BCAEF2809F44CC09A
:1013300082E047CE8091D505811152CA86EB94E0B8
:101340000E9426178D83F92E0E94E01A8B83E0906D
:10135000CF04FA81F0934505298120934605F09248
:1013600047053D81309348058BE20E947E1A80FF3D
:1013700005C04B81483010F4475F4B838B8184500C
:10138000843020F09B819D50943048F40E945F1877
:10139000FC012081209345058181809346054B8186
:1013A00065E475E08BE794E00E94CE0EFB81F813B4
:1013B0005ECE6F2F70E02E2D40E08BE794E00E9410
:1013C000B20B8111FDCD3BC086EB94E00E94261745
:1013D000F82EE92E0E94E01A8B834090D0040E94E0
:1013E000C91A8D832A81209345053981309346059A
:1013F000E0924705F0924805482F415065E475E0BA
:101400008BE794E00E94CE0E682F70E04D81842F10
:1014100090E001976817790709F029CE4B81415078
:10142000242D8BE794E00E94B20B90E07B81672F24
:1014300070E0615071098617970709F0C1CD80915E
:10144000DD049091DE0429E52093AE049093AF046F
:101450008093B0041092B1041092B2041092B304BD
:101460001092B4041092B5040E943B1AB9C9E091DD
:10147000C605F091C705309709F4B2C969E774E071
:1014800086EB94E00995ACC98091D405811112C90D
:1014900081E08093D4050E940C1D009141051091BC
:1014A00042052091430530914405DC01CB01801BAE
:1014B000910BA20BB30B8C019D01095E1340210916
:1014C00031090738134121053105A8F42091AD04F5
:1014D00080913F0590914005213049F4059761F5D1
:1014E00083E090E09093400580933F05E3C8059723
:1014F00009F0E0C8F5CF81379741A105B10508F49F
:10150000D9C88091AD04811135C080913F0590917B
:101510004005059729F360E08091CB050E947A1B76
:1015200080E00E940D1B80913F059091400504973B
:1015300019F40E94B402F7CF85E090E09093400543
:1015400080933F058091DD049091DE0420E5209397
:10155000AE049093AF048093B0041092B104109243
:10156000B2041092B3041092B4041092B5040E9415
:101570003B1AA0C81092AD044091E9044B7F409300
:10158000E90440938F0465E170E08BE794E00E94EA
:101590005A0B8091E90481FD07C01092DE0410927D
:1015A000DD0480E090E008C08091F3049091F404A1
:1015B0009093DE048093DD040E94F71A7BC886EBCB
:1015C00094E00E9426179A83898386EB94E00E9418
:1015D000411749815A81BC018BE794E00E942E0C8F
:1015E0002091850430E0482F50E0241735070CF493
:1015F0004ECAA2CA8E3509F409CB0ACB8FEF810FF0
:101600000E947E1A909195049111DACC97E99093FB
:10161000AE045C815093AF046B816093B00410936F
:10162000B10483CD1D5E1983EBCD002309F474CA88
:10163000113009F454CA86EB94E00E94FB169A8399
:1016400089836ACA80E00F900F900F900F900F90DF
:10165000DF91CF911F910F91FF90EF90DF90CF908E
:10166000BF90AF909F908F907F906F905F904F90C2
:101670003F902F9008950C94A92A0C94A92A0C94B9
:101680009829FC0184E591E091838083DF015396E2
:10169000CF014B961D92A817B907E1F7138E148E50
:1016A000158E168E178E11A210A212A208950895FB
:1016B0000C949029CF92DF92EF92FF921F93CF93D9
:1016C000DF937C016B01142FCB010E94580B811713
:1016D00021F0612FC6010E943F0BF701838590E046
:1016E00004962285289FE001299FD00D112485852D
:1016F0009685C80FD91FC535F1E0DF075CF5CC0D25
:10170000DD1DCE010E94580B181721F0612FCE016C
:101710000E943F0BF701838590E004964285489F25
:101720009001499F300D112485859685820F931F66
:10173000C80FD91FCE010E94580B181759F0612FFE
:10174000CE01DF91CF911F91FF90EF90DF90CF906E
:101750000C943F0BDF91CF911F91FF90EF90DF90A2
:10176000CF900895CF93DC01942F17964C91179743
:1017700050E06417750718F081E0890F1FC01B96B1
:10178000EC911B979E17C0F7422FC92FCD01F0E0B7
:101790003496E69FD001E79FB00DF69FB00D11245F
:1017A000FC0125853685BD01620F731FEC2FF0E02B
:1017B00034966E0F7F1F0E945A0B8C2FCF91089585
:1017C000EF92FF921F93CF93DF93FC0121852617A1
:1017D00008F1142F7C01C62FD0E0FE01EE0FFF1F91
:1017E000EF5DFB4F842F90E0918380836996CE015B
:1017F0000E94580B181771F083E591E00E94DF18E2
:10180000412FBE01C701DF91CF911F91FF90EF9053
:101810000C945A0BDF91CF911F91FF90EF90089598
:10182000FC01128E87816817B0F42385421798F463
:1018300030E02C5F3F4F629FD001639FB00D1124B9
:10184000858596858A0F9B1F50E04C5F5F4F840F04
:10185000951F0C94580B8FEF828F0895CF92DF92D3
:10186000EF92FF920F931F93CF93DF93EC01252FFD
:101870003327862F072F1127F02EEF80A9E9B3E039
:10188000EDEDF3E090E077275527E916F9F0F11038
:1018900002C0882369F0CD90DC9011970C151D05CE
:1018A00089F49296CD90DC9093976C157D0551F458
:1018B000C080D1802C153D0529F4C2A0D3A04C15C1
:1018C0005D0541F09F5F12963296DFCF9A8581E0E9
:1018D000890F01C0892FDF91CF911F910F91FF9048
:1018E000EF90DF90CF900895AF92BF92CF92DF92AA
:1018F000EF92FF920F931F93CF93DF93EC017B0145
:10190000FB01E858FF4F108180915E02882309F4A3
:101910008BC18BE791E00E949317812F0E942718BB
:10192000112309F483C180915E02882309F443C026
:101930008BE891E00E949317812F0E94271887E976
:1019400091E00E949317CE010E94E61697012E5F48
:101950003F4F6901882339F0CE010E94FB16AC018C
:1019600060E070E009C0CE010E9426175C01CE0144
:101970000E944117A501BC01C6010E942E0CF7016F
:10198000ED58FF4F9081891730F440E0682FC60171
:101990000E94100C01C080E00E94271882EA91E0AA
:1019A0000E9493176AE070E08B810E94191884EB03
:1019B00091E00E94A91A8B81982F977F903919F096
:1019C00091E0813009F490E08FEF810F813108F0D0
:1019D000DAC14091E2025091E3026091E402709119
:1019E000E502409351025093520260935302709368
:1019F000540220915E02883009F069C0222321F050
:101A000088EA91E00E94A91A80915602882309F47D
:101A1000BAC1E1EDEE2EE2E0FE2E00E612E0C0E0FB
:101A2000D0E0F4E0AF2EB12CA8E1CA2EA5E1DA2E69
:101A3000E091BF02F091C0020C2E02C0F595E7952F
:101A40000A94E2F7E170FF27EA0DFB1DEE0FFF1F7E
:101A5000E759FD4F8081918174E0880F991F7A9535
:101A6000E1F7A601481B590BF70151834083F801A8
:101A70001082219680915E028823E1F08CEA91E049
:101A80000E9493176AE070E0CE010E94D6178FED96
:101A900091E00E9493176AE070E0F70180819181E4
:101AA0000E94D6178FED91E00E949317F801808174
:101AB0000E942718F5E0AF0EB11C22E0E20EF11CE7
:101AC0000F5F1F4FC830D10509F0B2CF5CC1913014
:101AD00011F483E0810F893008F08150E091BF025A
:101AE000F091C002982F9770943028F0845088307D
:101AF00040F091E003C08830C0F090E0845099231A
:101B0000A1F041E050E060E070E0082E04C0440F16
:101B1000551F661F771F0A94D2F7E42BF52BF0931D
:101B2000C002E093BF02E1E015C041E050E060E098
:101B300070E0082E04C0440F551F661F771F0A94DB
:101B4000D2F7409550954E235F235093C0024093A7
:101B5000BF02E0E0082F10E0E801CC0FDD1FDE013E
:101B6000AF52BD4FF0E035E0839FE00DF11D112431
:101B7000EE0FFF1FEF58FD4F6081718154E0660F3B
:101B8000771F5A95E1F748E155E1461B570B4D93F6
:101B90005C934091680250E0BA0102C07595679568
:101BA0008A95E2F7F801E05AFD4F7F0160FF03C01C
:101BB00085E0808301C01082222309F4E4C08CEA0E
:101BC00091E00E9493176AE070E0C80101960E94BC
:101BD000D6178FED91E00E949317FE01EF52FD4F53
:101BE0006AE070E0808191810E94D6178FED91E0CC
:101BF0000E949317CF53DD4F6AE070E0888199818E
:101C00000E94D6178FED91E00E949317F701808113
:101C1000DF91CF911F910F91FF90EF90DF90CF90C8
:101C2000BF90AF900C9427181111C5CE8B818830CE
:101C3000C1F4809156028823A1F080915E0288232E
:101C400021F082E291E00E94DF188AE20E947E1A6F
:101C50004091BF025091C00290E08417950709F0AF
:101C600080C080915E02882309F48DC0CE010E945D
:101C7000D116882389F085E491E00E949918CE015D
:101C80000E9441170E94A31A8BE391E00E949918C9
:101C9000CE010E9426170CC0CE010E94E6168823B2
:101CA000B9F08EE291E00E949918CE010E94FB16D5
:101CB0000E94A31A82EB91E0DF91CF911F910F91C7
:101CC000FF90EF90DF90CF90BF90AF900C94811772
:101CD00082EA91E00E94931760E170E08B810E949C
:101CE000191885EB91E00E949317CE010E944117CD
:101CF0000E94A31A8DEB91E00E9493172B8DF0E1C7
:101D00002F9F900111248C8D829586958770822B50
:101D10008A836AE070E00E94191886EC91E00E94C4
:101D200093178B8990E025E0959587952A95E1F7A3
:101D30008C836AE070E00E94191885ED91E00E94A2
:101D4000931780913F0590914005DF91CF911F91AE
:101D50000F91FF90EF90DF90CF90BF90AF900C94D9
:101D6000931A8091EE048A3228F06AE28BE794E0BD
:101D70000E94E00B80915E02882329F08BE091E0C5
:101D80000E94DF186ECFDF91CF911F910F91FF90CE
:101D9000EF90DF90CF90BF90AF900895AF92BF9239
:101DA000CF92DF92EF92FF921F93CF93DF93DC01EC
:101DB0001A969C911A97491718F081E0890F4EC026
:101DC000142FFB017D01242F30E0D901AA0FBB1F86
:101DD000A756BC4F808190E08D939C93D901AA0FA8
:101DE000BB1FA554BC4F818190E08D939C93D9017A
:101DF000AA0FBB1FA352BC4F828190E08D939C938E
:101E0000D901AA0FBB1FA150BC4F838190E08D93D5
:101E10009C93D7011B968C911B9790E00496829F10
:101E20006001839FD00C929FD00C11241D968D9140
:101E30009C911E97C80ED91E5B01B4E0AB0EB11C7D
:101E4000EB01C61AD70AB6016C0F7D1F4991C70175
:101E50000E945A0BCA15DB05B1F7812FDF91CF9194
:101E60001F91FF90EF90DF90CF90BF90AF900895BB
:101E7000FC0180E090E0238530E0821793073CF47A
:101E8000A281B381A80FB91F1C920196F4CF83E6FB
:101E90008483158287EC86831782148A0895BF9203
:101EA000CF92DF92EF92FF920F931F93CF93DF9326
:101EB00000D000D0CDB7DEB78C010E94380FF801FA
:101EC0008285878319821A8282E48B838CEC8C83CF
:101ED000C12CD12CE12CF12CBE2C4E2DBE016F5FFC
:101EE0007F4FC8010E94CE0E20E040E0B701C8013C
:101EF0000E94B20B8C818F5F8C83811103C08B8118
:101F00008F5F8B8344E04B0DBE016F5F7F4FC80135
:101F10000E94CE0E20E040E0B7016C5F7F4FC80109
:101F20000E94B20B8C818F5F8C83811103C08B81E7
:101F30008F5F8B838FEFE81AF80AEFEFCE1ADE0A75
:101F4000F8E0CF16D10441F0F4E0CF16D10421F629
:101F500099E0E92EF12CC0CF19821A8282E18B839D
:101F600087E68C8348E0BE016F5F7F4FC8010E9407
:101F7000CE0E20E040E068E070E0C8010E94B20BA5
:101F800042E060E0C8010E94E00B42E060E0C8016E
:101F90000E94E00B43E661E0C8010E94E00B82E092
:101FA000F82E40E06F2DC8010E94E00B61E06F0D3C
:101FB0004BE4C8010E94E00B62E06F0D41EEC801E6
:101FC0000E94E00B63E06F0D4DE0C8010E94E00B42
:101FD00064E06F0D4DE0C8010E94E00B85E0F80E53
:101FE000EAE2FE12DECF40E06BE2C8010E94E00BA5
:101FF00040E06AE2C8010E94E00B49E560E070E061
:10200000C8010E945A0BF801448162E170E0C801E6
:102010000E945A0BF801458163E170E0C8010E94FB
:102020005A0BF801468164E170E0C8010E945A0B26
:10203000F801448965E170E0C8010E945A0BF8017B
:10204000478167E170E0C8010E945A0BF80143859F
:1020500068E170E0C8010E945A0B60E08DEF93E0E8
:102060000E943F0B60E08EEF93E00E943F0B60E028
:102070008FEF93E00E943F0BC8010E944D100F901C
:102080000F900F900F90DF91CF911F910F91FF90C4
:10209000EF90DF90CF90BF9008955F926F927F9204
:1020A0008F929F92AF92BF92CF92DF92EF92FF9268
:1020B0000F931F93CF93DF93EC010E94380F8B8512
:1020C00090E004962A85289F7001299FF00C112426
:1020D0008D859E85E80EF91E85E5E81681E0F806F7
:1020E0000CF06AC08FEF93E00E94580B782E8EEFB1
:1020F00093E00E94580B182F8DEF93E00E94580B2D
:10210000711681F0781681F0181306C0612F8EEFDA
:1021100093E00E943F0B712E5701AA0CBB1C00E0FC
:1021200010E024C07816C1F3672D8FEF93E00E9472
:102130003F0BF2CFC8010E94580B682E48018E0C4D
:102140009F1CC4010E94580B582E6501C00ED11E61
:10215000C6010E94580B651491F068120BC0662DE1
:10216000C4010E943F0B73940F5F1F4F0E151F0594
:102170000CF30DC05812F8CF652DC801F2CF6816C8
:1021800099F37394662DC6010E943F0BEDCF8FEF3C
:1021900093E00E94580B781679F0672D8DEF93E04D
:1021A0000E943F0B672D8EEF93E00E943F0B672D3F
:1021B0008FEF93E00E943F0B80E090E00E94580B6D
:1021C000893519F0CE010E944F0F82E190E00E9404
:1021D000580B8C8383E190E00E94580B8D8384E13F
:1021E00090E00E94580B8E8385E190E00E94580B8E
:1021F0008C8B87E190E00E94580B8F83DF91CF9109
:102200001F910F91FF90EF90DF90CF90BF90AF9014
:102210009F908F907F906F905F9008952CE631E0B3
:10222000FC013183208382819381009711F00C940B
:10223000A92A0895CF93DF93EC010E940E11CE01DD
:10224000DF91CF910C94A92A24E731E0FC0121937E
:102250003193CF010C940E11CF93DF93EC010E94C8
:102260002411CE01DF91CF910C94A92A08952F92C9
:102270003F924F925F926F927F928F929F92AF9216
:10228000BF92CF92DF92EF92FF920F931F93CF9363
:10229000DF93CDB7DEB727970FB6F894DEBF0FBE3A
:1022A000CDBF80E00E947E1A8D838170809356029C
:1022B0002EE232E03C832B8379011A82198200E0FE
:1022C00010E0802F0E945F18FC0182819381982783
:1022D00089279827F701819391937F01C80101967F
:1022E00029813A812F5F3F4F3A832983213131057C
:1022F00049F049815A814830510511F4C8010296CC
:102300008C01DFCF8BE20E947E1A81E080935E0217
:1023100009E612E031EC632E32E0732E4EE0E42E3B
:1023200041E0F42E1F830E83C12CD12C53E0552E97
:10233000812C912C54018394A7014E5051401A01D5
:10234000852D0E94901A90E0EE81FF81978386830D
:10235000208531853A83298344244394450C842D78
:102360000E94901A90E049815A8148175907E1F07C
:10237000842D0E94901A90E0EE81FF8191878087E2
:102380002091580230915902D501C4010C2C04C08F
:10239000880F991FAA1FBB1F0A94D2F7822B932B79
:1023A0009093590280935802EE81FF810284F38555
:1023B000E02DFA83E98322E0422E450C842D0E9411
:1023C000901A90E029813A8128173907F9F0842D75
:1023D0000E94901A90E0EE81FF8193878287C60168
:1023E0000196A501940104C0220F331F441F551FFD
:1023F0008A95D2F7DA01C901209158023091590229
:10240000822B932B909359028093580283E0850D81
:102410000E94901A90E0EE81FF819587848784E086
:10242000850D0E94901A90E0EE81FF819787868744
:10243000852D0E94901A2091680282FF0CC0D50160
:10244000C401022C04C0880F991FAA1FBB1F0A9445
:10245000D2F7822B0CC0D501C401022C04C0880F16
:10246000991FAA1FBB1F0A94D2F7809582238093DD
:102470006802852D0E94901A20915F0280FF0CC097
:10248000D501C401022C04C0880F991FAA1FBB1FCD
:102490000A94D2F7822B0CC0D501C401022C04C0CF
:1024A000880F991FAA1FBB1F0A94D2F78095822319
:1024B00080935F0280915F0290E002C095958795BE
:1024C0002A94E2F780FF2BC0F701308061E0832D72
:1024D0000E94711C80915002811114C055E0550E6C
:1024E0008E819F810A969F838E839FEFE91AF90A56
:1024F000E2E0CE0ED11CF2E06F0E711C2BE2521204
:102500001BCF13C0F30180819181883B9B4014F461
:1025100060E001C061E0832D0E947A1BDFCF60E0A4
:10252000F70180810E94711CD9CF8091580290914F
:102530005902892B09F061C02091F204223008F47D
:102540006CC02231D1F040F4283099F0213199F05B
:102550002730C1F428E016C02C3189F020F42B314B
:1025600089F42CE10FC0253261F0263259F425E2BE
:1025700009C027E007C022E105C021E103C02BE12B
:1025800001C026E230E022503109C90165E070E067
:102590000E94E329660F771F21703327260F371F0C
:1025A00081E090E0A0E0B0E004C0880F991FAA1F6E
:1025B000BB1F2A95D2F790935902809358028091BD
:1025C0005E028823A1F08FEF90E00E9499186AE0E4
:1025D00070E080915802909159020E94D6178FEDB9
:1025E00091E00E9493178091F2040E942718809135
:1025F000580290915902892B81F08091E2029091CA
:10260000E302A091E402B091E50280935A02909314
:102610005B02A0935C02B0935D021092F204809181
:102620005E02882309F40AC184EB91E00E94A91A92
:1026300081EF90E00E94DF188FED90E00E949918E2
:102640008D810E94271829E632E03A832983C12C24
:10265000D12C88ED90E00E94991876013FEFE31AA3
:10266000F30A6AE070E0C7010E94D6178EED91E090
:102670000E949317EB81FC8181919191FC83EB8304
:102680000E94A31A8FED91E00E949317EB81FC81C9
:10269000868197810E94A31A8FED91E00E94931783
:1026A0006AE070E0E981FA81868197810E94D617FD
:1026B0008FED91E00E9493176AE070E0E981FA8162
:1026C000808591850E94D6178FED91E00E94931727
:1026D0006AE070E0E981FA81828593850E94D617CD
:1026E0008FED91E00E9493176AE070E0E981FA8132
:1026F000848595850E94D6178FED91E00E949317EF
:102700006AE070E0E981FA81868597850E94D61794
:102710008FED91E00E9493178091680290E002C0D3
:1027200095958795CA94E2F7817099270E94931A2C
:1027300029813A81265F3F4F3A832983670134E03C
:10274000E316F10409F085CF8EE3E82E82E0F82E3F
:1027500044E050E05A83498381ED90E00E9499184B
:10276000C980DA805FEFC51AD50A6AE070E0C60159
:102770000E94D6178EED91E00E949317F701819188
:1027800091917F010E94A31A8FED91E00E9493170F
:10279000F701868197810E94A31A8FED91E00E9434
:1027A00093176AE070E0F80186A597A50E94D617F6
:1027B0008FED91E00E9493176AE070E0F80180A924
:1027C00091A90E94D6178FED91E00E9493176AE0BD
:1027D00070E0F80182A993A90E94D6178FED91E0CD
:1027E0000E9493176AE070E0F80184A995A90E94FD
:1027F000D6178FED91E00E9493176AE070E0F80120
:1028000086A997A90E94D6178FED91E00E94931791
:102810008091680290E0098002C0959587950A949E
:10282000E2F7817099270E94931A065F1F4FDA82A0
:10283000C98296012830310509F08ECF27960FB650
:10284000F894DEBF0FBECDBFDF91CF911F910F91E6
:10285000FF90EF90DF90CF90BF90AF909F908F90C0
:102860007F906F905F904F903F902F9008951F92B0
:102870000F920FB60F9211242F933F934F935F93B4
:102880008F939F93AF93BF9380912C0290912D02D1
:102890000097C1F420912A0230912B028091C1024D
:1028A0009091C202820F931F90932B0280932A0271
:1028B000479A20918800309189008091C1029091BF
:1028C000C202AEC081309105B1F447988091C30235
:1028D0009091C40220912A0230912B02280F391FB7
:1028E00030932B0220932A02883823E192070CF0C0
:1028F00093C0469A91C082309105B1F44698809178
:10290000C5029091C60220912A0230912B02280F15
:10291000391F30932B0220932A02883823E1920733
:102920000CF07AC0459A78C083309105B1F445988F
:102930008091C7029091C80220912A0230912B0207
:10294000280F391F30932B0220932A02883823E165
:1029500092070CF061C0449A5FC084309105B1F4D5
:1029600044988091C9029091CA0220912A02309124
:102970002B02280F391F30932B0220932A0288380C
:1029800023E192070CF048C0439A46C08530910578
:10299000A9F443988091CB029091CC0220912A0215
:1029A00030912B02280F391F30932B0220932A02DB
:1029B000883823E1920784F5429A2EC0863091052B
:1029C000A9F442988091CD029091CE0220912A02E2
:1029D00030912B02280F391F30932B0220932A02AB
:1029E000883823E19207C4F4419A16C0079741F54D
:1029F00041988091CF029091D00220912A0230918B
:102A00002B02280F391F30932B0220932A0288387B
:102A100023E192070CF4409A2091880030918900BC
:102A2000820F931F909389008093880080912C02DD
:102A300090912D02019690932D0280932C0231C02B
:102A4000409840912A0250912B02483588E9580756
:102A500088F4209188003091890088E598E9A0E009
:102A6000B0E0841B950BA109B109880F991F820F53
:102A7000931F06C080918800909189008A569F4FCD
:102A8000909389008093880010922B0210922A0262
:102A900010922D0210922C028091E1028F5F8093A0
:102AA000E102BF91AF919F918F915F914F913F91C3
:102AB0002F910F900FBE0F901F901895CF92DF921D
:102AC000EF92FF920F931F93CF93DF936C017A01E4
:102AD0008B01C0E0D0E0CE15DF0581F0D8016D910B
:102AE0008D01D601ED91FC910190F081E02DC601A0
:102AF0000995892B11F02196EECF7E01C701DF9158
:102B0000CF911F910F91FF90EF90DF90CF9008959C
:102B1000089580E090E00895FC01538D448D252FA9
:102B200030E0842F90E0821B930B541710F0CF9667
:102B3000089501970895FC01918D828D981761F099
:102B4000828DDF01A80FB11D5D968C91928D9F5FE4
:102B50009F73928F90E008958FEF9FEF0895FC018F
:102B6000918D828D981731F0828DE80FF11D858D42
:102B700090E008958FEF9FEF0895FC01918D228DD5
:102B8000892F90E0805C9F4F821B91098F7399275A
:102B900008958CEF92E00E94BD1521E0892B09F485
:102BA00020E0822F0895FC01848DDF01A80FB11D64
:102BB000A35ABF4F2C91848D90E001968F73992773
:102BC000848FA689B7892C93A089B1898C91837051
:102BD00080648C93938D848D981306C00288F3894A
:102BE000E02D80818F7D80830895EF92FF920F9377
:102BF0001F93CF93DF93EC0181E0888F9B8D8C8DA9
:102C0000981305C0E889F989808185FD26C0F62ED4
:102C10000B8D10E00F5F1F4F0F731127E02E8C8D6F
:102C2000E8120CC00FB607FCFACFE889F989808159
:102C300085FFF5CFCE010E94D315F1CF8B8DFE011C
:102C4000E80FF11DE35AFF4FF0829FB7F8940B8F06
:102C5000EA89FB89808180620AC09FB7F894EE8977
:102C6000FF896083E889F98980818370806480832B
:102C70009FBF81E090E0DF91CF911F910F91FF9076
:102C8000EF900895CF93DF93EC01888D8823C9F0EE
:102C9000EA89FB89808185FD05C0A889B9898C9165
:102CA00086FD0FC00FB607FCF5CF808185FFF2CF00
:102CB000A889B9898C9185FFEDCFCE010E94D315EB
:102CC000E7CFDF91CF91089580E090E0892B29F044
:102CD0000E94C91581110C94000008950E94322BA6
:102CE0000C94A92A1F920F920FB60F9211242F93C2
:102CF0003F934F935F936F937F938F939F93AF9384
:102D0000BF93EF93FF938CEF92E00E94D315FF9156
:102D1000EF91BF91AF919F918F917F916F915F9153
:102D20004F913F912F910F900FBE0F901F901895CC
:102D30001F920F920FB60F9211242F938F939F9390
:102D4000EF93FF93E0910C03F0910D038081E091EC
:102D50001203F091130382FD12C09081809115033C
:102D60008F5F8F7320911603821751F0E091150346
:102D7000F0E0E450FD4F958F8093150301C08081F2
:102D8000FF91EF919F918F912F910F900FBE0F9018
:102D90001F9018958EBD00000DB407FEFDCF8EB5B7
:102DA0000895FC019381892F8F7D8059823058F0DE
:102DB00080E3890F823038F081E0903F31F0913F1D
:102DC00021F080E0089581E008950895FC01938149
:102DD000892F8F7D8859823058F088E2890F8230A0
:102DE00038F081E0983F31F0993F21F080E008957C
:102DF00081E008950895FC0193819B35C1F088E638
:102E0000890F8330A0F0892F8F798D59823078F027
:102E100088E4890F823058F088E2890F823038F0D8
:102E200088E0890F843018F080E090E0089586E013
:102E3000890F823010F09B3519F48489958902C07E
:102E4000868997899827892798270895FC01938177
:102E5000292F2F7B2059263070F080E5890F85308F
:102E600050F080E1890F823030F0935F933018F09A
:102E700080E090E008958689978998278927982788
:102E80000895FC0193899234A9F180EB890F8B306E
:102E900088F184EA890F823068F181E9890F8730EF
:102EA00048F180E7890F8F3028F180E5890F87305E
:102EB00008F188E4890F8230E8F0292F2F7B2D5B01
:102EC0002230C0F080E3890F8630A0F088E2890FBD
:102ED000823080F083E2890F823060F0933E51F0BF
:102EE00080E1890F823030F0935F973018F080E0F6
:102EF00090E00895848995899827892798270895CF
:102F00000895009769F0FC0101900020E9F73197DE
:102F1000AF01481B590BBC018CEF92E00C945E157D
:102F200080E090E008950C9481178F929F92AF9269
:102F3000BF920F931F93CF93DF93CDB7DEB7A197C7
:102F40000FB6F894DEBF0FBECDBF19A2423008F411
:102F50004AE08E010F5D1F4F842E912CA12CB12CC5
:102F6000A50194010E94A629E62FB901CA010150CA
:102F70001109EA3014F4E05D01C0E95CD801EC937A
:102F8000232B242B252B61F7C8010E948117A196C2
:102F90000FB6F894DEBF0FBECDBFDF91CF911F916A
:102FA0000F91BF90AF909F908F900895CF92DF9236
:102FB000EF92FF92CF93DF936115710559F4682F5B
:102FC0008CEF92E0DF91CF91FF90EF90DF90CF9068
:102FD0000C94F5156C01990FEE08FF086A30710525
:102FE000E9F4F7FE19C06DE28CEF92E00E94F5154E
:102FF000EC0166277727CB016C197D098E099F09A3
:103000004AE00E9495178C0F9D1FDF91CF91FF9092
:10301000EF90DF90CF9008954AE001C0462FC7019E
:10302000B601DF91CF91FF90EF90DF90CF900C949D
:103030009517AB01682F4115510521F48CEF92E0F3
:103040000C94F51570E080E090E00C949517CF9308
:10305000DF936AE070E00E941918EC0182EB91E0C6
:103060000E9481178C0F9D1FDF91CF910895ECEF87
:10307000F2E0A089B18982E08C93A485B5851C9289
:10308000A685B78580E18C93108EA489B58986E0EA
:103090008C93A289B3898C9180618C93A289B38926
:1030A0008C9188608C93A289B3898C9180688C9371
:1030B0000288F389E02D80818F7D808308951092AE
:1030C0008B0410928C0410928D0410928E04109236
:1030D000950490918504981720F090918204981798
:1030E00020F481E08093950421C090E0FC01EE0F74
:1030F000FF1FE756FC4F208120938B04FC01EE0F4D
:10310000FF1FE554FC4F208120938C04FC01EE0F3F
:10311000FF1FE352FC4F208120938D04880F991FDD
:10312000FC01E150FC4F808180938E048BE894E099
:1031300008950F931F93CF93DF938C01C0E0D0E0ED
:10314000F801EC0FFD1F6491662341F08CEF92E0D3
:103150000E94F515892B11F02196F2CFCE01DF9157
:10316000CF911F910F910895FF920F931F93CF93CB
:10317000DF93C82FF62E072F142F60E08091A6044E
:103180000E947A1B82E00E94CA168C2F0E94CA16E7
:10319000CF2DD02FCE01810F911D8C01C017D107EB
:1031A00021F089910E94CA16F9CF61E08091A604AE
:1031B000DF91CF911F910F91FF900C947A1BCF93C9
:1031C000DF930E949918EC0182EB91E00E94811735
:1031D0008C0F9D1FDF91CF9108951F93CF93DF93A5
:1031E000182FC9E7D4E060E08DA50E947A1B83E028
:1031F0000E94CA16812F0E94CA1680E00E94CA1639
:10320000182F61E08DA50E947A1B812FDF91CF914D
:103210001F910895FF920F931F93CF93DF93F82E82
:10322000062F142FC9E7D4E060E08DA50E947A1B19
:1032300085E00E94CA168F2D0E94CA16802F0E9418
:10324000CA16812F0E94CA1661E08DA5DF91CF9129
:103250001F910F91FF900C947A1B0F931F93CF93A4
:10326000DF93082F162FC9E7D4E060E08DA50E94F8
:103270007A1B82E00E94CA16802F0E94CA16812FF4
:103280000E94CA1661E08DA5DF91CF911F910F9129
:103290000C947A1B4F925F926F928F929F92AF9293
:1032A000BF92CF92DF92FF920F931F93CF93DF9342
:1032B00000D000D0CDB7DEB710929604609397048B
:1032C000709398048093990490939A04493008F07D
:1032D00048E040939B041092A404ACE9B4E0F901E7
:1032E00050E0CF01821B930B841795071CF481914A
:1032F0008D93F7CFA12CB12C40907801509079019B
:1033000060907A014E0124E0820E911C49825A821B
:103310006B82CE0101966C01F82E0D2DF6011191F4
:103320006F01812F0E94ED18982F987083FD02C0C5
:103330001F5F05C08C149D0489F710E092E0FFEF39
:10334000AF1ABF0A923029F422E3A216B104F1F6B3
:103350007CC082E3A816B10409F477C040919B04B5
:103360006CE974E085E0810F0E94B4188091A40498
:10337000813029F480919B04806480939B04609148
:103380009B0484E0810F0E942D1940919704509175
:1033900098046091990470919A0480919604813008
:1033A000B1F44C835B83AB0166277727942F9C7124
:1033B000842F8370E8E09E9F800D112488608A83AB
:1033C00065E0569547956A95E1F749830DC0CA01B6
:1033D00023E0969587952A95E1F789834295440FD6
:1033E000407E4A831C821B8244E06F2D702F812F08
:1033F0000E94B418115048E068E0812F0E940A1919
:10340000C12CD12CFFEFCF1ADF0A812F0E94ED18BB
:1034100083FF05C022E3C216D104A1F718C082E3DE
:10342000C816D104A1F0109297041092980410923B
:10343000990410929A0410929B0410929604109290
:10344000A4041092A50480E003C086E001C087E0D8
:103450000F900F900F900F90DF91CF911F910F91D0
:10346000FF90DF90CF90BF90AF909F908F906F9024
:103470005F904F900895CF93DF93C091AE04C63B09
:1034800021F0C295C695C77001C0C7E0CF5F81E04B
:103490008093AB048093AC046091DC0470E080E026
:1034A00090E02EEA34E04C2F0E944A19811102C0AC
:1034B00080E00FC0D3E06091DC0470E080E090E039
:1034C0002EEA34E04C2F0E944A19882389F3D15008
:1034D00091F7DF91CF910895E9E7F4E0ADEDB4E025
:1034E0009C9111962C913FE635AB26AB97AB80AF04
:1034F00011AE12AE13AE14AE0C943B1A109295049A
:1035000090918404891720F08FEF8093950408959B
:10351000E82FF0E0EE0FFF1FEF5DFB4F8081089575
:1035200081500C947E1ACF93DF936AE070E00E9482
:10353000D617EC0182EB91E00E9481178C0F9D1F42
:10354000DF91CF910895BC0180E090E04AE00C94B7
:103550009517CF93DF930E948117EC0182EB91E0E6
:103560000E9481178C0F9D1FDF91CF910895CF93FB
:10357000C82F482F60EE8FE00E940A198FE00E944A
:10358000ED18982F907E81E09C1301C080E0CF91D0
:1035900008958091B904823721F08C3911F0853B70
:1035A00019F48091CC040895853F19F48091CE04DC
:1035B0000895823F19F48091D004089580E0089521
:1035C0008091B9048C3911F0853B19F48091CD04B8
:1035D0000895823B11F0823D19F48091CE04089544
:1035E000853F19F48091CF04089580E00895CF932A
:1035F000DF93C9E7D4E09F838887492F63E170E0B8
:103600008BE794E00E945A0B488564E170E08BE7F9
:1036100094E0DF91CF910C945A0BCF93DF93CDB709
:10362000DEB728970FB6F894DEBF0FBECDBF10925D
:10363000C5058093F00484E090E09093400580936A
:103640003F0582E08093AB0483E08093AC046091FB
:10365000DC0470E080E090E0FE013196AE01475F4F
:103660005F4F9F011192E417F507E1F741E04093A6
:10367000A40440E00E944A191092A4040E940C1D68
:1036800060934105709342058093430590934405F0
:1036900028960FB6F894DEBF0FBECDBFDF91CF9155
:1036A0000895833081F028F4813099F08230A1F0C0
:1036B00008958730A9F08830B9F08430D1F4809132
:1036C00080008F7D03C0809180008F778093800081
:1036D000089584B58F7702C084B58F7D84BD089529
:1036E0008091B0008F7703C08091B0008F7D809370
:1036F000B00008951F93CF93DF93282F30E0F90196
:10370000E354FF4F8491F901E755FF4FD491F9013C
:10371000EB56FF4FC491CC23C1F0162F81110E94AC
:10372000511BEC2FF0E0EE0FFF1FEB5FFA4FA5915E
:10373000B4919FB7F894111104C08C91D095D823FF
:1037400002C0EC91DE2BDC939FBFDF91CF911F91E4
:103750000895FF920F931F93CF93DF93182FF62EA8
:10376000C72FD42F60E08091A6040E947A1B83E0CB
:103770000E94CA16812F0E94CA160F2D1C2FC0E06E
:10378000CD1751F0C83041F080E00E94CA16F80110
:1037900081938F01CF5FF4CF61E08091A604DF9128
:1037A000CF911F910F91FF900C947A1B0F931F9351
:1037B000CF93DF9300D000D0CDB7DEB7182F109293
:1037C0009604109297041092980410929904109203
:1037D0009A0444E0BE016F5F7F4F0E94A91B2A81BB
:1037E0003981822F90E065E0959587956A95E1F79C
:1037F00048E0349F800D911D1124092E000CAA0B66
:10380000BB0B8093970490939804A0939904B09372
:103810009A0423FF29C032E0880F991FAA1FBB1FFB
:103820003A95D1F72370820F911DA11DB11DBA2FBA
:10383000A92F982F88272B81820F911DA11DB11DC3
:10384000BA2FA92F982F88272C81820F911DA11D97
:10385000B11D8093970490939804A0939904B0931A
:103860009A0481E0809396048FEF810F0E94ED18F7
:10387000082F84E0810F0E94ED1803FF04C091E03F
:103880009093A40402C01092A404482F4F70409358
:103890009B046CE974E085E0810F0E94A91B0F90E6
:1038A0000F900F900F90DF91CF911F910F9108957E
:1038B0001F93CF93DF93C9E7D4E060E08DA50E940A
:1038C0007A1B80EA0E94CA1680E00E94CA16182F4E
:1038D00061E08DA50E947A1B812FDF91CF911F910E
:1038E0000895CF93DF9390E0FC01E755FF4F2491BB
:1038F000FC01EB56FF4F8491882361F190E0880F23
:10390000991FFC01E550FB4FC591D491FC01EB5F81
:10391000FA4FA591B491611109C09FB7F8948881BD
:10392000209582238883EC912E230BC0623061F4B2
:103930009FB7F8948881322F309583238883EC9148
:103940002E2B2C939FBF06C08FB7F894E8812E2BA7
:1039500028838FBFDF91CF9108953FB7F89480916E
:10396000E1059091E205A091E305B091E40526B54B
:10397000A89B05C02F3F19F00196A11DB11D3FBFA7
:10398000BA2FA92F982F8827820F911DA11DB11D35
:10399000BC01CD0142E0660F771F881F991F4A9531
:1039A000D1F708958F929F92AF92BF92CF92DF92FC
:1039B000EF92FF926B017C010E94AD1C4B015C01F8
:1039C000C114D104E104F104F1F00E94AD1CDC014A
:1039D000CB0188199909AA09BB09883E9340A10522
:1039E000B10570F321E0C21AD108E108F10888EEB0
:1039F000880E83E0981EA11CB11CC114D104E104FF
:103A0000F10419F7DDCFFF90EF90DF90CF90BF90DA
:103A1000AF909F908F9008952FB7F8946091DD0537
:103A20007091DE058091DF059091E0052FBF08952C
:103A30001F920F920FB60F9211242F933F938F93E3
:103A40009F93AF93BF938091DD059091DE05A09188
:103A5000DF05B091E0053091DC0523E0230F2D3721
:103A600020F40196A11DB11D05C026E8230F029682
:103A7000A11DB11D2093DC058093DD059093DE052B
:103A8000A093DF05B093E0058091E1059091E205F8
:103A9000A091E305B091E4050196A11DB11D8093AD
:103AA000E1059093E205A093E305B093E405BF918F
:103AB000AF919F918F913F912F910F900FBE0F90DB
:103AC0001F90189589E794E00C942411CF93DF930D
:103AD00000D000D000D0CDB7DEB7789484B5826036
:103AE00084BD84B5816084BD85B5826085BD85B5A2
:103AF000816085BD80916E00816080936E00109220
:103B0000810080918100826080938100809181009A
:103B1000816080938100809180008160809380002B
:103B20008091B10084608093B1008091B000816089
:103B30008093B00080917A00846080937A008091B5
:103B40007A00826080937A0080917A00816080930D
:103B50007A0080917A00806880937A001092C10088
:103B600081E2E0E0F0E0809357009491E2E0F0E041
:103B7000809357002491E4E0F0E080935700849113
:103B8000253921F4863111F49E3131F00E94371825
:103B90008CE594E00E94DF18A6E1EA2EA1E0FA2E5F
:103BA0002EE031E03A832983A981BA811D91BA833D
:103BB000A98360E0812F0E94711C60E0812F0E9428
:103BC0007A1BC980DA80EC14FD0471F726E031E03D
:103BD0003A832983A981BA811D91BA83A98361E0BF
:103BE000812F0E94711C60E0812F0E947A1BE98165
:103BF000FA81EE50F14071F7AFEDB4E087EE94E05A
:103C0000FD0111928E179F07E1F7E1EEF1E089EED9
:103C100091E021912D938E179F07D9F789E5809325
:103C2000E8048DE08093E70488E38093EA0481E070
:103C30008093EB048091E90483608093E9048DEB29
:103C400090E0A0E0B0E08093F3049093F404A0939C
:103C5000F504B093F60484E79CE09093C705809345
:103C6000C6058AE08093A60461E00E94711C61E0B1
:103C70008091A6040E947A1B44E150E05A83498354
:103C8000EFE9AE2EE0E0BE2EF3EBEF2EF0E0FF2EDC
:103C9000DFB6F8948091E602811126C0F501849187
:103CA000F7012491E82FF0E0EE0FFF1FE550FB4FE6
:103CB000A591B4919C91822F892321F461E08AE03F
:103CC0000E947A1B61E08AE00E94711C8CB58061C1
:103CD0008CBD8CB580648CBD61E08DE00E94711C50
:103CE00061E08BE00E94711C8091E6028F5F8093FF
:103CF000E602DFBE60E08091A6040E947A1B80ECA1
:103D00000E94CA1661E08091A6040E947A1B6AE0B4
:103D100070E080E090E00E94D21C80E80E94B71A18
:103D20008823B1F06AE070E080E090E00E94D21C4D
:103D30006EE170E080E090E00E94D21C29813A811F
:103D4000215031093A832983232B09F0A1CF4BC09D
:103D50006AE070E080E090E00E94D21C61E08AE2BC
:103D60000E942D1961EB89E20E942D1965E088E21D
:103D70000E942D196AE070E080E090E00E94D21C61
:103D800010E360E0812F0E942D1960E080E1810F37
:103D90000E942D1960E080E2810F0E942D191F5FA3
:103DA0001E3379F760E080E60E942D1960E080E71D
:103DB0000E942D1963E08BE20E942D1944E064E615
:103DC00080E60E940A1940E060E680E70E940A1936
:103DD00080E00E94B71A8111A5CF6AE070E080E010
:103DE00090E00E94D21C8BE20E947E1A81E08093B8
:103DF0005E020E94371884EB91E00E94A91A85E4C4
:103E000094E00E9499186AE070E081E090E00E94DE
:103E1000D6178AEE91E00E94931788E090E00E9406
:103E2000931A8BE794E00E944D108BEE91E00E9474
:103E3000DF1884EE91E00E94991880E090E00E94E3
:103E4000580B6AE070E00E9419188BED91E00E9417
:103E500099186AE070E080917F040E94191886ED3D
:103E600091E00E9499188091800490918104982794
:103E70008927982790939104809390040E94A31A15
:103E80008EEC91E00E9499186AE070E080918F04B6
:103E90000E94191881EC91E00E9499186AE070E084
:103EA000809182040E9419188FEA91E00E9499186B
:103EB0006AE070E0809186040E94191883EA91E01C
:103EC0000E9499186AE070E0809184040E94191899
:103ED0008CEE91E00E9493176AE070E089E190E037
:103EE0000E94D61783EF91E00E949317809184047B
:103EF00090E06AE070E048960E94D61785EF91E066
:103F00000E949317198280918404C980C81688F48E
:103F10008C2D90E049960E94580B60E170E00E9461
:103F2000191881EA91E00E94991829812F5F29834D
:103F3000EACF80E991E00E9499186AE070E080E1A0
:103F400090E00E94D61789EF91E00E9493176AE0F3
:103F500070E082E090E00E94D61783EF91E00E942B
:103F600093176AE070E081E190E00E94D61785EF38
:103F700091E00E94931742E050E05A83498389817F
:103F80009A810E94580B60E170E00E9419188EE837
:103F900091E00E94991889819A8101969A83898378
:103FA000429769F780E891E00E9499186AE070E012
:103FB000809187040E9419188FEF91E00E94931757
:103FC0006AE070E080918A040E94191883EF91E002
:103FD0000E9493178091870490E00197880F991FA2
:103FE00020918A04820F911D6AE070E001960E9480
:103FF000D61785E092E00E9493176AE070E082E0B5
:1040000090E00E94D61785EF91E00E94931710E090
:1040100080918704181728F5A12FB0E0AA0FBB1FC5
:10402000BA83A98380918A04A80FB11DCD010E9493
:10403000580B60E170E00E94191880918A04C980D1
:10404000DA80C80ED11CC60101960E94580B60E1AF
:1040500070E00E9419188EE791E00E9499181F5F86
:10406000D7CFE0908804F0908904FA82E98285E74E
:1040700091E00E9499186AE070E0809185040E94A6
:1040800019188FEF91E00E9493176AE070E0898120
:104090009A810E94D61783EF91E00E949317809136
:1040A000850424E0829FE00CF11C1124C7016AE022
:1040B00070E001970E94D61785E092E00E94931766
:1040C0006AE070E084E090E00E94D61785EF91E00E
:1040D0000E94A91A10E080918504181708F05FC0AB
:1040E000E980FA8034E0E30EF11C89819A810E9414
:1040F000580B60E170E00E94191849815A814F5FA6
:104100005F4F5A83498383E791E00E949918C980E1
:10411000DA80CE14DF0449F781E791E00E94991814
:10412000C12ED12CCC0CDD1CE12CF12CF601EE0DB6
:10413000FF1DE756FC4F60E170E0808191810E9495
:10414000D6178FE691E00E94991822E2E20EF11C48
:1041500038E8E316F10451F789E691E00E949918D6
:1041600000E0809186040817A0F489819A810E945A
:10417000580B60E170E00E94191849815A814F5F25
:104180005F4F5A83498387E691E00E9499180F5F39
:10419000E8CF82EB91E00E9481171F5F9CCF809156
:1041A0005E02811110C01092CB0581E08093CC0596
:1041B00061E080E00E94711C8091CC058F3F19F076
:1041C00061E00E94711CF89489E0E0E0F0E08093E7
:1041D0005700E491E3E0F0E080935700E491E2E0DF
:1041E000F0E080935700E491E1E0F0E08093570025
:1041F000849178940E94371110925A0210925B02B7
:1042000010925C0210925D021092590210925802B4
:1042100080915E02882311F184E394E00E94991852
:104220006AE070E080E190E00E94D61781E194E0BE
:104230000E9499186AE070E08CE291E00E94D61723
:104240008AE094E00E9499186AE070E08CE89AE0B5
:104250000E94D61786E094E00E94DF188AE20E944E
:104260007E1A90E09093C0028093BF0219E6A12EBF
:1042700012E0B12E0EE0C02E01E0D02E81ED482ECE
:1042800082E0582E01EC12E094E0892E912C1A82E3
:10429000198228E8222E23E1322E38E1632E35E1FF
:1042A000732E80915602882341F1E091BF02F09174
:1042B000C002098002C0F595E7950A94E2F7E17023
:1042C000FF27E80DF91DEE0FFF1FE759FD4F808115
:1042D0009181B4E0880F991FBA95E1F7D301A81B2B
:1042E000B90BF801B183A08380915E02882309F1A4
:1042F0008FEE93E00E9499181CC0D80111963C9251
:104300002E9280915F0290E0098002C0959587957A
:104310000A94E2F780FF0DC0F50180859185E4E005
:10432000880F991FEA95E1F77301E81AF90AED92EF
:10433000FC92D801ED90FC90F201E192F1922F01F4
:1043400080915F0290E0098002C0959587950A945C
:10435000E2F780FF20C080915E02882391F087EE13
:1043600093E00E949918F8EBEF16FBE0FF060CF0C3
:1043700034C582EE93E00E94991860E0D6018C91DA
:1043800008C038EBE3163BE0F306BCF361E0F6014E
:1043900080810E947A1B80915E0229813A812F5F81
:1043A0003F4F3A8329838823C1F038E8E31633E18D
:1043B000F30699F086ED93E00E9499186AE070E0A8
:1043C00089819A810E94D6178FED91E00E94931700
:1043D000D8018D919C910E94931A0E5F1F4FBFEFE1
:1043E000CB1ADB0AEAE0AE0EB11CF5E08F0E911C91
:1043F00029813A812830310509F053CF8091560246
:10440000811108C080915E02882321F085EB93E042
:104410000E94DF1881E0809350020E94AD1C4B0186
:104420005C01609351027093520280935302909307
:1044300054020E94AD1C2091DD043091DE046B011A
:104440007C01C818D908EA08FB08A0E1B7E20E947D
:10445000C829C616D706E806F90658F380915E0209
:10446000882341F084EB91E00E94A91A8FEA93E03F
:104470000E94DF1884E690E0909389008093880082
:10448000F8941092800010928100809181008260E7
:104490008093810080916F00826080936F00789498
:1044A00084EB91E00E94A91A85EA93E00E94DF184C
:1044B0008CE693E00E94DF1886E693E00E94DF1806
:1044C00088E493E00E94DF1887E393E00E94DF18FE
:1044D00084E193E00E94DF1880EF92E00E94DF18F1
:1044E0008BE892E00E94DF1885E192E00E94DF18DD
:1044F00087EF91E00E94DF1884EB91E00E94A91AF7
:1045000068E1262E65E1362E412C512C3201439470
:1045100045E0F42EEE24E3945AE0D52E8CEF92E0A1
:104520000E94BD15181619060CF057C18CEF92E0C9
:104530000E949B158C3349F464EB71E088EE92E0A5
:104540000E94372B1092E702E9CF8E3309F01DC18C
:1045500087E092E00E94931788EE92E00E94931702
:1045600089E092E00E9493170091E802802F8F7DEE
:10457000833509F580E00E947E1A80FF04C0109206
:1045800056028E7F03C0E092560281608983498182
:1045900060E08BE794E00E94E00B83ED94E00E94E2
:1045A00099186AE070E08981817090E00E94D617C6
:1045B0008BEB94E0E1C08091E9028A3309F0DEC020
:1045C000002E000C110BA801415351095A83498355
:1045D0004830510518F084EA94E0CEC08091EA0298
:1045E000982F9F7D9C3461F0823579F0823741F0BD
:1045F0004091E70250E0EAEEF2E080E090E060C037
:1046000021E0823719F020E001C021E0A981BA81C0
:10461000AA0FBB1FAF52BD4F89819A81F89EF0014E
:10462000F99EF00D1124E20FF11DEE0FFF1FEF5860
:10463000FD4F8081918134E0880F991F3A95E1F711
:10464000F101E81BF90BED93FC938091BF0290916F
:10465000C002B301A201098004C0440F551F661FA8
:10466000771F0A94D2F7222319F0842B952B05C0CB
:104670009A0120953095822393239093C0028093D2
:10468000BF02809156028823C9F10E94AD1C60933D
:1046900051027093520280935302909354022EC0A1
:1046A000619120ED260F2A3058F4D89E9001D99EB2
:1046B000300D1124C901C097860F911D67FD9A9591
:1046C0009F01285E32402417350754F3E981FA81AF
:1046D000EE0FFF1FEF52FD4F8F3F910509F050F491
:1046E00054E0880F991F5A95E1F79101281B390B67
:1046F000C90102C0880F991F9183808349815A8123
:10470000440F551F5A834983FA01EF52FD4F8081B0
:1047100091818838934124F087E893E191838083E5
:10472000E981FA81EF52FD4F808191818D3D954065
:1047300024F42DED35E0318320838DE994E00E944F
:1047400099186AE070E0C801C0970E94D6178AE9FC
:1047500094E00E94991849815A814F525D4FDA01C5
:104760008D919C9197FD01966AE070E095958795F3
:104770000E94D61786E994E00E94DF1864EB71E08E
:1047800088EE92E00E94372BC9CEE8EEF2E001906D
:104790000020E9F73197E85EF2403F9708F0BECE7F
:1047A000282F082E000C330B3F938F93E8EEF2E096
:1047B000FF93EF932CE032E03F932F93FF93EF931F
:1047C0000E943E2B8091E7028F5F8093E7020FB635
:1047D000F894DEBF0FBECDBFA1CE0E94AD1C60938A
:1047E000E2027093E3028093E4029093E502009169
:1047F000F8021091F9022091FA023091FB026B014C
:104800007C01C01AD10AE20AF30A49EEC41643E059
:10481000D406E104F10450F40E94B4028091F20441
:10482000882309F43DC00E9437113AC06093F80212
:104830007093F9028093FA029093FB02D12C02EC60
:1048400015E09CE3E92EF12CCC24C3940E94581C63
:10485000837001F14BC28091A7048093B5058091CC
:10486000A8048093B6058091A9048093B705809130
:10487000AA048093B8054093B3058091A4048111E4
:1048800060C21092B4058091390590913A05892B48
:1048900009F45AC2D39492E0D91609F4BDCFD6CF09
:1048A0008091E102882309F4A4C1B0E68B2EB2E026
:1048B0009B2E09E612E0AEE0B1E0BA83A983E1ECF9
:1048C000F2E0FE83ED8381EDC82E82E0D82E24E055
:1048D00030E03C832B83E12CF12CD601AD90BC90D1
:1048E000ED81FE8180819181A816B90609F4DAC0B4
:1048F00088389341D9F4D80118962D913C91199795
:104900001A968D919C911B97820F931F97FD01968C
:1049100095958795A4E0880F991FAA95E1F7F10175
:10492000E81BF90BAD81BE81ED93FC93ED81FE8117
:10493000808191818A159B0534F4D8011C96AD9035
:10494000BC901D9703C0F801A684B784BB24F1E096
:10495000AF1AB10824E1A216B10400F18DEE94E083
:104960000E949918C5010E94931AAD81BE812D91B4
:104970003C91F60180819181281739074CF4D801C8
:104980001C96AD90BC901D97B1E0AB1AB10806C063
:10499000F801A684B784F1E0AF1AB10880916802EB
:1049A00090E00E2C02C0959587950A94E2F780FF5F
:1049B0000DC0D4018C91882349F0853039F0B4E0E2
:1049C000AB1AB108B7FE02C0A12CB12CED81FE815B
:1049D00020813181D6014D915C91C501880F991FCD
:1049E000FC01EA5EFE4F808191812417350734F483
:1049F000280F391F421753075CF005C0281B390BDD
:104A0000241735072CF0ED81FE813183208304C00B
:104A1000AD81BE814D935C9380915F0290E00E2C3E
:104A200002C0959587950A94E2F780FFBFC0ED819B
:104A3000FE812081318180915E02283B3B40C4F49D
:104A4000882389F081E192E00E9493176AE070E088
:104A5000C7010E94D6178DEF91E00E94931788E15D
:104A600092E00E94A91A60E0A981BA818C9117C0D6
:104A7000882389F081E192E00E9493176AE070E058
:104A8000C7010E94D6178DEF91E00E9493178CE129
:104A900092E00E94A91A61E0E981FA8180810E9476
:104AA0007A1B84C0D4012C91222309F47FC0E091A9
:104AB000BF02F091C0020E2C02C0F595E7950A9452
:104AC000E2F7E170FF274B815C81E40FF51FEE0FE9
:104AD000FF1FE759FD4F8081918174E0880F991F76
:104AE0007A95E1F7F101E81BF90BD601ED93FC9300
:104AF00020FD39C0D80118968D919C9119971A966E
:104B00006D917C911B97422F50E0861B970B97FF6E
:104B100003C0919581959109849FB001859F700D87
:104B2000949F700D1124649FC001659F900D749F28
:104B3000900D11246AEF70E00E94E32954E0660FA3
:104B4000771F5A95E1F7B9EBAB16BBE0BB0634F023
:104B5000E61BF70BD601ED93FC9305C06E0F7F1F8C
:104B6000F601718360832150D4012C9380915E0201
:104B70008823E1F08CEA91E00E9493176AE070E0EC
:104B8000C7010E94D61781E292E00E9493176AE063
:104B900070E0F40180810E9419188FED91E00E946D
:104BA0009317D6018D919C910E94931ABFEFEB1A37
:104BB000FB0AE2E0CE0ED11C2D813E812E5F3F4FDD
:104BC0003E832D8349815A814F5F5F4F5A834983CA
:104BD0005FEF851A950A8B819C8105969C838B8358
:104BE000065F1F4F98E0E916F10409F076CE1092A7
:104BF000E10280915A0290915B02A0915C02B09117
:104C00005D020097A105B10509F46DC04091E20273
:104C10005091E3026091E4027091E502841B950BD0
:104C2000A60BB70B8139904DA340B10508F45BC0CA
:104C30001A82198245E0D42E80915802909159022F
:104C4000098002C0959587950A94E2F780FF3DC0E0
:104C5000E980FA80F594E7948701000F111F0F5245
:104C60001D4FDE9C9001DF9C300D112489819A81BB
:104C700081709927F901E80FF91FEE0FFF1FEF5818
:104C8000FD4F8081918134E0880F991F3A95E1F7BB
:104C90009101281B390BD8012D933C9380915E0222
:104CA000882399F087EE94E00E9499186AE070E0FA
:104CB000C70101960E94D6178FED91E00E949317CD
:104CC000F801808191810E94931A29813A812F5F96
:104CD0003F4F3A8329832031310509F0ADCF10923F
:104CE0005902109258020E94641612CC0E94581C5D
:104CF000D11008C080FFCECD81E60E94D61B40E0D7
:104D000061E007C081FFC6CD81E70E94D61B40E06D
:104D100062E08CE20E940A1940919B04E9E7F4E00A
:104D20009F0129573440319680919B0490E02817C9
:104D300039070CF090CD82A1DF01A15CBE4F8C93AE
:104D4000EFCFC092B4059FCD81E090E090933A05FB
:104D5000809339058091370590913805CC9724F0E0
:104D60001092380510923705E3EBF5E08091370596
:104D7000909138052191DC01A750BB4F12962C93DE
:104D80000196909338058093370580913D05909169
:104D90003E05019690933E0580933D050E171F0733
:104DA00029F7CD97ACF080913B0590913C050F968B
:104DB0008C3391052CF490933C0580933B0504C003
:104DC00010923C0510923B05F0923E05E0923D05A5
:104DD00010923A05109239055DCD8CED93E00E945A
:104DE0009918D4CA6F927F928F929F92AF92BF927E
:104DF000CF92DF92EF92FF920F931F93CF93DF93A7
:104E0000CDB7DEB7C654D1090FB6F894DEBF0FBEDA
:104E1000CDBF1092FF021092FE0288EE93E0A0E058
:104E2000B0E08093000390930103A0930203B0933A
:104E3000030382E491E09093FD028093FC0285ECF1
:104E400090E0909309038093080384EC90E09093A2
:104E50000B0380930A0380EC90E090930D03809302
:104E60000C0381EC90E090930F0380930E0382EC8F
:104E700090E0909311038093100386EC90E0909360
:104E800013038093120310921503109216031092CD
:104E900017031092180384E791E090937A048093AB
:104EA00079048CE691E090937C0480937B0486EBFC
:104EB00094E00E94410B84E691E09093DB048093A0
:104EC000DA04EFEDF4E087EE94E020E321938E170F
:104ED0009F07E1F78CE591E09093FA048093F90441
:104EE0001092D5051092EF041092C50527E1FE013E
:104EF0003196A6E9B4E001900D922A95E1F79A83E4
:104F0000898321961FAE1EAE219723961FAE1EAE3B
:104F1000239725961FAE1EAE259727961FAE1EAE71
:104F20002797DE011396EBEFF4E08D91819345E036
:104F3000E733F407D1F71092380510923705109235
:104F40003A051092390510923C0510923B051092DB
:104F50003E0510923D058CE691E09A8389838CE2B0
:104F60008A8781E18B8781E08C878D8785E4888BB8
:104F700087E490E09F878E8781E090E00E94112A6D
:104F80009C838B83CE0101960E94380FCE0101963F
:104F90000E944D10DA8421E2E22E24E0F22E00E09D
:104FA00010E0CC24CA941B8E0D1518F0CB8E8FEF19
:104FB00004C0C80149960E94580B90E0F701819304
:104FC00091937F010F5F1F4F0C32110561F74091E4
:104FD00077045091780440FF0AC04E7F50937804C4
:104FE000409377046BE2CE0101960E94E00BEB84C4
:104FF0007884CC84D12CF4E0CF0ED11C89E9882EA2
:1050000083E0982E9DEDA92E93E0B92E0E851F8585
:10501000F12C66246394198A1A8A1B8A1C8A1B8EB7
:10502000EF1410F07F1410F46B8E13C0C8010E94AF
:10503000580B898BC80101960E94580B8A8BC801B6
:1050400002960E94580B8B8BC80103960E94580B46
:105050008C8B3989832F90E0F401819391934F01D8
:105060002A89822F90E091A380A39B89492F50E049
:10507000F501419351935F018C89482F50E051A372
:1050800040A3F3940C0D1D1DF1E1FF12C4CF4B8121
:105090005C8150937E0440937D044D8140937F0456
:1050A0004E81409380044F81409381044885409312
:1050B00082044985409383044A8540938404E092A6
:1050C00085044C85409386044D85409387044E8526
:1050D0005F855093890440938804488940938A04EB
:1050E00030938B0420938C0490938D0480938E04D2
:1050F0008D8980938F048E899F89909391048093EA
:105100009004888D80939204898D809393048A8D76
:10511000809394048B8D80939504CE0101960E9418
:105120000E1184E691E09A838983DE011696CE0102
:105130000E96FD0120E32193E817F907E1F78B8133
:105140008093DC048C819D819093DE048093DD0448
:10515000EFEDF4E08D91819344E0E73EF407D1F761
:105160008E858093E7048F858093E80488898093F7
:10517000E90489898093EA048A898093EB0481E1B8
:105180008093EC048CE28093EE0481E08093ED0444
:10519000CE0101960E94410B8B818093B8048C81D3
:1051A0008093B9048D818093BA048E818093BB046F
:1051B0008F8198859093BD048093BC0489859A85DE
:1051C0009093BF048093BE048B859C859093C1040B
:1051D0008093C0048D859E859093C3048093C20400
:1051E0008F8598899093C5048093C40489899A898E
:1051F0009093C7048093C6048B898093C804DE0112
:105200005496E9ECF4E08D91819384E0E13DF80758
:10521000D1F78C8D8093D1048D8D8093D2048E8DA7
:105220008093D3048F8D8093D40488A18093D50478
:1052300089A19AA19093D7048093D6048BA18093DF
:10524000D8048CA18093D9048091EF04816080936D
:10525000EF041092F0040FEF0093CB050093CC0500
:1052600011E01093CD051092CE050E940C1D6093A5
:10527000CF057093D0058093D1059093D2051092FD
:10528000C7051092C6051092D7051092D605109248
:10529000F1041093F2040093D3051093D40587EC26
:1052A00090E0A0E0B0E08093F3049093F404A09326
:1052B000F504B093F6048BE794E00E944D108091C2
:1052C00080049091810498278927982790939104CE
:1052D000809390049093DE048093DD0480917F049A
:1052E0008093DC041093E90483E090E09093400500
:1052F00080933F05CA5BDF4F0FB6F894DEBF0FBE49
:10530000CDBFDF91CF911F910F91FF90EF90DF9074
:10531000CF90BF90AF909F908F907F906F900895A7
:10532000F999FECF92BD81BDF89A992780B508956D
:10533000262FF999FECF1FBA92BD81BD20BD0FB6B1
:10534000F894FA9AF99A0FBE01960895A1E21A2EDE
:10535000AA1BBB1BFD010DC0AA1FBB1FEE1FFF1F19
:10536000A217B307E407F50720F0A21BB30BE40B69
:10537000F50B661F771F881F991F1A9469F76095B0
:105380007095809590959B01AC01BD01CF0108956A
:10539000A29FB001B39FC001A39F700D811D112476
:1053A000911DB29F700D811D1124911D0895991BAF
:1053B00079E004C0991F961708F0961B881F7A950C
:1053C000C9F78095089597FB072E16F4009407D02F
:1053D00077FD09D00E94FD2907FC05D03EF4909589
:1053E00081959F4F0895709561957F4F0895EE0FB9
:1053F000FF1F0590F491E02D0994AA1BBB1B51E1FE
:1054000007C0AA1FBB1FA617B70710F0A61BB70B34
:10541000881F991F5A95A9F780959095BC01CD01D9
:1054200008950F931F93CF93DF938230910510F46B
:1054300082E090E0E091E705F091E80520E030E0BF
:10544000A0E0B0E0309719F14081518102811381D1
:1054500048175907C8F08417950769F4109731F079
:1054600012960C93129713961C9327C00093E7058E
:105470001093E80522C02115310519F04217530792
:1054800018F49A01BD01EF01DF01F801DBCF21150E
:105490003105F9F0281B390B2430310580F48A815D
:1054A0009B816115710521F0FB019383828304C008
:1054B0009093E8058093E705FE01329644C0FE0113
:1054C000E20FF31F8193919322503109398328838E
:1054D0003AC02091E5053091E605232B41F4209157
:1054E0000201309103013093E6052093E5052091F8
:1054F0000001309101012115310541F42DB73EB76E
:105500004091040150910501241B350BE091E50504
:10551000F091E605E217F307A0F42E1B3F0B2817C6
:10552000390778F0AC014E5F5F4F2417350748F01C
:105530004E0F5F1F5093E6054093E50581939193CD
:1055400002C0E0E0F0E0CF01DF91CF911F910F9119
:105550000895CF93DF93009709F481C0FC0132973F
:1055600013821282A091E705B091E805109781F4AB
:1055700020813181820F931F2091E5053091E6054E
:105580002817390751F5F093E605E093E50567C064
:10559000ED0120E030E0CE17DF0740F44A815B8167
:1055A0009E0141155105F1F0EA01F5CFD383C28385
:1055B00040815181840F951FC817D90759F48881FC
:1055C0009981840F951F0296918380838A819B81A4
:1055D000938382832115310529F4F093E805E09344
:1055E000E7053DC0E901FB83EA8349915991C40F66
:1055F000D51FEC17FD0761F480819181840F951F01
:105600000296E90199838883828193819B838A83AF
:10561000E0E0F0E012968D919C911397009719F0BD
:10562000FD01DC01F7CF8D919C9111979D012E5FBB
:105630003F4F820F931F2091E5053091E605281713
:10564000390769F4309729F41092E8051092E705BC
:1056500002C013821282B093E605A093E505DF91A4
:10566000CF91089581E090E0F8940C94282EFB01EE
:10567000DC0101900D920020E1F70895AEE0B0E06A
:10568000E4E4FBE20C94FF2D0D891E8986E08C83F7
:105690001A8309838FEF9FE79E838D83AE01475E58
:1056A0005F4F6F89788DCE0101960E94602BEF814C
:1056B000F885E00FF11F10822E96E4E00C941B2E6B
:1056C000ABE0B0E0E6E6FBE20C94F12D6C017B016F
:1056D0008A01FC0117821682838181FFCCC1CE0131
:1056E00001963C01F6019381F70193FD859193FFAB
:1056F00081917F01882309F4BAC1853239F493FD81
:10570000859193FF81917F01853229F4B60190E064
:105710000E94572DE7CF912C212C312CFFE1F3155E
:10572000D8F08B3279F038F4803279F08332A1F4FA
:10573000232D20611DC08D3261F0803369F4232D4B
:10574000216016C0832D8260382EE32DE4603E2E4A
:105750002AC0F32DF8601DC037FC2DC020ED280FA6
:105760002A3040F08E32B9F436FC81C1232D2064FA
:10577000322E19C036FE06C08AE0989E200D1124F4
:10578000922E11C0EAE02E9E200D1124222EF32D20
:10579000F0623F2E08C08C3621F4832D8068382EAD
:1057A00002C0883641F4F70193FD859193FF819102
:1057B0007F018111B3CF982F9F7D9554933028F4AA
:1057C0000C5F1F4F9FE399830DC0833631F0833701
:1057D00071F0833509F059C021C0F80180818983B7
:1057E0000E5F1F4F88248394912C530113C028010E
:1057F000F2E04F0E511CF801A080B18036FE03C0CC
:10580000692D70E002C06FEF7FEFC5010E944C2D43
:105810004C018201F32DFF773F2E16C0280122E0B4
:10582000420E511CF801A080B18036FE03C0692DE4
:1058300070E002C06FEF7FEFC5010E94412D4C0167
:10584000F32DF0683F2E820133FC1BC0822D90E0C7
:1058500088169906B0F4B60180E290E00E94572DB8
:105860002A94F4CFF50137FC859137FE81915F01D1
:10587000B60190E00E94572D21102A9421E0821A4F
:1058800091088114910471F7E8C0843611F08936CB
:1058900041F5F80137FE07C06081718182819381F3
:1058A0000C5F1F4F08C060817181072E000C880BB0
:1058B000990B0E5F1F4FF32DFF763F2E97FF09C008
:1058C00090958095709561957F4F8F4F9F4FF068B1
:1058D0003F2E2AE030E0A3010E94932D882E8618E7
:1058E00045C0853731F4232D2F7EB22E2AE030E0DB
:1058F00025C0932D997FB92E8F36C1F018F48835C5
:1059000079F0B5C0803719F0883721F0B0C0E92FA1
:10591000E061BE2EB4FE0DC0FB2DF460BF2E09C0A9
:1059200034FE0AC0292F2660B22E06C028E030E0DF
:1059300005C020E130E002C020E132E0F801B7FE0E
:1059400007C060817181828193810C5F1F4F06C007
:105950006081718180E090E00E5F1F4FA3010E9483
:10596000932D882E8618FB2DFF773F2E36FE0DC017
:10597000232D2E7FA22E891458F434FE0BC032FC46
:1059800009C0832D8E7EA82E05C0B82CA32C03C081
:10599000B82C01C0B92CA4FE0FC0FE01E80DF11D0A
:1059A0008081803321F49A2D997EA92E09C0A2FE10
:1059B00006C0B394B39404C08A2D867809F0B394DA
:1059C000A3FC11C0A0FE06C0B21488F4280C922CCF
:1059D0009B180EC0B21460F4B60180E290E00E9401
:1059E000572DB394F7CFB21418F42B1802C0982C8B
:1059F000212CA4FE10C0B60180E390E00E94572D38
:105A0000A2FE17C0A1FC03C088E790E002C088E5B1
:105A100090E0B6010CC08A2D867859F0A1FE02C034
:105A20008BE201C080E2A7FC8DE2B60190E00E940B
:105A3000572D891438F4B60180E390E00E94572D69
:105A40009A94F7CF8A94F301E80DF11D8081B60195
:105A500090E00E94572D8110F5CF222009F442CE0C
:105A6000B60180E290E00E94572D2A94F6CFF6010D
:105A70008681978102C08FEF9FEF2B96E2E10C9415
:105A80000D2EFC010590615070400110D8F78095F3
:105A900090958E0F9F1F0895FC01615070400190FA
:105AA0000110D8F7809590958E0F9F1F08950F9342
:105AB0001F93CF93DF93FB01238121FD03C08FEF61
:105AC0009FEF2CC022FF16C046815781248135816B
:105AD0004217530744F4A081B1819D012F5F3F4FCE
